{
  "contractName": "CertfyToken",
  "abi": [
    {
      "constant": true,
      "inputs": [
        {
          "name": "tokenHolder",
          "type": "address"
        }
      ],
      "name": "balanceOf",
      "outputs": [
        {
          "name": "",
          "type": "uint256"
        }
      ],
      "payable": false,
      "stateMutability": "view",
      "type": "function"
    },
    {
      "constant": false,
      "inputs": [],
      "name": "pauseTransfers",
      "outputs": [],
      "payable": false,
      "stateMutability": "nonpayable",
      "type": "function"
    }
  ],
  "bytecode": "0x608060405234801561001057600080fd5b5060c98061001f6000396000f3fe6080604052348015600f57600080fd5b506004361060325760003560e01c806347af995714603757806370a0823114603f575b600080fd5b603d6094565b005b607e60048036036020811015605357600080fd5b81019080803573ffffffffffffffffffffffffffffffffffffffff1690602001909291905050506096565b6040518082815260200191505060405180910390f35b565b600091905056fea165627a7a723058209303fef04611bae9b528f5a1225f3ef4da492326368dae544804633cd93524f90029",
  "source": "pragma solidity^0.5.0;\n\nimport \"../lib/math/SafeMath.sol\";\n\n/** \n * @title Fee Pool\n * @author Yakko Majuri\n * @notice An ETH pool which receives funds (fees) from the DocumentRegistration contract and distributes to token holders via dividends\n*/\n\n\ncontract CertfyToken {\n\n    function balanceOf(address tokenHolder) public view returns (uint256) {}\n    function pauseTransfers() public {}\n\n}\n\ncontract FeePool {\n\n    // ERC777 token contract address\n    CertfyToken public token;\n\n    // Prevent overflow/underflow\n    using SafeMath for uint256;\n\n    // Establishes the size of the different pools\n    uint public currentPool;\n    uint public leftInCurrentPool;\n\n    // For funds deposited during a dividend payout period\n    uint public nextPool;\n\n    // Values in reality are '2 days' and '30 days', respectively\n    // Lower values for test purposes\n    uint constant payoutPeriod = 0;\n    uint constant dividendPayoutInterval = 1;\n\n    // Number of the current payout\n    uint payoutIndex;\n\n    // Coordinate payout time constraints\n    uint lastPayout;\n    uint payoutStart;\n    bool public payoutInSession;\n\n    // Total supply needed to determine the share of supply ownerd by each token holder\n    uint public tokenSupply;\n\n    // For contract initialization\n    bool tokenSet = false;\n\n    // Double mapping which ensure a user does not receive dividends twice for a given period\n    mapping(address => mapping(uint => bool)) receivedDividends;\n\n\n    constructor() public {\n        lastPayout = block.timestamp;\n    }\n\n    /** \n     * @notice Fallback function adds funds to the pool once they are received\n     * @dev Rolls funds over to the pool of the next period if they are deposited during a dividend payout\n     * This happens because some users may have already taken dividends out before more funds are added\n    */\n    function () external payable {}\n\n    /** \n     * @notice 'Switch' to activate dividend payout period\n     * @dev Deliberately left open for any address to call\n     * This prevents over-reliance on a centralizing agent to activate a payout\n     * If the conditions are met (regarding time), anyone can activate a payout\n    */\n    function activatePayout() external {\n        require(block.timestamp > (lastPayout + dividendPayoutInterval),\n        \"It is not time for Payout Period yet\");\n        require(!payoutInSession,\n        \"payout already happening\");\n        payoutInSession = true;\n        payoutStart = block.timestamp;\n        leftInCurrentPool = currentPool;\n        // token.pauseTransfers();\n    }\n\n    /** \n     * @notice 'Switch' to end dividend payout period\n     * @dev Deliberately left open for any address to call\n     * This prevents over-reliance on a centralizing agent to end a payout\n     * If the conditions are met (regarding time), anyone can end a payout period\n     * Incentive to end the period is starting the countdown to the new payout with a fresh pool\n     * @dev Dividends not collected roll over to the next period\n    */\n    function endPayoutPeriod() external {\n        /*\n        require(payoutInSession && (block.timestamp - payoutStart) > payoutPeriod,\n        \"Not ready to leave payout period yet\");\n        */\n        payoutInSession = false;\n        lastPayout = block.timestamp;\n        payoutStart = 0;\n        currentPool = leftInCurrentPool.add(nextPool);\n        nextPool = 0;\n        leftInCurrentPool = 0;\n        payoutIndex++;\n        // token.pauseTransfers();\n    }\n\n    /** \n     * @notice Allows users to withdraw their designated dividends for the period\n     * @dev dividendsAllocated is computed by the percentage of all tokens owned by a user\n     * multiplied by the total value of the pool in ETH\n     * @dev Users can only collect dividends once per period\n     * Dividends not collected will roll over to the pool of the next period\n     * @dev Users have t = payoutPeriod to withdraw their dividends before the payout \n     * period can be closed and their dividends roll over\n    */\n    function withdrawDividends() external {\n        require(!receivedDividends[msg.sender][payoutIndex],\n        \"User already withdrew dividends this period\");\n        require(payoutInSession, \"It is not a payout period yet\");\n        receivedDividends[msg.sender][payoutIndex] = true;\n        uint balance = token.balanceOf(msg.sender);\n        uint dividendsAllocated = currentPool.mul(balance)/tokenSupply;\n        leftInCurrentPool = leftInCurrentPool.sub(dividendsAllocated);\n        msg.sender.transfer(dividendsAllocated);\n    }\n\n    /** \n     * @notice Sets the CertfyToken contract address - Used for initialization\n    */\n    function setToken(address _token, uint _tokenSupply) public {\n        require(!tokenSet);\n        tokenSet = true;\n        token = CertfyToken(_token);\n        tokenSupply = _tokenSupply;\n    }\n\n    /** \n     * @notice Informs users when the next payout period can begin\n     * Can be used by a client to display a countdown\n    */\n    function nextPayoutPeriod() external view returns(uint) {\n        return (lastPayout + dividendPayoutInterval - block.timestamp);\n    }\n\n    /**\n     * @notice Updates the pool according to incoming deposits\n     * @dev This function should always be called by other contracts after an ETH transfer\n     */\n    function incrementPool() public {\n        if (payoutInSession) {\n            nextPool += (address(this).balance - currentPool - nextPool);\n        } else {\n            currentPool += (address(this).balance - currentPool);\n        }\n    }\n}",
  "sourcePath": "/Users/yakkomajuri/GitHub/bootcamp-finalproject/eth/contracts/FeePool.sol",
  "compiler": {
    "name": "solc",
    "version": "0.5.8+commit.23d335f2.Emscripten.clang"
  },
  "schemaVersion": "3.0.11",
  "updatedAt": "2019-07-31T06:09:23.743Z",
  "devdoc": {
    "author": "Yakko Majuri",
    "methods": {},
    "title": "Fee Pool"
  },
  "userdoc": {
    "methods": {},
    "notice": "An ETH pool which receives funds (fees) from the DocumentRegistration contract and distributes to token holders via dividends"
  }
}