{
  "contractName": "CertfyToken",
  "abi": [
    {
      "inputs": [
        {
          "name": "name",
          "type": "string"
        },
        {
          "name": "symbol",
          "type": "string"
        },
        {
          "name": "defaultOperators",
          "type": "address[]"
        },
        {
          "name": "_ownersContract",
          "type": "address"
        }
      ],
      "payable": false,
      "stateMutability": "nonpayable",
      "type": "constructor"
    },
    {
      "anonymous": false,
      "inputs": [
        {
          "indexed": true,
          "name": "from",
          "type": "address"
        },
        {
          "indexed": true,
          "name": "to",
          "type": "address"
        },
        {
          "indexed": false,
          "name": "value",
          "type": "uint256"
        }
      ],
      "name": "Transfer",
      "type": "event"
    },
    {
      "anonymous": false,
      "inputs": [
        {
          "indexed": true,
          "name": "owner",
          "type": "address"
        },
        {
          "indexed": true,
          "name": "spender",
          "type": "address"
        },
        {
          "indexed": false,
          "name": "value",
          "type": "uint256"
        }
      ],
      "name": "Approval",
      "type": "event"
    },
    {
      "anonymous": false,
      "inputs": [
        {
          "indexed": true,
          "name": "operator",
          "type": "address"
        },
        {
          "indexed": true,
          "name": "from",
          "type": "address"
        },
        {
          "indexed": true,
          "name": "to",
          "type": "address"
        },
        {
          "indexed": false,
          "name": "amount",
          "type": "uint256"
        },
        {
          "indexed": false,
          "name": "data",
          "type": "bytes"
        },
        {
          "indexed": false,
          "name": "operatorData",
          "type": "bytes"
        }
      ],
      "name": "Sent",
      "type": "event"
    },
    {
      "anonymous": false,
      "inputs": [
        {
          "indexed": true,
          "name": "operator",
          "type": "address"
        },
        {
          "indexed": true,
          "name": "to",
          "type": "address"
        },
        {
          "indexed": false,
          "name": "amount",
          "type": "uint256"
        },
        {
          "indexed": false,
          "name": "data",
          "type": "bytes"
        },
        {
          "indexed": false,
          "name": "operatorData",
          "type": "bytes"
        }
      ],
      "name": "Minted",
      "type": "event"
    },
    {
      "anonymous": false,
      "inputs": [
        {
          "indexed": true,
          "name": "operator",
          "type": "address"
        },
        {
          "indexed": true,
          "name": "from",
          "type": "address"
        },
        {
          "indexed": false,
          "name": "amount",
          "type": "uint256"
        },
        {
          "indexed": false,
          "name": "data",
          "type": "bytes"
        },
        {
          "indexed": false,
          "name": "operatorData",
          "type": "bytes"
        }
      ],
      "name": "Burned",
      "type": "event"
    },
    {
      "anonymous": false,
      "inputs": [
        {
          "indexed": true,
          "name": "operator",
          "type": "address"
        },
        {
          "indexed": true,
          "name": "tokenHolder",
          "type": "address"
        }
      ],
      "name": "AuthorizedOperator",
      "type": "event"
    },
    {
      "anonymous": false,
      "inputs": [
        {
          "indexed": true,
          "name": "operator",
          "type": "address"
        },
        {
          "indexed": true,
          "name": "tokenHolder",
          "type": "address"
        }
      ],
      "name": "RevokedOperator",
      "type": "event"
    },
    {
      "constant": true,
      "inputs": [],
      "name": "name",
      "outputs": [
        {
          "name": "",
          "type": "string"
        }
      ],
      "payable": false,
      "stateMutability": "view",
      "type": "function"
    },
    {
      "constant": true,
      "inputs": [],
      "name": "symbol",
      "outputs": [
        {
          "name": "",
          "type": "string"
        }
      ],
      "payable": false,
      "stateMutability": "view",
      "type": "function"
    },
    {
      "constant": true,
      "inputs": [],
      "name": "decimals",
      "outputs": [
        {
          "name": "",
          "type": "uint8"
        }
      ],
      "payable": false,
      "stateMutability": "pure",
      "type": "function"
    },
    {
      "constant": true,
      "inputs": [],
      "name": "granularity",
      "outputs": [
        {
          "name": "",
          "type": "uint256"
        }
      ],
      "payable": false,
      "stateMutability": "view",
      "type": "function"
    },
    {
      "constant": true,
      "inputs": [],
      "name": "totalSupply",
      "outputs": [
        {
          "name": "",
          "type": "uint256"
        }
      ],
      "payable": false,
      "stateMutability": "view",
      "type": "function"
    },
    {
      "constant": true,
      "inputs": [
        {
          "name": "tokenHolder",
          "type": "address"
        }
      ],
      "name": "balanceOf",
      "outputs": [
        {
          "name": "",
          "type": "uint256"
        }
      ],
      "payable": false,
      "stateMutability": "view",
      "type": "function"
    },
    {
      "constant": false,
      "inputs": [
        {
          "name": "recipient",
          "type": "address"
        },
        {
          "name": "amount",
          "type": "uint256"
        },
        {
          "name": "data",
          "type": "bytes"
        }
      ],
      "name": "send",
      "outputs": [],
      "payable": false,
      "stateMutability": "nonpayable",
      "type": "function"
    },
    {
      "constant": false,
      "inputs": [
        {
          "name": "recipient",
          "type": "address"
        },
        {
          "name": "amount",
          "type": "uint256"
        }
      ],
      "name": "transfer",
      "outputs": [
        {
          "name": "",
          "type": "bool"
        }
      ],
      "payable": false,
      "stateMutability": "nonpayable",
      "type": "function"
    },
    {
      "constant": false,
      "inputs": [
        {
          "name": "amount",
          "type": "uint256"
        },
        {
          "name": "data",
          "type": "bytes"
        }
      ],
      "name": "burn",
      "outputs": [],
      "payable": false,
      "stateMutability": "nonpayable",
      "type": "function"
    },
    {
      "constant": true,
      "inputs": [
        {
          "name": "operator",
          "type": "address"
        },
        {
          "name": "tokenHolder",
          "type": "address"
        }
      ],
      "name": "isOperatorFor",
      "outputs": [
        {
          "name": "",
          "type": "bool"
        }
      ],
      "payable": false,
      "stateMutability": "view",
      "type": "function"
    },
    {
      "constant": false,
      "inputs": [
        {
          "name": "operator",
          "type": "address"
        }
      ],
      "name": "authorizeOperator",
      "outputs": [],
      "payable": false,
      "stateMutability": "nonpayable",
      "type": "function"
    },
    {
      "constant": false,
      "inputs": [
        {
          "name": "operator",
          "type": "address"
        }
      ],
      "name": "revokeOperator",
      "outputs": [],
      "payable": false,
      "stateMutability": "nonpayable",
      "type": "function"
    },
    {
      "constant": true,
      "inputs": [],
      "name": "defaultOperators",
      "outputs": [
        {
          "name": "",
          "type": "address[]"
        }
      ],
      "payable": false,
      "stateMutability": "view",
      "type": "function"
    },
    {
      "constant": false,
      "inputs": [
        {
          "name": "sender",
          "type": "address"
        },
        {
          "name": "recipient",
          "type": "address"
        },
        {
          "name": "amount",
          "type": "uint256"
        },
        {
          "name": "data",
          "type": "bytes"
        },
        {
          "name": "operatorData",
          "type": "bytes"
        }
      ],
      "name": "operatorSend",
      "outputs": [],
      "payable": false,
      "stateMutability": "nonpayable",
      "type": "function"
    },
    {
      "constant": false,
      "inputs": [
        {
          "name": "account",
          "type": "address"
        },
        {
          "name": "amount",
          "type": "uint256"
        },
        {
          "name": "data",
          "type": "bytes"
        },
        {
          "name": "operatorData",
          "type": "bytes"
        }
      ],
      "name": "operatorBurn",
      "outputs": [],
      "payable": false,
      "stateMutability": "nonpayable",
      "type": "function"
    },
    {
      "constant": true,
      "inputs": [
        {
          "name": "holder",
          "type": "address"
        },
        {
          "name": "spender",
          "type": "address"
        }
      ],
      "name": "allowance",
      "outputs": [
        {
          "name": "",
          "type": "uint256"
        }
      ],
      "payable": false,
      "stateMutability": "view",
      "type": "function"
    },
    {
      "constant": false,
      "inputs": [
        {
          "name": "spender",
          "type": "address"
        },
        {
          "name": "value",
          "type": "uint256"
        }
      ],
      "name": "approve",
      "outputs": [
        {
          "name": "",
          "type": "bool"
        }
      ],
      "payable": false,
      "stateMutability": "nonpayable",
      "type": "function"
    },
    {
      "constant": false,
      "inputs": [
        {
          "name": "holder",
          "type": "address"
        },
        {
          "name": "recipient",
          "type": "address"
        },
        {
          "name": "amount",
          "type": "uint256"
        }
      ],
      "name": "transferFrom",
      "outputs": [
        {
          "name": "",
          "type": "bool"
        }
      ],
      "payable": false,
      "stateMutability": "nonpayable",
      "type": "function"
    },
    {
      "constant": false,
      "inputs": [],
      "name": "changeBurnPermissions",
      "outputs": [],
      "payable": false,
      "stateMutability": "nonpayable",
      "type": "function"
    },
    {
      "constant": false,
      "inputs": [
        {
          "name": "_newAllocation",
          "type": "uint256"
        }
      ],
      "name": "setTokenAllocation",
      "outputs": [],
      "payable": false,
      "stateMutability": "nonpayable",
      "type": "function"
    },
    {
      "constant": false,
      "inputs": [
        {
          "name": "account",
          "type": "address"
        }
      ],
      "name": "distributeTokens",
      "outputs": [
        {
          "name": "",
          "type": "bool"
        }
      ],
      "payable": false,
      "stateMutability": "nonpayable",
      "type": "function"
    },
    {
      "constant": false,
      "inputs": [],
      "name": "pauseTransfers",
      "outputs": [],
      "payable": false,
      "stateMutability": "nonpayable",
      "type": "function"
    },
    {
      "constant": false,
      "inputs": [
        {
          "name": "_contract",
          "type": "address"
        }
      ],
      "name": "setPoolAddress",
      "outputs": [],
      "payable": false,
      "stateMutability": "nonpayable",
      "type": "function"
    },
    {
      "constant": false,
      "inputs": [
        {
          "name": "_contract",
          "type": "address"
        }
      ],
      "name": "setDocumentRegistration",
      "outputs": [],
      "payable": false,
      "stateMutability": "nonpayable",
      "type": "function"
    }
  ],
  "bytecode": "0x6080604052731820a4b7618bde71dce8cdc73aab6c95905fad24600160006101000a81548173ffffffffffffffffffffffffffffffffffffffff021916908373ffffffffffffffffffffffffffffffffffffffff16021790555062989680600355629896806004556103e86005556000600860006101000a81548160ff0219169083151502179055503480156200009557600080fd5b5060405162003b2438038062003b2483398101806040526080811015620000bb57600080fd5b810190808051640100000000811115620000d457600080fd5b82810190506020810184811115620000eb57600080fd5b81518560018202830111640100000000821117156200010957600080fd5b505092919060200180516401000000008111156200012657600080fd5b828101905060208101848111156200013d57600080fd5b81518560018202830111640100000000821117156200015b57600080fd5b505092919060200180516401000000008111156200017857600080fd5b828101905060208101848111156200018f57600080fd5b8151856020820283011164010000000082111715620001ad57600080fd5b5050929190602001805190602001909291905050508360069080519060200190620001da92919062000562565b508260079080519060200190620001f392919062000562565b50806000806101000a81548173ffffffffffffffffffffffffffffffffffffffff021916908373ffffffffffffffffffffffffffffffffffffffff16021790555081600990805190602001906200024c929190620005e9565b5060008090505b600980549050811015620002ff576001600a6000600984815481106200027557fe5b9060005260206000200160009054906101000a900473ffffffffffffffffffffffffffffffffffffffff1673ffffffffffffffffffffffffffffffffffffffff1673ffffffffffffffffffffffffffffffffffffffff16815260200190815260200160002060006101000a81548160ff021916908315150217905550808060010191505062000253565b50600160009054906101000a900473ffffffffffffffffffffffffffffffffffffffff1673ffffffffffffffffffffffffffffffffffffffff166329965a1d3060405180807f455243373737546f6b656e000000000000000000000000000000000000000000815250600b0190506040518091039020306040518463ffffffff1660e01b8152600401808473ffffffffffffffffffffffffffffffffffffffff1673ffffffffffffffffffffffffffffffffffffffff1681526020018381526020018273ffffffffffffffffffffffffffffffffffffffff1673ffffffffffffffffffffffffffffffffffffffff1681526020019350505050600060405180830381600087803b1580156200041357600080fd5b505af115801562000428573d6000803e3d6000fd5b50505050600160009054906101000a900473ffffffffffffffffffffffffffffffffffffffff1673ffffffffffffffffffffffffffffffffffffffff166329965a1d3060405180807f4552433230546f6b656e00000000000000000000000000000000000000000000815250600a0190506040518091039020306040518463ffffffff1660e01b8152600401808473ffffffffffffffffffffffffffffffffffffffff1673ffffffffffffffffffffffffffffffffffffffff1681526020018381526020018273ffffffffffffffffffffffffffffffffffffffff1673ffffffffffffffffffffffffffffffffffffffff1681526020019350505050600060405180830381600087803b1580156200053f57600080fd5b505af115801562000554573d6000803e3d6000fd5b5050505050505050620006e6565b828054600181600116156101000203166002900490600052602060002090601f016020900481019282601f10620005a557805160ff1916838001178555620005d6565b82800160010185558215620005d6579182015b82811115620005d5578251825591602001919060010190620005b8565b5b509050620005e5919062000678565b5090565b82805482825590600052602060002090810192821562000665579160200282015b82811115620006645782518260006101000a81548173ffffffffffffffffffffffffffffffffffffffff021916908373ffffffffffffffffffffffffffffffffffffffff160217905550916020019190600101906200060a565b5b509050620006749190620006a0565b5090565b6200069d91905b80821115620006995760008160009055506001016200067f565b5090565b90565b620006e391905b80821115620006df57600081816101000a81549073ffffffffffffffffffffffffffffffffffffffff021916905550600101620006a7565b5090565b90565b61342e80620006f66000396000f3fe608060405234801561001057600080fd5b50600436106101585760003560e01c806370a08231116100c3578063d95b63711161007c578063d95b6371146107ad578063dd62ed3e14610829578063e9e15b4f146108a1578063fad8b32a146108e5578063fc673c4f14610929578063fe9d930314610a2157610158565b806370a0823114610529578063959b8c3f1461058157806395d89b41146105c55780639bd9bbc614610648578063a9059cbb146106eb578063b1d17c981461075157610158565b80634505595911610115578063450559591461036d57806347af9957146103b15780634b7afbc6146103bb578063556f0dc7146103e95780636125d1491461040757806362ad1b831461041157610158565b806306e485381461015d57806306fdde03146101bc578063095ea7b31461023f57806318160ddd146102a557806323b872dd146102c3578063313ce56714610349575b600080fd5b610165610aa4565b6040518080602001828103825283818151815260200191508051906020019060200280838360005b838110156101a857808201518184015260208101905061018d565b505050509050019250505060405180910390f35b6101c4610b32565b6040518080602001828103825283818151815260200191508051906020019080838360005b838110156102045780820151818401526020810190506101e9565b50505050905090810190601f1680156102315780820380516001836020036101000a031916815260200191505b509250505060405180910390f35b61028b6004803603604081101561025557600080fd5b81019080803573ffffffffffffffffffffffffffffffffffffffff16906020019092919080359060200190929190505050610bd4565b604051808215151515815260200191505060405180910390f35b6102ad610bf0565b6040518082815260200191505060405180910390f35b61032f600480360360608110156102d957600080fd5b81019080803573ffffffffffffffffffffffffffffffffffffffff169060200190929190803573ffffffffffffffffffffffffffffffffffffffff16906020019092919080359060200190929190505050610bfa565b604051808215151515815260200191505060405180910390f35b610351610e37565b604051808260ff1660ff16815260200191505060405180910390f35b6103af6004803603602081101561038357600080fd5b81019080803573ffffffffffffffffffffffffffffffffffffffff169060200190929190505050610e40565b005b6103b9610f66565b005b6103e7600480360360208110156103d157600080fd5b81019080803590602001909291905050506110ce565b005b6103f16111ba565b6040518082815260200191505060405180910390f35b61040f6111c3565b005b610527600480360360a081101561042757600080fd5b81019080803573ffffffffffffffffffffffffffffffffffffffff169060200190929190803573ffffffffffffffffffffffffffffffffffffffff169060200190929190803590602001909291908035906020019064010000000081111561048e57600080fd5b8201836020820111156104a057600080fd5b803590602001918460018302840111640100000000831117156104c257600080fd5b9091929391929390803590602001906401000000008111156104e357600080fd5b8201836020820111156104f557600080fd5b8035906020019184600183028401116401000000008311171561051757600080fd5b90919293919293905050506112d1565b005b61056b6004803603602081101561053f57600080fd5b81019080803573ffffffffffffffffffffffffffffffffffffffff1690602001909291905050506113d1565b6040518082815260200191505060405180910390f35b6105c36004803603602081101561059757600080fd5b81019080803573ffffffffffffffffffffffffffffffffffffffff16906020019092919050505061141a565b005b6105cd611675565b6040518080602001828103825283818151815260200191508051906020019080838360005b8381101561060d5780820151818401526020810190506105f2565b50505050905090810190601f16801561063a5780820380516001836020036101000a031916815260200191505b509250505060405180910390f35b6106e96004803603606081101561065e57600080fd5b81019080803573ffffffffffffffffffffffffffffffffffffffff16906020019092919080359060200190929190803590602001906401000000008111156106a557600080fd5b8201836020820111156106b757600080fd5b803590602001918460018302840111640100000000831117156106d957600080fd5b9091929391929390505050611717565b005b6107376004803603604081101561070157600080fd5b81019080803573ffffffffffffffffffffffffffffffffffffffff16906020019092919080359060200190929190505050611780565b604051808215151515815260200191505060405180910390f35b6107936004803603602081101561076757600080fd5b81019080803573ffffffffffffffffffffffffffffffffffffffff16906020019092919050505061189d565b604051808215151515815260200191505060405180910390f35b61080f600480360360408110156107c357600080fd5b81019080803573ffffffffffffffffffffffffffffffffffffffff169060200190929190803573ffffffffffffffffffffffffffffffffffffffff169060200190929190505050611a38565b604051808215151515815260200191505060405180910390f35b61088b6004803603604081101561083f57600080fd5b81019080803573ffffffffffffffffffffffffffffffffffffffff169060200190929190803573ffffffffffffffffffffffffffffffffffffffff169060200190929190505050611be9565b6040518082815260200191505060405180910390f35b6108e3600480360360208110156108b757600080fd5b81019080803573ffffffffffffffffffffffffffffffffffffffff169060200190929190505050611c70565b005b610927600480360360208110156108fb57600080fd5b81019080803573ffffffffffffffffffffffffffffffffffffffff169060200190929190505050611d96565b005b610a1f6004803603608081101561093f57600080fd5b81019080803573ffffffffffffffffffffffffffffffffffffffff169060200190929190803590602001909291908035906020019064010000000081111561098657600080fd5b82018360208201111561099857600080fd5b803590602001918460018302840111640100000000831117156109ba57600080fd5b9091929391929390803590602001906401000000008111156109db57600080fd5b8201836020820111156109ed57600080fd5b80359060200191846001830284011164010000000083111715610a0f57600080fd5b9091929391929390505050611ff1565b005b610aa260048036036040811015610a3757600080fd5b810190808035906020019092919080359060200190640100000000811115610a5e57600080fd5b820183602082011115610a7057600080fd5b80359060200191846001830284011164010000000083111715610a9257600080fd5b9091929391929390505050612106565b005b60606009805480602002602001604051908101604052809291908181526020018280548015610b2857602002820191906000526020600020905b8160009054906101000a900473ffffffffffffffffffffffffffffffffffffffff1673ffffffffffffffffffffffffffffffffffffffff1681526020019060010190808311610ade575b5050505050905090565b606060068054600181600116156101000203166002900480601f016020809104026020016040519081016040528092919081815260200182805460018160011615610100020316600290048015610bca5780601f10610b9f57610100808354040283529160200191610bca565b820191906000526020600020905b815481529060010190602001808311610bad57829003601f168201915b5050505050905090565b600080339050610be5818585612184565b600191505092915050565b6000600354905090565b60008073ffffffffffffffffffffffffffffffffffffffff168373ffffffffffffffffffffffffffffffffffffffff161415610c81576040517f08c379a000000000000000000000000000000000000000000000000000000000815260040180806020018281038252602481526020018061336a6024913960400191505060405180910390fd5b600073ffffffffffffffffffffffffffffffffffffffff168473ffffffffffffffffffffffffffffffffffffffff161415610d07576040517f08c379a00000000000000000000000000000000000000000000000000000000081526004018080602001828103825260268152602001806133ba6026913960400191505060405180910390fd5b6000339050610d388186868660405180602001604052806000815250604051806020016040528060008152506122f5565b610d64818686866040518060200160405280600081525060405180602001604052806000815250612637565b610dfd8582610df886600d60008b73ffffffffffffffffffffffffffffffffffffffff1673ffffffffffffffffffffffffffffffffffffffff16815260200190815260200160002060008773ffffffffffffffffffffffffffffffffffffffff1673ffffffffffffffffffffffffffffffffffffffff1681526020019081526020016000205461292490919063ffffffff16565b612184565b610e2b81868686604051806020016040528060008152506040518060200160405280600081525060006129ad565b60019150509392505050565b60006012905090565b6000809054906101000a900473ffffffffffffffffffffffffffffffffffffffff1673ffffffffffffffffffffffffffffffffffffffff1663fd8b84b1336040518263ffffffff1660e01b8152600401808273ffffffffffffffffffffffffffffffffffffffff1673ffffffffffffffffffffffffffffffffffffffff16815260200191505060206040518083038186803b158015610ede57600080fd5b505afa158015610ef2573d6000803e3d6000fd5b505050506040513d6020811015610f0857600080fd5b8101908080519060200190929190505050610f2257600080fd5b80600f60006101000a81548173ffffffffffffffffffffffffffffffffffffffff021916908373ffffffffffffffffffffffffffffffffffffffff16021790555050565b6000809054906101000a900473ffffffffffffffffffffffffffffffffffffffff1673ffffffffffffffffffffffffffffffffffffffff1663fd8b84b1336040518263ffffffff1660e01b8152600401808273ffffffffffffffffffffffffffffffffffffffff1673ffffffffffffffffffffffffffffffffffffffff16815260200191505060206040518083038186803b15801561100457600080fd5b505afa158015611018573d6000803e3d6000fd5b505050506040513d602081101561102e57600080fd5b810190808051906020019092919050505061104857600080fd5b600e60019054906101000a900473ffffffffffffffffffffffffffffffffffffffff1673ffffffffffffffffffffffffffffffffffffffff163373ffffffffffffffffffffffffffffffffffffffff16146110a257600080fd5b600e60009054906101000a900460ff1615600e60006101000a81548160ff021916908315150217905550565b6000809054906101000a900473ffffffffffffffffffffffffffffffffffffffff1673ffffffffffffffffffffffffffffffffffffffff1663fd8b84b1336040518263ffffffff1660e01b8152600401808273ffffffffffffffffffffffffffffffffffffffff1673ffffffffffffffffffffffffffffffffffffffff16815260200191505060206040518083038186803b15801561116c57600080fd5b505afa158015611180573d6000803e3d6000fd5b505050506040513d602081101561119657600080fd5b81019080805190602001909291905050506111b057600080fd5b8060058190555050565b60006001905090565b6000809054906101000a900473ffffffffffffffffffffffffffffffffffffffff1673ffffffffffffffffffffffffffffffffffffffff1663fd8b84b1336040518263ffffffff1660e01b8152600401808273ffffffffffffffffffffffffffffffffffffffff1673ffffffffffffffffffffffffffffffffffffffff16815260200191505060206040518083038186803b15801561126157600080fd5b505afa158015611275573d6000803e3d6000fd5b505050506040513d602081101561128b57600080fd5b81019080805190602001909291905050506112a557600080fd5b600860009054906101000a900460ff1615600860006101000a81548160ff021916908315150217905550565b6112db3388611a38565b611330576040517f08c379a000000000000000000000000000000000000000000000000000000000815260040180806020018281038252602c81526020018061338e602c913960400191505060405180910390fd5b6113c83388888888888080601f016020809104026020016040519081016040528093929190818152602001838380828437600081840152601f19601f8201169050808301925050505050505087878080601f016020809104026020016040519081016040528093929190818152602001838380828437600081840152601f19601f820116905080830192505050505050506001612d70565b50505050505050565b6000600260008373ffffffffffffffffffffffffffffffffffffffff1673ffffffffffffffffffffffffffffffffffffffff168152602001908152602001600020549050919050565b8073ffffffffffffffffffffffffffffffffffffffff163373ffffffffffffffffffffffffffffffffffffffff16141561149f576040517f08c379a00000000000000000000000000000000000000000000000000000000081526004018080602001828103825260248152602001806132d86024913960400191505060405180910390fd5b600a60008273ffffffffffffffffffffffffffffffffffffffff1673ffffffffffffffffffffffffffffffffffffffff16815260200190815260200160002060009054906101000a900460ff161561158257600c60003373ffffffffffffffffffffffffffffffffffffffff1673ffffffffffffffffffffffffffffffffffffffff16815260200190815260200160002060008273ffffffffffffffffffffffffffffffffffffffff1673ffffffffffffffffffffffffffffffffffffffff16815260200190815260200160002060006101000a81549060ff0219169055611618565b6001600b60003373ffffffffffffffffffffffffffffffffffffffff1673ffffffffffffffffffffffffffffffffffffffff16815260200190815260200160002060008373ffffffffffffffffffffffffffffffffffffffff1673ffffffffffffffffffffffffffffffffffffffff16815260200190815260200160002060006101000a81548160ff0219169083151502179055505b3373ffffffffffffffffffffffffffffffffffffffff168173ffffffffffffffffffffffffffffffffffffffff167ff4caeb2d6ca8932a215a353d0703c326ec2d81fc68170f320eb2ab49e9df61f960405160405180910390a350565b606060078054600181600116156101000203166002900480601f01602080910402602001604051908101604052809291908181526020018280546001816001161561010002031660029004801561170d5780601f106116e25761010080835404028352916020019161170d565b820191906000526020600020905b8154815290600101906020018083116116f057829003601f168201915b5050505050905090565b61177a3333868686868080601f016020809104026020016040519081016040528093929190818152602001838380828437600081840152601f19601f82011690508083019250505050505050604051806020016040528060008152506001612d70565b50505050565b60008073ffffffffffffffffffffffffffffffffffffffff168373ffffffffffffffffffffffffffffffffffffffff161415611807576040517f08c379a000000000000000000000000000000000000000000000000000000000815260040180806020018281038252602481526020018061336a6024913960400191505060405180910390fd5b60003390506118388182868660405180602001604052806000815250604051806020016040528060008152506122f5565b611864818286866040518060200160405280600081525060405180602001604052806000815250612637565b61189281828686604051806020016040528060008152506040518060200160405280600081525060006129ad565b600191505092915050565b6000600f60009054906101000a900473ffffffffffffffffffffffffffffffffffffffff1673ffffffffffffffffffffffffffffffffffffffff163373ffffffffffffffffffffffffffffffffffffffff1614611945576040517f08c379a000000000000000000000000000000000000000000000000000000000815260040180806020018281038252603a81526020018061325a603a913960400191505060405180910390fd5b611999600554600260008573ffffffffffffffffffffffffffffffffffffffff1673ffffffffffffffffffffffffffffffffffffffff16815260200190815260200160002054612ecd90919063ffffffff16565b600260008473ffffffffffffffffffffffffffffffffffffffff1673ffffffffffffffffffffffffffffffffffffffff168152602001908152602001600020819055506119f360055460045461292490919063ffffffff16565b6004819055506000339050611a2e818285600554604051806020016040528060008152506040518060200160405280600081525060006129ad565b6001915050919050565b60008173ffffffffffffffffffffffffffffffffffffffff168373ffffffffffffffffffffffffffffffffffffffff161480611b505750600a60008473ffffffffffffffffffffffffffffffffffffffff1673ffffffffffffffffffffffffffffffffffffffff16815260200190815260200160002060009054906101000a900460ff168015611b4f5750600c60008373ffffffffffffffffffffffffffffffffffffffff1673ffffffffffffffffffffffffffffffffffffffff16815260200190815260200160002060008473ffffffffffffffffffffffffffffffffffffffff1673ffffffffffffffffffffffffffffffffffffffff16815260200190815260200160002060009054906101000a900460ff16155b5b80611be15750600b60008373ffffffffffffffffffffffffffffffffffffffff1673ffffffffffffffffffffffffffffffffffffffff16815260200190815260200160002060008473ffffffffffffffffffffffffffffffffffffffff1673ffffffffffffffffffffffffffffffffffffffff16815260200190815260200160002060009054906101000a900460ff165b905092915050565b6000600d60008473ffffffffffffffffffffffffffffffffffffffff1673ffffffffffffffffffffffffffffffffffffffff16815260200190815260200160002060008373ffffffffffffffffffffffffffffffffffffffff1673ffffffffffffffffffffffffffffffffffffffff16815260200190815260200160002054905092915050565b6000809054906101000a900473ffffffffffffffffffffffffffffffffffffffff1673ffffffffffffffffffffffffffffffffffffffff1663fd8b84b1336040518263ffffffff1660e01b8152600401808273ffffffffffffffffffffffffffffffffffffffff1673ffffffffffffffffffffffffffffffffffffffff16815260200191505060206040518083038186803b158015611d0e57600080fd5b505afa158015611d22573d6000803e3d6000fd5b505050506040513d6020811015611d3857600080fd5b8101908080519060200190929190505050611d5257600080fd5b80600e60016101000a81548173ffffffffffffffffffffffffffffffffffffffff021916908373ffffffffffffffffffffffffffffffffffffffff16021790555050565b3373ffffffffffffffffffffffffffffffffffffffff168173ffffffffffffffffffffffffffffffffffffffff161415611e1b576040517f08c379a00000000000000000000000000000000000000000000000000000000081526004018080602001828103825260218152602001806132fc6021913960400191505060405180910390fd5b600a60008273ffffffffffffffffffffffffffffffffffffffff1673ffffffffffffffffffffffffffffffffffffffff16815260200190815260200160002060009054906101000a900460ff1615611f07576001600c60003373ffffffffffffffffffffffffffffffffffffffff1673ffffffffffffffffffffffffffffffffffffffff16815260200190815260200160002060008373ffffffffffffffffffffffffffffffffffffffff1673ffffffffffffffffffffffffffffffffffffffff16815260200190815260200160002060006101000a81548160ff021916908315150217905550611f94565b600b60003373ffffffffffffffffffffffffffffffffffffffff1673ffffffffffffffffffffffffffffffffffffffff16815260200190815260200160002060008273ffffffffffffffffffffffffffffffffffffffff1673ffffffffffffffffffffffffffffffffffffffff16815260200190815260200160002060006101000a81549060ff02191690555b3373ffffffffffffffffffffffffffffffffffffffff168173ffffffffffffffffffffffffffffffffffffffff167f50546e66e5f44d728365dc3908c63bc5cfeeab470722c1677e3073a6ac294aa160405160405180910390a350565b600860009054906101000a900460ff1661200a57600080fd5b6120143387611a38565b612069576040517f08c379a000000000000000000000000000000000000000000000000000000000815260040180806020018281038252602c81526020018061338e602c913960400191505060405180910390fd5b6120fe33878787878080601f016020809104026020016040519081016040528093929190818152602001838380828437600081840152601f19601f8201169050808301925050505050505086868080601f016020809104026020016040519081016040528093929190818152602001838380828437600081840152601f19601f82011690508083019250505050505050612f55565b505050505050565b600860009054906101000a900460ff1661211f57600080fd5b61217f33338585858080601f016020809104026020016040519081016040528093929190818152602001838380828437600081840152601f19601f8201169050808301925050505050505060405180602001604052806000815250612f55565b505050565b600073ffffffffffffffffffffffffffffffffffffffff168273ffffffffffffffffffffffffffffffffffffffff16141561220a576040517f08c379a00000000000000000000000000000000000000000000000000000000081526004018080602001828103825260238152602001806133e06023913960400191505060405180910390fd5b80600d60008573ffffffffffffffffffffffffffffffffffffffff1673ffffffffffffffffffffffffffffffffffffffff16815260200190815260200160002060008473ffffffffffffffffffffffffffffffffffffffff1673ffffffffffffffffffffffffffffffffffffffff168152602001908152602001600020819055508173ffffffffffffffffffffffffffffffffffffffff168373ffffffffffffffffffffffffffffffffffffffff167f8c5be1e5ebec7d5bd14f71427d1e84f3dd0314c0f7b2291e5b200ac8c7c3b925836040518082815260200191505060405180910390a3505050565b600e60009054906101000a900460ff161561230f57600080fd5b6000600160009054906101000a900473ffffffffffffffffffffffffffffffffffffffff1673ffffffffffffffffffffffffffffffffffffffff1663aabbb8ca877f29ddb589b1fb5fc7cf394961c1adf5f8c6454761adf795e67fe149f658abe89560001b6040518363ffffffff1660e01b8152600401808373ffffffffffffffffffffffffffffffffffffffff1673ffffffffffffffffffffffffffffffffffffffff1681526020018281526020019250505060206040518083038186803b1580156123db57600080fd5b505afa1580156123ef573d6000803e3d6000fd5b505050506040513d602081101561240557600080fd5b81019080805190602001909291905050509050600073ffffffffffffffffffffffffffffffffffffffff168173ffffffffffffffffffffffffffffffffffffffff161461262e578073ffffffffffffffffffffffffffffffffffffffff166375ab97828888888888886040518763ffffffff1660e01b8152600401808773ffffffffffffffffffffffffffffffffffffffff1673ffffffffffffffffffffffffffffffffffffffff1681526020018673ffffffffffffffffffffffffffffffffffffffff1673ffffffffffffffffffffffffffffffffffffffff1681526020018573ffffffffffffffffffffffffffffffffffffffff1673ffffffffffffffffffffffffffffffffffffffff1681526020018481526020018060200180602001838103835285818151815260200191508051906020019080838360005b8381101561255d578082015181840152602081019050612542565b50505050905090810190601f16801561258a5780820380516001836020036101000a031916815260200191505b50838103825284818151815260200191508051906020019080838360005b838110156125c35780820151818401526020810190506125a8565b50505050905090810190601f1680156125f05780820380516001836020036101000a031916815260200191505b5098505050505050505050600060405180830381600087803b15801561261557600080fd5b505af1158015612629573d6000803e3d6000fd5b505050505b50505050505050565b61268983600260008873ffffffffffffffffffffffffffffffffffffffff1673ffffffffffffffffffffffffffffffffffffffff1681526020019081526020016000205461292490919063ffffffff16565b600260008773ffffffffffffffffffffffffffffffffffffffff1673ffffffffffffffffffffffffffffffffffffffff1681526020019081526020016000208190555061271e83600260008773ffffffffffffffffffffffffffffffffffffffff1673ffffffffffffffffffffffffffffffffffffffff16815260200190815260200160002054612ecd90919063ffffffff16565b600260008673ffffffffffffffffffffffffffffffffffffffff1673ffffffffffffffffffffffffffffffffffffffff168152602001908152602001600020819055508373ffffffffffffffffffffffffffffffffffffffff168573ffffffffffffffffffffffffffffffffffffffff168773ffffffffffffffffffffffffffffffffffffffff167f06b541ddaa720db2b10a4d0cdac39b8d360425fc073085fac19bc82614677987868686604051808481526020018060200180602001838103835285818151815260200191508051906020019080838360005b838110156128145780820151818401526020810190506127f9565b50505050905090810190601f1680156128415780820380516001836020036101000a031916815260200191505b50838103825284818151815260200191508051906020019080838360005b8381101561287a57808201518184015260208101905061285f565b50505050905090810190601f1680156128a75780820380516001836020036101000a031916815260200191505b509550505050505060405180910390a48373ffffffffffffffffffffffffffffffffffffffff168573ffffffffffffffffffffffffffffffffffffffff167fddf252ad1be2c89b69c2b068fc378daa952ba7f163c4a11628f55a4df523b3ef856040518082815260200191505060405180910390a3505050505050565b60008282111561299c576040517f08c379a000000000000000000000000000000000000000000000000000000000815260040180806020018281038252601e8152602001807f536166654d6174683a207375627472616374696f6e206f766572666c6f77000081525060200191505060405180910390fd5b600082840390508091505092915050565b600e60009054906101000a900460ff16156129c757600080fd5b6000600160009054906101000a900473ffffffffffffffffffffffffffffffffffffffff1673ffffffffffffffffffffffffffffffffffffffff1663aabbb8ca877fb281fc8c12954d22544db45de3159a39272895b169a852b314f9cc762e44c53b60001b6040518363ffffffff1660e01b8152600401808373ffffffffffffffffffffffffffffffffffffffff1673ffffffffffffffffffffffffffffffffffffffff1681526020018281526020019250505060206040518083038186803b158015612a9357600080fd5b505afa158015612aa7573d6000803e3d6000fd5b505050506040513d6020811015612abd57600080fd5b81019080805190602001909291905050509050600073ffffffffffffffffffffffffffffffffffffffff168173ffffffffffffffffffffffffffffffffffffffff1614612ce9578073ffffffffffffffffffffffffffffffffffffffff166223de298989898989896040518763ffffffff1660e01b8152600401808773ffffffffffffffffffffffffffffffffffffffff1673ffffffffffffffffffffffffffffffffffffffff1681526020018673ffffffffffffffffffffffffffffffffffffffff1673ffffffffffffffffffffffffffffffffffffffff1681526020018573ffffffffffffffffffffffffffffffffffffffff1673ffffffffffffffffffffffffffffffffffffffff1681526020018481526020018060200180602001838103835285818151815260200191508051906020019080838360005b83811015612c14578082015181840152602081019050612bf9565b50505050905090810190601f168015612c415780820380516001836020036101000a031916815260200191505b50838103825284818151815260200191508051906020019080838360005b83811015612c7a578082015181840152602081019050612c5f565b50505050905090810190601f168015612ca75780820380516001836020036101000a031916815260200191505b5098505050505050505050600060405180830381600087803b158015612ccc57600080fd5b505af1158015612ce0573d6000803e3d6000fd5b50505050612d66565b8115612d6557612d0e8673ffffffffffffffffffffffffffffffffffffffff16613246565b15612d64576040517f08c379a000000000000000000000000000000000000000000000000000000000815260040180806020018281038252604d81526020018061331d604d913960600191505060405180910390fd5b5b5b5050505050505050565b600073ffffffffffffffffffffffffffffffffffffffff168673ffffffffffffffffffffffffffffffffffffffff161415612df6576040517f08c379a00000000000000000000000000000000000000000000000000000000081526004018080602001828103825260228152602001806132946022913960400191505060405180910390fd5b600073ffffffffffffffffffffffffffffffffffffffff168573ffffffffffffffffffffffffffffffffffffffff161415612e99576040517f08c379a00000000000000000000000000000000000000000000000000000000081526004018080602001828103825260208152602001807f4552433737373a2073656e6420746f20746865207a65726f206164647265737381525060200191505060405180910390fd5b612ea78787878787876122f5565b612eb5878787878787612637565b612ec4878787878787876129ad565b50505050505050565b600080828401905083811015612f4b576040517f08c379a000000000000000000000000000000000000000000000000000000000815260040180806020018281038252601b8152602001807f536166654d6174683a206164646974696f6e206f766572666c6f77000000000081525060200191505060405180910390fd5b8091505092915050565b600073ffffffffffffffffffffffffffffffffffffffff168473ffffffffffffffffffffffffffffffffffffffff161415612fdb576040517f08c379a00000000000000000000000000000000000000000000000000000000081526004018080602001828103825260228152602001806132b66022913960400191505060405180910390fd5b612fea858560008686866122f5565b612fff8360035461292490919063ffffffff16565b60038190555061305783600260008773ffffffffffffffffffffffffffffffffffffffff1673ffffffffffffffffffffffffffffffffffffffff1681526020019081526020016000205461292490919063ffffffff16565b600260008673ffffffffffffffffffffffffffffffffffffffff1673ffffffffffffffffffffffffffffffffffffffff168152602001908152602001600020819055508373ffffffffffffffffffffffffffffffffffffffff168573ffffffffffffffffffffffffffffffffffffffff167fa78a9be3a7b862d26933ad85fb11d80ef66b8f972d7cbba06621d583943a4098858585604051808481526020018060200180602001838103835285818151815260200191508051906020019080838360005b8381101561313657808201518184015260208101905061311b565b50505050905090810190601f1680156131635780820380516001836020036101000a031916815260200191505b50838103825284818151815260200191508051906020019080838360005b8381101561319c578082015181840152602081019050613181565b50505050905090810190601f1680156131c95780820380516001836020036101000a031916815260200191505b509550505050505060405180910390a3600073ffffffffffffffffffffffffffffffffffffffff168473ffffffffffffffffffffffffffffffffffffffff167fddf252ad1be2c89b69c2b068fc378daa952ba7f163c4a11628f55a4df523b3ef856040518082815260200191505060405180910390a35050505050565b600080823b90506000811191505091905056fe4f6e6c7920446f63756d656e7420526567697374726174696f6e20636f6e74726163742063616e2063616c6c20746869732066756e6374696f6e4552433737373a2073656e642066726f6d20746865207a65726f20616464726573734552433737373a206275726e2066726f6d20746865207a65726f20616464726573734552433737373a20617574686f72697a696e672073656c66206173206f70657261746f724552433737373a207265766f6b696e672073656c66206173206f70657261746f724552433737373a20746f6b656e20726563697069656e7420636f6e747261637420686173206e6f20696d706c656d656e74657220666f7220455243373737546f6b656e73526563697069656e744552433737373a207472616e7366657220746f20746865207a65726f20616464726573734552433737373a2063616c6c6572206973206e6f7420616e206f70657261746f7220666f7220686f6c6465724552433737373a207472616e736665722066726f6d20746865207a65726f20616464726573734552433737373a20617070726f766520746f20746865207a65726f2061646472657373a165627a7a723058209fc93272b04d6ebe5627d555bfa5a2b14435cc6a6359888c7e25120f362946bd0029",
  "source": "pragma solidity ^0.5.0;\n\nimport \"../lib/token/ERC777/IERC777.sol\";\nimport \"../lib/token/ERC777/IERC777Recipient.sol\";\nimport \"../lib/token/ERC777/IERC777Sender.sol\";\nimport \"../lib/token/ERC20/IERC20.sol\";\nimport \"../lib/math/SafeMath.sol\";\nimport \"../lib/utils/Address.sol\";\nimport \"../lib/introspection/IERC1820Registry.sol\";\n\n\ncontract Owners {\n\n    function getOwners(address _ad) public view returns(bool) {}\n\n}\n\n/**\n * @dev Implementation of the `IERC777` interface.\n *\n * This implementation is agnostic to the way tokens are created. This means\n * that a supply mechanism has to be added in a derived contract using `_mint`.\n *\n * Support for ERC20 is included in this contract, as specified by the EIP: both\n * the ERC777 and ERC20 interfaces can be safely used when interacting with it.\n * Both `IERC777.Sent` and `IERC20.Transfer` events are emitted on token\n * movements.\n *\n * Additionally, the `granularity` value is hard-coded to `1`, meaning that there\n * are no special restrictions in the amount of tokens that created, moved, or\n * destroyed. This makes integration with ERC20 applications seamless.\n */\ncontract CertfyToken is IERC777, IERC20 {\n\n    using SafeMath for uint256;\n    using Address for address;\n\n    Owners ownersContract;\n\n    modifier onlyOwners() {\n        require(ownersContract.getOwners(msg.sender));\n        _;\n    }\n\n    IERC1820Registry private _erc1820 = IERC1820Registry(0x1820a4B7618BdE71Dce8cdc73aAB6C95905faD24);\n\n    mapping(address => uint256) private _balances;\n\n    uint256 private _totalSupply = 10000000;\n    uint tokensLeft = 10000000;\n    uint allocation = 1000;\n\n    string private _name;\n    string private _symbol;\n\n    bool burningAllowed = false;\n\n\n    // We inline the result of the following hashes because Solidity doesn't resolve them at compile time.\n    // See https://github.com/ethereum/solidity/issues/4024.\n\n    // keccak256(\"ERC777TokensSender\")\n    bytes32 constant private TOKENS_SENDER_INTERFACE_HASH =\n        0x29ddb589b1fb5fc7cf394961c1adf5f8c6454761adf795e67fe149f658abe895;\n\n    // keccak256(\"ERC777TokensRecipient\")\n    bytes32 constant private TOKENS_RECIPIENT_INTERFACE_HASH =\n        0xb281fc8c12954d22544db45de3159a39272895b169a852b314f9cc762e44c53b;\n\n    // This isn't ever read from - it's only used to respond to the defaultOperators query.\n    address[] private _defaultOperatorsArray;\n\n    // Immutable, but accounts may revoke them (tracked in __revokedDefaultOperators).\n    mapping(address => bool) private _defaultOperators;\n\n    // For each account, a mapping of its operators and revoked default operators.\n    mapping(address => mapping(address => bool)) private _operators;\n    mapping(address => mapping(address => bool)) private _revokedDefaultOperators;\n\n    // ERC20-allowances\n    mapping (address => mapping (address => uint256)) private _allowances;\n\n    bool transfersPaused;\n\n    address feePoolAddress;\n    address documentRegistrationAddress; \n\n    /**\n     * @dev `defaultOperators` may be an empty array.\n     */\n    constructor(\n        string memory name,\n        string memory symbol,\n        address[] memory defaultOperators,\n        address _ownersContract\n    ) public {\n        _name = name;\n        _symbol = symbol;\n        ownersContract = Owners(_ownersContract);\n        _defaultOperatorsArray = defaultOperators;\n        for (uint256 i = 0; i < _defaultOperatorsArray.length; i++) {\n            _defaultOperators[_defaultOperatorsArray[i]] = true;\n        }\n\n        // register interfaces\n        _erc1820.setInterfaceImplementer(address(this), keccak256(\"ERC777Token\"), address(this));\n        _erc1820.setInterfaceImplementer(address(this), keccak256(\"ERC20Token\"), address(this));\n    }\n\n    /**\n     * @dev See `IERC777.name`.\n     */\n    function name() public view returns (string memory) {\n        return _name;\n    }\n\n    /**\n     * @dev See `IERC777.symbol`.\n     */\n    function symbol() public view returns (string memory) {\n        return _symbol;\n    }\n\n    /**\n     * @dev See `ERC20Detailed.decimals`.\n     *\n     * Always returns 18, as per the\n     * [ERC777 EIP](https://eips.ethereum.org/EIPS/eip-777#backward-compatibility).\n     */\n    function decimals() public pure returns (uint8) {\n        return 18;\n    }\n\n    /**\n     * @dev See `IERC777.granularity`.\n     *\n     * This implementation always returns `1`.\n     */\n    function granularity() public view returns (uint256) {\n        return 1;\n    }\n\n    /**\n     * @dev See `IERC777.totalSupply`.\n     */\n    function totalSupply() public view returns (uint256) {\n        return _totalSupply;\n    }\n\n    /**\n     * @dev Returns the amount of tokens owned by an account (`tokenHolder`).\n     */\n    function balanceOf(address tokenHolder) public view returns (uint256) {\n        return _balances[tokenHolder];\n    }\n\n    /**\n     * @dev See `IERC777.send`.\n     *\n     * Also emits a `Transfer` event for ERC20 compatibility.\n     */\n    function send(address recipient, uint256 amount, bytes calldata data) external {\n        _send(msg.sender, msg.sender, recipient, amount, data, \"\", true);\n    }\n\n    /**\n     * @dev See `IERC20.transfer`.\n     *\n     * Unlike `send`, `recipient` is _not_ required to implement the `tokensReceived`\n     * interface if it is a contract.\n     *\n     * Also emits a `Sent` event.\n     */\n    function transfer(address recipient, uint256 amount) external returns (bool) {\n        require(recipient != address(0), \"ERC777: transfer to the zero address\");\n\n        address from = msg.sender;\n\n        _callTokensToSend(from, from, recipient, amount, \"\", \"\");\n\n        _move(from, from, recipient, amount, \"\", \"\");\n\n        _callTokensReceived(from, from, recipient, amount, \"\", \"\", false);\n\n        return true;\n    }\n\n    /**\n     * @dev See `IERC777.burn`.\n     *\n     * Also emits a `Transfer` event for ERC20 compatibility.\n     */\n    function burn(uint256 amount, bytes calldata data) external {\n        require(burningAllowed);\n        _burn(msg.sender, msg.sender, amount, data, \"\");\n    }\n\n    /**\n     * @dev See `IERC777.isOperatorFor`.\n     */\n    function isOperatorFor(\n        address operator,\n        address tokenHolder\n    ) public view returns (bool) {\n        return operator == tokenHolder ||\n            (_defaultOperators[operator] && !_revokedDefaultOperators[tokenHolder][operator]) ||\n            _operators[tokenHolder][operator];\n    }\n\n    /**\n     * @dev See `IERC777.authorizeOperator`.\n     */\n    function authorizeOperator(address operator) external {\n        require(msg.sender != operator, \"ERC777: authorizing self as operator\");\n\n        if (_defaultOperators[operator]) {\n            delete _revokedDefaultOperators[msg.sender][operator];\n        } else {\n            _operators[msg.sender][operator] = true;\n        }\n\n        emit AuthorizedOperator(operator, msg.sender);\n    }\n\n    /**\n     * @dev See `IERC777.revokeOperator`.\n     */\n    function revokeOperator(address operator) external {\n        require(operator != msg.sender, \"ERC777: revoking self as operator\");\n\n        if (_defaultOperators[operator]) {\n            _revokedDefaultOperators[msg.sender][operator] = true;\n        } else {\n            delete _operators[msg.sender][operator];\n        }\n\n        emit RevokedOperator(operator, msg.sender);\n    }\n\n    /**\n     * @dev See `IERC777.defaultOperators`.\n     */\n    function defaultOperators() public view returns (address[] memory) {\n        return _defaultOperatorsArray;\n    }\n\n    /**\n     * @dev See `IERC777.operatorSend`.\n     *\n     * Emits `Sent` and `Transfer` events.\n     */\n    function operatorSend(\n        address sender,\n        address recipient,\n        uint256 amount,\n        bytes calldata data,\n        bytes calldata operatorData\n    )\n    external\n    {\n        require(isOperatorFor(msg.sender, sender), \"ERC777: caller is not an operator for holder\");\n        _send(msg.sender, sender, recipient, amount, data, operatorData, true);\n    }\n\n    /**\n     * @dev See `IERC777.operatorBurn`.\n     *\n     * Emits `Sent` and `Transfer` events.\n     */\n    function operatorBurn(address account, uint256 amount, bytes calldata data, bytes calldata operatorData) external {\n        require(burningAllowed);\n        require(isOperatorFor(msg.sender, account), \"ERC777: caller is not an operator for holder\");\n        _burn(msg.sender, account, amount, data, operatorData);\n    }\n\n    /**\n     * @dev See `IERC20.allowance`.\n     *\n     * Note that operator and allowance concepts are orthogonal: operators may\n     * not have allowance, and accounts with allowance may not be operators\n     * themselves.\n     */\n    function allowance(address holder, address spender) public view returns (uint256) {\n        return _allowances[holder][spender];\n    }\n\n    /**\n     * @dev See `IERC20.approve`.\n     *\n     * Note that accounts cannot have allowance issued by their operators.\n     */\n    function approve(address spender, uint256 value) external returns (bool) {\n        address holder = msg.sender;\n        _approve(holder, spender, value);\n        return true;\n    }\n\n   /**\n    * @dev See `IERC20.transferFrom`.\n    *\n    * Note that operator and allowance concepts are orthogonal: operators cannot\n    * call `transferFrom` (unless they have allowance), and accounts with\n    * allowance cannot call `operatorSend` (unless they are operators).\n    *\n    * Emits `Sent` and `Transfer` events.\n    */\n    function transferFrom(address holder, address recipient, uint256 amount) external returns (bool) {\n        require(recipient != address(0), \"ERC777: transfer to the zero address\");\n        require(holder != address(0), \"ERC777: transfer from the zero address\");\n\n        address spender = msg.sender;\n\n        _callTokensToSend(spender, holder, recipient, amount, \"\", \"\");\n\n        _move(spender, holder, recipient, amount, \"\", \"\");\n        _approve(holder, spender, _allowances[holder][spender].sub(amount));\n\n        _callTokensReceived(spender, holder, recipient, amount, \"\", \"\", false);\n\n        return true;\n    }\n\n\n    /**\n     * @dev Send tokens\n     * @param operator address operator requesting the transfer\n     * @param from address token holder address\n     * @param to address recipient address\n     * @param amount uint256 amount of tokens to transfer\n     * @param userData bytes extra information provided by the token holder (if any)\n     * @param operatorData bytes extra information provided by the operator (if any)\n     * @param requireReceptionAck if true, contract recipients are required to implement ERC777TokensRecipient\n     */\n    function _send(\n        address operator,\n        address from,\n        address to,\n        uint256 amount,\n        bytes memory userData,\n        bytes memory operatorData,\n        bool requireReceptionAck\n    )\n        private\n    {\n        require(from != address(0), \"ERC777: send from the zero address\");\n        require(to != address(0), \"ERC777: send to the zero address\");\n\n        _callTokensToSend(operator, from, to, amount, userData, operatorData);\n\n        _move(operator, from, to, amount, userData, operatorData);\n\n        _callTokensReceived(operator, from, to, amount, userData, operatorData, requireReceptionAck);\n    }\n\n    /**\n     * @dev Burn tokens\n     * @param operator address operator requesting the operation\n     * @param from address token holder address\n     * @param amount uint256 amount of tokens to burn\n     * @param data bytes extra information provided by the token holder\n     * @param operatorData bytes extra information provided by the operator (if any)\n     */\n    function _burn(\n        address operator,\n        address from,\n        uint256 amount,\n        bytes memory data,\n        bytes memory operatorData\n    )\n        private\n    {\n        require(from != address(0), \"ERC777: burn from the zero address\");\n\n        _callTokensToSend(operator, from, address(0), amount, data, operatorData);\n\n        // Update state variables\n        _totalSupply = _totalSupply.sub(amount);\n        _balances[from] = _balances[from].sub(amount);\n\n        emit Burned(operator, from, amount, data, operatorData);\n        emit Transfer(from, address(0), amount);\n    }\n\n    function _move(\n        address operator,\n        address from,\n        address to,\n        uint256 amount,\n        bytes memory userData,\n        bytes memory operatorData\n    )\n        private\n    {\n        _balances[from] = _balances[from].sub(amount);\n        _balances[to] = _balances[to].add(amount);\n\n        emit Sent(operator, from, to, amount, userData, operatorData);\n        emit Transfer(from, to, amount);\n    }\n\n    function _approve(address holder, address spender, uint256 value) private {\n        // TODO: restore this require statement if this function becomes internal, or is called at a new callsite. It is\n        // currently unnecessary.\n        //require(holder != address(0), \"ERC777: approve from the zero address\");\n        require(spender != address(0), \"ERC777: approve to the zero address\");\n\n        _allowances[holder][spender] = value;\n        emit Approval(holder, spender, value);\n    }\n\n    /**\n     * @dev Call from.tokensToSend() if the interface is registered\n     * @param operator address operator requesting the transfer\n     * @param from address token holder address\n     * @param to address recipient address\n     * @param amount uint256 amount of tokens to transfer\n     * @param userData bytes extra information provided by the token holder (if any)\n     * @param operatorData bytes extra information provided by the operator (if any)\n     */\n    function _callTokensToSend(\n        address operator,\n        address from,\n        address to,\n        uint256 amount,\n        bytes memory userData,\n        bytes memory operatorData\n    )\n        private\n    {\n        require(!transfersPaused);\n        address implementer = _erc1820.getInterfaceImplementer(from, TOKENS_SENDER_INTERFACE_HASH);\n        if (implementer != address(0)) {\n            IERC777Sender(implementer).tokensToSend(operator, from, to, amount, userData, operatorData);\n        }\n    }\n\n    /**\n     * @dev Call to.tokensReceived() if the interface is registered. Reverts if the recipient is a contract but\n     * tokensReceived() was not registered for the recipient\n     * @param operator address operator requesting the transfer\n     * @param from address token holder address\n     * @param to address recipient address\n     * @param amount uint256 amount of tokens to transfer\n     * @param userData bytes extra information provided by the token holder (if any)\n     * @param operatorData bytes extra information provided by the operator (if any)\n     * @param requireReceptionAck if true, contract recipients are required to implement ERC777TokensRecipient\n     */\n    function _callTokensReceived(\n        address operator,\n        address from,\n        address to,\n        uint256 amount,\n        bytes memory userData,\n        bytes memory operatorData,\n        bool requireReceptionAck\n    )\n        private\n    {\n        require(!transfersPaused);\n        address implementer = _erc1820.getInterfaceImplementer(to, TOKENS_RECIPIENT_INTERFACE_HASH);\n        if (implementer != address(0)) {\n            IERC777Recipient(implementer).tokensReceived(operator, from, to, amount, userData, operatorData);\n        } else if (requireReceptionAck) {\n            require(!to.isContract(), \"ERC777: token recipient contract has no implementer for ERC777TokensRecipient\");\n        }\n    }\n\n    function changeBurnPermissions() external onlyOwners {\n        burningAllowed = !burningAllowed;\n    }\n\n    function setTokenAllocation(uint _newAllocation) external onlyOwners {\n        allocation = _newAllocation;\n    }\n\n    function distributeTokens(address account) external returns (bool) {\n        require(msg.sender == documentRegistrationAddress,\n        \"Only Document Registration contract can call this function\");\n        _balances[account] = _balances[account].add(allocation);\n        tokensLeft = tokensLeft.sub(allocation);\n        address from = msg.sender;\n        _callTokensReceived(from, from, account, allocation, \"\", \"\", false);\n        return true;\n    }\n\n    function pauseTransfers() external onlyOwners {\n        require(msg.sender == feePoolAddress);\n        transfersPaused = !transfersPaused;\n    }\n\n    function setPoolAddress(address _contract) external onlyOwners {\n        feePoolAddress = _contract;\n    }\n\n    function setDocumentRegistration(address _contract) external onlyOwners {\n        documentRegistrationAddress = _contract;\n    }\n\n}\n",
  "sourcePath": "/Users/yakkomajuri/GitHub/bootcamp-finalproject/eth/contracts/CertfyToken.sol",
  "compiler": {
    "name": "solc",
    "version": "0.5.8+commit.23d335f2.Emscripten.clang"
  },
  "schemaVersion": "3.0.11",
  "updatedAt": "2019-07-28T23:13:27.196Z",
  "devdoc": {
    "details": "Implementation of the `IERC777` interface. * This implementation is agnostic to the way tokens are created. This means that a supply mechanism has to be added in a derived contract using `_mint`. * Support for ERC20 is included in this contract, as specified by the EIP: both the ERC777 and ERC20 interfaces can be safely used when interacting with it. Both `IERC777.Sent` and `IERC20.Transfer` events are emitted on token movements. * Additionally, the `granularity` value is hard-coded to `1`, meaning that there are no special restrictions in the amount of tokens that created, moved, or destroyed. This makes integration with ERC20 applications seamless.",
    "methods": {
      "allowance(address,address)": {
        "details": "See `IERC20.allowance`.     * Note that operator and allowance concepts are orthogonal: operators may not have allowance, and accounts with allowance may not be operators themselves."
      },
      "approve(address,uint256)": {
        "details": "See `IERC20.approve`.     * Note that accounts cannot have allowance issued by their operators."
      },
      "authorizeOperator(address)": {
        "details": "See `IERC777.authorizeOperator`."
      },
      "balanceOf(address)": {
        "details": "Returns the amount of tokens owned by an account (`tokenHolder`)."
      },
      "burn(uint256,bytes)": {
        "details": "See `IERC777.burn`.     * Also emits a `Transfer` event for ERC20 compatibility."
      },
      "constructor": {
        "details": "`defaultOperators` may be an empty array."
      },
      "decimals()": {
        "details": "See `ERC20Detailed.decimals`.     * Always returns 18, as per the [ERC777 EIP](https://eips.ethereum.org/EIPS/eip-777#backward-compatibility)."
      },
      "defaultOperators()": {
        "details": "See `IERC777.defaultOperators`."
      },
      "granularity()": {
        "details": "See `IERC777.granularity`.     * This implementation always returns `1`."
      },
      "isOperatorFor(address,address)": {
        "details": "See `IERC777.isOperatorFor`."
      },
      "name()": {
        "details": "See `IERC777.name`."
      },
      "operatorBurn(address,uint256,bytes,bytes)": {
        "details": "See `IERC777.operatorBurn`.     * Emits `Sent` and `Transfer` events."
      },
      "operatorSend(address,address,uint256,bytes,bytes)": {
        "details": "See `IERC777.operatorSend`.     * Emits `Sent` and `Transfer` events."
      },
      "revokeOperator(address)": {
        "details": "See `IERC777.revokeOperator`."
      },
      "send(address,uint256,bytes)": {
        "details": "See `IERC777.send`.     * Also emits a `Transfer` event for ERC20 compatibility."
      },
      "symbol()": {
        "details": "See `IERC777.symbol`."
      },
      "totalSupply()": {
        "details": "See `IERC777.totalSupply`."
      },
      "transfer(address,uint256)": {
        "details": "See `IERC20.transfer`.     * Unlike `send`, `recipient` is _not_ required to implement the `tokensReceived` interface if it is a contract.     * Also emits a `Sent` event."
      },
      "transferFrom(address,address,uint256)": {
        "details": "See `IERC20.transferFrom`.    * Note that operator and allowance concepts are orthogonal: operators cannot call `transferFrom` (unless they have allowance), and accounts with allowance cannot call `operatorSend` (unless they are operators).    * Emits `Sent` and `Transfer` events."
      }
    }
  },
  "userdoc": {
    "methods": {}
  }
}