{
  "contractName": "CertfyToken",
  "abi": [
    {
      "constant": true,
      "inputs": [],
      "name": "documentRegistrationAddress",
      "outputs": [
        {
          "name": "",
          "type": "address"
        }
      ],
      "payable": false,
      "stateMutability": "view",
      "type": "function"
    },
    {
      "constant": true,
      "inputs": [],
      "name": "feePoolAddress",
      "outputs": [
        {
          "name": "",
          "type": "address"
        }
      ],
      "payable": false,
      "stateMutability": "view",
      "type": "function"
    },
    {
      "constant": true,
      "inputs": [],
      "name": "ownersContract",
      "outputs": [
        {
          "name": "",
          "type": "address"
        }
      ],
      "payable": false,
      "stateMutability": "view",
      "type": "function"
    },
    {
      "inputs": [
        {
          "name": "name",
          "type": "string"
        },
        {
          "name": "symbol",
          "type": "string"
        },
        {
          "name": "creatorTokens",
          "type": "uint256"
        },
        {
          "name": "defaultOperators",
          "type": "address[]"
        },
        {
          "name": "_ownersContract",
          "type": "address"
        }
      ],
      "payable": false,
      "stateMutability": "nonpayable",
      "type": "constructor"
    },
    {
      "payable": true,
      "stateMutability": "payable",
      "type": "fallback"
    },
    {
      "anonymous": false,
      "inputs": [
        {
          "indexed": true,
          "name": "from",
          "type": "address"
        },
        {
          "indexed": true,
          "name": "to",
          "type": "address"
        },
        {
          "indexed": false,
          "name": "value",
          "type": "uint256"
        }
      ],
      "name": "Transfer",
      "type": "event"
    },
    {
      "anonymous": false,
      "inputs": [
        {
          "indexed": true,
          "name": "owner",
          "type": "address"
        },
        {
          "indexed": true,
          "name": "spender",
          "type": "address"
        },
        {
          "indexed": false,
          "name": "value",
          "type": "uint256"
        }
      ],
      "name": "Approval",
      "type": "event"
    },
    {
      "anonymous": false,
      "inputs": [
        {
          "indexed": true,
          "name": "operator",
          "type": "address"
        },
        {
          "indexed": true,
          "name": "from",
          "type": "address"
        },
        {
          "indexed": true,
          "name": "to",
          "type": "address"
        },
        {
          "indexed": false,
          "name": "amount",
          "type": "uint256"
        },
        {
          "indexed": false,
          "name": "data",
          "type": "bytes"
        },
        {
          "indexed": false,
          "name": "operatorData",
          "type": "bytes"
        }
      ],
      "name": "Sent",
      "type": "event"
    },
    {
      "anonymous": false,
      "inputs": [
        {
          "indexed": true,
          "name": "operator",
          "type": "address"
        },
        {
          "indexed": true,
          "name": "to",
          "type": "address"
        },
        {
          "indexed": false,
          "name": "amount",
          "type": "uint256"
        },
        {
          "indexed": false,
          "name": "data",
          "type": "bytes"
        },
        {
          "indexed": false,
          "name": "operatorData",
          "type": "bytes"
        }
      ],
      "name": "Minted",
      "type": "event"
    },
    {
      "anonymous": false,
      "inputs": [
        {
          "indexed": true,
          "name": "operator",
          "type": "address"
        },
        {
          "indexed": true,
          "name": "from",
          "type": "address"
        },
        {
          "indexed": false,
          "name": "amount",
          "type": "uint256"
        },
        {
          "indexed": false,
          "name": "data",
          "type": "bytes"
        },
        {
          "indexed": false,
          "name": "operatorData",
          "type": "bytes"
        }
      ],
      "name": "Burned",
      "type": "event"
    },
    {
      "anonymous": false,
      "inputs": [
        {
          "indexed": true,
          "name": "operator",
          "type": "address"
        },
        {
          "indexed": true,
          "name": "tokenHolder",
          "type": "address"
        }
      ],
      "name": "AuthorizedOperator",
      "type": "event"
    },
    {
      "anonymous": false,
      "inputs": [
        {
          "indexed": true,
          "name": "operator",
          "type": "address"
        },
        {
          "indexed": true,
          "name": "tokenHolder",
          "type": "address"
        }
      ],
      "name": "RevokedOperator",
      "type": "event"
    },
    {
      "constant": true,
      "inputs": [],
      "name": "name",
      "outputs": [
        {
          "name": "",
          "type": "string"
        }
      ],
      "payable": false,
      "stateMutability": "view",
      "type": "function"
    },
    {
      "constant": true,
      "inputs": [],
      "name": "symbol",
      "outputs": [
        {
          "name": "",
          "type": "string"
        }
      ],
      "payable": false,
      "stateMutability": "view",
      "type": "function"
    },
    {
      "constant": true,
      "inputs": [],
      "name": "decimals",
      "outputs": [
        {
          "name": "",
          "type": "uint8"
        }
      ],
      "payable": false,
      "stateMutability": "pure",
      "type": "function"
    },
    {
      "constant": true,
      "inputs": [],
      "name": "granularity",
      "outputs": [
        {
          "name": "",
          "type": "uint256"
        }
      ],
      "payable": false,
      "stateMutability": "view",
      "type": "function"
    },
    {
      "constant": true,
      "inputs": [],
      "name": "totalSupply",
      "outputs": [
        {
          "name": "",
          "type": "uint256"
        }
      ],
      "payable": false,
      "stateMutability": "view",
      "type": "function"
    },
    {
      "constant": true,
      "inputs": [
        {
          "name": "tokenHolder",
          "type": "address"
        }
      ],
      "name": "balanceOf",
      "outputs": [
        {
          "name": "",
          "type": "uint256"
        }
      ],
      "payable": false,
      "stateMutability": "view",
      "type": "function"
    },
    {
      "constant": false,
      "inputs": [
        {
          "name": "recipient",
          "type": "address"
        },
        {
          "name": "amount",
          "type": "uint256"
        },
        {
          "name": "data",
          "type": "bytes"
        }
      ],
      "name": "send",
      "outputs": [],
      "payable": false,
      "stateMutability": "nonpayable",
      "type": "function"
    },
    {
      "constant": false,
      "inputs": [
        {
          "name": "recipient",
          "type": "address"
        },
        {
          "name": "amount",
          "type": "uint256"
        }
      ],
      "name": "transfer",
      "outputs": [
        {
          "name": "",
          "type": "bool"
        }
      ],
      "payable": false,
      "stateMutability": "nonpayable",
      "type": "function"
    },
    {
      "constant": false,
      "inputs": [
        {
          "name": "amount",
          "type": "uint256"
        },
        {
          "name": "data",
          "type": "bytes"
        }
      ],
      "name": "burn",
      "outputs": [],
      "payable": false,
      "stateMutability": "nonpayable",
      "type": "function"
    },
    {
      "constant": true,
      "inputs": [
        {
          "name": "operator",
          "type": "address"
        },
        {
          "name": "tokenHolder",
          "type": "address"
        }
      ],
      "name": "isOperatorFor",
      "outputs": [
        {
          "name": "",
          "type": "bool"
        }
      ],
      "payable": false,
      "stateMutability": "view",
      "type": "function"
    },
    {
      "constant": false,
      "inputs": [
        {
          "name": "operator",
          "type": "address"
        }
      ],
      "name": "authorizeOperator",
      "outputs": [],
      "payable": false,
      "stateMutability": "nonpayable",
      "type": "function"
    },
    {
      "constant": false,
      "inputs": [
        {
          "name": "operator",
          "type": "address"
        }
      ],
      "name": "revokeOperator",
      "outputs": [],
      "payable": false,
      "stateMutability": "nonpayable",
      "type": "function"
    },
    {
      "constant": true,
      "inputs": [],
      "name": "defaultOperators",
      "outputs": [
        {
          "name": "",
          "type": "address[]"
        }
      ],
      "payable": false,
      "stateMutability": "view",
      "type": "function"
    },
    {
      "constant": false,
      "inputs": [
        {
          "name": "sender",
          "type": "address"
        },
        {
          "name": "recipient",
          "type": "address"
        },
        {
          "name": "amount",
          "type": "uint256"
        },
        {
          "name": "data",
          "type": "bytes"
        },
        {
          "name": "operatorData",
          "type": "bytes"
        }
      ],
      "name": "operatorSend",
      "outputs": [],
      "payable": false,
      "stateMutability": "nonpayable",
      "type": "function"
    },
    {
      "constant": false,
      "inputs": [
        {
          "name": "account",
          "type": "address"
        },
        {
          "name": "amount",
          "type": "uint256"
        },
        {
          "name": "data",
          "type": "bytes"
        },
        {
          "name": "operatorData",
          "type": "bytes"
        }
      ],
      "name": "operatorBurn",
      "outputs": [],
      "payable": false,
      "stateMutability": "nonpayable",
      "type": "function"
    },
    {
      "constant": true,
      "inputs": [
        {
          "name": "holder",
          "type": "address"
        },
        {
          "name": "spender",
          "type": "address"
        }
      ],
      "name": "allowance",
      "outputs": [
        {
          "name": "",
          "type": "uint256"
        }
      ],
      "payable": false,
      "stateMutability": "view",
      "type": "function"
    },
    {
      "constant": false,
      "inputs": [
        {
          "name": "spender",
          "type": "address"
        },
        {
          "name": "value",
          "type": "uint256"
        }
      ],
      "name": "approve",
      "outputs": [
        {
          "name": "",
          "type": "bool"
        }
      ],
      "payable": false,
      "stateMutability": "nonpayable",
      "type": "function"
    },
    {
      "constant": false,
      "inputs": [
        {
          "name": "holder",
          "type": "address"
        },
        {
          "name": "recipient",
          "type": "address"
        },
        {
          "name": "amount",
          "type": "uint256"
        }
      ],
      "name": "transferFrom",
      "outputs": [
        {
          "name": "",
          "type": "bool"
        }
      ],
      "payable": false,
      "stateMutability": "nonpayable",
      "type": "function"
    },
    {
      "constant": false,
      "inputs": [],
      "name": "changeBurnPermissions",
      "outputs": [],
      "payable": false,
      "stateMutability": "nonpayable",
      "type": "function"
    },
    {
      "constant": false,
      "inputs": [
        {
          "name": "_newAllocation",
          "type": "uint256"
        }
      ],
      "name": "setTokenAllocation",
      "outputs": [],
      "payable": false,
      "stateMutability": "nonpayable",
      "type": "function"
    },
    {
      "constant": false,
      "inputs": [
        {
          "name": "account",
          "type": "address"
        }
      ],
      "name": "distributeTokens",
      "outputs": [
        {
          "name": "",
          "type": "bool"
        }
      ],
      "payable": false,
      "stateMutability": "nonpayable",
      "type": "function"
    },
    {
      "constant": false,
      "inputs": [],
      "name": "pauseTransfers",
      "outputs": [],
      "payable": false,
      "stateMutability": "nonpayable",
      "type": "function"
    },
    {
      "constant": false,
      "inputs": [
        {
          "name": "_contract",
          "type": "address"
        }
      ],
      "name": "setPoolAddress",
      "outputs": [],
      "payable": false,
      "stateMutability": "nonpayable",
      "type": "function"
    },
    {
      "constant": false,
      "inputs": [
        {
          "name": "_contract",
          "type": "address"
        }
      ],
      "name": "setDocumentRegistration",
      "outputs": [],
      "payable": false,
      "stateMutability": "nonpayable",
      "type": "function"
    }
  ],
  "bytecode": "0x6080604052731820a4b7618bde71dce8cdc73aab6c95905fad24600160006101000a81548173ffffffffffffffffffffffffffffffffffffffff021916908373ffffffffffffffffffffffffffffffffffffffff16021790555062989680600355629896806004556103e86005556000600860006101000a81548160ff0219169083151502179055503480156200009557600080fd5b5060405162003bb338038062003bb3833981018060405260a0811015620000bb57600080fd5b810190808051640100000000811115620000d457600080fd5b82810190506020810184811115620000eb57600080fd5b81518560018202830111640100000000821117156200010957600080fd5b505092919060200180516401000000008111156200012657600080fd5b828101905060208101848111156200013d57600080fd5b81518560018202830111640100000000821117156200015b57600080fd5b50509291906020018051906020019092919080516401000000008111156200018257600080fd5b828101905060208101848111156200019957600080fd5b8151856020820283011164010000000082111715620001b757600080fd5b5050929190602001805190602001909291905050508460069080519060200190620001e492919062000359565b508360079080519060200190620001fd92919062000359565b50806000806101000a81548173ffffffffffffffffffffffffffffffffffffffff021916908373ffffffffffffffffffffffffffffffffffffffff16021790555082600260003373ffffffffffffffffffffffffffffffffffffffff1673ffffffffffffffffffffffffffffffffffffffff1681526020019081526020016000208190555081600990805190602001906200029a929190620003e0565b5060008090505b6009805490508110156200034d576001600a600060098481548110620002c357fe5b9060005260206000200160009054906101000a900473ffffffffffffffffffffffffffffffffffffffff1673ffffffffffffffffffffffffffffffffffffffff1673ffffffffffffffffffffffffffffffffffffffff16815260200190815260200160002060006101000a81548160ff0219169083151502179055508080600101915050620002a1565b505050505050620004dd565b828054600181600116156101000203166002900490600052602060002090601f016020900481019282601f106200039c57805160ff1916838001178555620003cd565b82800160010185558215620003cd579182015b82811115620003cc578251825591602001919060010190620003af565b5b509050620003dc91906200046f565b5090565b8280548282559060005260206000209081019282156200045c579160200282015b828111156200045b5782518260006101000a81548173ffffffffffffffffffffffffffffffffffffffff021916908373ffffffffffffffffffffffffffffffffffffffff1602179055509160200191906001019062000401565b5b5090506200046b919062000497565b5090565b6200049491905b808211156200049057600081600090555060010162000476565b5090565b90565b620004da91905b80821115620004d657600081816101000a81549073ffffffffffffffffffffffffffffffffffffffff0219169055506001016200049e565b5090565b90565b6136c680620004ed6000396000f3fe60806040526004361061019c5760003560e01c80636125d149116100ec578063b1d17c981161008a578063e9e15b4f11610064578063e9e15b4f14610aee578063fad8b32a14610b3f578063fc673c4f14610b90578063fe9d930314610c955761019c565b8063b1d17c9814610977578063d95b6371146109e0578063dd62ed3e14610a695761019c565b8063959b8c3f116100c6578063959b8c3f1461077357806395d89b41146107c45780639bd9bbc614610854578063a9059cbb146109045761019c565b80636125d149146105d257806362ad1b83146105e957806370a082311461070e5761019c565b8063313ce5671161015957806347af99571161013357806347af9957146104fe5780634b7afbc6146105155780635429dd6914610550578063556f0dc7146105a75761019c565b8063313ce567146104255780634319ebe41461045657806345055959146104ad5761019c565b806306e48538146101a157806306fdde031461020d578063095ea7b31461029d57806318160ddd14610310578063214501d51461033b57806323b872dd14610392575b600080fd5b3480156101ad57600080fd5b506101b6610d25565b6040518080602001828103825283818151815260200191508051906020019060200280838360005b838110156101f95780820151818401526020810190506101de565b505050509050019250505060405180910390f35b34801561021957600080fd5b50610222610db3565b6040518080602001828103825283818151815260200191508051906020019080838360005b83811015610262578082015181840152602081019050610247565b50505050905090810190601f16801561028f5780820380516001836020036101000a031916815260200191505b509250505060405180910390f35b3480156102a957600080fd5b506102f6600480360360408110156102c057600080fd5b81019080803573ffffffffffffffffffffffffffffffffffffffff16906020019092919080359060200190929190505050610e55565b604051808215151515815260200191505060405180910390f35b34801561031c57600080fd5b50610325610e71565b6040518082815260200191505060405180910390f35b34801561034757600080fd5b50610350610e7b565b604051808273ffffffffffffffffffffffffffffffffffffffff1673ffffffffffffffffffffffffffffffffffffffff16815260200191505060405180910390f35b34801561039e57600080fd5b5061040b600480360360608110156103b557600080fd5b81019080803573ffffffffffffffffffffffffffffffffffffffff169060200190929190803573ffffffffffffffffffffffffffffffffffffffff16906020019092919080359060200190929190505050610ea1565b604051808215151515815260200191505060405180910390f35b34801561043157600080fd5b5061043a6110de565b604051808260ff1660ff16815260200191505060405180910390f35b34801561046257600080fd5b5061046b6110e7565b604051808273ffffffffffffffffffffffffffffffffffffffff1673ffffffffffffffffffffffffffffffffffffffff16815260200191505060405180910390f35b3480156104b957600080fd5b506104fc600480360360208110156104d057600080fd5b81019080803573ffffffffffffffffffffffffffffffffffffffff16906020019092919050505061110d565b005b34801561050a57600080fd5b50610513611233565b005b34801561052157600080fd5b5061054e6004803603602081101561053857600080fd5b810190808035906020019092919050505061139b565b005b34801561055c57600080fd5b50610565611487565b604051808273ffffffffffffffffffffffffffffffffffffffff1673ffffffffffffffffffffffffffffffffffffffff16815260200191505060405180910390f35b3480156105b357600080fd5b506105bc6114ac565b6040518082815260200191505060405180910390f35b3480156105de57600080fd5b506105e76114b5565b005b3480156105f557600080fd5b5061070c600480360360a081101561060c57600080fd5b81019080803573ffffffffffffffffffffffffffffffffffffffff169060200190929190803573ffffffffffffffffffffffffffffffffffffffff169060200190929190803590602001909291908035906020019064010000000081111561067357600080fd5b82018360208201111561068557600080fd5b803590602001918460018302840111640100000000831117156106a757600080fd5b9091929391929390803590602001906401000000008111156106c857600080fd5b8201836020820111156106da57600080fd5b803590602001918460018302840111640100000000831117156106fc57600080fd5b90919293919293905050506115c3565b005b34801561071a57600080fd5b5061075d6004803603602081101561073157600080fd5b81019080803573ffffffffffffffffffffffffffffffffffffffff1690602001909291905050506116c3565b6040518082815260200191505060405180910390f35b34801561077f57600080fd5b506107c26004803603602081101561079657600080fd5b81019080803573ffffffffffffffffffffffffffffffffffffffff16906020019092919050505061170c565b005b3480156107d057600080fd5b506107d9611967565b6040518080602001828103825283818151815260200191508051906020019080838360005b838110156108195780820151818401526020810190506107fe565b50505050905090810190601f1680156108465780820380516001836020036101000a031916815260200191505b509250505060405180910390f35b34801561086057600080fd5b506109026004803603606081101561087757600080fd5b81019080803573ffffffffffffffffffffffffffffffffffffffff16906020019092919080359060200190929190803590602001906401000000008111156108be57600080fd5b8201836020820111156108d057600080fd5b803590602001918460018302840111640100000000831117156108f257600080fd5b9091929391929390505050611a09565b005b34801561091057600080fd5b5061095d6004803603604081101561092757600080fd5b81019080803573ffffffffffffffffffffffffffffffffffffffff16906020019092919080359060200190929190505050611a72565b604051808215151515815260200191505060405180910390f35b34801561098357600080fd5b506109c66004803603602081101561099a57600080fd5b81019080803573ffffffffffffffffffffffffffffffffffffffff169060200190929190505050611b35565b604051808215151515815260200191505060405180910390f35b3480156109ec57600080fd5b50610a4f60048036036040811015610a0357600080fd5b81019080803573ffffffffffffffffffffffffffffffffffffffff169060200190929190803573ffffffffffffffffffffffffffffffffffffffff169060200190929190505050611cd0565b604051808215151515815260200191505060405180910390f35b348015610a7557600080fd5b50610ad860048036036040811015610a8c57600080fd5b81019080803573ffffffffffffffffffffffffffffffffffffffff169060200190929190803573ffffffffffffffffffffffffffffffffffffffff169060200190929190505050611e81565b6040518082815260200191505060405180910390f35b348015610afa57600080fd5b50610b3d60048036036020811015610b1157600080fd5b81019080803573ffffffffffffffffffffffffffffffffffffffff169060200190929190505050611f08565b005b348015610b4b57600080fd5b50610b8e60048036036020811015610b6257600080fd5b81019080803573ffffffffffffffffffffffffffffffffffffffff16906020019092919050505061202e565b005b348015610b9c57600080fd5b50610c9360048036036080811015610bb357600080fd5b81019080803573ffffffffffffffffffffffffffffffffffffffff1690602001909291908035906020019092919080359060200190640100000000811115610bfa57600080fd5b820183602082011115610c0c57600080fd5b80359060200191846001830284011164010000000083111715610c2e57600080fd5b909192939192939080359060200190640100000000811115610c4f57600080fd5b820183602082011115610c6157600080fd5b80359060200191846001830284011164010000000083111715610c8357600080fd5b9091929391929390505050612289565b005b348015610ca157600080fd5b50610d2360048036036040811015610cb857600080fd5b810190808035906020019092919080359060200190640100000000811115610cdf57600080fd5b820183602082011115610cf157600080fd5b80359060200191846001830284011164010000000083111715610d1357600080fd5b909192939192939050505061239e565b005b60606009805480602002602001604051908101604052809291908181526020018280548015610da957602002820191906000526020600020905b8160009054906101000a900473ffffffffffffffffffffffffffffffffffffffff1673ffffffffffffffffffffffffffffffffffffffff1681526020019060010190808311610d5f575b5050505050905090565b606060068054600181600116156101000203166002900480601f016020809104026020016040519081016040528092919081815260200182805460018160011615610100020316600290048015610e4b5780601f10610e2057610100808354040283529160200191610e4b565b820191906000526020600020905b815481529060010190602001808311610e2e57829003601f168201915b5050505050905090565b600080339050610e6681858561241c565b600191505092915050565b6000600354905090565b600f60009054906101000a900473ffffffffffffffffffffffffffffffffffffffff1681565b60008073ffffffffffffffffffffffffffffffffffffffff168373ffffffffffffffffffffffffffffffffffffffff161415610f28576040517f08c379a00000000000000000000000000000000000000000000000000000000081526004018080602001828103825260248152602001806136026024913960400191505060405180910390fd5b600073ffffffffffffffffffffffffffffffffffffffff168473ffffffffffffffffffffffffffffffffffffffff161415610fae576040517f08c379a00000000000000000000000000000000000000000000000000000000081526004018080602001828103825260268152602001806136526026913960400191505060405180910390fd5b6000339050610fdf81868686604051806020016040528060008152506040518060200160405280600081525061258d565b61100b8186868660405180602001604052806000815250604051806020016040528060008152506128cf565b6110a4858261109f86600d60008b73ffffffffffffffffffffffffffffffffffffffff1673ffffffffffffffffffffffffffffffffffffffff16815260200190815260200160002060008773ffffffffffffffffffffffffffffffffffffffff1673ffffffffffffffffffffffffffffffffffffffff16815260200190815260200160002054612bbc90919063ffffffff16565b61241c565b6110d28186868660405180602001604052806000815250604051806020016040528060008152506000612c45565b60019150509392505050565b60006012905090565b600e60019054906101000a900473ffffffffffffffffffffffffffffffffffffffff1681565b6000809054906101000a900473ffffffffffffffffffffffffffffffffffffffff1673ffffffffffffffffffffffffffffffffffffffff1663fd8b84b1336040518263ffffffff1660e01b8152600401808273ffffffffffffffffffffffffffffffffffffffff1673ffffffffffffffffffffffffffffffffffffffff16815260200191505060206040518083038186803b1580156111ab57600080fd5b505afa1580156111bf573d6000803e3d6000fd5b505050506040513d60208110156111d557600080fd5b81019080805190602001909291905050506111ef57600080fd5b80600f60006101000a81548173ffffffffffffffffffffffffffffffffffffffff021916908373ffffffffffffffffffffffffffffffffffffffff16021790555050565b6000809054906101000a900473ffffffffffffffffffffffffffffffffffffffff1673ffffffffffffffffffffffffffffffffffffffff1663fd8b84b1336040518263ffffffff1660e01b8152600401808273ffffffffffffffffffffffffffffffffffffffff1673ffffffffffffffffffffffffffffffffffffffff16815260200191505060206040518083038186803b1580156112d157600080fd5b505afa1580156112e5573d6000803e3d6000fd5b505050506040513d60208110156112fb57600080fd5b810190808051906020019092919050505061131557600080fd5b600e60019054906101000a900473ffffffffffffffffffffffffffffffffffffffff1673ffffffffffffffffffffffffffffffffffffffff163373ffffffffffffffffffffffffffffffffffffffff161461136f57600080fd5b600e60009054906101000a900460ff1615600e60006101000a81548160ff021916908315150217905550565b6000809054906101000a900473ffffffffffffffffffffffffffffffffffffffff1673ffffffffffffffffffffffffffffffffffffffff1663fd8b84b1336040518263ffffffff1660e01b8152600401808273ffffffffffffffffffffffffffffffffffffffff1673ffffffffffffffffffffffffffffffffffffffff16815260200191505060206040518083038186803b15801561143957600080fd5b505afa15801561144d573d6000803e3d6000fd5b505050506040513d602081101561146357600080fd5b810190808051906020019092919050505061147d57600080fd5b8060058190555050565b6000809054906101000a900473ffffffffffffffffffffffffffffffffffffffff1681565b60006001905090565b6000809054906101000a900473ffffffffffffffffffffffffffffffffffffffff1673ffffffffffffffffffffffffffffffffffffffff1663fd8b84b1336040518263ffffffff1660e01b8152600401808273ffffffffffffffffffffffffffffffffffffffff1673ffffffffffffffffffffffffffffffffffffffff16815260200191505060206040518083038186803b15801561155357600080fd5b505afa158015611567573d6000803e3d6000fd5b505050506040513d602081101561157d57600080fd5b810190808051906020019092919050505061159757600080fd5b600860009054906101000a900460ff1615600860006101000a81548160ff021916908315150217905550565b6115cd3388611cd0565b611622576040517f08c379a000000000000000000000000000000000000000000000000000000000815260040180806020018281038252602c815260200180613626602c913960400191505060405180910390fd5b6116ba3388888888888080601f016020809104026020016040519081016040528093929190818152602001838380828437600081840152601f19601f8201169050808301925050505050505087878080601f016020809104026020016040519081016040528093929190818152602001838380828437600081840152601f19601f820116905080830192505050505050506001613008565b50505050505050565b6000600260008373ffffffffffffffffffffffffffffffffffffffff1673ffffffffffffffffffffffffffffffffffffffff168152602001908152602001600020549050919050565b8073ffffffffffffffffffffffffffffffffffffffff163373ffffffffffffffffffffffffffffffffffffffff161415611791576040517f08c379a00000000000000000000000000000000000000000000000000000000081526004018080602001828103825260248152602001806135706024913960400191505060405180910390fd5b600a60008273ffffffffffffffffffffffffffffffffffffffff1673ffffffffffffffffffffffffffffffffffffffff16815260200190815260200160002060009054906101000a900460ff161561187457600c60003373ffffffffffffffffffffffffffffffffffffffff1673ffffffffffffffffffffffffffffffffffffffff16815260200190815260200160002060008273ffffffffffffffffffffffffffffffffffffffff1673ffffffffffffffffffffffffffffffffffffffff16815260200190815260200160002060006101000a81549060ff021916905561190a565b6001600b60003373ffffffffffffffffffffffffffffffffffffffff1673ffffffffffffffffffffffffffffffffffffffff16815260200190815260200160002060008373ffffffffffffffffffffffffffffffffffffffff1673ffffffffffffffffffffffffffffffffffffffff16815260200190815260200160002060006101000a81548160ff0219169083151502179055505b3373ffffffffffffffffffffffffffffffffffffffff168173ffffffffffffffffffffffffffffffffffffffff167ff4caeb2d6ca8932a215a353d0703c326ec2d81fc68170f320eb2ab49e9df61f960405160405180910390a350565b606060078054600181600116156101000203166002900480601f0160208091040260200160405190810160405280929190818152602001828054600181600116156101000203166002900480156119ff5780601f106119d4576101008083540402835291602001916119ff565b820191906000526020600020905b8154815290600101906020018083116119e257829003601f168201915b5050505050905090565b611a6c3333868686868080601f016020809104026020016040519081016040528093929190818152602001838380828437600081840152601f19601f82011690508083019250505050505050604051806020016040528060008152506001613008565b50505050565b60008073ffffffffffffffffffffffffffffffffffffffff168373ffffffffffffffffffffffffffffffffffffffff161415611af9576040517f08c379a00000000000000000000000000000000000000000000000000000000081526004018080602001828103825260248152602001806136026024913960400191505060405180910390fd5b6000339050611b2a8182868660405180602001604052806000815250604051806020016040528060008152506128cf565b600191505092915050565b6000600f60009054906101000a900473ffffffffffffffffffffffffffffffffffffffff1673ffffffffffffffffffffffffffffffffffffffff163373ffffffffffffffffffffffffffffffffffffffff1614611bdd576040517f08c379a000000000000000000000000000000000000000000000000000000000815260040180806020018281038252603a8152602001806134f2603a913960400191505060405180910390fd5b611c31600554600260008573ffffffffffffffffffffffffffffffffffffffff1673ffffffffffffffffffffffffffffffffffffffff1681526020019081526020016000205461316590919063ffffffff16565b600260008473ffffffffffffffffffffffffffffffffffffffff1673ffffffffffffffffffffffffffffffffffffffff16815260200190815260200160002081905550611c8b600554600454612bbc90919063ffffffff16565b6004819055506000339050611cc681828560055460405180602001604052806000815250604051806020016040528060008152506000612c45565b6001915050919050565b60008173ffffffffffffffffffffffffffffffffffffffff168373ffffffffffffffffffffffffffffffffffffffff161480611de85750600a60008473ffffffffffffffffffffffffffffffffffffffff1673ffffffffffffffffffffffffffffffffffffffff16815260200190815260200160002060009054906101000a900460ff168015611de75750600c60008373ffffffffffffffffffffffffffffffffffffffff1673ffffffffffffffffffffffffffffffffffffffff16815260200190815260200160002060008473ffffffffffffffffffffffffffffffffffffffff1673ffffffffffffffffffffffffffffffffffffffff16815260200190815260200160002060009054906101000a900460ff16155b5b80611e795750600b60008373ffffffffffffffffffffffffffffffffffffffff1673ffffffffffffffffffffffffffffffffffffffff16815260200190815260200160002060008473ffffffffffffffffffffffffffffffffffffffff1673ffffffffffffffffffffffffffffffffffffffff16815260200190815260200160002060009054906101000a900460ff165b905092915050565b6000600d60008473ffffffffffffffffffffffffffffffffffffffff1673ffffffffffffffffffffffffffffffffffffffff16815260200190815260200160002060008373ffffffffffffffffffffffffffffffffffffffff1673ffffffffffffffffffffffffffffffffffffffff16815260200190815260200160002054905092915050565b6000809054906101000a900473ffffffffffffffffffffffffffffffffffffffff1673ffffffffffffffffffffffffffffffffffffffff1663fd8b84b1336040518263ffffffff1660e01b8152600401808273ffffffffffffffffffffffffffffffffffffffff1673ffffffffffffffffffffffffffffffffffffffff16815260200191505060206040518083038186803b158015611fa657600080fd5b505afa158015611fba573d6000803e3d6000fd5b505050506040513d6020811015611fd057600080fd5b8101908080519060200190929190505050611fea57600080fd5b80600e60016101000a81548173ffffffffffffffffffffffffffffffffffffffff021916908373ffffffffffffffffffffffffffffffffffffffff16021790555050565b3373ffffffffffffffffffffffffffffffffffffffff168173ffffffffffffffffffffffffffffffffffffffff1614156120b3576040517f08c379a00000000000000000000000000000000000000000000000000000000081526004018080602001828103825260218152602001806135946021913960400191505060405180910390fd5b600a60008273ffffffffffffffffffffffffffffffffffffffff1673ffffffffffffffffffffffffffffffffffffffff16815260200190815260200160002060009054906101000a900460ff161561219f576001600c60003373ffffffffffffffffffffffffffffffffffffffff1673ffffffffffffffffffffffffffffffffffffffff16815260200190815260200160002060008373ffffffffffffffffffffffffffffffffffffffff1673ffffffffffffffffffffffffffffffffffffffff16815260200190815260200160002060006101000a81548160ff02191690831515021790555061222c565b600b60003373ffffffffffffffffffffffffffffffffffffffff1673ffffffffffffffffffffffffffffffffffffffff16815260200190815260200160002060008273ffffffffffffffffffffffffffffffffffffffff1673ffffffffffffffffffffffffffffffffffffffff16815260200190815260200160002060006101000a81549060ff02191690555b3373ffffffffffffffffffffffffffffffffffffffff168173ffffffffffffffffffffffffffffffffffffffff167f50546e66e5f44d728365dc3908c63bc5cfeeab470722c1677e3073a6ac294aa160405160405180910390a350565b600860009054906101000a900460ff166122a257600080fd5b6122ac3387611cd0565b612301576040517f08c379a000000000000000000000000000000000000000000000000000000000815260040180806020018281038252602c815260200180613626602c913960400191505060405180910390fd5b61239633878787878080601f016020809104026020016040519081016040528093929190818152602001838380828437600081840152601f19601f8201169050808301925050505050505086868080601f016020809104026020016040519081016040528093929190818152602001838380828437600081840152601f19601f820116905080830192505050505050506131ed565b505050505050565b600860009054906101000a900460ff166123b757600080fd5b61241733338585858080601f016020809104026020016040519081016040528093929190818152602001838380828437600081840152601f19601f82011690508083019250505050505050604051806020016040528060008152506131ed565b505050565b600073ffffffffffffffffffffffffffffffffffffffff168273ffffffffffffffffffffffffffffffffffffffff1614156124a2576040517f08c379a00000000000000000000000000000000000000000000000000000000081526004018080602001828103825260238152602001806136786023913960400191505060405180910390fd5b80600d60008573ffffffffffffffffffffffffffffffffffffffff1673ffffffffffffffffffffffffffffffffffffffff16815260200190815260200160002060008473ffffffffffffffffffffffffffffffffffffffff1673ffffffffffffffffffffffffffffffffffffffff168152602001908152602001600020819055508173ffffffffffffffffffffffffffffffffffffffff168373ffffffffffffffffffffffffffffffffffffffff167f8c5be1e5ebec7d5bd14f71427d1e84f3dd0314c0f7b2291e5b200ac8c7c3b925836040518082815260200191505060405180910390a3505050565b600e60009054906101000a900460ff16156125a757600080fd5b6000600160009054906101000a900473ffffffffffffffffffffffffffffffffffffffff1673ffffffffffffffffffffffffffffffffffffffff1663aabbb8ca877f29ddb589b1fb5fc7cf394961c1adf5f8c6454761adf795e67fe149f658abe89560001b6040518363ffffffff1660e01b8152600401808373ffffffffffffffffffffffffffffffffffffffff1673ffffffffffffffffffffffffffffffffffffffff1681526020018281526020019250505060206040518083038186803b15801561267357600080fd5b505afa158015612687573d6000803e3d6000fd5b505050506040513d602081101561269d57600080fd5b81019080805190602001909291905050509050600073ffffffffffffffffffffffffffffffffffffffff168173ffffffffffffffffffffffffffffffffffffffff16146128c6578073ffffffffffffffffffffffffffffffffffffffff166375ab97828888888888886040518763ffffffff1660e01b8152600401808773ffffffffffffffffffffffffffffffffffffffff1673ffffffffffffffffffffffffffffffffffffffff1681526020018673ffffffffffffffffffffffffffffffffffffffff1673ffffffffffffffffffffffffffffffffffffffff1681526020018573ffffffffffffffffffffffffffffffffffffffff1673ffffffffffffffffffffffffffffffffffffffff1681526020018481526020018060200180602001838103835285818151815260200191508051906020019080838360005b838110156127f55780820151818401526020810190506127da565b50505050905090810190601f1680156128225780820380516001836020036101000a031916815260200191505b50838103825284818151815260200191508051906020019080838360005b8381101561285b578082015181840152602081019050612840565b50505050905090810190601f1680156128885780820380516001836020036101000a031916815260200191505b5098505050505050505050600060405180830381600087803b1580156128ad57600080fd5b505af11580156128c1573d6000803e3d6000fd5b505050505b50505050505050565b61292183600260008873ffffffffffffffffffffffffffffffffffffffff1673ffffffffffffffffffffffffffffffffffffffff16815260200190815260200160002054612bbc90919063ffffffff16565b600260008773ffffffffffffffffffffffffffffffffffffffff1673ffffffffffffffffffffffffffffffffffffffff168152602001908152602001600020819055506129b683600260008773ffffffffffffffffffffffffffffffffffffffff1673ffffffffffffffffffffffffffffffffffffffff1681526020019081526020016000205461316590919063ffffffff16565b600260008673ffffffffffffffffffffffffffffffffffffffff1673ffffffffffffffffffffffffffffffffffffffff168152602001908152602001600020819055508373ffffffffffffffffffffffffffffffffffffffff168573ffffffffffffffffffffffffffffffffffffffff168773ffffffffffffffffffffffffffffffffffffffff167f06b541ddaa720db2b10a4d0cdac39b8d360425fc073085fac19bc82614677987868686604051808481526020018060200180602001838103835285818151815260200191508051906020019080838360005b83811015612aac578082015181840152602081019050612a91565b50505050905090810190601f168015612ad95780820380516001836020036101000a031916815260200191505b50838103825284818151815260200191508051906020019080838360005b83811015612b12578082015181840152602081019050612af7565b50505050905090810190601f168015612b3f5780820380516001836020036101000a031916815260200191505b509550505050505060405180910390a48373ffffffffffffffffffffffffffffffffffffffff168573ffffffffffffffffffffffffffffffffffffffff167fddf252ad1be2c89b69c2b068fc378daa952ba7f163c4a11628f55a4df523b3ef856040518082815260200191505060405180910390a3505050505050565b600082821115612c34576040517f08c379a000000000000000000000000000000000000000000000000000000000815260040180806020018281038252601e8152602001807f536166654d6174683a207375627472616374696f6e206f766572666c6f77000081525060200191505060405180910390fd5b600082840390508091505092915050565b600e60009054906101000a900460ff1615612c5f57600080fd5b6000600160009054906101000a900473ffffffffffffffffffffffffffffffffffffffff1673ffffffffffffffffffffffffffffffffffffffff1663aabbb8ca877fb281fc8c12954d22544db45de3159a39272895b169a852b314f9cc762e44c53b60001b6040518363ffffffff1660e01b8152600401808373ffffffffffffffffffffffffffffffffffffffff1673ffffffffffffffffffffffffffffffffffffffff1681526020018281526020019250505060206040518083038186803b158015612d2b57600080fd5b505afa158015612d3f573d6000803e3d6000fd5b505050506040513d6020811015612d5557600080fd5b81019080805190602001909291905050509050600073ffffffffffffffffffffffffffffffffffffffff168173ffffffffffffffffffffffffffffffffffffffff1614612f81578073ffffffffffffffffffffffffffffffffffffffff166223de298989898989896040518763ffffffff1660e01b8152600401808773ffffffffffffffffffffffffffffffffffffffff1673ffffffffffffffffffffffffffffffffffffffff1681526020018673ffffffffffffffffffffffffffffffffffffffff1673ffffffffffffffffffffffffffffffffffffffff1681526020018573ffffffffffffffffffffffffffffffffffffffff1673ffffffffffffffffffffffffffffffffffffffff1681526020018481526020018060200180602001838103835285818151815260200191508051906020019080838360005b83811015612eac578082015181840152602081019050612e91565b50505050905090810190601f168015612ed95780820380516001836020036101000a031916815260200191505b50838103825284818151815260200191508051906020019080838360005b83811015612f12578082015181840152602081019050612ef7565b50505050905090810190601f168015612f3f5780820380516001836020036101000a031916815260200191505b5098505050505050505050600060405180830381600087803b158015612f6457600080fd5b505af1158015612f78573d6000803e3d6000fd5b50505050612ffe565b8115612ffd57612fa68673ffffffffffffffffffffffffffffffffffffffff166134de565b15612ffc576040517f08c379a000000000000000000000000000000000000000000000000000000000815260040180806020018281038252604d8152602001806135b5604d913960600191505060405180910390fd5b5b5b5050505050505050565b600073ffffffffffffffffffffffffffffffffffffffff168673ffffffffffffffffffffffffffffffffffffffff16141561308e576040517f08c379a000000000000000000000000000000000000000000000000000000000815260040180806020018281038252602281526020018061352c6022913960400191505060405180910390fd5b600073ffffffffffffffffffffffffffffffffffffffff168573ffffffffffffffffffffffffffffffffffffffff161415613131576040517f08c379a00000000000000000000000000000000000000000000000000000000081526004018080602001828103825260208152602001807f4552433737373a2073656e6420746f20746865207a65726f206164647265737381525060200191505060405180910390fd5b61313f87878787878761258d565b61314d8787878787876128cf565b61315c87878787878787612c45565b50505050505050565b6000808284019050838110156131e3576040517f08c379a000000000000000000000000000000000000000000000000000000000815260040180806020018281038252601b8152602001807f536166654d6174683a206164646974696f6e206f766572666c6f77000000000081525060200191505060405180910390fd5b8091505092915050565b600073ffffffffffffffffffffffffffffffffffffffff168473ffffffffffffffffffffffffffffffffffffffff161415613273576040517f08c379a000000000000000000000000000000000000000000000000000000000815260040180806020018281038252602281526020018061354e6022913960400191505060405180910390fd5b6132828585600086868661258d565b61329783600354612bbc90919063ffffffff16565b6003819055506132ef83600260008773ffffffffffffffffffffffffffffffffffffffff1673ffffffffffffffffffffffffffffffffffffffff16815260200190815260200160002054612bbc90919063ffffffff16565b600260008673ffffffffffffffffffffffffffffffffffffffff1673ffffffffffffffffffffffffffffffffffffffff168152602001908152602001600020819055508373ffffffffffffffffffffffffffffffffffffffff168573ffffffffffffffffffffffffffffffffffffffff167fa78a9be3a7b862d26933ad85fb11d80ef66b8f972d7cbba06621d583943a4098858585604051808481526020018060200180602001838103835285818151815260200191508051906020019080838360005b838110156133ce5780820151818401526020810190506133b3565b50505050905090810190601f1680156133fb5780820380516001836020036101000a031916815260200191505b50838103825284818151815260200191508051906020019080838360005b83811015613434578082015181840152602081019050613419565b50505050905090810190601f1680156134615780820380516001836020036101000a031916815260200191505b509550505050505060405180910390a3600073ffffffffffffffffffffffffffffffffffffffff168473ffffffffffffffffffffffffffffffffffffffff167fddf252ad1be2c89b69c2b068fc378daa952ba7f163c4a11628f55a4df523b3ef856040518082815260200191505060405180910390a35050505050565b600080823b90506000811191505091905056fe4f6e6c7920446f63756d656e7420526567697374726174696f6e20636f6e74726163742063616e2063616c6c20746869732066756e6374696f6e4552433737373a2073656e642066726f6d20746865207a65726f20616464726573734552433737373a206275726e2066726f6d20746865207a65726f20616464726573734552433737373a20617574686f72697a696e672073656c66206173206f70657261746f724552433737373a207265766f6b696e672073656c66206173206f70657261746f724552433737373a20746f6b656e20726563697069656e7420636f6e747261637420686173206e6f20696d706c656d656e74657220666f7220455243373737546f6b656e73526563697069656e744552433737373a207472616e7366657220746f20746865207a65726f20616464726573734552433737373a2063616c6c6572206973206e6f7420616e206f70657261746f7220666f7220686f6c6465724552433737373a207472616e736665722066726f6d20746865207a65726f20616464726573734552433737373a20617070726f766520746f20746865207a65726f2061646472657373a165627a7a72305820ed2d71ee1bc9048ab3870d2390eece49d5a2b9139e8ad9a9d11918bd497879590029",
  "source": "pragma solidity ^0.5.0;\n\nimport \"../lib/token/ERC777/IERC777.sol\";\nimport \"../lib/token/ERC777/IERC777Recipient.sol\";\nimport \"../lib/token/ERC777/IERC777Sender.sol\";\nimport \"../lib/token/ERC20/IERC20.sol\";\nimport \"../lib/math/SafeMath.sol\";\nimport \"../lib/utils/Address.sol\";\nimport \"../lib/introspection/IERC1820Registry.sol\";\n\n\ncontract Owners {\n\n    function getOwners(address _ad) public view returns(bool) {}\n\n}\n\n/**\n * @dev Implementation of the `IERC777` interface.\n *\n * This implementation is agnostic to the way tokens are created. This means\n * that a supply mechanism has to be added in a derived contract using `_mint`.\n *\n * Support for ERC20 is included in this contract, as specified by the EIP: both\n * the ERC777 and ERC20 interfaces can be safely used when interacting with it.\n * Both `IERC777.Sent` and `IERC20.Transfer` events are emitted on token\n * movements.\n *\n * Additionally, the `granularity` value is hard-coded to `1`, meaning that there\n * are no special restrictions in the amount of tokens that created, moved, or\n * destroyed. This makes integration with ERC20 applications seamless.\n */\ncontract CertfyToken is IERC777, IERC20 {\n\n    using SafeMath for uint256;\n    using Address for address;\n\n    Owners public ownersContract;\n\n    modifier onlyOwners() {\n        require(ownersContract.getOwners(msg.sender));\n        _;\n    }\n\n    IERC1820Registry private _erc1820 = IERC1820Registry(0x1820a4B7618BdE71Dce8cdc73aAB6C95905faD24);\n\n    mapping(address => uint256) private _balances;\n\n    uint256 private _totalSupply = 10000000;\n    uint tokensLeft = 10000000;\n    uint allocation = 1000;\n\n    string private _name;\n    string private _symbol;\n\n    bool burningAllowed = false;\n\n\n    // We inline the result of the following hashes because Solidity doesn't resolve them at compile time.\n    // See https://github.com/ethereum/solidity/issues/4024.\n\n    // keccak256(\"ERC777TokensSender\")\n    bytes32 constant private TOKENS_SENDER_INTERFACE_HASH =\n        0x29ddb589b1fb5fc7cf394961c1adf5f8c6454761adf795e67fe149f658abe895;\n\n    // keccak256(\"ERC777TokensRecipient\")\n    bytes32 constant private TOKENS_RECIPIENT_INTERFACE_HASH =\n        0xb281fc8c12954d22544db45de3159a39272895b169a852b314f9cc762e44c53b;\n\n    // This isn't ever read from - it's only used to respond to the defaultOperators query.\n    address[] private _defaultOperatorsArray;\n\n    // Immutable, but accounts may revoke them (tracked in __revokedDefaultOperators).\n    mapping(address => bool) private _defaultOperators;\n\n    // For each account, a mapping of its operators and revoked default operators.\n    mapping(address => mapping(address => bool)) private _operators;\n    mapping(address => mapping(address => bool)) private _revokedDefaultOperators;\n\n    // ERC20-allowances\n    mapping (address => mapping (address => uint256)) private _allowances;\n\n    bool transfersPaused;\n\n    address public feePoolAddress;\n    address public documentRegistrationAddress; \n\n    /**\n     * @dev `defaultOperators` may be an empty array.\n     */\n    constructor(\n        string memory name,\n        string memory symbol,\n        uint creatorTokens,\n        address[] memory defaultOperators,\n        address _ownersContract\n    ) public {\n        _name = name;\n        _symbol = symbol;\n        ownersContract = Owners(_ownersContract);\n        _balances[msg.sender] = creatorTokens;\n        _defaultOperatorsArray = defaultOperators;\n        for (uint256 i = 0; i < _defaultOperatorsArray.length; i++) {\n            _defaultOperators[_defaultOperatorsArray[i]] = true;\n        }\n\n        // register interfaces\n        //_erc1820.setInterfaceImplementer(address(this), keccak256(\"ERC777Token\"), address(this));\n        //_erc1820.setInterfaceImplementer(address(this), keccak256(\"ERC20Token\"), address(this));\n    }\n\n    /**\n     * @dev See `IERC777.name`.\n     */\n    function name() public view returns (string memory) {\n        return _name;\n    }\n\n    /**\n     * @dev See `IERC777.symbol`.\n     */\n    function symbol() public view returns (string memory) {\n        return _symbol;\n    }\n\n    /**\n     * @dev See `ERC20Detailed.decimals`.\n     *\n     * Always returns 18, as per the\n     * [ERC777 EIP](https://eips.ethereum.org/EIPS/eip-777#backward-compatibility).\n     */\n    function decimals() public pure returns (uint8) {\n        return 18;\n    }\n\n    /**\n     * @dev See `IERC777.granularity`.\n     *\n     * This implementation always returns `1`.\n     */\n    function granularity() public view returns (uint256) {\n        return 1;\n    }\n\n    /**\n     * @dev See `IERC777.totalSupply`.\n     */\n    function totalSupply() public view returns (uint256) {\n        return _totalSupply;\n    }\n\n    /**\n     * @dev Returns the amount of tokens owned by an account (`tokenHolder`).\n     */\n    function balanceOf(address tokenHolder) public view returns (uint256) {\n        return _balances[tokenHolder];\n    }\n\n    /**\n     * @dev See `IERC777.send`.\n     *\n     * Also emits a `Transfer` event for ERC20 compatibility.\n     */\n    function send(address recipient, uint256 amount, bytes calldata data) external {\n        _send(msg.sender, msg.sender, recipient, amount, data, \"\", true);\n    }\n\n    /**\n     * @dev See `IERC20.transfer`.\n     *\n     * Unlike `send`, `recipient` is _not_ required to implement the `tokensReceived`\n     * interface if it is a contract.\n     *\n     * Also emits a `Sent` event.\n     */\n    function transfer(address recipient, uint256 amount) external returns (bool) {\n        require(recipient != address(0), \"ERC777: transfer to the zero address\");\n\n        address from = msg.sender;\n\n        //_callTokensToSend(from, from, recipient, amount, \"\", \"\");\n\n        _move(from, from, recipient, amount, \"\", \"\");\n\n       // _callTokensReceived(from, from, recipient, amount, \"\", \"\", false);\n\n        return true;\n    }\n\n    /**\n     * @dev See `IERC777.burn`.\n     *\n     * Also emits a `Transfer` event for ERC20 compatibility.\n     */\n    function burn(uint256 amount, bytes calldata data) external {\n        require(burningAllowed);\n        _burn(msg.sender, msg.sender, amount, data, \"\");\n    }\n\n    /**\n     * @dev See `IERC777.isOperatorFor`.\n     */\n    function isOperatorFor(\n        address operator,\n        address tokenHolder\n    ) public view returns (bool) {\n        return operator == tokenHolder ||\n            (_defaultOperators[operator] && !_revokedDefaultOperators[tokenHolder][operator]) ||\n            _operators[tokenHolder][operator];\n    }\n\n    /**\n     * @dev See `IERC777.authorizeOperator`.\n     */\n    function authorizeOperator(address operator) external {\n        require(msg.sender != operator, \"ERC777: authorizing self as operator\");\n\n        if (_defaultOperators[operator]) {\n            delete _revokedDefaultOperators[msg.sender][operator];\n        } else {\n            _operators[msg.sender][operator] = true;\n        }\n\n        emit AuthorizedOperator(operator, msg.sender);\n    }\n\n    /**\n     * @dev See `IERC777.revokeOperator`.\n     */\n    function revokeOperator(address operator) external {\n        require(operator != msg.sender, \"ERC777: revoking self as operator\");\n\n        if (_defaultOperators[operator]) {\n            _revokedDefaultOperators[msg.sender][operator] = true;\n        } else {\n            delete _operators[msg.sender][operator];\n        }\n\n        emit RevokedOperator(operator, msg.sender);\n    }\n\n    /**\n     * @dev See `IERC777.defaultOperators`.\n     */\n    function defaultOperators() public view returns (address[] memory) {\n        return _defaultOperatorsArray;\n    }\n\n    /**\n     * @dev See `IERC777.operatorSend`.\n     *\n     * Emits `Sent` and `Transfer` events.\n     */\n    function operatorSend(\n        address sender,\n        address recipient,\n        uint256 amount,\n        bytes calldata data,\n        bytes calldata operatorData\n    )\n    external\n    {\n        require(isOperatorFor(msg.sender, sender), \"ERC777: caller is not an operator for holder\");\n        _send(msg.sender, sender, recipient, amount, data, operatorData, true);\n    }\n\n    /**\n     * @dev See `IERC777.operatorBurn`.\n     *\n     * Emits `Sent` and `Transfer` events.\n     */\n    function operatorBurn(address account, uint256 amount, bytes calldata data, bytes calldata operatorData) external {\n        require(burningAllowed);\n        require(isOperatorFor(msg.sender, account), \"ERC777: caller is not an operator for holder\");\n        _burn(msg.sender, account, amount, data, operatorData);\n    }\n\n    /**\n     * @dev See `IERC20.allowance`.\n     *\n     * Note that operator and allowance concepts are orthogonal: operators may\n     * not have allowance, and accounts with allowance may not be operators\n     * themselves.\n     */\n    function allowance(address holder, address spender) public view returns (uint256) {\n        return _allowances[holder][spender];\n    }\n\n    /**\n     * @dev See `IERC20.approve`.\n     *\n     * Note that accounts cannot have allowance issued by their operators.\n     */\n    function approve(address spender, uint256 value) external returns (bool) {\n        address holder = msg.sender;\n        _approve(holder, spender, value);\n        return true;\n    }\n\n   /**\n    * @dev See `IERC20.transferFrom`.\n    *\n    * Note that operator and allowance concepts are orthogonal: operators cannot\n    * call `transferFrom` (unless they have allowance), and accounts with\n    * allowance cannot call `operatorSend` (unless they are operators).\n    *\n    * Emits `Sent` and `Transfer` events.\n    */\n    function transferFrom(address holder, address recipient, uint256 amount) external returns (bool) {\n        require(recipient != address(0), \"ERC777: transfer to the zero address\");\n        require(holder != address(0), \"ERC777: transfer from the zero address\");\n\n        address spender = msg.sender;\n\n        _callTokensToSend(spender, holder, recipient, amount, \"\", \"\");\n\n        _move(spender, holder, recipient, amount, \"\", \"\");\n        _approve(holder, spender, _allowances[holder][spender].sub(amount));\n\n        _callTokensReceived(spender, holder, recipient, amount, \"\", \"\", false);\n\n        return true;\n    }\n\n\n    /**\n     * @dev Send tokens\n     * @param operator address operator requesting the transfer\n     * @param from address token holder address\n     * @param to address recipient address\n     * @param amount uint256 amount of tokens to transfer\n     * @param userData bytes extra information provided by the token holder (if any)\n     * @param operatorData bytes extra information provided by the operator (if any)\n     * @param requireReceptionAck if true, contract recipients are required to implement ERC777TokensRecipient\n     */\n    function _send(\n        address operator,\n        address from,\n        address to,\n        uint256 amount,\n        bytes memory userData,\n        bytes memory operatorData,\n        bool requireReceptionAck\n    )\n        private\n    {\n        require(from != address(0), \"ERC777: send from the zero address\");\n        require(to != address(0), \"ERC777: send to the zero address\");\n\n        _callTokensToSend(operator, from, to, amount, userData, operatorData);\n\n        _move(operator, from, to, amount, userData, operatorData);\n\n        _callTokensReceived(operator, from, to, amount, userData, operatorData, requireReceptionAck);\n    }\n\n    /**\n     * @dev Burn tokens\n     * @param operator address operator requesting the operation\n     * @param from address token holder address\n     * @param amount uint256 amount of tokens to burn\n     * @param data bytes extra information provided by the token holder\n     * @param operatorData bytes extra information provided by the operator (if any)\n     */\n    function _burn(\n        address operator,\n        address from,\n        uint256 amount,\n        bytes memory data,\n        bytes memory operatorData\n    )\n        private\n    {\n        require(from != address(0), \"ERC777: burn from the zero address\");\n\n        _callTokensToSend(operator, from, address(0), amount, data, operatorData);\n\n        // Update state variables\n        _totalSupply = _totalSupply.sub(amount);\n        _balances[from] = _balances[from].sub(amount);\n\n        emit Burned(operator, from, amount, data, operatorData);\n        emit Transfer(from, address(0), amount);\n    }\n\n    function _move(\n        address operator,\n        address from,\n        address to,\n        uint256 amount,\n        bytes memory userData,\n        bytes memory operatorData\n    )\n        private\n    {\n        _balances[from] = _balances[from].sub(amount);\n        _balances[to] = _balances[to].add(amount);\n\n        emit Sent(operator, from, to, amount, userData, operatorData);\n        emit Transfer(from, to, amount);\n    }\n\n    function _approve(address holder, address spender, uint256 value) private {\n        // TODO: restore this require statement if this function becomes internal, or is called at a new callsite. It is\n        // currently unnecessary.\n        //require(holder != address(0), \"ERC777: approve from the zero address\");\n        require(spender != address(0), \"ERC777: approve to the zero address\");\n\n        _allowances[holder][spender] = value;\n        emit Approval(holder, spender, value);\n    }\n\n    /**\n     * @dev Call from.tokensToSend() if the interface is registered\n     * @param operator address operator requesting the transfer\n     * @param from address token holder address\n     * @param to address recipient address\n     * @param amount uint256 amount of tokens to transfer\n     * @param userData bytes extra information provided by the token holder (if any)\n     * @param operatorData bytes extra information provided by the operator (if any)\n     */\n    function _callTokensToSend(\n        address operator,\n        address from,\n        address to,\n        uint256 amount,\n        bytes memory userData,\n        bytes memory operatorData\n    )\n        private\n    {\n        require(!transfersPaused);\n        address implementer = _erc1820.getInterfaceImplementer(from, TOKENS_SENDER_INTERFACE_HASH);\n        if (implementer != address(0)) {\n            IERC777Sender(implementer).tokensToSend(operator, from, to, amount, userData, operatorData);\n        }\n    }\n\n    /**\n     * @dev Call to.tokensReceived() if the interface is registered. Reverts if the recipient is a contract but\n     * tokensReceived() was not registered for the recipient\n     * @param operator address operator requesting the transfer\n     * @param from address token holder address\n     * @param to address recipient address\n     * @param amount uint256 amount of tokens to transfer\n     * @param userData bytes extra information provided by the token holder (if any)\n     * @param operatorData bytes extra information provided by the operator (if any)\n     * @param requireReceptionAck if true, contract recipients are required to implement ERC777TokensRecipient\n     */\n    function _callTokensReceived(\n        address operator,\n        address from,\n        address to,\n        uint256 amount,\n        bytes memory userData,\n        bytes memory operatorData,\n        bool requireReceptionAck\n    )\n        private\n    {\n        require(!transfersPaused);\n        address implementer = _erc1820.getInterfaceImplementer(to, TOKENS_RECIPIENT_INTERFACE_HASH);\n        if (implementer != address(0)) {\n            IERC777Recipient(implementer).tokensReceived(operator, from, to, amount, userData, operatorData);\n        } else if (requireReceptionAck) {\n            require(!to.isContract(), \"ERC777: token recipient contract has no implementer for ERC777TokensRecipient\");\n        }\n    }\n\n\n    /**\n    * @notice Switch coordinating if burning tokens is allowed, burning is diabled by default\n    */\n    function changeBurnPermissions() external onlyOwners {\n        burningAllowed = !burningAllowed;\n    }\n\n    /**\n    * @notice Token allocation refers to how many tokens a user will gain from interacting with 'DocumentRegistration'\n    */\n    function setTokenAllocation(uint _newAllocation) external onlyOwners {\n        allocation = _newAllocation;\n    }\n\n    /**\n    * @dev Function can only be called by DocumentRegistration contract - Only way to get tokens\n    * @notice Sends number of tokens specified by 'allocation' to user\n    */\n    function distributeTokens(address account) external returns (bool) {\n        require(msg.sender == documentRegistrationAddress,\n        \"Only Document Registration contract can call this function\");\n        _balances[account] = _balances[account].add(allocation);\n        tokensLeft = tokensLeft.sub(allocation);\n        address from = msg.sender;\n        _callTokensReceived(from, from, account, allocation, \"\", \"\", false);\n        return true;\n    }\n\n    /**\n    * @dev Can only be called by 'FeePool' contract when dividend payout period is activated\n    * @notice Switch coordinating if transfers are currently allowed\n    */\n    function pauseTransfers() external onlyOwners {\n        require(msg.sender == feePoolAddress);\n        transfersPaused = !transfersPaused;\n    }\n\n\n    /**\n    * @notice Sets address of 'FeePool' contract\n    */\n    function setPoolAddress(address _contract) external onlyOwners {\n        feePoolAddress = _contract;\n    }\n\n\n    /**\n    * @notice Sets address of 'DocumentRegistration' contract\n    */\n    function setDocumentRegistration(address _contract) external onlyOwners {\n        documentRegistrationAddress = _contract;\n    }\n\n    function() external payable { revert(); }\n\n\n}\n",
  "sourcePath": "/Users/yakkomajuri/GitHub/bootcamp-finalproject/eth/contracts/CertfyToken.sol",
  "compiler": {
    "name": "solc",
    "version": "0.5.8+commit.23d335f2.Emscripten.clang"
  },
  "schemaVersion": "3.0.11",
  "updatedAt": "2019-07-30T11:43:21.905Z",
  "devdoc": {
    "details": "Implementation of the `IERC777` interface. * This implementation is agnostic to the way tokens are created. This means that a supply mechanism has to be added in a derived contract using `_mint`. * Support for ERC20 is included in this contract, as specified by the EIP: both the ERC777 and ERC20 interfaces can be safely used when interacting with it. Both `IERC777.Sent` and `IERC20.Transfer` events are emitted on token movements. * Additionally, the `granularity` value is hard-coded to `1`, meaning that there are no special restrictions in the amount of tokens that created, moved, or destroyed. This makes integration with ERC20 applications seamless.",
    "methods": {
      "allowance(address,address)": {
        "details": "See `IERC20.allowance`.     * Note that operator and allowance concepts are orthogonal: operators may not have allowance, and accounts with allowance may not be operators themselves."
      },
      "approve(address,uint256)": {
        "details": "See `IERC20.approve`.     * Note that accounts cannot have allowance issued by their operators."
      },
      "authorizeOperator(address)": {
        "details": "See `IERC777.authorizeOperator`."
      },
      "balanceOf(address)": {
        "details": "Returns the amount of tokens owned by an account (`tokenHolder`)."
      },
      "burn(uint256,bytes)": {
        "details": "See `IERC777.burn`.     * Also emits a `Transfer` event for ERC20 compatibility."
      },
      "constructor": {
        "details": "`defaultOperators` may be an empty array."
      },
      "decimals()": {
        "details": "See `ERC20Detailed.decimals`.     * Always returns 18, as per the [ERC777 EIP](https://eips.ethereum.org/EIPS/eip-777#backward-compatibility)."
      },
      "defaultOperators()": {
        "details": "See `IERC777.defaultOperators`."
      },
      "distributeTokens(address)": {
        "details": "Function can only be called by DocumentRegistration contract - Only way to get tokens"
      },
      "granularity()": {
        "details": "See `IERC777.granularity`.     * This implementation always returns `1`."
      },
      "isOperatorFor(address,address)": {
        "details": "See `IERC777.isOperatorFor`."
      },
      "name()": {
        "details": "See `IERC777.name`."
      },
      "operatorBurn(address,uint256,bytes,bytes)": {
        "details": "See `IERC777.operatorBurn`.     * Emits `Sent` and `Transfer` events."
      },
      "operatorSend(address,address,uint256,bytes,bytes)": {
        "details": "See `IERC777.operatorSend`.     * Emits `Sent` and `Transfer` events."
      },
      "pauseTransfers()": {
        "details": "Can only be called by 'FeePool' contract when dividend payout period is activated"
      },
      "revokeOperator(address)": {
        "details": "See `IERC777.revokeOperator`."
      },
      "send(address,uint256,bytes)": {
        "details": "See `IERC777.send`.     * Also emits a `Transfer` event for ERC20 compatibility."
      },
      "symbol()": {
        "details": "See `IERC777.symbol`."
      },
      "totalSupply()": {
        "details": "See `IERC777.totalSupply`."
      },
      "transfer(address,uint256)": {
        "details": "See `IERC20.transfer`.     * Unlike `send`, `recipient` is _not_ required to implement the `tokensReceived` interface if it is a contract.     * Also emits a `Sent` event."
      },
      "transferFrom(address,address,uint256)": {
        "details": "See `IERC20.transferFrom`.    * Note that operator and allowance concepts are orthogonal: operators cannot call `transferFrom` (unless they have allowance), and accounts with allowance cannot call `operatorSend` (unless they are operators).    * Emits `Sent` and `Transfer` events."
      }
    }
  },
  "userdoc": {
    "methods": {
      "changeBurnPermissions()": {
        "notice": "Switch coordinating if burning tokens is allowed, burning is diabled by default"
      },
      "distributeTokens(address)": {
        "notice": "Sends number of tokens specified by 'allocation' to user"
      },
      "pauseTransfers()": {
        "notice": "Switch coordinating if transfers are currently allowed"
      },
      "setDocumentRegistration(address)": {
        "notice": "Sets address of 'DocumentRegistration' contract"
      },
      "setPoolAddress(address)": {
        "notice": "Sets address of 'FeePool' contract"
      },
      "setTokenAllocation(uint256)": {
        "notice": "Token allocation refers to how many tokens a user will gain from interacting with 'DocumentRegistration'"
      }
    }
  }
}