{
  "contractName": "DocumentRegistration",
  "abi": [
    {
      "constant": true,
      "inputs": [
        {
          "name": "",
          "type": "bytes32"
        }
      ],
      "name": "temporaryRegistry",
      "outputs": [
        {
          "name": "name",
          "type": "string"
        },
        {
          "name": "metadata",
          "type": "string"
        },
        {
          "name": "timestamp",
          "type": "uint256"
        },
        {
          "name": "registrant",
          "type": "address"
        },
        {
          "name": "signee",
          "type": "address"
        },
        {
          "name": "hash",
          "type": "bytes32"
        },
        {
          "name": "isEntity",
          "type": "bool"
        }
      ],
      "payable": false,
      "stateMutability": "view",
      "type": "function"
    },
    {
      "constant": true,
      "inputs": [
        {
          "name": "",
          "type": "address"
        },
        {
          "name": "",
          "type": "uint32"
        }
      ],
      "name": "userDocs",
      "outputs": [
        {
          "name": "name",
          "type": "string"
        },
        {
          "name": "metadata",
          "type": "string"
        },
        {
          "name": "timestamp",
          "type": "uint256"
        },
        {
          "name": "registrant",
          "type": "address"
        },
        {
          "name": "signee",
          "type": "address"
        },
        {
          "name": "hash",
          "type": "bytes32"
        },
        {
          "name": "isEntity",
          "type": "bool"
        }
      ],
      "payable": false,
      "stateMutability": "view",
      "type": "function"
    },
    {
      "constant": true,
      "inputs": [],
      "name": "tokenContract",
      "outputs": [
        {
          "name": "",
          "type": "address"
        }
      ],
      "payable": false,
      "stateMutability": "view",
      "type": "function"
    },
    {
      "constant": true,
      "inputs": [
        {
          "name": "",
          "type": "uint256"
        }
      ],
      "name": "registrants",
      "outputs": [
        {
          "name": "name",
          "type": "string"
        },
        {
          "name": "description",
          "type": "string"
        },
        {
          "name": "user",
          "type": "address"
        },
        {
          "name": "isEntity",
          "type": "bool"
        }
      ],
      "payable": false,
      "stateMutability": "view",
      "type": "function"
    },
    {
      "constant": true,
      "inputs": [
        {
          "name": "",
          "type": "bytes32"
        }
      ],
      "name": "registry",
      "outputs": [
        {
          "name": "name",
          "type": "string"
        },
        {
          "name": "metadata",
          "type": "string"
        },
        {
          "name": "timestamp",
          "type": "uint256"
        },
        {
          "name": "registrant",
          "type": "address"
        },
        {
          "name": "signee",
          "type": "address"
        },
        {
          "name": "hash",
          "type": "bytes32"
        },
        {
          "name": "isEntity",
          "type": "bool"
        }
      ],
      "payable": false,
      "stateMutability": "view",
      "type": "function"
    },
    {
      "constant": true,
      "inputs": [],
      "name": "ownerContract",
      "outputs": [
        {
          "name": "",
          "type": "address"
        }
      ],
      "payable": false,
      "stateMutability": "view",
      "type": "function"
    },
    {
      "constant": true,
      "inputs": [
        {
          "name": "",
          "type": "address"
        }
      ],
      "name": "verifiedAddress",
      "outputs": [
        {
          "name": "name",
          "type": "string"
        },
        {
          "name": "description",
          "type": "string"
        },
        {
          "name": "user",
          "type": "address"
        },
        {
          "name": "isEntity",
          "type": "bool"
        }
      ],
      "payable": false,
      "stateMutability": "view",
      "type": "function"
    },
    {
      "constant": true,
      "inputs": [],
      "name": "current",
      "outputs": [
        {
          "name": "",
          "type": "address"
        }
      ],
      "payable": false,
      "stateMutability": "view",
      "type": "function"
    },
    {
      "constant": true,
      "inputs": [],
      "name": "feePoolContract",
      "outputs": [
        {
          "name": "",
          "type": "address"
        }
      ],
      "payable": false,
      "stateMutability": "view",
      "type": "function"
    },
    {
      "constant": true,
      "inputs": [
        {
          "name": "",
          "type": "uint256"
        }
      ],
      "name": "prices",
      "outputs": [
        {
          "name": "",
          "type": "uint256"
        }
      ],
      "payable": false,
      "stateMutability": "view",
      "type": "function"
    },
    {
      "constant": true,
      "inputs": [
        {
          "name": "",
          "type": "uint256"
        }
      ],
      "name": "documents",
      "outputs": [
        {
          "name": "name",
          "type": "string"
        },
        {
          "name": "metadata",
          "type": "string"
        },
        {
          "name": "timestamp",
          "type": "uint256"
        },
        {
          "name": "registrant",
          "type": "address"
        },
        {
          "name": "signee",
          "type": "address"
        },
        {
          "name": "hash",
          "type": "bytes32"
        },
        {
          "name": "isEntity",
          "type": "bool"
        }
      ],
      "payable": false,
      "stateMutability": "view",
      "type": "function"
    },
    {
      "constant": true,
      "inputs": [
        {
          "name": "",
          "type": "address"
        }
      ],
      "name": "docsPerUser",
      "outputs": [
        {
          "name": "",
          "type": "uint32"
        }
      ],
      "payable": false,
      "stateMutability": "view",
      "type": "function"
    },
    {
      "constant": true,
      "inputs": [
        {
          "name": "",
          "type": "uint256"
        }
      ],
      "name": "temporaryDocs",
      "outputs": [
        {
          "name": "name",
          "type": "string"
        },
        {
          "name": "metadata",
          "type": "string"
        },
        {
          "name": "timestamp",
          "type": "uint256"
        },
        {
          "name": "registrant",
          "type": "address"
        },
        {
          "name": "signee",
          "type": "address"
        },
        {
          "name": "hash",
          "type": "bytes32"
        },
        {
          "name": "isEntity",
          "type": "bool"
        }
      ],
      "payable": false,
      "stateMutability": "view",
      "type": "function"
    },
    {
      "payable": true,
      "stateMutability": "payable",
      "type": "fallback"
    },
    {
      "anonymous": false,
      "inputs": [
        {
          "indexed": false,
          "name": "index",
          "type": "uint256"
        }
      ],
      "name": "LogDocumentIndex",
      "type": "event"
    },
    {
      "anonymous": false,
      "inputs": [
        {
          "indexed": false,
          "name": "index",
          "type": "uint256"
        }
      ],
      "name": "LogTemporaryIndex",
      "type": "event"
    },
    {
      "constant": false,
      "inputs": [
        {
          "name": "_ownerContract",
          "type": "address"
        }
      ],
      "name": "setOwnersContract",
      "outputs": [],
      "payable": false,
      "stateMutability": "nonpayable",
      "type": "function"
    },
    {
      "constant": false,
      "inputs": [
        {
          "name": "_tokenContract",
          "type": "address"
        }
      ],
      "name": "setTokenContract",
      "outputs": [],
      "payable": false,
      "stateMutability": "nonpayable",
      "type": "function"
    },
    {
      "constant": false,
      "inputs": [
        {
          "name": "_prices",
          "type": "uint256[]"
        }
      ],
      "name": "setPrices",
      "outputs": [],
      "payable": false,
      "stateMutability": "nonpayable",
      "type": "function"
    },
    {
      "constant": false,
      "inputs": [
        {
          "name": "_current",
          "type": "address"
        }
      ],
      "name": "setCurrent",
      "outputs": [],
      "payable": false,
      "stateMutability": "nonpayable",
      "type": "function"
    },
    {
      "constant": false,
      "inputs": [
        {
          "name": "_contractAddress",
          "type": "address"
        }
      ],
      "name": "setPoolContract",
      "outputs": [],
      "payable": false,
      "stateMutability": "nonpayable",
      "type": "function"
    },
    {
      "constant": false,
      "inputs": [
        {
          "name": "_name",
          "type": "string"
        },
        {
          "name": "_metadata",
          "type": "string"
        },
        {
          "name": "_fileHash",
          "type": "bytes32"
        }
      ],
      "name": "registerDocument",
      "outputs": [],
      "payable": true,
      "stateMutability": "payable",
      "type": "function"
    },
    {
      "constant": false,
      "inputs": [
        {
          "name": "_name",
          "type": "string"
        },
        {
          "name": "_metadata",
          "type": "string"
        },
        {
          "name": "_fileHash",
          "type": "bytes32"
        },
        {
          "name": "_signee",
          "type": "address"
        }
      ],
      "name": "registerMultiSig",
      "outputs": [],
      "payable": true,
      "stateMutability": "payable",
      "type": "function"
    },
    {
      "constant": false,
      "inputs": [
        {
          "name": "_name",
          "type": "string"
        },
        {
          "name": "_temporaryIndex",
          "type": "uint32"
        }
      ],
      "name": "signDocument",
      "outputs": [],
      "payable": true,
      "stateMutability": "payable",
      "type": "function"
    },
    {
      "constant": false,
      "inputs": [
        {
          "name": "_name",
          "type": "string"
        },
        {
          "name": "_description",
          "type": "string"
        }
      ],
      "name": "registerAddress",
      "outputs": [],
      "payable": true,
      "stateMutability": "payable",
      "type": "function"
    },
    {
      "constant": false,
      "inputs": [
        {
          "name": "_name",
          "type": "string"
        },
        {
          "name": "_description",
          "type": "string"
        }
      ],
      "name": "updateInfo",
      "outputs": [],
      "payable": true,
      "stateMutability": "payable",
      "type": "function"
    },
    {
      "constant": true,
      "inputs": [
        {
          "name": "_name",
          "type": "string"
        },
        {
          "name": "_nameIndex",
          "type": "uint32"
        },
        {
          "name": "_fileHash",
          "type": "bytes32"
        }
      ],
      "name": "verifyDocument",
      "outputs": [
        {
          "name": "",
          "type": "bool"
        }
      ],
      "payable": false,
      "stateMutability": "view",
      "type": "function"
    },
    {
      "constant": true,
      "inputs": [
        {
          "name": "_name",
          "type": "string"
        },
        {
          "name": "_index",
          "type": "uint32"
        }
      ],
      "name": "checkTemporary",
      "outputs": [
        {
          "name": "",
          "type": "string"
        },
        {
          "name": "",
          "type": "uint256"
        },
        {
          "name": "",
          "type": "address"
        },
        {
          "name": "",
          "type": "address"
        },
        {
          "name": "",
          "type": "bytes32"
        }
      ],
      "payable": false,
      "stateMutability": "view",
      "type": "function"
    },
    {
      "constant": true,
      "inputs": [
        {
          "name": "_name",
          "type": "string"
        },
        {
          "name": "_nameIndex",
          "type": "uint32"
        }
      ],
      "name": "documentQuery",
      "outputs": [
        {
          "name": "",
          "type": "string"
        },
        {
          "name": "",
          "type": "uint256"
        },
        {
          "name": "",
          "type": "address"
        },
        {
          "name": "",
          "type": "address"
        }
      ],
      "payable": false,
      "stateMutability": "view",
      "type": "function"
    }
  ],
  "bytecode": "0x608060405234801561001057600080fd5b50615edf80620000216000396000f3fe6080604052600436106101815760003560e01c80638ee27c1f116100d1578063bbcd5bbe1161008a578063c2ed2b0511610064578063c2ed2b0514611432578063c62c8ce7146115d1578063eaccc9ae14611642578063fde628a21461171057610181565b8063bbcd5bbe1461129a578063bc31c1c1146112eb578063c04354ff1461133a57610181565b80638ee27c1f14610e2257806393d4457a14610e735780639e091e3114610fe75780639fa6a6e314611070578063ac8aff37146110c7578063bac08c311461111e57610181565b806359c3f3e01161013e578063741cb27811610118578063741cb27814610a2357806379cf92d314610ba65780637ef5029814610c2c5780637f74ac1514610dcb57610181565b806359c3f3e01461079c5780635bb15db4146107ed5780636ac4d582146108c557610181565b80631a8e3c3b1461018657806345675464146101d75780634655948b1461037657806347d5a0911461053b5780634b288acf1461068d57806355a373d614610745575b600080fd5b34801561019257600080fd5b506101d5600480360360208110156101a957600080fd5b81019080803573ffffffffffffffffffffffffffffffffffffffff1690602001909291905050506118af565b005b3480156101e357600080fd5b50610210600480360360208110156101fa57600080fd5b81019080803590602001909291905050506119d6565b6040518080602001806020018881526020018773ffffffffffffffffffffffffffffffffffffffff1673ffffffffffffffffffffffffffffffffffffffff1681526020018673ffffffffffffffffffffffffffffffffffffffff1673ffffffffffffffffffffffffffffffffffffffff1681526020018581526020018415151515815260200183810383528a818151815260200191508051906020019080838360005b838110156102ce5780820151818401526020810190506102b3565b50505050905090810190601f1680156102fb5780820380516001836020036101000a031916815260200191505b50838103825289818151815260200191508051906020019080838360005b83811015610334578082015181840152602081019050610319565b50505050905090810190601f1680156103615780820380516001836020036101000a031916815260200191505b50995050505050505050505060405180910390f35b34801561038257600080fd5b506103d56004803603604081101561039957600080fd5b81019080803573ffffffffffffffffffffffffffffffffffffffff169060200190929190803563ffffffff169060200190929190505050611b95565b6040518080602001806020018881526020018773ffffffffffffffffffffffffffffffffffffffff1673ffffffffffffffffffffffffffffffffffffffff1681526020018673ffffffffffffffffffffffffffffffffffffffff1673ffffffffffffffffffffffffffffffffffffffff1681526020018581526020018415151515815260200183810383528a818151815260200191508051906020019080838360005b83811015610493578082015181840152602081019050610478565b50505050905090810190601f1680156104c05780820380516001836020036101000a031916815260200191505b50838103825289818151815260200191508051906020019080838360005b838110156104f95780820151818401526020810190506104de565b50505050905090810190601f1680156105265780820380516001836020036101000a031916815260200191505b50995050505050505050505060405180910390f35b61068b6004803603604081101561055157600080fd5b810190808035906020019064010000000081111561056e57600080fd5b82018360208201111561058057600080fd5b803590602001918460018302840111640100000000831117156105a257600080fd5b91908080601f016020809104026020016040519081016040528093929190818152602001838380828437600081840152601f19601f8201169050808301925050505050505091929192908035906020019064010000000081111561060557600080fd5b82018360208201111561061757600080fd5b8035906020019184600183028401116401000000008311171561063957600080fd5b91908080601f016020809104026020016040519081016040528093929190818152602001838380828437600081840152601f19601f820116905080830192505050505050509192919290505050611d61565b005b34801561069957600080fd5b5061072b600480360360608110156106b057600080fd5b81019080803590602001906401000000008111156106cd57600080fd5b8201836020820111156106df57600080fd5b8035906020019184600183028401116401000000008311171561070157600080fd5b9091929391929390803563ffffffff1690602001909291908035906020019092919050505061210f565b604051808215151515815260200191505060405180910390f35b34801561075157600080fd5b5061075a612191565b604051808273ffffffffffffffffffffffffffffffffffffffff1673ffffffffffffffffffffffffffffffffffffffff16815260200191505060405180910390f35b3480156107a857600080fd5b506107eb600480360360208110156107bf57600080fd5b81019080803573ffffffffffffffffffffffffffffffffffffffff1690602001909291905050506121b6565b005b6108c36004803603606081101561080357600080fd5b810190808035906020019064010000000081111561082057600080fd5b82018360208201111561083257600080fd5b8035906020019184600183028401116401000000008311171561085457600080fd5b90919293919293908035906020019064010000000081111561087557600080fd5b82018360208201111561088757600080fd5b803590602001918460018302840111640100000000831117156108a957600080fd5b9091929391929390803590602001909291905050506122dd565b005b3480156108d157600080fd5b506108fe600480360360208110156108e857600080fd5b8101908080359060200190929190505050612db3565b6040518080602001806020018573ffffffffffffffffffffffffffffffffffffffff1673ffffffffffffffffffffffffffffffffffffffff16815260200184151515158152602001838103835287818151815260200191508051906020019080838360005b8381101561097e578082015181840152602081019050610963565b50505050905090810190601f1680156109ab5780820380516001836020036101000a031916815260200191505b50838103825286818151815260200191508051906020019080838360005b838110156109e45780820151818401526020810190506109c9565b50505050905090810190601f168015610a115780820380516001836020036101000a031916815260200191505b50965050505050505060405180910390f35b348015610a2f57600080fd5b50610ab760048036036040811015610a4657600080fd5b8101908080359060200190640100000000811115610a6357600080fd5b820183602082011115610a7557600080fd5b80359060200191846001830284011164010000000083111715610a9757600080fd5b9091929391929390803563ffffffff169060200190929190505050612f4d565b60405180806020018681526020018573ffffffffffffffffffffffffffffffffffffffff1673ffffffffffffffffffffffffffffffffffffffff1681526020018473ffffffffffffffffffffffffffffffffffffffff1673ffffffffffffffffffffffffffffffffffffffff168152602001838152602001828103825287818151815260200191508051906020019080838360005b83811015610b67578082015181840152602081019050610b4c565b50505050905090810190601f168015610b945780820380516001836020036101000a031916815260200191505b50965050505050505060405180910390f35b348015610bb257600080fd5b50610c2a60048036036020811015610bc957600080fd5b8101908080359060200190640100000000811115610be657600080fd5b820183602082011115610bf857600080fd5b80359060200191846020830284011164010000000083111715610c1a57600080fd5b9091929391929390505050613104565b005b348015610c3857600080fd5b50610c6560048036036020811015610c4f57600080fd5b81019080803590602001909291905050506131fd565b6040518080602001806020018881526020018773ffffffffffffffffffffffffffffffffffffffff1673ffffffffffffffffffffffffffffffffffffffff1681526020018673ffffffffffffffffffffffffffffffffffffffff1673ffffffffffffffffffffffffffffffffffffffff1681526020018581526020018415151515815260200183810383528a818151815260200191508051906020019080838360005b83811015610d23578082015181840152602081019050610d08565b50505050905090810190601f168015610d505780820380516001836020036101000a031916815260200191505b50838103825289818151815260200191508051906020019080838360005b83811015610d89578082015181840152602081019050610d6e565b50505050905090810190601f168015610db65780820380516001836020036101000a031916815260200191505b50995050505050505050505060405180910390f35b348015610dd757600080fd5b50610de06133bc565b604051808273ffffffffffffffffffffffffffffffffffffffff1673ffffffffffffffffffffffffffffffffffffffff16815260200191505060405180910390f35b348015610e2e57600080fd5b50610e7160048036036020811015610e4557600080fd5b81019080803573ffffffffffffffffffffffffffffffffffffffff1690602001909291905050506133e2565b005b348015610e7f57600080fd5b50610ec260048036036020811015610e9657600080fd5b81019080803573ffffffffffffffffffffffffffffffffffffffff169060200190929190505050613461565b6040518080602001806020018573ffffffffffffffffffffffffffffffffffffffff1673ffffffffffffffffffffffffffffffffffffffff16815260200184151515158152602001838103835287818151815260200191508051906020019080838360005b83811015610f42578082015181840152602081019050610f27565b50505050905090810190601f168015610f6f5780820380516001836020036101000a031916815260200191505b50838103825286818151815260200191508051906020019080838360005b83811015610fa8578082015181840152602081019050610f8d565b50505050905090810190601f168015610fd55780820380516001836020036101000a031916815260200191505b50965050505050505060405180910390f35b61106e60048036036040811015610ffd57600080fd5b810190808035906020019064010000000081111561101a57600080fd5b82018360208201111561102c57600080fd5b8035906020019184600183028401116401000000008311171561104e57600080fd5b9091929391929390803563ffffffff1690602001909291905050506135ee565b005b34801561107c57600080fd5b50611085614809565b604051808273ffffffffffffffffffffffffffffffffffffffff1673ffffffffffffffffffffffffffffffffffffffff16815260200191505060405180910390f35b3480156110d357600080fd5b506110dc61482f565b604051808273ffffffffffffffffffffffffffffffffffffffff1673ffffffffffffffffffffffffffffffffffffffff16815260200191505060405180910390f35b34801561112a57600080fd5b506111b26004803603604081101561114157600080fd5b810190808035906020019064010000000081111561115e57600080fd5b82018360208201111561117057600080fd5b8035906020019184600183028401116401000000008311171561119257600080fd5b9091929391929390803563ffffffff169060200190929190505050614855565b60405180806020018581526020018473ffffffffffffffffffffffffffffffffffffffff1673ffffffffffffffffffffffffffffffffffffffff1681526020018373ffffffffffffffffffffffffffffffffffffffff1673ffffffffffffffffffffffffffffffffffffffff168152602001828103825286818151815260200191508051906020019080838360005b8381101561125c578082015181840152602081019050611241565b50505050905090810190601f1680156112895780820380516001836020036101000a031916815260200191505b509550505050505060405180910390f35b3480156112a657600080fd5b506112e9600480360360208110156112bd57600080fd5b81019080803573ffffffffffffffffffffffffffffffffffffffff1690602001909291905050506149ef565b005b3480156112f757600080fd5b506113246004803603602081101561130e57600080fd5b8101908080359060200190929190505050614b15565b6040518082815260200191505060405180910390f35b6114306004803603608081101561135057600080fd5b810190808035906020019064010000000081111561136d57600080fd5b82018360208201111561137f57600080fd5b803590602001918460018302840111640100000000831117156113a157600080fd5b9091929391929390803590602001906401000000008111156113c257600080fd5b8201836020820111156113d457600080fd5b803590602001918460018302840111640100000000831117156113f657600080fd5b909192939192939080359060200190929190803573ffffffffffffffffffffffffffffffffffffffff169060200190929190505050614b36565b005b34801561143e57600080fd5b5061146b6004803603602081101561145557600080fd5b8101908080359060200190929190505050615328565b6040518080602001806020018881526020018773ffffffffffffffffffffffffffffffffffffffff1673ffffffffffffffffffffffffffffffffffffffff1681526020018673ffffffffffffffffffffffffffffffffffffffff1673ffffffffffffffffffffffffffffffffffffffff1681526020018581526020018415151515815260200183810383528a818151815260200191508051906020019080838360005b8381101561152957808201518184015260208101905061150e565b50505050905090810190601f1680156115565780820380516001836020036101000a031916815260200191505b50838103825289818151815260200191508051906020019080838360005b8381101561158f578082015181840152602081019050611574565b50505050905090810190601f1680156115bc5780820380516001836020036101000a031916815260200191505b50995050505050505050505060405180910390f35b3480156115dd57600080fd5b50611620600480360360208110156115f457600080fd5b81019080803573ffffffffffffffffffffffffffffffffffffffff1690602001909291905050506154f4565b604051808263ffffffff1663ffffffff16815260200191505060405180910390f35b61170e6004803603604081101561165857600080fd5b810190808035906020019064010000000081111561167557600080fd5b82018360208201111561168757600080fd5b803590602001918460018302840111640100000000831117156116a957600080fd5b9091929391929390803590602001906401000000008111156116ca57600080fd5b8201836020820111156116dc57600080fd5b803590602001918460018302840111640100000000831117156116fe57600080fd5b9091929391929390505050615517565b005b34801561171c57600080fd5b506117496004803603602081101561173357600080fd5b8101908080359060200190929190505050615ac9565b6040518080602001806020018881526020018773ffffffffffffffffffffffffffffffffffffffff1673ffffffffffffffffffffffffffffffffffffffff1681526020018673ffffffffffffffffffffffffffffffffffffffff1673ffffffffffffffffffffffffffffffffffffffff1681526020018581526020018415151515815260200183810383528a818151815260200191508051906020019080838360005b838110156118075780820151818401526020810190506117ec565b50505050905090810190601f1680156118345780820380516001836020036101000a031916815260200191505b50838103825289818151815260200191508051906020019080838360005b8381101561186d578082015181840152602081019050611852565b50505050905090810190601f16801561189a5780820380516001836020036101000a031916815260200191505b50995050505050505050505060405180910390f35b600160009054906101000a900473ffffffffffffffffffffffffffffffffffffffff1673ffffffffffffffffffffffffffffffffffffffff1663fd8b84b1336040518263ffffffff1660e01b8152600401808273ffffffffffffffffffffffffffffffffffffffff1673ffffffffffffffffffffffffffffffffffffffff16815260200191505060206040518083038186803b15801561194e57600080fd5b505afa158015611962573d6000803e3d6000fd5b505050506040513d602081101561197857600080fd5b810190808051906020019092919050505061199257600080fd5b80600360006101000a81548173ffffffffffffffffffffffffffffffffffffffff021916908373ffffffffffffffffffffffffffffffffffffffff16021790555050565b6008602052806000526040600020600091509050806000018054600181600116156101000203166002900480601f016020809104026020016040519081016040528092919081815260200182805460018160011615610100020316600290048015611a825780601f10611a5757610100808354040283529160200191611a82565b820191906000526020600020905b815481529060010190602001808311611a6557829003601f168201915b505050505090806001018054600181600116156101000203166002900480601f016020809104026020016040519081016040528092919081815260200182805460018160011615610100020316600290048015611b205780601f10611af557610100808354040283529160200191611b20565b820191906000526020600020905b815481529060010190602001808311611b0357829003601f168201915b5050505050908060020154908060030160009054906101000a900473ffffffffffffffffffffffffffffffffffffffff16908060040160009054906101000a900473ffffffffffffffffffffffffffffffffffffffff16908060050154908060060160009054906101000a900460ff16905087565b600b60205281600052604060002060205280600052604060002060009150915050806000018054600181600116156101000203166002900480601f016020809104026020016040519081016040528092919081815260200182805460018160011615610100020316600290048015611c4e5780601f10611c2357610100808354040283529160200191611c4e565b820191906000526020600020905b815481529060010190602001808311611c3157829003601f168201915b505050505090806001018054600181600116156101000203166002900480601f016020809104026020016040519081016040528092919081815260200182805460018160011615610100020316600290048015611cec5780601f10611cc157610100808354040283529160200191611cec565b820191906000526020600020905b815481529060010190602001808311611ccf57829003601f168201915b5050505050908060020154908060030160009054906101000a900473ffffffffffffffffffffffffffffffffffffffff16908060040160009054906101000a900473ffffffffffffffffffffffffffffffffffffffff16908060050154908060060160009054906101000a900460ff16905087565b6004600381548110611d6f57fe5b90600052602060002001543414611d8557600080fd5b600a60003373ffffffffffffffffffffffffffffffffffffffff1673ffffffffffffffffffffffffffffffffffffffff16815260200190815260200160002060020160149054906101000a900460ff16611dde57600080fd5b600360009054906101000a900473ffffffffffffffffffffffffffffffffffffffff1673ffffffffffffffffffffffffffffffffffffffff166108fc60023481611e2457fe5b049081150290604051600060405180830381858888f19350505050158015611e50573d6000803e3d6000fd5b506000600260009054906101000a900473ffffffffffffffffffffffffffffffffffffffff16905060008190508073ffffffffffffffffffffffffffffffffffffffff166108fc60023481611ea157fe5b049081150290604051600060405180830381858888f19350505050158015611ecd573d6000803e3d6000fd5b5083600a60003373ffffffffffffffffffffffffffffffffffffffff1673ffffffffffffffffffffffffffffffffffffffff1681526020019081526020016000206000019080519060200190611f24929190615c95565b5082600a60003373ffffffffffffffffffffffffffffffffffffffff1673ffffffffffffffffffffffffffffffffffffffff1681526020019081526020016000206001019080519060200190611f7b929190615c95565b50600760405180608001604052808681526020018581526020013373ffffffffffffffffffffffffffffffffffffffff16815260200160011515815250908060018154018082558091505090600182039060005260206000209060030201600090919290919091506000820151816000019080519060200190611fff929190615d15565b50602082015181600101908051906020019061201c929190615d15565b5060408201518160020160006101000a81548173ffffffffffffffffffffffffffffffffffffffff021916908373ffffffffffffffffffffffffffffffffffffffff16021790555060608201518160020160146101000a81548160ff021916908315150217905550505050600260009054906101000a900473ffffffffffffffffffffffffffffffffffffffff1673ffffffffffffffffffffffffffffffffffffffff166313db4e1a6040518163ffffffff1660e01b8152600401600060405180830381600087803b1580156120f157600080fd5b505af1158015612105573d6000803e3d6000fd5b5050505050505050565b60008085858560405160200180848480828437808301925050508263ffffffff1663ffffffff1660e01b815260040193505050506040516020818303038152906040528051906020012090508260096000838152602001908152602001600020600501541415612183576001915050612189565b60009150505b949350505050565b6000809054906101000a900473ffffffffffffffffffffffffffffffffffffffff1681565b600160009054906101000a900473ffffffffffffffffffffffffffffffffffffffff1673ffffffffffffffffffffffffffffffffffffffff1663fd8b84b1336040518263ffffffff1660e01b8152600401808273ffffffffffffffffffffffffffffffffffffffff1673ffffffffffffffffffffffffffffffffffffffff16815260200191505060206040518083038186803b15801561225557600080fd5b505afa158015612269573d6000803e3d6000fd5b505050506040513d602081101561227f57600080fd5b810190808051906020019092919050505061229957600080fd5b80600260006101000a81548173ffffffffffffffffffffffffffffffffffffffff021916908373ffffffffffffffffffffffffffffffffffffffff16021790555050565b60046001815481106122eb57fe5b9060005260206000200154341461236a576040517f08c379a000000000000000000000000000000000000000000000000000000000815260040180806020018281038252600b8152602001807f77726f6e672076616c756500000000000000000000000000000000000000000081525060200191505060405180910390fd5b600360009054906101000a900473ffffffffffffffffffffffffffffffffffffffff1673ffffffffffffffffffffffffffffffffffffffff166108fc600234816123b057fe5b049081150290604051600060405180830381858888f193505050501580156123dc573d6000803e3d6000fd5b506000600260009054906101000a900473ffffffffffffffffffffffffffffffffffffffff16905060008190508073ffffffffffffffffffffffffffffffffffffffff166108fc6002348161242d57fe5b049081150290604051600060405180830381858888f19350505050158015612459573d6000803e3d6000fd5b5060008787600e8a8a604051808383808284378083019250505092505050908152602001604051809103902060009054906101000a900463ffffffff1660405160200180848480828437808301925050508263ffffffff1663ffffffff1660e01b815260040193505050506040516020818303038152906040528051906020012090506040518060e0016040528089898080601f016020809104026020016040519081016040528093929190818152602001838380828437600081840152601f19601f82011690508083019250505050505050815260200187878080601f016020809104026020016040519081016040528093929190818152602001838380828437600081840152601f19601f8201169050808301925050505050505081526020014281526020013373ffffffffffffffffffffffffffffffffffffffff168152602001600073ffffffffffffffffffffffffffffffffffffffff168152602001858152602001600115158152506009600083815260200190815260200160002060008201518160000190805190602001906125f6929190615d15565b506020820151816001019080519060200190612613929190615d15565b506040820151816002015560608201518160030160006101000a81548173ffffffffffffffffffffffffffffffffffffffff021916908373ffffffffffffffffffffffffffffffffffffffff16021790555060808201518160040160006101000a81548173ffffffffffffffffffffffffffffffffffffffff021916908373ffffffffffffffffffffffffffffffffffffffff16021790555060a0820151816005015560c08201518160060160006101000a81548160ff0219169083151502179055509050600b60003373ffffffffffffffffffffffffffffffffffffffff1673ffffffffffffffffffffffffffffffffffffffff1681526020019081526020016000206000600c60003373ffffffffffffffffffffffffffffffffffffffff1673ffffffffffffffffffffffffffffffffffffffff16815260200190815260200160002060009054906101000a900463ffffffff1663ffffffff1663ffffffff168152602001908152602001600020600082018160000190805460018160011615610100020316600290046127aa929190615d95565b50600182018160010190805460018160011615610100020316600290046127d2929190615d95565b50600282015481600201556003820160009054906101000a900473ffffffffffffffffffffffffffffffffffffffff168160030160006101000a81548173ffffffffffffffffffffffffffffffffffffffff021916908373ffffffffffffffffffffffffffffffffffffffff1602179055506004820160009054906101000a900473ffffffffffffffffffffffffffffffffffffffff168160040160006101000a81548173ffffffffffffffffffffffffffffffffffffffff021916908373ffffffffffffffffffffffffffffffffffffffff160217905550600582015481600501556006820160009054906101000a900460ff168160060160006101000a81548160ff02191690831515021790555090505060066040518060e001604052808a8a8080601f016020809104026020016040519081016040528093929190818152602001838380828437600081840152601f19601f82011690508083019250505050505050815260200188888080601f016020809104026020016040519081016040528093929190818152602001838380828437600081840152601f19601f8201169050808301925050505050505081526020014281526020013373ffffffffffffffffffffffffffffffffffffffff168152602001600073ffffffffffffffffffffffffffffffffffffffff16815260200186815260200160011515815250908060018154018082558091505090600182039060005260206000209060070201600090919290919091506000820151816000019080519060200190612a19929190615d15565b506020820151816001019080519060200190612a36929190615d15565b506040820151816002015560608201518160030160006101000a81548173ffffffffffffffffffffffffffffffffffffffff021916908373ffffffffffffffffffffffffffffffffffffffff16021790555060808201518160040160006101000a81548173ffffffffffffffffffffffffffffffffffffffff021916908373ffffffffffffffffffffffffffffffffffffffff16021790555060a0820151816005015560c08201518160060160006101000a81548160ff021916908315150217905550505050600e88886040518083838082843780830192505050925050509081526020016040518091039020600081819054906101000a900463ffffffff168092919060010191906101000a81548163ffffffff021916908363ffffffff16021790555050600c60003373ffffffffffffffffffffffffffffffffffffffff1673ffffffffffffffffffffffffffffffffffffffff168152602001908152602001600020600081819054906101000a900463ffffffff168092919060010191906101000a81548163ffffffff021916908363ffffffff160217905550507fc8f254f7f069e4392d476359a2a29c2d37b35286e74f5d62fc14df9db37d09746001600e8a8a604051808383808284378083019250505092505050908152602001604051809103902060009054906101000a900463ffffffff1603604051808263ffffffff16815260200191505060405180910390a16000809054906101000a900473ffffffffffffffffffffffffffffffffffffffff1673ffffffffffffffffffffffffffffffffffffffff1663b1d17c98336040518263ffffffff1660e01b8152600401808273ffffffffffffffffffffffffffffffffffffffff1673ffffffffffffffffffffffffffffffffffffffff168152602001915050602060405180830381600087803b158015612ceb57600080fd5b505af1158015612cff573d6000803e3d6000fd5b505050506040513d6020811015612d1557600080fd5b810190808051906020019092919050505050600260009054906101000a900473ffffffffffffffffffffffffffffffffffffffff1673ffffffffffffffffffffffffffffffffffffffff166313db4e1a6040518163ffffffff1660e01b8152600401600060405180830381600087803b158015612d9157600080fd5b505af1158015612da5573d6000803e3d6000fd5b505050505050505050505050565b60078181548110612dc057fe5b9060005260206000209060030201600091509050806000018054600181600116156101000203166002900480601f016020809104026020016040519081016040528092919081815260200182805460018160011615610100020316600290048015612e6c5780601f10612e4157610100808354040283529160200191612e6c565b820191906000526020600020905b815481529060010190602001808311612e4f57829003601f168201915b505050505090806001018054600181600116156101000203166002900480601f016020809104026020016040519081016040528092919081815260200182805460018160011615610100020316600290048015612f0a5780601f10612edf57610100808354040283529160200191612f0a565b820191906000526020600020905b815481529060010190602001808311612eed57829003601f168201915b5050505050908060020160009054906101000a900473ffffffffffffffffffffffffffffffffffffffff16908060020160149054906101000a900460ff16905084565b6060600080600080600088888860405160200180848480828437808301925050508263ffffffff1663ffffffff1660e01b815260040193505050506040516020818303038152906040528051906020012090506008600082815260200190815260200160002060010160086000838152602001908152602001600020600201546008600084815260200190815260200160002060030160009054906101000a900473ffffffffffffffffffffffffffffffffffffffff166008600085815260200190815260200160002060040160009054906101000a900473ffffffffffffffffffffffffffffffffffffffff166008600086815260200190815260200160002060050154848054600181600116156101000203166002900480601f0160208091040260200160405190810160405280929190818152602001828054600181600116156101000203166002900480156130e75780601f106130bc576101008083540402835291602001916130e7565b820191906000526020600020905b8154815290600101906020018083116130ca57829003601f168201915b505050505094509550955095509550955050939792965093509350565b600160009054906101000a900473ffffffffffffffffffffffffffffffffffffffff1673ffffffffffffffffffffffffffffffffffffffff1663fd8b84b1336040518263ffffffff1660e01b8152600401808273ffffffffffffffffffffffffffffffffffffffff1673ffffffffffffffffffffffffffffffffffffffff16815260200191505060206040518083038186803b1580156131a357600080fd5b505afa1580156131b7573d6000803e3d6000fd5b505050506040513d60208110156131cd57600080fd5b81019080805190602001909291905050506131e757600080fd5b8181600491906131f8929190615e1c565b505050565b6009602052806000526040600020600091509050806000018054600181600116156101000203166002900480601f0160208091040260200160405190810160405280929190818152602001828054600181600116156101000203166002900480156132a95780601f1061327e576101008083540402835291602001916132a9565b820191906000526020600020905b81548152906001019060200180831161328c57829003601f168201915b505050505090806001018054600181600116156101000203166002900480601f0160208091040260200160405190810160405280929190818152602001828054600181600116156101000203166002900480156133475780601f1061331c57610100808354040283529160200191613347565b820191906000526020600020905b81548152906001019060200180831161332a57829003601f168201915b5050505050908060020154908060030160009054906101000a900473ffffffffffffffffffffffffffffffffffffffff16908060040160009054906101000a900473ffffffffffffffffffffffffffffffffffffffff16908060050154908060060160009054906101000a900460ff16905087565b600160009054906101000a900473ffffffffffffffffffffffffffffffffffffffff1681565b60001515600f60009054906101000a900460ff1615151461340257600080fd5b80600160006101000a81548173ffffffffffffffffffffffffffffffffffffffff021916908373ffffffffffffffffffffffffffffffffffffffff1602179055506001600f60006101000a81548160ff02191690831515021790555050565b600a602052806000526040600020600091509050806000018054600181600116156101000203166002900480601f01602080910402602001604051908101604052809291908181526020018280546001816001161561010002031660029004801561350d5780601f106134e25761010080835404028352916020019161350d565b820191906000526020600020905b8154815290600101906020018083116134f057829003601f168201915b505050505090806001018054600181600116156101000203166002900480601f0160208091040260200160405190810160405280929190818152602001828054600181600116156101000203166002900480156135ab5780601f10613580576101008083540402835291602001916135ab565b820191906000526020600020905b81548152906001019060200180831161358e57829003601f168201915b5050505050908060020160009054906101000a900473ffffffffffffffffffffffffffffffffffffffff16908060020160149054906101000a900460ff16905084565b600260046002815481106135fe57fe5b90600052602060002001548161361057fe5b043414613685576040517f08c379a00000000000000000000000000000000000000000000000000000000081526004018080602001828103825260148152602001807f7468652070726963652061696e7420726967687400000000000000000000000081525060200191505060405180910390fd5b600083838360405160200180848480828437808301925050508263ffffffff1663ffffffff1660e01b8152600401935050505060405160208183030381529060405280519060200120905060008484600e8787604051808383808284378083019250505092505050908152602001604051809103902060009054906101000a900463ffffffff1660405160200180848480828437808301925050508263ffffffff1663ffffffff1660e01b81526004019350505050604051602081830303815290604052805190602001209050600015156009600083815260200190815260200160002060060160009054906101000a900460ff161515146137ef576040517f08c379a00000000000000000000000000000000000000000000000000000000081526004018080602001828103825260178152602001807f646f63756d656e7420616c72656164792065786973747300000000000000000081525060200191505060405180910390fd5b6008600083815260200190815260200160002060060160009054906101000a900460ff16613868576040517f08c379a0000000000000000000000000000000000000000000000000000000008152600401808060200182810382526025815260200180615e8f6025913960400191505060405180910390fd5b60006008600084815260200190815260200160002060040160009054906101000a900473ffffffffffffffffffffffffffffffffffffffff16905060006008600085815260200190815260200160002060030160009054906101000a900473ffffffffffffffffffffffffffffffffffffffff1690503373ffffffffffffffffffffffffffffffffffffffff168273ffffffffffffffffffffffffffffffffffffffff161461397f576040517f08c379a00000000000000000000000000000000000000000000000000000000081526004018080602001828103825260188152602001807f6d73672e73656e646572206973206e6f74207369676e6565000000000000000081525060200191505060405180910390fd5b600360009054906101000a900473ffffffffffffffffffffffffffffffffffffffff1673ffffffffffffffffffffffffffffffffffffffff166108fc600234816139c557fe5b049081150290604051600060405180830381858888f193505050501580156139f1573d6000803e3d6000fd5b506000600260009054906101000a900473ffffffffffffffffffffffffffffffffffffffff16905060008190508073ffffffffffffffffffffffffffffffffffffffff166108fc60023481613a4257fe5b049081150290604051600060405180830381858888f19350505050158015613a6e573d6000803e3d6000fd5b506040518060e00160405280600860008981526020019081526020016000206000018054600181600116156101000203166002900480601f016020809104026020016040519081016040528092919081815260200182805460018160011615610100020316600290048015613b245780601f10613af957610100808354040283529160200191613b24565b820191906000526020600020905b815481529060010190602001808311613b0757829003601f168201915b50505050508152602001600860008981526020019081526020016000206001018054600181600116156101000203166002900480601f016020809104026020016040519081016040528092919081815260200182805460018160011615610100020316600290048015613bd85780601f10613bad57610100808354040283529160200191613bd8565b820191906000526020600020905b815481529060010190602001808311613bbb57829003601f168201915b505050505081526020014281526020016008600089815260200190815260200160002060030160009054906101000a900473ffffffffffffffffffffffffffffffffffffffff1673ffffffffffffffffffffffffffffffffffffffff1681526020018573ffffffffffffffffffffffffffffffffffffffff1681526020016008600089815260200190815260200160002060050154815260200160011515815250600960008781526020019081526020016000206000820151816000019080519060200190613ca8929190615d15565b506020820151816001019080519060200190613cc5929190615d15565b506040820151816002015560608201518160030160006101000a81548173ffffffffffffffffffffffffffffffffffffffff021916908373ffffffffffffffffffffffffffffffffffffffff16021790555060808201518160040160006101000a81548173ffffffffffffffffffffffffffffffffffffffff021916908373ffffffffffffffffffffffffffffffffffffffff16021790555060a0820151816005015560c08201518160060160006101000a81548160ff0219169083151502179055509050600b60003373ffffffffffffffffffffffffffffffffffffffff1673ffffffffffffffffffffffffffffffffffffffff1681526020019081526020016000206000600c60003373ffffffffffffffffffffffffffffffffffffffff1673ffffffffffffffffffffffffffffffffffffffff16815260200190815260200160002060009054906101000a900463ffffffff1663ffffffff1663ffffffff16815260200190815260200160002060008201816000019080546001816001161561010002031660029004613e5c929190615d95565b5060018201816001019080546001816001161561010002031660029004613e84929190615d95565b50600282015481600201556003820160009054906101000a900473ffffffffffffffffffffffffffffffffffffffff168160030160006101000a81548173ffffffffffffffffffffffffffffffffffffffff021916908373ffffffffffffffffffffffffffffffffffffffff1602179055506004820160009054906101000a900473ffffffffffffffffffffffffffffffffffffffff168160040160006101000a81548173ffffffffffffffffffffffffffffffffffffffff021916908373ffffffffffffffffffffffffffffffffffffffff160217905550600582015481600501556006820160009054906101000a900460ff168160060160006101000a81548160ff0219169083151502179055509050600b60008573ffffffffffffffffffffffffffffffffffffffff1673ffffffffffffffffffffffffffffffffffffffff1681526020019081526020016000206000600c60008773ffffffffffffffffffffffffffffffffffffffff1673ffffffffffffffffffffffffffffffffffffffff16815260200190815260200160002060009054906101000a900463ffffffff1663ffffffff1663ffffffff16815260200190815260200160002060008201816000019080546001816001161561010002031660029004614068929190615d95565b5060018201816001019080546001816001161561010002031660029004614090929190615d95565b50600282015481600201556003820160009054906101000a900473ffffffffffffffffffffffffffffffffffffffff168160030160006101000a81548173ffffffffffffffffffffffffffffffffffffffff021916908373ffffffffffffffffffffffffffffffffffffffff1602179055506004820160009054906101000a900473ffffffffffffffffffffffffffffffffffffffff168160040160006101000a81548173ffffffffffffffffffffffffffffffffffffffff021916908373ffffffffffffffffffffffffffffffffffffffff160217905550600582015481600501556006820160009054906101000a900460ff168160060160006101000a81548160ff02191690831515021790555090505060066040518060e00160405280600860008a81526020019081526020016000206000018054600181600116156101000203166002900480601f01602080910402602001604051908101604052809291908181526020018280546001816001161561010002031660029004801561425a5780601f1061422f5761010080835404028352916020019161425a565b820191906000526020600020905b81548152906001019060200180831161423d57829003601f168201915b50505050508152602001600860008a81526020019081526020016000206001018054600181600116156101000203166002900480601f01602080910402602001604051908101604052809291908181526020018280546001816001161561010002031660029004801561430e5780601f106142e35761010080835404028352916020019161430e565b820191906000526020600020905b8154815290600101906020018083116142f157829003601f168201915b50505050508152602001428152602001600860008a815260200190815260200160002060030160009054906101000a900473ffffffffffffffffffffffffffffffffffffffff1673ffffffffffffffffffffffffffffffffffffffff1681526020018673ffffffffffffffffffffffffffffffffffffffff168152602001600860008a8152602001908152602001600020600501548152602001600115158152509080600181540180825580915050906001820390600052602060002090600702016000909192909190915060008201518160000190805190602001906143f6929190615d15565b506020820151816001019080519060200190614413929190615d15565b506040820151816002015560608201518160030160006101000a81548173ffffffffffffffffffffffffffffffffffffffff021916908373ffffffffffffffffffffffffffffffffffffffff16021790555060808201518160040160006101000a81548173ffffffffffffffffffffffffffffffffffffffff021916908373ffffffffffffffffffffffffffffffffffffffff16021790555060a0820151816005015560c08201518160060160006101000a81548160ff021916908315150217905550505050600e89896040518083838082843780830192505050925050509081526020016040518091039020600081819054906101000a900463ffffffff168092919060010191906101000a81548163ffffffff021916908363ffffffff16021790555050600c60008573ffffffffffffffffffffffffffffffffffffffff1673ffffffffffffffffffffffffffffffffffffffff168152602001908152602001600020600081819054906101000a900463ffffffff168092919060010191906101000a81548163ffffffff021916908363ffffffff16021790555050600c60003373ffffffffffffffffffffffffffffffffffffffff1673ffffffffffffffffffffffffffffffffffffffff168152602001908152602001600020600081819054906101000a900463ffffffff168092919060010191906101000a81548163ffffffff021916908363ffffffff160217905550507fc8f254f7f069e4392d476359a2a29c2d37b35286e74f5d62fc14df9db37d09746001600e8b8b604051808383808284378083019250505092505050908152602001604051809103902060009054906101000a900463ffffffff1603604051808263ffffffff16815260200191505060405180910390a16000809054906101000a900473ffffffffffffffffffffffffffffffffffffffff1673ffffffffffffffffffffffffffffffffffffffff1663b1d17c98336040518263ffffffff1660e01b8152600401808273ffffffffffffffffffffffffffffffffffffffff1673ffffffffffffffffffffffffffffffffffffffff168152602001915050602060405180830381600087803b15801561474057600080fd5b505af1158015614754573d6000803e3d6000fd5b505050506040513d602081101561476a57600080fd5b810190808051906020019092919050505050600260009054906101000a900473ffffffffffffffffffffffffffffffffffffffff1673ffffffffffffffffffffffffffffffffffffffff166313db4e1a6040518163ffffffff1660e01b8152600401600060405180830381600087803b1580156147e657600080fd5b505af11580156147fa573d6000803e3d6000fd5b50505050505050505050505050565b600360009054906101000a900473ffffffffffffffffffffffffffffffffffffffff1681565b600260009054906101000a900473ffffffffffffffffffffffffffffffffffffffff1681565b606060008060008087878760405160200180848480828437808301925050508263ffffffff1663ffffffff1660e01b815260040193505050506040516020818303038152906040528051906020012090506009600082815260200190815260200160002060010160096000838152602001908152602001600020600201546009600084815260200190815260200160002060030160009054906101000a900473ffffffffffffffffffffffffffffffffffffffff166009600085815260200190815260200160002060040160009054906101000a900473ffffffffffffffffffffffffffffffffffffffff16838054600181600116156101000203166002900480601f0160208091040260200160405190810160405280929190818152602001828054600181600116156101000203166002900480156149d65780601f106149ab576101008083540402835291602001916149d6565b820191906000526020600020905b8154815290600101906020018083116149b957829003601f168201915b5050505050935094509450945094505093509350935093565b600160009054906101000a900473ffffffffffffffffffffffffffffffffffffffff1673ffffffffffffffffffffffffffffffffffffffff1663fd8b84b1336040518263ffffffff1660e01b8152600401808273ffffffffffffffffffffffffffffffffffffffff1673ffffffffffffffffffffffffffffffffffffffff16815260200191505060206040518083038186803b158015614a8e57600080fd5b505afa158015614aa2573d6000803e3d6000fd5b505050506040513d6020811015614ab857600080fd5b8101908080519060200190929190505050614ad257600080fd5b806000806101000a81548173ffffffffffffffffffffffffffffffffffffffff021916908373ffffffffffffffffffffffffffffffffffffffff16021790555050565b60048181548110614b2257fe5b906000526020600020016000915090505481565b60026004600281548110614b4657fe5b906000526020600020015481614b5857fe5b043414614b6457600080fd5b600360009054906101000a900473ffffffffffffffffffffffffffffffffffffffff1673ffffffffffffffffffffffffffffffffffffffff166108fc60023481614baa57fe5b049081150290604051600060405180830381858888f19350505050158015614bd6573d6000803e3d6000fd5b506000600260009054906101000a900473ffffffffffffffffffffffffffffffffffffffff16905060008190508073ffffffffffffffffffffffffffffffffffffffff166108fc60023481614c2757fe5b049081150290604051600060405180830381858888f19350505050158015614c53573d6000803e3d6000fd5b5060008888600d8b8b604051808383808284378083019250505092505050908152602001604051809103902060009054906101000a900463ffffffff1660405160200180848480828437808301925050508263ffffffff1663ffffffff1660e01b815260040193505050506040516020818303038152906040528051906020012090506040518060e001604052808a8a8080601f016020809104026020016040519081016040528093929190818152602001838380828437600081840152601f19601f82011690508083019250505050505050815260200188888080601f016020809104026020016040519081016040528093929190818152602001838380828437600081840152601f19601f8201169050808301925050505050505081526020014281526020013373ffffffffffffffffffffffffffffffffffffffff1681526020018573ffffffffffffffffffffffffffffffffffffffff16815260200186815260200160011515815250600860008381526020019081526020016000206000820151816000019080519060200190614def929190615d15565b506020820151816001019080519060200190614e0c929190615d15565b506040820151816002015560608201518160030160006101000a81548173ffffffffffffffffffffffffffffffffffffffff021916908373ffffffffffffffffffffffffffffffffffffffff16021790555060808201518160040160006101000a81548173ffffffffffffffffffffffffffffffffffffffff021916908373ffffffffffffffffffffffffffffffffffffffff16021790555060a0820151816005015560c08201518160060160006101000a81548160ff02191690831515021790555090505060056040518060e001604052808b8b8080601f016020809104026020016040519081016040528093929190818152602001838380828437600081840152601f19601f82011690508083019250505050505050815260200189898080601f016020809104026020016040519081016040528093929190818152602001838380828437600081840152601f19601f8201169050808301925050505050505081526020014281526020013373ffffffffffffffffffffffffffffffffffffffff1681526020018673ffffffffffffffffffffffffffffffffffffffff16815260200187815260200160011515815250908060018154018082558091505090600182039060005260206000209060070201600090919290919091506000820151816000019080519060200190615005929190615d15565b506020820151816001019080519060200190615022929190615d15565b506040820151816002015560608201518160030160006101000a81548173ffffffffffffffffffffffffffffffffffffffff021916908373ffffffffffffffffffffffffffffffffffffffff16021790555060808201518160040160006101000a81548173ffffffffffffffffffffffffffffffffffffffff021916908373ffffffffffffffffffffffffffffffffffffffff16021790555060a0820151816005015560c08201518160060160006101000a81548160ff021916908315150217905550505050600d89896040518083838082843780830192505050925050509081526020016040518091039020600081819054906101000a900463ffffffff168092919060010191906101000a81548163ffffffff021916908363ffffffff160217905550507f4456750b600ba1a6b74d80d84af71679808635ea97096df7daefd80c15c83d516001600d8b8b604051808383808284378083019250505092505050908152602001604051809103902060009054906101000a900463ffffffff1603604051808263ffffffff16815260200191505060405180910390a16000809054906101000a900473ffffffffffffffffffffffffffffffffffffffff1673ffffffffffffffffffffffffffffffffffffffff1663b1d17c98336040518263ffffffff1660e01b8152600401808273ffffffffffffffffffffffffffffffffffffffff1673ffffffffffffffffffffffffffffffffffffffff168152602001915050602060405180830381600087803b15801561525f57600080fd5b505af1158015615273573d6000803e3d6000fd5b505050506040513d602081101561528957600080fd5b810190808051906020019092919050505050600260009054906101000a900473ffffffffffffffffffffffffffffffffffffffff1673ffffffffffffffffffffffffffffffffffffffff166313db4e1a6040518163ffffffff1660e01b8152600401600060405180830381600087803b15801561530557600080fd5b505af1158015615319573d6000803e3d6000fd5b50505050505050505050505050565b6006818154811061533557fe5b9060005260206000209060070201600091509050806000018054600181600116156101000203166002900480601f0160208091040260200160405190810160405280929190818152602001828054600181600116156101000203166002900480156153e15780601f106153b6576101008083540402835291602001916153e1565b820191906000526020600020905b8154815290600101906020018083116153c457829003601f168201915b505050505090806001018054600181600116156101000203166002900480601f01602080910402602001604051908101604052809291908181526020018280546001816001161561010002031660029004801561547f5780601f106154545761010080835404028352916020019161547f565b820191906000526020600020905b81548152906001019060200180831161546257829003601f168201915b5050505050908060020154908060030160009054906101000a900473ffffffffffffffffffffffffffffffffffffffff16908060040160009054906101000a900473ffffffffffffffffffffffffffffffffffffffff16908060050154908060060160009054906101000a900460ff16905087565b600c6020528060005260406000206000915054906101000a900463ffffffff1681565b600460018154811061552557fe5b9060005260206000200154341461553b57600080fd5b600360009054906101000a900473ffffffffffffffffffffffffffffffffffffffff1673ffffffffffffffffffffffffffffffffffffffff166108fc6002348161558157fe5b049081150290604051600060405180830381858888f193505050501580156155ad573d6000803e3d6000fd5b506000600260009054906101000a900473ffffffffffffffffffffffffffffffffffffffff16905060008190508073ffffffffffffffffffffffffffffffffffffffff166108fc600234816155fe57fe5b049081150290604051600060405180830381858888f1935050505015801561562a573d6000803e3d6000fd5b50604051806080016040528087878080601f016020809104026020016040519081016040528093929190818152602001838380828437600081840152601f19601f82011690508083019250505050505050815260200185858080601f016020809104026020016040519081016040528093929190818152602001838380828437600081840152601f19601f8201169050808301925050505050505081526020013373ffffffffffffffffffffffffffffffffffffffff16815260200160011515815250600a60003373ffffffffffffffffffffffffffffffffffffffff1673ffffffffffffffffffffffffffffffffffffffff1681526020019081526020016000206000820151816000019080519060200190615748929190615d15565b506020820151816001019080519060200190615765929190615d15565b5060408201518160020160006101000a81548173ffffffffffffffffffffffffffffffffffffffff021916908373ffffffffffffffffffffffffffffffffffffffff16021790555060608201518160020160146101000a81548160ff0219169083151502179055509050506007604051806080016040528088888080601f016020809104026020016040519081016040528093929190818152602001838380828437600081840152601f19601f82011690508083019250505050505050815260200186868080601f016020809104026020016040519081016040528093929190818152602001838380828437600081840152601f19601f8201169050808301925050505050505081526020013373ffffffffffffffffffffffffffffffffffffffff168152602001600115158152509080600181540180825580915050906001820390600052602060002090600302016000909192909190915060008201518160000190805190602001906158db929190615d15565b5060208201518160010190805190602001906158f8929190615d15565b5060408201518160020160006101000a81548173ffffffffffffffffffffffffffffffffffffffff021916908373ffffffffffffffffffffffffffffffffffffffff16021790555060608201518160020160146101000a81548160ff0219169083151502179055505050506000809054906101000a900473ffffffffffffffffffffffffffffffffffffffff1673ffffffffffffffffffffffffffffffffffffffff1663b1d17c98336040518263ffffffff1660e01b8152600401808273ffffffffffffffffffffffffffffffffffffffff1673ffffffffffffffffffffffffffffffffffffffff168152602001915050602060405180830381600087803b158015615a0357600080fd5b505af1158015615a17573d6000803e3d6000fd5b505050506040513d6020811015615a2d57600080fd5b810190808051906020019092919050505050600260009054906101000a900473ffffffffffffffffffffffffffffffffffffffff1673ffffffffffffffffffffffffffffffffffffffff166313db4e1a6040518163ffffffff1660e01b8152600401600060405180830381600087803b158015615aa957600080fd5b505af1158015615abd573d6000803e3d6000fd5b50505050505050505050565b60058181548110615ad657fe5b9060005260206000209060070201600091509050806000018054600181600116156101000203166002900480601f016020809104026020016040519081016040528092919081815260200182805460018160011615610100020316600290048015615b825780601f10615b5757610100808354040283529160200191615b82565b820191906000526020600020905b815481529060010190602001808311615b6557829003601f168201915b505050505090806001018054600181600116156101000203166002900480601f016020809104026020016040519081016040528092919081815260200182805460018160011615610100020316600290048015615c205780601f10615bf557610100808354040283529160200191615c20565b820191906000526020600020905b815481529060010190602001808311615c0357829003601f168201915b5050505050908060020154908060030160009054906101000a900473ffffffffffffffffffffffffffffffffffffffff16908060040160009054906101000a900473ffffffffffffffffffffffffffffffffffffffff16908060050154908060060160009054906101000a900460ff16905087565b828054600181600116156101000203166002900490600052602060002090601f016020900481019282601f10615cd657805160ff1916838001178555615d04565b82800160010185558215615d04579182015b82811115615d03578251825591602001919060010190615ce8565b5b509050615d119190615e69565b5090565b828054600181600116156101000203166002900490600052602060002090601f016020900481019282601f10615d5657805160ff1916838001178555615d84565b82800160010185558215615d84579182015b82811115615d83578251825591602001919060010190615d68565b5b509050615d919190615e69565b5090565b828054600181600116156101000203166002900490600052602060002090601f016020900481019282601f10615dce5780548555615e0b565b82800160010185558215615e0b57600052602060002091601f016020900482015b82811115615e0a578254825591600101919060010190615def565b5b509050615e189190615e69565b5090565b828054828255906000526020600020908101928215615e58579160200282015b82811115615e57578235825591602001919060010190615e3c565b5b509050615e659190615e69565b5090565b615e8b91905b80821115615e87576000816000905550600101615e6f565b5090565b9056fe74656d706f7261727920646f63756d656e7420776173206e6f742072656769737465726564a165627a7a7230582052e9f119bf24fb5cce7c9576f31d4b384a1a3bcfc9e9c3650ff19c7b91e92a400029",
  "source": "pragma solidity ^ 0.5.0;\n\n/** \n * @title Document Registration \n * @author Yakko Majuri\n * @notice Contract DocumentRegistration handles registrations of users and documents\n * as well as authentication\n * @dev Storage and Logic separated for the purpose of the upgradability pattern\n*/\n\ncontract FeePool {\n\n    function incrementPool() public {}\n\n}\n\ncontract Owners {\n\n    function getOwners(address _ad) public view returns(bool) { }\n\n}\n\n\ncontract CertfyToken {\n\n    function distributeTokens(address account) external returns(bool) { }\n\n}\n\n\ncontract Storage {\n\n    /// Declares the other contracts that interoperate with DocumentRegistration\n    CertfyToken public tokenContract;\n    Owners public ownerContract;\n    FeePool public feePoolContract;\n\n    // Address 'current' receives fees from the platform directly    \n    address payable public current;\n\n    // Establishes the prices for different actions on the platform\n    uint[] public prices;\n\n    // Declares arrays of the existing structs to allow for iterability\n    Document[] public temporaryDocs;\n    Document[] public documents;\n    Registrant[] public registrants;\n\n    // Maps an identifying 'bytes32' value to Documents and Temporary Documents\n    mapping(bytes32 => Document) public temporaryRegistry;\n    mapping(bytes32 => Document) public registry;\n\n    // Verified Addresses have submitted an attestation to their real-world identity\n    mapping(address => Registrant) public verifiedAddress;\n\n    // Keeps track of the documents registered by each address\n    mapping(address => mapping(uint32 => Document)) public userDocs;\n    mapping(address => uint32) public docsPerUser;\n\n    // Number utilized to prevent clashes between documents of the same name\n    mapping(string => uint32) temporaryIndex;\n    mapping(string => uint32) nameIndex;\n\n    // Used for initialization of the contract, since it should not have a constructor \n    // due to the proxy implementation\n    bool ownersSet;\n\n    // Each Document registered on the platform will feature this information\n    struct Document {\n        string name;\n        string metadata;\n        uint timestamp;\n        address registrant;\n        address signee;\n        bytes32 hash;\n        bool isEntity;\n    }\n    \n    // Used to submit attestations to identity for each address\n    struct Registrant {\n        string name;\n        string description;\n        address user;\n        bool isEntity;\n    }\n\n    // Allows the client to get the index of the document and display to the user \n    event LogDocumentIndex(uint index);\n    event LogTemporaryIndex(uint index);\n\n    // Calls the separate 'Owners' contract to verify if 'msg.sender' is an owner\n    modifier onlyOwners() {\n        require(ownerContract.getOwners(msg.sender));\n        _;\n    }\n\n}\n\ncontract DocumentRegistration is Storage {\n\n    // Do not accept ETH\n    function() external payable { revert(); }\n\n    /** \n     * @notice Part of initialization for the contract - sets address for 'Owners' contract\n     * @param _ownerContract Address of 'Owners'\n     * @dev Initialization must be done separately because contract cannot have a constructor\n    */\n    function setOwnersContract(address _ownerContract) external {\n        require(ownersSet == false);\n        ownerContract = Owners(_ownerContract);\n        ownersSet = true;\n    }\n\n    /** \n     * @notice Part of initialization for the contract - sets address for 'CertfyToken' contract\n     * @param _tokenContract Address of 'CertfyToken'\n     * @dev Initialization must be done separately because contract cannot have a constructor\n    */\n    function setTokenContract(address _tokenContract) external onlyOwners {\n        tokenContract = CertfyToken(_tokenContract);\n    }\n\n    /** \n     * @notice Part of initialization for the contract - sets prices for actions on the platform\n     * @param _prices Array with the respective prices in order\n     * @dev Prices are in wei - Should be taken into account on the client\n    */\n    function setPrices(uint[] calldata _prices) external onlyOwners {\n        prices = _prices;\n    }\n\n    /** \n     * @notice Change one specific price\n     * @param _index Index of price to change in array\n     * @param _price New price\n    */\n    /*\n    function setPrice(uint8 _index, uint128 _price) external onlyOwners {\n        prices[_index] = _price;\n    }\n*/\n    \n    /** \n     * @notice Sets the 'current' address which receives fees\n     * @param _current Address to receive payments\n    */\n    function setCurrent(address payable _current) external onlyOwners {\n        current = _current;\n    }\n\n    /** \n     * @notice Sets the 'FeePool' contract address which receives ETH from fees\n     * @param _contractAddress FeePool address\n    */\n    function setPoolContract(address payable _contractAddress) external onlyOwners {\n        feePoolContract = FeePool(_contractAddress);\n    }\n\n\n    /** \n     * @notice Creates a new simple document registration\n     * @param _name User-assigned name for document\n     * @param _metadata A description or any other form of public metadata about the document\n     * @param _fileHash Fed by the client - hash of the file uploaded by the user (could also be IPFS hash)\n     * @dev The hash of user-determined \"name\" and contract-determined \"index\" are mapped to each document\n     * such that finding registrations can make use of human-readable names\n    */\n    function registerDocument(\n        string calldata _name,\n        string calldata _metadata,\n        bytes32 _fileHash\n    )\n    external\n    payable {\n        require(msg.value == prices[1],\n            \"wrong value\");\n        current.transfer(msg.value/2);\n        address fp = address(feePoolContract);\n        address payable feePool = address(uint160(fp));\n        feePool.transfer(msg.value/2);\n        bytes32 hash = keccak256(abi.encodePacked(_name, nameIndex[_name]));\n        userDocs[msg.sender][docsPerUser[msg.sender]] = registry[hash] = Document(\n            _name,\n            _metadata,\n            block.timestamp,\n            msg.sender,\n            address(0),\n            _fileHash,\n            true\n        );\n        documents.push(Document(\n            _name,\n            _metadata,\n            block.timestamp,\n            msg.sender,\n            address(0),\n            _fileHash,\n            true\n        ));\n        nameIndex[_name]++;\n        docsPerUser[msg.sender]++;\n        emit LogDocumentIndex(nameIndex[_name] - 1);\n        tokenContract.distributeTokens(msg.sender);\n        feePoolContract.incrementPool();\n    }\n\n    /** \n     * @notice Initiates a multi-sig registration, currently only available for two parties\n     * @param _name User-assigned name for document\n     * @param _metadata A description or any other form of public metadata about the document\n     * @param _fileHash Fed by the client - hash of the file uploaded by the user (could also be IPFS hash)\n     * @param _signee Second address which must sign the registration\n     * @dev Document is added to a \"temporary registry\" and awaits the second signature before being \n     * added to the final document registry\n    */\n    function registerMultiSig(\n        string calldata _name,\n        string calldata _metadata,\n        bytes32 _fileHash,\n        address _signee\n    )\n    external\n    payable\n    {\n        require(msg.value == prices[2] / 2);\n        current.transfer(msg.value/2);\n        address fp = address(feePoolContract);\n        address payable feePool = address(uint160(fp));\n        feePool.transfer(msg.value/2);\n        bytes32 hash = keccak256(abi.encodePacked(_name, temporaryIndex[_name])); // temporaryIndex is separate from nameIndex\n        temporaryRegistry[hash] = Document(\n            _name,\n            _metadata,\n            block.timestamp,\n            msg.sender,\n            _signee,\n            _fileHash,\n            true\n        );\n        temporaryDocs.push(Document(\n            _name,\n            _metadata,\n            block.timestamp,\n            msg.sender,\n            _signee,\n            _fileHash,\n            true\n        ));\n        temporaryIndex[_name]++; // Allow temporary registrations under the same name\n        emit LogTemporaryIndex(temporaryIndex[_name] - 1);\n        tokenContract.distributeTokens(msg.sender);\n        feePoolContract.incrementPool();\n    }\n\n    /** \n     * @notice Signs an existing temporary registration\n     * @param _name Name of the document to be signed\n     * @param _temporaryIndex Index of the document to be signed\n     * @dev If msg.sender is the desginated signee the registration is added to the true document registry\n    */\n    function signDocument(\n        string calldata _name,\n        uint32 _temporaryIndex\n    )\n    external\n    payable\n    {\n        require(msg.value == prices[2] / 2, \n        \"the price aint right\");\n        bytes32 temporaryHash = keccak256(abi.encodePacked(_name, _temporaryIndex));\n        bytes32 permanentHash = keccak256(abi.encodePacked(_name, nameIndex[_name]));\n        require(registry[permanentHash].isEntity == false,\n        \"document already exists\");\n        require(temporaryRegistry[temporaryHash].isEntity,\n        \"temporary document was not registered\");\n        address signee = temporaryRegistry[temporaryHash].signee;\n        address registrant = temporaryRegistry[temporaryHash].registrant;\n        require(signee == msg.sender,\n        \"msg.sender is not signee\");\n        current.transfer(msg.value/2);\n        address fp = address(feePoolContract);\n        address payable feePool = address(uint160(fp));\n        feePool.transfer(msg.value/2);\n        userDocs[registrant][docsPerUser[registrant]] = userDocs[msg.sender][docsPerUser[msg.sender]] = registry[permanentHash] = Document(\n            temporaryRegistry[temporaryHash].name,\n            temporaryRegistry[temporaryHash].metadata,\n            block.timestamp,\n            temporaryRegistry[temporaryHash].registrant,\n            signee,\n            temporaryRegistry[temporaryHash].hash,\n            true\n        );\n        documents.push(Document(\n            temporaryRegistry[temporaryHash].name,\n            temporaryRegistry[temporaryHash].metadata,\n            block.timestamp,\n            temporaryRegistry[temporaryHash].registrant,\n            signee,\n            temporaryRegistry[temporaryHash].hash,\n            true\n        ));\n        nameIndex[_name]++;\n        docsPerUser[signee]++;\n        docsPerUser[msg.sender]++;\n        emit LogDocumentIndex(nameIndex[_name] - 1);\n        tokenContract.distributeTokens(msg.sender);\n        feePoolContract.incrementPool();\n    }\n\n\n    /** \n     * @notice Allows users to link their address to a real-world identity\n     * @param _name Name of the person/entity behind the address\n     * @param _description A field for providing evidence of the identity\n     * Evidence could take multiple forms, such as: \n     * - URL of the company website where it states the address is owned by the company\n     * - IPFS hash of a picture holding a paper with the address written on it\n    */\n    function registerAddress(\n        string calldata _name,\n        string calldata _description\n    )\n    external\n    payable {\n        require(msg.value == prices[1]);\n        current.transfer(msg.value/2);\n        address fp = address(feePoolContract);\n        address payable feePool = address(uint160(fp));\n        feePool.transfer(msg.value/2);\n        verifiedAddress[msg.sender] = Registrant(\n            _name,\n            _description,\n            msg.sender,\n            true);\n        registrants.push(Registrant(_name, _description, msg.sender, true));\n        tokenContract.distributeTokens(msg.sender);\n        feePoolContract.incrementPool();\n    }\n\n    /** \n     * @notice Allows users to update information about their identity\n     * @param _name Name of the person/entity behind the address\n     * @param _description A field for providing evidence of the identity\n     * @dev Previous identity specified can still be found\n     * @dev Costs a fee to prevent constant identity updates\n    */\n    function updateInfo(\n        string memory _name,\n        string memory _description\n    )\n    public\n    payable {\n        require(msg.value == prices[3]);\n        require(verifiedAddress[msg.sender].isEntity);\n        current.transfer(msg.value/2);\n        address fp = address(feePoolContract);\n        address payable feePool = address(uint160(fp));\n        feePool.transfer(msg.value/2);\n        verifiedAddress[msg.sender].name = _name;\n        verifiedAddress[msg.sender].description = _description;\n        registrants.push(Registrant(_name, _description, msg.sender, true));\n        feePoolContract.incrementPool();\n    }\n\n\n    /** \n     * @notice Checks if two documents (hashes) are the same\n     * @param _name Name of the document\n     * @param _nameIndex Index of the document\n     * @param _fileHash Hash of the file being tested, fed by the client\n     * @dev File hash of the specified document is pulled and compared to the supplied hash\n     * @return Returns a boolean specifying if the hashes match or not\n    */\n    function verifyDocument(\n        string calldata _name,\n        uint32 _nameIndex,\n        bytes32 _fileHash\n    )\n    external\n    view\n    returns(bool) {\n        bytes32 hash = keccak256(abi.encodePacked(_name, _nameIndex));\n        if (registry[hash].hash == _fileHash) {\n            return true;\n        } else {\n            return false;\n        }\n    }\n\n    /** \n     * @notice Pulls the data for a temporary registration\n     * @notice Useful for verifying data before signing it \n     * @param _name Name of the document\n     * @param _index Index of the document\n     * @return Returns all information about a temporary registration\n    */\n    function checkTemporary(string calldata _name, uint32 _index)\n    external\n    view\n    returns(\n        string memory,\n        uint,\n        address,\n        address,\n        bytes32\n    ) {\n        bytes32 hash = keccak256(abi.encodePacked(_name, _index));\n        return (\n            temporaryRegistry[hash].metadata,\n            temporaryRegistry[hash].timestamp,\n            temporaryRegistry[hash].registrant,\n            temporaryRegistry[hash].signee,\n            temporaryRegistry[hash].hash\n        );\n    }\n\n    /** \n     * @notice Pulls the data for a document registration\n     * @param _name Name of the document\n     * @param _nameIndex Index of the document\n     * @return Returns all information about a document registration\n    */\n    function documentQuery(string calldata _name, uint32 _nameIndex)\n    external\n    view\n    returns(string memory, uint, address, address) {\n        bytes32 hash = keccak256(abi.encodePacked(_name, _nameIndex));\n        return (\n            registry[hash].metadata,\n            registry[hash].timestamp,\n            registry[hash].registrant,\n            registry[hash].signee\n        );\n    }\n\n}",
  "sourcePath": "/Users/yakkomajuri/GitHub/bootcamp-finalproject/eth/contracts/DocumentRegistration.sol",
  "compiler": {
    "name": "solc",
    "version": "0.5.8+commit.23d335f2.Emscripten.clang"
  },
  "schemaVersion": "3.0.11",
  "updatedAt": "2019-07-31T02:27:23.071Z",
  "devdoc": {
    "methods": {
      "checkTemporary(string,uint32)": {
        "params": {
          "_index": "Index of the document",
          "_name": "Name of the document"
        },
        "return": "Returns all information about a temporary registration"
      },
      "documentQuery(string,uint32)": {
        "params": {
          "_name": "Name of the document",
          "_nameIndex": "Index of the document"
        },
        "return": "Returns all information about a document registration"
      },
      "registerAddress(string,string)": {
        "params": {
          "_description": "A field for providing evidence of the identity Evidence could take multiple forms, such as:  - URL of the company website where it states the address is owned by the company - IPFS hash of a picture holding a paper with the address written on it",
          "_name": "Name of the person/entity behind the address"
        }
      },
      "registerDocument(string,string,bytes32)": {
        "details": "The hash of user-determined \"name\" and contract-determined \"index\" are mapped to each document such that finding registrations can make use of human-readable names",
        "params": {
          "_fileHash": "Fed by the client - hash of the file uploaded by the user (could also be IPFS hash)",
          "_metadata": "A description or any other form of public metadata about the document",
          "_name": "User-assigned name for document"
        }
      },
      "registerMultiSig(string,string,bytes32,address)": {
        "details": "Document is added to a \"temporary registry\" and awaits the second signature before being  added to the final document registry",
        "params": {
          "_fileHash": "Fed by the client - hash of the file uploaded by the user (could also be IPFS hash)",
          "_metadata": "A description or any other form of public metadata about the document",
          "_name": "User-assigned name for document",
          "_signee": "Second address which must sign the registration"
        }
      },
      "setCurrent(address)": {
        "params": {
          "_current": "Address to receive payments"
        }
      },
      "setOwnersContract(address)": {
        "details": "Initialization must be done separately because contract cannot have a constructor",
        "params": {
          "_ownerContract": "Address of 'Owners'"
        }
      },
      "setPoolContract(address)": {
        "params": {
          "_contractAddress": "FeePool address"
        }
      },
      "setPrices(uint256[])": {
        "details": "Prices are in wei - Should be taken into account on the client",
        "params": {
          "_prices": "Array with the respective prices in order"
        }
      },
      "setTokenContract(address)": {
        "details": "Initialization must be done separately because contract cannot have a constructor",
        "params": {
          "_tokenContract": "Address of 'CertfyToken'"
        }
      },
      "signDocument(string,uint32)": {
        "details": "If msg.sender is the desginated signee the registration is added to the true document registry",
        "params": {
          "_name": "Name of the document to be signed",
          "_temporaryIndex": "Index of the document to be signed"
        }
      },
      "updateInfo(string,string)": {
        "details": "Previous identity specified can still be foundCosts a fee to prevent constant identity updates",
        "params": {
          "_description": "A field for providing evidence of the identity",
          "_name": "Name of the person/entity behind the address"
        }
      },
      "verifyDocument(string,uint32,bytes32)": {
        "details": "File hash of the specified document is pulled and compared to the supplied hash",
        "params": {
          "_fileHash": "Hash of the file being tested, fed by the client",
          "_name": "Name of the document",
          "_nameIndex": "Index of the document"
        },
        "return": "Returns a boolean specifying if the hashes match or not"
      }
    }
  },
  "userdoc": {
    "methods": {
      "checkTemporary(string,uint32)": {
        "notice": "Pulls the data for a temporary registrationUseful for verifying data before signing it "
      },
      "documentQuery(string,uint32)": {
        "notice": "Pulls the data for a document registration"
      },
      "registerAddress(string,string)": {
        "notice": "Allows users to link their address to a real-world identity"
      },
      "registerDocument(string,string,bytes32)": {
        "notice": "Creates a new simple document registration"
      },
      "registerMultiSig(string,string,bytes32,address)": {
        "notice": "Initiates a multi-sig registration, currently only available for two parties"
      },
      "setCurrent(address)": {
        "notice": "Sets the 'current' address which receives fees"
      },
      "setOwnersContract(address)": {
        "notice": "Part of initialization for the contract - sets address for 'Owners' contract"
      },
      "setPoolContract(address)": {
        "notice": "Sets the 'FeePool' contract address which receives ETH from fees"
      },
      "setPrices(uint256[])": {
        "notice": "Part of initialization for the contract - sets prices for actions on the platform"
      },
      "setTokenContract(address)": {
        "notice": "Part of initialization for the contract - sets address for 'CertfyToken' contract"
      },
      "signDocument(string,uint32)": {
        "notice": "Signs an existing temporary registration"
      },
      "updateInfo(string,string)": {
        "notice": "Allows users to update information about their identity"
      },
      "verifyDocument(string,uint32,bytes32)": {
        "notice": "Checks if two documents (hashes) are the same"
      }
    }
  }
}