{
  "contractName": "DocumentRegistration",
  "abi": [
    {
      "constant": true,
      "inputs": [
        {
          "name": "",
          "type": "bytes32"
        }
      ],
      "name": "temporaryRegistry",
      "outputs": [
        {
          "name": "name",
          "type": "string"
        },
        {
          "name": "metadata",
          "type": "string"
        },
        {
          "name": "timestamp",
          "type": "uint256"
        },
        {
          "name": "registrant",
          "type": "address"
        },
        {
          "name": "signee",
          "type": "address"
        },
        {
          "name": "hash",
          "type": "bytes32"
        },
        {
          "name": "isEntity",
          "type": "bool"
        }
      ],
      "payable": false,
      "stateMutability": "view",
      "type": "function"
    },
    {
      "constant": true,
      "inputs": [
        {
          "name": "",
          "type": "address"
        },
        {
          "name": "",
          "type": "uint32"
        }
      ],
      "name": "userDocs",
      "outputs": [
        {
          "name": "name",
          "type": "string"
        },
        {
          "name": "metadata",
          "type": "string"
        },
        {
          "name": "timestamp",
          "type": "uint256"
        },
        {
          "name": "registrant",
          "type": "address"
        },
        {
          "name": "signee",
          "type": "address"
        },
        {
          "name": "hash",
          "type": "bytes32"
        },
        {
          "name": "isEntity",
          "type": "bool"
        }
      ],
      "payable": false,
      "stateMutability": "view",
      "type": "function"
    },
    {
      "constant": true,
      "inputs": [],
      "name": "tokenContract",
      "outputs": [
        {
          "name": "",
          "type": "address"
        }
      ],
      "payable": false,
      "stateMutability": "view",
      "type": "function"
    },
    {
      "constant": true,
      "inputs": [
        {
          "name": "",
          "type": "uint256"
        }
      ],
      "name": "registrants",
      "outputs": [
        {
          "name": "name",
          "type": "string"
        },
        {
          "name": "description",
          "type": "string"
        },
        {
          "name": "user",
          "type": "address"
        },
        {
          "name": "isEntity",
          "type": "bool"
        }
      ],
      "payable": false,
      "stateMutability": "view",
      "type": "function"
    },
    {
      "constant": true,
      "inputs": [
        {
          "name": "",
          "type": "bytes32"
        }
      ],
      "name": "registry",
      "outputs": [
        {
          "name": "name",
          "type": "string"
        },
        {
          "name": "metadata",
          "type": "string"
        },
        {
          "name": "timestamp",
          "type": "uint256"
        },
        {
          "name": "registrant",
          "type": "address"
        },
        {
          "name": "signee",
          "type": "address"
        },
        {
          "name": "hash",
          "type": "bytes32"
        },
        {
          "name": "isEntity",
          "type": "bool"
        }
      ],
      "payable": false,
      "stateMutability": "view",
      "type": "function"
    },
    {
      "constant": true,
      "inputs": [],
      "name": "ownerContract",
      "outputs": [
        {
          "name": "",
          "type": "address"
        }
      ],
      "payable": false,
      "stateMutability": "view",
      "type": "function"
    },
    {
      "constant": true,
      "inputs": [
        {
          "name": "",
          "type": "address"
        }
      ],
      "name": "verifiedAddress",
      "outputs": [
        {
          "name": "name",
          "type": "string"
        },
        {
          "name": "description",
          "type": "string"
        },
        {
          "name": "user",
          "type": "address"
        },
        {
          "name": "isEntity",
          "type": "bool"
        }
      ],
      "payable": false,
      "stateMutability": "view",
      "type": "function"
    },
    {
      "constant": true,
      "inputs": [],
      "name": "current",
      "outputs": [
        {
          "name": "",
          "type": "address"
        }
      ],
      "payable": false,
      "stateMutability": "view",
      "type": "function"
    },
    {
      "constant": true,
      "inputs": [],
      "name": "feePoolContract",
      "outputs": [
        {
          "name": "",
          "type": "address"
        }
      ],
      "payable": false,
      "stateMutability": "view",
      "type": "function"
    },
    {
      "constant": true,
      "inputs": [
        {
          "name": "",
          "type": "uint256"
        }
      ],
      "name": "prices",
      "outputs": [
        {
          "name": "",
          "type": "uint256"
        }
      ],
      "payable": false,
      "stateMutability": "view",
      "type": "function"
    },
    {
      "constant": true,
      "inputs": [
        {
          "name": "",
          "type": "uint256"
        }
      ],
      "name": "documents",
      "outputs": [
        {
          "name": "name",
          "type": "string"
        },
        {
          "name": "metadata",
          "type": "string"
        },
        {
          "name": "timestamp",
          "type": "uint256"
        },
        {
          "name": "registrant",
          "type": "address"
        },
        {
          "name": "signee",
          "type": "address"
        },
        {
          "name": "hash",
          "type": "bytes32"
        },
        {
          "name": "isEntity",
          "type": "bool"
        }
      ],
      "payable": false,
      "stateMutability": "view",
      "type": "function"
    },
    {
      "constant": true,
      "inputs": [
        {
          "name": "",
          "type": "address"
        }
      ],
      "name": "docsPerUser",
      "outputs": [
        {
          "name": "",
          "type": "uint32"
        }
      ],
      "payable": false,
      "stateMutability": "view",
      "type": "function"
    },
    {
      "constant": true,
      "inputs": [
        {
          "name": "",
          "type": "uint256"
        }
      ],
      "name": "temporaryDocs",
      "outputs": [
        {
          "name": "name",
          "type": "string"
        },
        {
          "name": "metadata",
          "type": "string"
        },
        {
          "name": "timestamp",
          "type": "uint256"
        },
        {
          "name": "registrant",
          "type": "address"
        },
        {
          "name": "signee",
          "type": "address"
        },
        {
          "name": "hash",
          "type": "bytes32"
        },
        {
          "name": "isEntity",
          "type": "bool"
        }
      ],
      "payable": false,
      "stateMutability": "view",
      "type": "function"
    },
    {
      "anonymous": false,
      "inputs": [
        {
          "indexed": false,
          "name": "index",
          "type": "uint256"
        }
      ],
      "name": "DocumentIndex",
      "type": "event"
    },
    {
      "constant": false,
      "inputs": [
        {
          "name": "_contract",
          "type": "address"
        }
      ],
      "name": "setTokenContract",
      "outputs": [],
      "payable": false,
      "stateMutability": "nonpayable",
      "type": "function"
    },
    {
      "constant": false,
      "inputs": [
        {
          "name": "_ownerContract",
          "type": "address"
        }
      ],
      "name": "setOwnersContract",
      "outputs": [],
      "payable": false,
      "stateMutability": "nonpayable",
      "type": "function"
    },
    {
      "constant": false,
      "inputs": [
        {
          "name": "_prices",
          "type": "uint256[]"
        }
      ],
      "name": "setPrices",
      "outputs": [],
      "payable": false,
      "stateMutability": "nonpayable",
      "type": "function"
    },
    {
      "constant": false,
      "inputs": [
        {
          "name": "_index",
          "type": "uint8"
        },
        {
          "name": "_price",
          "type": "uint128"
        }
      ],
      "name": "setPrice",
      "outputs": [],
      "payable": false,
      "stateMutability": "nonpayable",
      "type": "function"
    },
    {
      "constant": false,
      "inputs": [
        {
          "name": "_current",
          "type": "address"
        }
      ],
      "name": "setCurrent",
      "outputs": [],
      "payable": false,
      "stateMutability": "nonpayable",
      "type": "function"
    },
    {
      "constant": false,
      "inputs": [
        {
          "name": "_name",
          "type": "string"
        },
        {
          "name": "_metadata",
          "type": "string"
        },
        {
          "name": "_fileHash",
          "type": "bytes32"
        }
      ],
      "name": "registerDocument",
      "outputs": [],
      "payable": true,
      "stateMutability": "payable",
      "type": "function"
    },
    {
      "constant": false,
      "inputs": [
        {
          "name": "_name",
          "type": "string"
        },
        {
          "name": "_metadata",
          "type": "string"
        },
        {
          "name": "_fileHash",
          "type": "bytes32"
        },
        {
          "name": "_signee",
          "type": "address"
        }
      ],
      "name": "registerMultiSig",
      "outputs": [],
      "payable": true,
      "stateMutability": "payable",
      "type": "function"
    },
    {
      "constant": false,
      "inputs": [
        {
          "name": "_name",
          "type": "string"
        },
        {
          "name": "_temporaryIndex",
          "type": "uint32"
        }
      ],
      "name": "signDocument",
      "outputs": [],
      "payable": true,
      "stateMutability": "payable",
      "type": "function"
    },
    {
      "constant": false,
      "inputs": [
        {
          "name": "_name",
          "type": "string"
        },
        {
          "name": "_description",
          "type": "string"
        }
      ],
      "name": "registerAddress",
      "outputs": [],
      "payable": true,
      "stateMutability": "payable",
      "type": "function"
    },
    {
      "constant": false,
      "inputs": [
        {
          "name": "_name",
          "type": "string"
        },
        {
          "name": "_description",
          "type": "string"
        }
      ],
      "name": "updateInfo",
      "outputs": [],
      "payable": true,
      "stateMutability": "payable",
      "type": "function"
    },
    {
      "constant": true,
      "inputs": [
        {
          "name": "_name",
          "type": "string"
        },
        {
          "name": "_nameIndex",
          "type": "uint32"
        },
        {
          "name": "_fileHash",
          "type": "bytes32"
        }
      ],
      "name": "verifyDocument",
      "outputs": [
        {
          "name": "",
          "type": "bool"
        }
      ],
      "payable": false,
      "stateMutability": "view",
      "type": "function"
    },
    {
      "constant": true,
      "inputs": [
        {
          "name": "_name",
          "type": "string"
        },
        {
          "name": "_index",
          "type": "uint32"
        }
      ],
      "name": "checkTemporary",
      "outputs": [
        {
          "name": "",
          "type": "string"
        },
        {
          "name": "",
          "type": "uint256"
        },
        {
          "name": "",
          "type": "address"
        },
        {
          "name": "",
          "type": "address"
        },
        {
          "name": "",
          "type": "bytes32"
        }
      ],
      "payable": false,
      "stateMutability": "view",
      "type": "function"
    },
    {
      "constant": true,
      "inputs": [
        {
          "name": "_name",
          "type": "string"
        },
        {
          "name": "_nameIndex",
          "type": "uint32"
        }
      ],
      "name": "documentQuery",
      "outputs": [
        {
          "name": "",
          "type": "string"
        },
        {
          "name": "",
          "type": "uint256"
        },
        {
          "name": "",
          "type": "address"
        },
        {
          "name": "",
          "type": "address"
        }
      ],
      "payable": false,
      "stateMutability": "view",
      "type": "function"
    },
    {
      "constant": false,
      "inputs": [
        {
          "name": "_contract",
          "type": "address"
        }
      ],
      "name": "setPoolContract",
      "outputs": [],
      "payable": false,
      "stateMutability": "nonpayable",
      "type": "function"
    }
  ],
  "bytecode": "0x608060405234801561001057600080fd5b506155ca80620000216000396000f3fe60806040526004361061019c5760003560e01c80638ee27c1f116100ec578063bc31c1c11161008a578063c62c8ce711610064578063c62c8ce7146115ec578063c7a4af151461165d578063eaccc9ae146116b7578063fde628a2146117855761019c565b8063bc31c1c114611306578063c04354ff14611355578063c2ed2b051461144d5761019c565b80639fa6a6e3116100c65780639fa6a6e31461108b578063ac8aff37146110e2578063bac08c3114611139578063bbcd5bbe146112b55761019c565b80638ee27c1f14610e3d57806393d4457a14610e8e5780639e091e31146110025761019c565b806359c3f3e011610159578063741cb27811610133578063741cb27814610a3e57806379cf92d314610bc15780637ef5029814610c475780637f74ac1514610de65761019c565b806359c3f3e0146107b75780635bb15db4146108085780636ac4d582146108e05761019c565b80631a8e3c3b146101a157806345675464146101f25780634655948b1461039157806347d5a091146105565780634b288acf146106a857806355a373d614610760575b600080fd5b3480156101ad57600080fd5b506101f0600480360360208110156101c457600080fd5b81019080803573ffffffffffffffffffffffffffffffffffffffff169060200190929190505050611924565b005b3480156101fe57600080fd5b5061022b6004803603602081101561021557600080fd5b8101908080359060200190929190505050611a4a565b6040518080602001806020018881526020018773ffffffffffffffffffffffffffffffffffffffff1673ffffffffffffffffffffffffffffffffffffffff1681526020018673ffffffffffffffffffffffffffffffffffffffff1673ffffffffffffffffffffffffffffffffffffffff1681526020018581526020018415151515815260200183810383528a818151815260200191508051906020019080838360005b838110156102e95780820151818401526020810190506102ce565b50505050905090810190601f1680156103165780820380516001836020036101000a031916815260200191505b50838103825289818151815260200191508051906020019080838360005b8381101561034f578082015181840152602081019050610334565b50505050905090810190601f16801561037c5780820380516001836020036101000a031916815260200191505b50995050505050505050505060405180910390f35b34801561039d57600080fd5b506103f0600480360360408110156103b457600080fd5b81019080803573ffffffffffffffffffffffffffffffffffffffff169060200190929190803563ffffffff169060200190929190505050611c09565b6040518080602001806020018881526020018773ffffffffffffffffffffffffffffffffffffffff1673ffffffffffffffffffffffffffffffffffffffff1681526020018673ffffffffffffffffffffffffffffffffffffffff1673ffffffffffffffffffffffffffffffffffffffff1681526020018581526020018415151515815260200183810383528a818151815260200191508051906020019080838360005b838110156104ae578082015181840152602081019050610493565b50505050905090810190601f1680156104db5780820380516001836020036101000a031916815260200191505b50838103825289818151815260200191508051906020019080838360005b838110156105145780820151818401526020810190506104f9565b50505050905090810190601f1680156105415780820380516001836020036101000a031916815260200191505b50995050505050505050505060405180910390f35b6106a66004803603604081101561056c57600080fd5b810190808035906020019064010000000081111561058957600080fd5b82018360208201111561059b57600080fd5b803590602001918460018302840111640100000000831117156105bd57600080fd5b91908080601f016020809104026020016040519081016040528093929190818152602001838380828437600081840152601f19601f8201169050808301925050505050505091929192908035906020019064010000000081111561062057600080fd5b82018360208201111561063257600080fd5b8035906020019184600183028401116401000000008311171561065457600080fd5b91908080601f016020809104026020016040519081016040528093929190818152602001838380828437600081840152601f19601f820116905080830192505050505050509192919290505050611dd5565b005b3480156106b457600080fd5b50610746600480360360608110156106cb57600080fd5b81019080803590602001906401000000008111156106e857600080fd5b8201836020820111156106fa57600080fd5b8035906020019184600183028401116401000000008311171561071c57600080fd5b9091929391929390803563ffffffff169060200190929190803590602001909291905050506120f4565b604051808215151515815260200191505060405180910390f35b34801561076c57600080fd5b50610775612176565b604051808273ffffffffffffffffffffffffffffffffffffffff1673ffffffffffffffffffffffffffffffffffffffff16815260200191505060405180910390f35b3480156107c357600080fd5b50610806600480360360208110156107da57600080fd5b81019080803573ffffffffffffffffffffffffffffffffffffffff16906020019092919050505061219c565b005b6108de6004803603606081101561081e57600080fd5b810190808035906020019064010000000081111561083b57600080fd5b82018360208201111561084d57600080fd5b8035906020019184600183028401116401000000008311171561086f57600080fd5b90919293919293908035906020019064010000000081111561089057600080fd5b8201836020820111156108a257600080fd5b803590602001918460018302840111640100000000831117156108c457600080fd5b9091929391929390803590602001909291905050506122c3565b005b3480156108ec57600080fd5b506109196004803603602081101561090357600080fd5b8101908080359060200190929190505050612b48565b6040518080602001806020018573ffffffffffffffffffffffffffffffffffffffff1673ffffffffffffffffffffffffffffffffffffffff16815260200184151515158152602001838103835287818151815260200191508051906020019080838360005b8381101561099957808201518184015260208101905061097e565b50505050905090810190601f1680156109c65780820380516001836020036101000a031916815260200191505b50838103825286818151815260200191508051906020019080838360005b838110156109ff5780820151818401526020810190506109e4565b50505050905090810190601f168015610a2c5780820380516001836020036101000a031916815260200191505b50965050505050505060405180910390f35b348015610a4a57600080fd5b50610ad260048036036040811015610a6157600080fd5b8101908080359060200190640100000000811115610a7e57600080fd5b820183602082011115610a9057600080fd5b80359060200191846001830284011164010000000083111715610ab257600080fd5b9091929391929390803563ffffffff169060200190929190505050612ce2565b60405180806020018681526020018573ffffffffffffffffffffffffffffffffffffffff1673ffffffffffffffffffffffffffffffffffffffff1681526020018473ffffffffffffffffffffffffffffffffffffffff1673ffffffffffffffffffffffffffffffffffffffff168152602001838152602001828103825287818151815260200191508051906020019080838360005b83811015610b82578082015181840152602081019050610b67565b50505050905090810190601f168015610baf5780820380516001836020036101000a031916815260200191505b50965050505050505060405180910390f35b348015610bcd57600080fd5b50610c4560048036036020811015610be457600080fd5b8101908080359060200190640100000000811115610c0157600080fd5b820183602082011115610c1357600080fd5b80359060200191846020830284011164010000000083111715610c3557600080fd5b9091929391929390505050612e99565b005b348015610c5357600080fd5b50610c8060048036036020811015610c6a57600080fd5b8101908080359060200190929190505050612f92565b6040518080602001806020018881526020018773ffffffffffffffffffffffffffffffffffffffff1673ffffffffffffffffffffffffffffffffffffffff1681526020018673ffffffffffffffffffffffffffffffffffffffff1673ffffffffffffffffffffffffffffffffffffffff1681526020018581526020018415151515815260200183810383528a818151815260200191508051906020019080838360005b83811015610d3e578082015181840152602081019050610d23565b50505050905090810190601f168015610d6b5780820380516001836020036101000a031916815260200191505b50838103825289818151815260200191508051906020019080838360005b83811015610da4578082015181840152602081019050610d89565b50505050905090810190601f168015610dd15780820380516001836020036101000a031916815260200191505b50995050505050505050505060405180910390f35b348015610df257600080fd5b50610dfb613151565b604051808273ffffffffffffffffffffffffffffffffffffffff1673ffffffffffffffffffffffffffffffffffffffff16815260200191505060405180910390f35b348015610e4957600080fd5b50610e8c60048036036020811015610e6057600080fd5b81019080803573ffffffffffffffffffffffffffffffffffffffff169060200190929190505050613177565b005b348015610e9a57600080fd5b50610edd60048036036020811015610eb157600080fd5b81019080803573ffffffffffffffffffffffffffffffffffffffff1690602001909291905050506131f6565b6040518080602001806020018573ffffffffffffffffffffffffffffffffffffffff1673ffffffffffffffffffffffffffffffffffffffff16815260200184151515158152602001838103835287818151815260200191508051906020019080838360005b83811015610f5d578082015181840152602081019050610f42565b50505050905090810190601f168015610f8a5780820380516001836020036101000a031916815260200191505b50838103825286818151815260200191508051906020019080838360005b83811015610fc3578082015181840152602081019050610fa8565b50505050905090810190601f168015610ff05780820380516001836020036101000a031916815260200191505b50965050505050505060405180910390f35b6110896004803603604081101561101857600080fd5b810190808035906020019064010000000081111561103557600080fd5b82018360208201111561104757600080fd5b8035906020019184600183028401116401000000008311171561106957600080fd5b9091929391929390803563ffffffff169060200190929190505050613383565b005b34801561109757600080fd5b506110a06141c7565b604051808273ffffffffffffffffffffffffffffffffffffffff1673ffffffffffffffffffffffffffffffffffffffff16815260200191505060405180910390f35b3480156110ee57600080fd5b506110f76141ec565b604051808273ffffffffffffffffffffffffffffffffffffffff1673ffffffffffffffffffffffffffffffffffffffff16815260200191505060405180910390f35b34801561114557600080fd5b506111cd6004803603604081101561115c57600080fd5b810190808035906020019064010000000081111561117957600080fd5b82018360208201111561118b57600080fd5b803590602001918460018302840111640100000000831117156111ad57600080fd5b9091929391929390803563ffffffff169060200190929190505050614212565b60405180806020018581526020018473ffffffffffffffffffffffffffffffffffffffff1673ffffffffffffffffffffffffffffffffffffffff1681526020018373ffffffffffffffffffffffffffffffffffffffff1673ffffffffffffffffffffffffffffffffffffffff168152602001828103825286818151815260200191508051906020019080838360005b8381101561127757808201518184015260208101905061125c565b50505050905090810190601f1680156112a45780820380516001836020036101000a031916815260200191505b509550505050505060405180910390f35b3480156112c157600080fd5b50611304600480360360208110156112d857600080fd5b81019080803573ffffffffffffffffffffffffffffffffffffffff1690602001909291905050506143ac565b005b34801561131257600080fd5b5061133f6004803603602081101561132957600080fd5b81019080803590602001909291905050506144d3565b6040518082815260200191505060405180910390f35b61144b6004803603608081101561136b57600080fd5b810190808035906020019064010000000081111561138857600080fd5b82018360208201111561139a57600080fd5b803590602001918460018302840111640100000000831117156113bc57600080fd5b9091929391929390803590602001906401000000008111156113dd57600080fd5b8201836020820111156113ef57600080fd5b8035906020019184600183028401116401000000008311171561141157600080fd5b909192939192939080359060200190929190803573ffffffffffffffffffffffffffffffffffffffff1690602001909291905050506144f4565b005b34801561145957600080fd5b506114866004803603602081101561147057600080fd5b8101908080359060200190929190505050614a96565b6040518080602001806020018881526020018773ffffffffffffffffffffffffffffffffffffffff1673ffffffffffffffffffffffffffffffffffffffff1681526020018673ffffffffffffffffffffffffffffffffffffffff1673ffffffffffffffffffffffffffffffffffffffff1681526020018581526020018415151515815260200183810383528a818151815260200191508051906020019080838360005b83811015611544578082015181840152602081019050611529565b50505050905090810190601f1680156115715780820380516001836020036101000a031916815260200191505b50838103825289818151815260200191508051906020019080838360005b838110156115aa57808201518184015260208101905061158f565b50505050905090810190601f1680156115d75780820380516001836020036101000a031916815260200191505b50995050505050505050505060405180910390f35b3480156115f857600080fd5b5061163b6004803603602081101561160f57600080fd5b81019080803573ffffffffffffffffffffffffffffffffffffffff169060200190929190505050614c62565b604051808263ffffffff1663ffffffff16815260200191505060405180910390f35b34801561166957600080fd5b506116b56004803603604081101561168057600080fd5b81019080803560ff16906020019092919080356fffffffffffffffffffffffffffffffff169060200190929190505050614c85565b005b611783600480360360408110156116cd57600080fd5b81019080803590602001906401000000008111156116ea57600080fd5b8201836020820111156116fc57600080fd5b8035906020019184600183028401116401000000008311171561171e57600080fd5b90919293919293908035906020019064010000000081111561173f57600080fd5b82018360208201111561175157600080fd5b8035906020019184600183028401116401000000008311171561177357600080fd5b9091929391929390505050614d9d565b005b34801561179157600080fd5b506117be600480360360208110156117a857600080fd5b81019080803590602001909291905050506151d9565b6040518080602001806020018881526020018773ffffffffffffffffffffffffffffffffffffffff1673ffffffffffffffffffffffffffffffffffffffff1681526020018673ffffffffffffffffffffffffffffffffffffffff1673ffffffffffffffffffffffffffffffffffffffff1681526020018581526020018415151515815260200183810383528a818151815260200191508051906020019080838360005b8381101561187c578082015181840152602081019050611861565b50505050905090810190601f1680156118a95780820380516001836020036101000a031916815260200191505b50838103825289818151815260200191508051906020019080838360005b838110156118e25780820151818401526020810190506118c7565b50505050905090810190601f16801561190f5780820380516001836020036101000a031916815260200191505b50995050505050505050505060405180910390f35b600d60009054906101000a900473ffffffffffffffffffffffffffffffffffffffff1673ffffffffffffffffffffffffffffffffffffffff1663fd8b84b1336040518263ffffffff1660e01b8152600401808273ffffffffffffffffffffffffffffffffffffffff1673ffffffffffffffffffffffffffffffffffffffff16815260200191505060206040518083038186803b1580156119c357600080fd5b505afa1580156119d7573d6000803e3d6000fd5b505050506040513d60208110156119ed57600080fd5b8101908080519060200190929190505050611a0757600080fd5b806000806101000a81548173ffffffffffffffffffffffffffffffffffffffff021916908373ffffffffffffffffffffffffffffffffffffffff16021790555050565b6005602052806000526040600020600091509050806000018054600181600116156101000203166002900480601f016020809104026020016040519081016040528092919081815260200182805460018160011615610100020316600290048015611af65780601f10611acb57610100808354040283529160200191611af6565b820191906000526020600020905b815481529060010190602001808311611ad957829003601f168201915b505050505090806001018054600181600116156101000203166002900480601f016020809104026020016040519081016040528092919081815260200182805460018160011615610100020316600290048015611b945780601f10611b6957610100808354040283529160200191611b94565b820191906000526020600020905b815481529060010190602001808311611b7757829003601f168201915b5050505050908060020154908060030160009054906101000a900473ffffffffffffffffffffffffffffffffffffffff16908060040160009054906101000a900473ffffffffffffffffffffffffffffffffffffffff16908060050154908060060160009054906101000a900460ff16905087565b600860205281600052604060002060205280600052604060002060009150915050806000018054600181600116156101000203166002900480601f016020809104026020016040519081016040528092919081815260200182805460018160011615610100020316600290048015611cc25780601f10611c9757610100808354040283529160200191611cc2565b820191906000526020600020905b815481529060010190602001808311611ca557829003601f168201915b505050505090806001018054600181600116156101000203166002900480601f016020809104026020016040519081016040528092919081815260200182805460018160011615610100020316600290048015611d605780601f10611d3557610100808354040283529160200191611d60565b820191906000526020600020905b815481529060010190602001808311611d4357829003601f168201915b5050505050908060020154908060030160009054906101000a900473ffffffffffffffffffffffffffffffffffffffff16908060040160009054906101000a900473ffffffffffffffffffffffffffffffffffffffff16908060050154908060060160009054906101000a900460ff16905087565b6001600381548110611de357fe5b90600052602060002001543414611df957600080fd5b600760003373ffffffffffffffffffffffffffffffffffffffff1673ffffffffffffffffffffffffffffffffffffffff16815260200190815260200160002060020160149054906101000a900460ff16611e5257600080fd5b6000809054906101000a900473ffffffffffffffffffffffffffffffffffffffff1673ffffffffffffffffffffffffffffffffffffffff166108fc60023481611e9757fe5b049081150290604051600060405180830381858888f19350505050158015611ec3573d6000803e3d6000fd5b50600e60009054906101000a900473ffffffffffffffffffffffffffffffffffffffff1673ffffffffffffffffffffffffffffffffffffffff166108fc60023481611f0a57fe5b049081150290604051600060405180830381858888f19350505050158015611f36573d6000803e3d6000fd5b5081600760003373ffffffffffffffffffffffffffffffffffffffff1673ffffffffffffffffffffffffffffffffffffffff1681526020019081526020016000206000019080519060200190611f8d9291906153a5565b5080600760003373ffffffffffffffffffffffffffffffffffffffff1673ffffffffffffffffffffffffffffffffffffffff1681526020019081526020016000206001019080519060200190611fe49291906153a5565b50600460405180608001604052808481526020018381526020013373ffffffffffffffffffffffffffffffffffffffff16815260200160011515815250908060018154018082558091505090600182039060005260206000209060030201600090919290919091506000820151816000019080519060200190612068929190615425565b506020820151816001019080519060200190612085929190615425565b5060408201518160020160006101000a81548173ffffffffffffffffffffffffffffffffffffffff021916908373ffffffffffffffffffffffffffffffffffffffff16021790555060608201518160020160146101000a81548160ff0219169083151502179055505050505050565b60008085858560405160200180848480828437808301925050508263ffffffff1663ffffffff1660e01b81526004019350505050604051602081830303815290604052805190602001209050826006600083815260200190815260200160002060050154141561216857600191505061216e565b60009150505b949350505050565b600c60019054906101000a900473ffffffffffffffffffffffffffffffffffffffff1681565b600d60009054906101000a900473ffffffffffffffffffffffffffffffffffffffff1673ffffffffffffffffffffffffffffffffffffffff1663fd8b84b1336040518263ffffffff1660e01b8152600401808273ffffffffffffffffffffffffffffffffffffffff1673ffffffffffffffffffffffffffffffffffffffff16815260200191505060206040518083038186803b15801561223b57600080fd5b505afa15801561224f573d6000803e3d6000fd5b505050506040513d602081101561226557600080fd5b810190808051906020019092919050505061227f57600080fd5b80600e60006101000a81548173ffffffffffffffffffffffffffffffffffffffff021916908373ffffffffffffffffffffffffffffffffffffffff16021790555050565b600180815481106122d057fe5b9060005260206000200154341461234f576040517f08c379a000000000000000000000000000000000000000000000000000000000815260040180806020018281038252600b8152602001807f77726f6e672076616c756500000000000000000000000000000000000000000081525060200191505060405180910390fd5b60008585600b8888604051808383808284378083019250505092505050908152602001604051809103902060009054906101000a900463ffffffff1660405160200180848480828437808301925050508263ffffffff1663ffffffff1660e01b815260040193505050506040516020818303038152906040528051906020012090506040518060e0016040528087878080601f016020809104026020016040519081016040528093929190818152602001838380828437600081840152601f19601f82011690508083019250505050505050815260200185858080601f016020809104026020016040519081016040528093929190818152602001838380828437600081840152601f19601f8201169050808301925050505050505081526020014281526020013373ffffffffffffffffffffffffffffffffffffffff168152602001600073ffffffffffffffffffffffffffffffffffffffff168152602001838152602001600115158152506006600083815260200190815260200160002060008201518160000190805190602001906124eb929190615425565b506020820151816001019080519060200190612508929190615425565b506040820151816002015560608201518160030160006101000a81548173ffffffffffffffffffffffffffffffffffffffff021916908373ffffffffffffffffffffffffffffffffffffffff16021790555060808201518160040160006101000a81548173ffffffffffffffffffffffffffffffffffffffff021916908373ffffffffffffffffffffffffffffffffffffffff16021790555060a0820151816005015560c08201518160060160006101000a81548160ff0219169083151502179055509050600860003373ffffffffffffffffffffffffffffffffffffffff1673ffffffffffffffffffffffffffffffffffffffff1681526020019081526020016000206000600960003373ffffffffffffffffffffffffffffffffffffffff1673ffffffffffffffffffffffffffffffffffffffff16815260200190815260200160002060009054906101000a900463ffffffff1663ffffffff1663ffffffff1681526020019081526020016000206000820181600001908054600181600116156101000203166002900461269f9291906154a5565b50600182018160010190805460018160011615610100020316600290046126c79291906154a5565b50600282015481600201556003820160009054906101000a900473ffffffffffffffffffffffffffffffffffffffff168160030160006101000a81548173ffffffffffffffffffffffffffffffffffffffff021916908373ffffffffffffffffffffffffffffffffffffffff1602179055506004820160009054906101000a900473ffffffffffffffffffffffffffffffffffffffff168160040160006101000a81548173ffffffffffffffffffffffffffffffffffffffff021916908373ffffffffffffffffffffffffffffffffffffffff160217905550600582015481600501556006820160009054906101000a900460ff168160060160006101000a81548160ff02191690831515021790555090505060036040518060e0016040528088888080601f016020809104026020016040519081016040528093929190818152602001838380828437600081840152601f19601f82011690508083019250505050505050815260200186868080601f016020809104026020016040519081016040528093929190818152602001838380828437600081840152601f19601f8201169050808301925050505050505081526020014281526020013373ffffffffffffffffffffffffffffffffffffffff168152602001600073ffffffffffffffffffffffffffffffffffffffff1681526020018481526020016001151581525090806001815401808255809150509060018203906000526020600020906007020160009091929091909150600082015181600001908051906020019061290e929190615425565b50602082015181600101908051906020019061292b929190615425565b506040820151816002015560608201518160030160006101000a81548173ffffffffffffffffffffffffffffffffffffffff021916908373ffffffffffffffffffffffffffffffffffffffff16021790555060808201518160040160006101000a81548173ffffffffffffffffffffffffffffffffffffffff021916908373ffffffffffffffffffffffffffffffffffffffff16021790555060a0820151816005015560c08201518160060160006101000a81548160ff021916908315150217905550505050600b86866040518083838082843780830192505050925050509081526020016040518091039020600081819054906101000a900463ffffffff168092919060010191906101000a81548163ffffffff021916908363ffffffff16021790555050600960003373ffffffffffffffffffffffffffffffffffffffff1673ffffffffffffffffffffffffffffffffffffffff168152602001908152602001600020600081819054906101000a900463ffffffff168092919060010191906101000a81548163ffffffff021916908363ffffffff160217905550507f69ec0aa9307608d84ae1f79f7498648be1f461e11763151ad9ace72de2e8358b6001600b8888604051808383808284378083019250505092505050908152602001604051809103902060009054906101000a900463ffffffff1603604051808263ffffffff16815260200191505060405180910390a1505050505050565b60048181548110612b5557fe5b9060005260206000209060030201600091509050806000018054600181600116156101000203166002900480601f016020809104026020016040519081016040528092919081815260200182805460018160011615610100020316600290048015612c015780601f10612bd657610100808354040283529160200191612c01565b820191906000526020600020905b815481529060010190602001808311612be457829003601f168201915b505050505090806001018054600181600116156101000203166002900480601f016020809104026020016040519081016040528092919081815260200182805460018160011615610100020316600290048015612c9f5780601f10612c7457610100808354040283529160200191612c9f565b820191906000526020600020905b815481529060010190602001808311612c8257829003601f168201915b5050505050908060020160009054906101000a900473ffffffffffffffffffffffffffffffffffffffff16908060020160149054906101000a900460ff16905084565b6060600080600080600088888860405160200180848480828437808301925050508263ffffffff1663ffffffff1660e01b815260040193505050506040516020818303038152906040528051906020012090506005600082815260200190815260200160002060010160056000838152602001908152602001600020600201546005600084815260200190815260200160002060030160009054906101000a900473ffffffffffffffffffffffffffffffffffffffff166005600085815260200190815260200160002060040160009054906101000a900473ffffffffffffffffffffffffffffffffffffffff166005600086815260200190815260200160002060050154848054600181600116156101000203166002900480601f016020809104026020016040519081016040528092919081815260200182805460018160011615610100020316600290048015612e7c5780601f10612e5157610100808354040283529160200191612e7c565b820191906000526020600020905b815481529060010190602001808311612e5f57829003601f168201915b505050505094509550955095509550955050939792965093509350565b600d60009054906101000a900473ffffffffffffffffffffffffffffffffffffffff1673ffffffffffffffffffffffffffffffffffffffff1663fd8b84b1336040518263ffffffff1660e01b8152600401808273ffffffffffffffffffffffffffffffffffffffff1673ffffffffffffffffffffffffffffffffffffffff16815260200191505060206040518083038186803b158015612f3857600080fd5b505afa158015612f4c573d6000803e3d6000fd5b505050506040513d6020811015612f6257600080fd5b8101908080519060200190929190505050612f7c57600080fd5b818160019190612f8d92919061552c565b505050565b6006602052806000526040600020600091509050806000018054600181600116156101000203166002900480601f01602080910402602001604051908101604052809291908181526020018280546001816001161561010002031660029004801561303e5780601f106130135761010080835404028352916020019161303e565b820191906000526020600020905b81548152906001019060200180831161302157829003601f168201915b505050505090806001018054600181600116156101000203166002900480601f0160208091040260200160405190810160405280929190818152602001828054600181600116156101000203166002900480156130dc5780601f106130b1576101008083540402835291602001916130dc565b820191906000526020600020905b8154815290600101906020018083116130bf57829003601f168201915b5050505050908060020154908060030160009054906101000a900473ffffffffffffffffffffffffffffffffffffffff16908060040160009054906101000a900473ffffffffffffffffffffffffffffffffffffffff16908060050154908060060160009054906101000a900460ff16905087565b600d60009054906101000a900473ffffffffffffffffffffffffffffffffffffffff1681565b60001515600c60009054906101000a900460ff1615151461319757600080fd5b80600d60006101000a81548173ffffffffffffffffffffffffffffffffffffffff021916908373ffffffffffffffffffffffffffffffffffffffff1602179055506001600c60006101000a81548160ff02191690831515021790555050565b6007602052806000526040600020600091509050806000018054600181600116156101000203166002900480601f0160208091040260200160405190810160405280929190818152602001828054600181600116156101000203166002900480156132a25780601f10613277576101008083540402835291602001916132a2565b820191906000526020600020905b81548152906001019060200180831161328557829003601f168201915b505050505090806001018054600181600116156101000203166002900480601f0160208091040260200160405190810160405280929190818152602001828054600181600116156101000203166002900480156133405780601f1061331557610100808354040283529160200191613340565b820191906000526020600020905b81548152906001019060200180831161332357829003601f168201915b5050505050908060020160009054906101000a900473ffffffffffffffffffffffffffffffffffffffff16908060020160149054906101000a900460ff16905084565b6002600160028154811061339357fe5b9060005260206000200154816133a557fe5b0434146133b157600080fd5b600083838360405160200180848480828437808301925050508263ffffffff1663ffffffff1660e01b8152600401935050505060405160208183030381529060405280519060200120905060008484600b8787604051808383808284378083019250505092505050908152602001604051809103902060009054906101000a900463ffffffff1660405160200180848480828437808301925050508263ffffffff1663ffffffff1660e01b81526004019350505050604051602081830303815290604052805190602001209050600015156006600083815260200190815260200160002060060160009054906101000a900460ff161515146134b257600080fd5b6005600083815260200190815260200160002060060160009054906101000a900460ff166134df57600080fd5b60006005600084815260200190815260200160002060040160009054906101000a900473ffffffffffffffffffffffffffffffffffffffff16905060006005600085815260200190815260200160002060030160009054906101000a900473ffffffffffffffffffffffffffffffffffffffff1690503373ffffffffffffffffffffffffffffffffffffffff168273ffffffffffffffffffffffffffffffffffffffff161461358d57600080fd5b6040518060e00160405280600560008781526020019081526020016000206000018054600181600116156101000203166002900480601f0160208091040260200160405190810160405280929190818152602001828054600181600116156101000203166002900480156136425780601f1061361757610100808354040283529160200191613642565b820191906000526020600020905b81548152906001019060200180831161362557829003601f168201915b50505050508152602001600560008781526020019081526020016000206001018054600181600116156101000203166002900480601f0160208091040260200160405190810160405280929190818152602001828054600181600116156101000203166002900480156136f65780601f106136cb576101008083540402835291602001916136f6565b820191906000526020600020905b8154815290600101906020018083116136d957829003601f168201915b505050505081526020014281526020016005600087815260200190815260200160002060030160009054906101000a900473ffffffffffffffffffffffffffffffffffffffff1673ffffffffffffffffffffffffffffffffffffffff1681526020018373ffffffffffffffffffffffffffffffffffffffff16815260200160056000878152602001908152602001600020600501548152602001600115158152506006600085815260200190815260200160002060008201518160000190805190602001906137c6929190615425565b5060208201518160010190805190602001906137e3929190615425565b506040820151816002015560608201518160030160006101000a81548173ffffffffffffffffffffffffffffffffffffffff021916908373ffffffffffffffffffffffffffffffffffffffff16021790555060808201518160040160006101000a81548173ffffffffffffffffffffffffffffffffffffffff021916908373ffffffffffffffffffffffffffffffffffffffff16021790555060a0820151816005015560c08201518160060160006101000a81548160ff0219169083151502179055509050600860003373ffffffffffffffffffffffffffffffffffffffff1673ffffffffffffffffffffffffffffffffffffffff1681526020019081526020016000206000600960003373ffffffffffffffffffffffffffffffffffffffff1673ffffffffffffffffffffffffffffffffffffffff16815260200190815260200160002060009054906101000a900463ffffffff1663ffffffff1663ffffffff1681526020019081526020016000206000820181600001908054600181600116156101000203166002900461397a9291906154a5565b50600182018160010190805460018160011615610100020316600290046139a29291906154a5565b50600282015481600201556003820160009054906101000a900473ffffffffffffffffffffffffffffffffffffffff168160030160006101000a81548173ffffffffffffffffffffffffffffffffffffffff021916908373ffffffffffffffffffffffffffffffffffffffff1602179055506004820160009054906101000a900473ffffffffffffffffffffffffffffffffffffffff168160040160006101000a81548173ffffffffffffffffffffffffffffffffffffffff021916908373ffffffffffffffffffffffffffffffffffffffff160217905550600582015481600501556006820160009054906101000a900460ff168160060160006101000a81548160ff0219169083151502179055509050600860008373ffffffffffffffffffffffffffffffffffffffff1673ffffffffffffffffffffffffffffffffffffffff1681526020019081526020016000206000600960008573ffffffffffffffffffffffffffffffffffffffff1673ffffffffffffffffffffffffffffffffffffffff16815260200190815260200160002060009054906101000a900463ffffffff1663ffffffff1663ffffffff16815260200190815260200160002060008201816000019080546001816001161561010002031660029004613b869291906154a5565b5060018201816001019080546001816001161561010002031660029004613bae9291906154a5565b50600282015481600201556003820160009054906101000a900473ffffffffffffffffffffffffffffffffffffffff168160030160006101000a81548173ffffffffffffffffffffffffffffffffffffffff021916908373ffffffffffffffffffffffffffffffffffffffff1602179055506004820160009054906101000a900473ffffffffffffffffffffffffffffffffffffffff168160040160006101000a81548173ffffffffffffffffffffffffffffffffffffffff021916908373ffffffffffffffffffffffffffffffffffffffff160217905550600582015481600501556006820160009054906101000a900460ff168160060160006101000a81548160ff02191690831515021790555090505060036040518060e00160405280600560008881526020019081526020016000206000018054600181600116156101000203166002900480601f016020809104026020016040519081016040528092919081815260200182805460018160011615610100020316600290048015613d785780601f10613d4d57610100808354040283529160200191613d78565b820191906000526020600020905b815481529060010190602001808311613d5b57829003601f168201915b50505050508152602001600560008881526020019081526020016000206001018054600181600116156101000203166002900480601f016020809104026020016040519081016040528092919081815260200182805460018160011615610100020316600290048015613e2c5780601f10613e0157610100808354040283529160200191613e2c565b820191906000526020600020905b815481529060010190602001808311613e0f57829003601f168201915b505050505081526020014281526020016005600088815260200190815260200160002060030160009054906101000a900473ffffffffffffffffffffffffffffffffffffffff1673ffffffffffffffffffffffffffffffffffffffff1681526020018473ffffffffffffffffffffffffffffffffffffffff1681526020016005600088815260200190815260200160002060050154815260200160011515815250908060018154018082558091505090600182039060005260206000209060070201600090919290919091506000820151816000019080519060200190613f14929190615425565b506020820151816001019080519060200190613f31929190615425565b506040820151816002015560608201518160030160006101000a81548173ffffffffffffffffffffffffffffffffffffffff021916908373ffffffffffffffffffffffffffffffffffffffff16021790555060808201518160040160006101000a81548173ffffffffffffffffffffffffffffffffffffffff021916908373ffffffffffffffffffffffffffffffffffffffff16021790555060a0820151816005015560c08201518160060160006101000a81548160ff021916908315150217905550505050600b87876040518083838082843780830192505050925050509081526020016040518091039020600081819054906101000a900463ffffffff168092919060010191906101000a81548163ffffffff021916908363ffffffff16021790555050600960008373ffffffffffffffffffffffffffffffffffffffff1673ffffffffffffffffffffffffffffffffffffffff168152602001908152602001600020600081819054906101000a900463ffffffff168092919060010191906101000a81548163ffffffff021916908363ffffffff16021790555050600960003373ffffffffffffffffffffffffffffffffffffffff1673ffffffffffffffffffffffffffffffffffffffff168152602001908152602001600020600081819054906101000a900463ffffffff168092919060010191906101000a81548163ffffffff021916908363ffffffff160217905550507f69ec0aa9307608d84ae1f79f7498648be1f461e11763151ad9ace72de2e8358b6001600b8989604051808383808284378083019250505092505050908152602001604051809103902060009054906101000a900463ffffffff1603604051808263ffffffff16815260200191505060405180910390a150505050505050565b6000809054906101000a900473ffffffffffffffffffffffffffffffffffffffff1681565b600e60009054906101000a900473ffffffffffffffffffffffffffffffffffffffff1681565b606060008060008087878760405160200180848480828437808301925050508263ffffffff1663ffffffff1660e01b815260040193505050506040516020818303038152906040528051906020012090506006600082815260200190815260200160002060010160066000838152602001908152602001600020600201546006600084815260200190815260200160002060030160009054906101000a900473ffffffffffffffffffffffffffffffffffffffff166006600085815260200190815260200160002060040160009054906101000a900473ffffffffffffffffffffffffffffffffffffffff16838054600181600116156101000203166002900480601f0160208091040260200160405190810160405280929190818152602001828054600181600116156101000203166002900480156143935780601f1061436857610100808354040283529160200191614393565b820191906000526020600020905b81548152906001019060200180831161437657829003601f168201915b5050505050935094509450945094505093509350935093565b600d60009054906101000a900473ffffffffffffffffffffffffffffffffffffffff1673ffffffffffffffffffffffffffffffffffffffff1663fd8b84b1336040518263ffffffff1660e01b8152600401808273ffffffffffffffffffffffffffffffffffffffff1673ffffffffffffffffffffffffffffffffffffffff16815260200191505060206040518083038186803b15801561444b57600080fd5b505afa15801561445f573d6000803e3d6000fd5b505050506040513d602081101561447557600080fd5b810190808051906020019092919050505061448f57600080fd5b80600c60016101000a81548173ffffffffffffffffffffffffffffffffffffffff021916908373ffffffffffffffffffffffffffffffffffffffff16021790555050565b600181815481106144e057fe5b906000526020600020016000915090505481565b6002600160028154811061450457fe5b90600052602060002001548161451657fe5b04341461452257600080fd5b60008686600a8989604051808383808284378083019250505092505050908152602001604051809103902060009054906101000a900463ffffffff1660405160200180848480828437808301925050508263ffffffff1663ffffffff1660e01b815260040193505050506040516020818303038152906040528051906020012090506040518060e0016040528088888080601f016020809104026020016040519081016040528093929190818152602001838380828437600081840152601f19601f82011690508083019250505050505050815260200186868080601f016020809104026020016040519081016040528093929190818152602001838380828437600081840152601f19601f8201169050808301925050505050505081526020014281526020013373ffffffffffffffffffffffffffffffffffffffff1681526020018373ffffffffffffffffffffffffffffffffffffffff168152602001848152602001600115158152506005600083815260200190815260200160002060008201518160000190805190602001906146bd929190615425565b5060208201518160010190805190602001906146da929190615425565b506040820151816002015560608201518160030160006101000a81548173ffffffffffffffffffffffffffffffffffffffff021916908373ffffffffffffffffffffffffffffffffffffffff16021790555060808201518160040160006101000a81548173ffffffffffffffffffffffffffffffffffffffff021916908373ffffffffffffffffffffffffffffffffffffffff16021790555060a0820151816005015560c08201518160060160006101000a81548160ff02191690831515021790555090505060026040518060e0016040528089898080601f016020809104026020016040519081016040528093929190818152602001838380828437600081840152601f19601f82011690508083019250505050505050815260200187878080601f016020809104026020016040519081016040528093929190818152602001838380828437600081840152601f19601f8201169050808301925050505050505081526020014281526020013373ffffffffffffffffffffffffffffffffffffffff1681526020018473ffffffffffffffffffffffffffffffffffffffff168152602001858152602001600115158152509080600181540180825580915050906001820390600052602060002090600702016000909192909190915060008201518160000190805190602001906148d3929190615425565b5060208201518160010190805190602001906148f0929190615425565b506040820151816002015560608201518160030160006101000a81548173ffffffffffffffffffffffffffffffffffffffff021916908373ffffffffffffffffffffffffffffffffffffffff16021790555060808201518160040160006101000a81548173ffffffffffffffffffffffffffffffffffffffff021916908373ffffffffffffffffffffffffffffffffffffffff16021790555060a0820151816005015560c08201518160060160006101000a81548160ff021916908315150217905550505050600a87876040518083838082843780830192505050925050509081526020016040518091039020600081819054906101000a900463ffffffff168092919060010191906101000a81548163ffffffff021916908363ffffffff160217905550507f69ec0aa9307608d84ae1f79f7498648be1f461e11763151ad9ace72de2e8358b6001600a8989604051808383808284378083019250505092505050908152602001604051809103902060009054906101000a900463ffffffff1603604051808263ffffffff16815260200191505060405180910390a150505050505050565b60038181548110614aa357fe5b9060005260206000209060070201600091509050806000018054600181600116156101000203166002900480601f016020809104026020016040519081016040528092919081815260200182805460018160011615610100020316600290048015614b4f5780601f10614b2457610100808354040283529160200191614b4f565b820191906000526020600020905b815481529060010190602001808311614b3257829003601f168201915b505050505090806001018054600181600116156101000203166002900480601f016020809104026020016040519081016040528092919081815260200182805460018160011615610100020316600290048015614bed5780601f10614bc257610100808354040283529160200191614bed565b820191906000526020600020905b815481529060010190602001808311614bd057829003601f168201915b5050505050908060020154908060030160009054906101000a900473ffffffffffffffffffffffffffffffffffffffff16908060040160009054906101000a900473ffffffffffffffffffffffffffffffffffffffff16908060050154908060060160009054906101000a900460ff16905087565b60096020528060005260406000206000915054906101000a900463ffffffff1681565b600d60009054906101000a900473ffffffffffffffffffffffffffffffffffffffff1673ffffffffffffffffffffffffffffffffffffffff1663fd8b84b1336040518263ffffffff1660e01b8152600401808273ffffffffffffffffffffffffffffffffffffffff1673ffffffffffffffffffffffffffffffffffffffff16815260200191505060206040518083038186803b158015614d2457600080fd5b505afa158015614d38573d6000803e3d6000fd5b505050506040513d6020811015614d4e57600080fd5b8101908080519060200190929190505050614d6857600080fd5b806fffffffffffffffffffffffffffffffff1660018360ff1681548110614d8b57fe5b90600052602060002001819055505050565b60018081548110614daa57fe5b90600052602060002001543414614dc057600080fd5b6000809054906101000a900473ffffffffffffffffffffffffffffffffffffffff1673ffffffffffffffffffffffffffffffffffffffff166108fc349081150290604051600060405180830381858888f19350505050158015614e27573d6000803e3d6000fd5b50600e60009054906101000a900473ffffffffffffffffffffffffffffffffffffffff1673ffffffffffffffffffffffffffffffffffffffff166108fc60023481614e6e57fe5b049081150290604051600060405180830381858888f19350505050158015614e9a573d6000803e3d6000fd5b50604051806080016040528085858080601f016020809104026020016040519081016040528093929190818152602001838380828437600081840152601f19601f82011690508083019250505050505050815260200183838080601f016020809104026020016040519081016040528093929190818152602001838380828437600081840152601f19601f8201169050808301925050505050505081526020013373ffffffffffffffffffffffffffffffffffffffff16815260200160011515815250600760003373ffffffffffffffffffffffffffffffffffffffff1673ffffffffffffffffffffffffffffffffffffffff1681526020019081526020016000206000820151816000019080519060200190614fb8929190615425565b506020820151816001019080519060200190614fd5929190615425565b5060408201518160020160006101000a81548173ffffffffffffffffffffffffffffffffffffffff021916908373ffffffffffffffffffffffffffffffffffffffff16021790555060608201518160020160146101000a81548160ff0219169083151502179055509050506004604051806080016040528086868080601f016020809104026020016040519081016040528093929190818152602001838380828437600081840152601f19601f82011690508083019250505050505050815260200184848080601f016020809104026020016040519081016040528093929190818152602001838380828437600081840152601f19601f8201169050808301925050505050505081526020013373ffffffffffffffffffffffffffffffffffffffff1681526020016001151581525090806001815401808255809150509060018203906000526020600020906003020160009091929091909150600082015181600001908051906020019061514b929190615425565b506020820151816001019080519060200190615168929190615425565b5060408201518160020160006101000a81548173ffffffffffffffffffffffffffffffffffffffff021916908373ffffffffffffffffffffffffffffffffffffffff16021790555060608201518160020160146101000a81548160ff02191690831515021790555050505050505050565b600281815481106151e657fe5b9060005260206000209060070201600091509050806000018054600181600116156101000203166002900480601f0160208091040260200160405190810160405280929190818152602001828054600181600116156101000203166002900480156152925780601f1061526757610100808354040283529160200191615292565b820191906000526020600020905b81548152906001019060200180831161527557829003601f168201915b505050505090806001018054600181600116156101000203166002900480601f0160208091040260200160405190810160405280929190818152602001828054600181600116156101000203166002900480156153305780601f1061530557610100808354040283529160200191615330565b820191906000526020600020905b81548152906001019060200180831161531357829003601f168201915b5050505050908060020154908060030160009054906101000a900473ffffffffffffffffffffffffffffffffffffffff16908060040160009054906101000a900473ffffffffffffffffffffffffffffffffffffffff16908060050154908060060160009054906101000a900460ff16905087565b828054600181600116156101000203166002900490600052602060002090601f016020900481019282601f106153e657805160ff1916838001178555615414565b82800160010185558215615414579182015b828111156154135782518255916020019190600101906153f8565b5b5090506154219190615579565b5090565b828054600181600116156101000203166002900490600052602060002090601f016020900481019282601f1061546657805160ff1916838001178555615494565b82800160010185558215615494579182015b82811115615493578251825591602001919060010190615478565b5b5090506154a19190615579565b5090565b828054600181600116156101000203166002900490600052602060002090601f016020900481019282601f106154de578054855561551b565b8280016001018555821561551b57600052602060002091601f016020900482015b8281111561551a5782548255916001019190600101906154ff565b5b5090506155289190615579565b5090565b828054828255906000526020600020908101928215615568579160200282015b8281111561556757823582559160200191906001019061554c565b5b5090506155759190615579565b5090565b61559b91905b8082111561559757600081600090555060010161557f565b5090565b9056fea165627a7a72305820f084eadf7904c1620200c47fd81b24d659d80733da4583b52b142076630f6fa60029",
  "source": "pragma solidity ^ 0.5 .0;\n\n\ncontract Owners {\n\n    function getOwners(address _ad) public view returns(bool) {}\n\n}\n\ncontract CertfyToken {\n    \n    function distributeTokens(address account) external returns (bool) {}\n\n}\n\ncontract Storage {\n\n        modifier onlyOwners() {\n            // Commented out for tests only - remove comment in production\n            require(ownerContract.getOwners(msg.sender));\n                _;\n        }\n\n\n\n        struct Document {\n                string name;\n                string metadata;\n                uint timestamp;\n                address registrant;\n                address signee;\n                bytes32 hash;\n                bool isEntity;\n        }\n\n        struct Registrant {\n                string name;\n                string description;\n                address user;\n                bool isEntity;\n        }\n\n\n        address payable public current;\n\n        uint[] public prices;\n\n        Document[] public temporaryDocs;\n        Document[] public documents;\n        Registrant[] public registrants;\n\n        mapping(bytes32 => Document) public temporaryRegistry;\n        mapping(bytes32 => Document) public registry;\n\n        mapping(address => Registrant) public verifiedAddress;\n\n        mapping(address => mapping(uint32 => Document)) public userDocs;\n        mapping(address => uint32) public docsPerUser;\n\n        mapping(string => uint32) temporaryIndex;\n        mapping(string => uint32) nameIndex;\n\n        bool ownersSet;\n\n        event DocumentIndex(uint index);\n\n        CertfyToken public tokenContract;\n        Owners public ownerContract;\n\n        address payable public feePoolContract;\n}\n\n\ncontract DocumentRegistration is Storage {\n\n\n        function setTokenContract(address _contract) external onlyOwners {\n                tokenContract = CertfyToken(_contract);\n        }\n\n        function setOwnersContract(address _ownerContract) external {\n                require(ownersSet == false);\n                ownerContract = Owners(_ownerContract);\n                ownersSet = true;\n        }\n\n\n        function setPrices(uint[] calldata _prices) external onlyOwners {\n                prices = _prices;\n        }\n\n        function setPrice(uint8 _index, uint128 _price) external onlyOwners {\n                prices[_index] = _price;\n        }\n\n        function setCurrent(address payable _current) external onlyOwners {\n                current = _current;\n        }\n\n        function registerDocument(\n                string calldata _name,\n                string calldata _metadata,\n                bytes32 _fileHash\n        )\n        external\n        payable {\n                require(msg.value == prices[1],\n                \"wrong value\");\n                //current.transfer(msg.value);\n                //feePoolContract.transfer(msg.value/2);\n                bytes32 hash = keccak256(abi.encodePacked(_name, nameIndex[_name]));\n                userDocs[msg.sender][docsPerUser[msg.sender]] = registry[hash] = Document(\n                        _name,\n                        _metadata,\n                        block.timestamp,\n                        msg.sender,\n                        address(0),\n                        _fileHash,\n                        true\n                );\n                documents.push(Document(\n                        _name,\n                        _metadata,\n                        block.timestamp,\n                        msg.sender,\n                        address(0),\n                        _fileHash,\n                        true\n                ));\n                nameIndex[_name]++;\n                docsPerUser[msg.sender]++;\n                // Commented out for tests only - remove comment for production\n                // tokenContract.distributeTokens(msg.sender);\n                emit DocumentIndex(nameIndex[_name] - 1);\n        }\n\n        function registerMultiSig(\n                string calldata _name,\n                string calldata _metadata,\n                bytes32 _fileHash,\n                address _signee\n        )\n        external\n        payable\n        {\n                require(msg.value == prices[2] / 2);\n                // current.transfer(msg.value);\n                // feePoolContract.transfer(msg.value/2);\n                bytes32 hash = keccak256(abi.encodePacked(_name, temporaryIndex[_name])); // temporaryIndex is separate from nameIndex\n                temporaryRegistry[hash] = Document(\n                        _name,\n                        _metadata,\n                        block.timestamp,\n                        msg.sender,\n                        _signee,\n                        _fileHash,\n                        true\n                );\n                temporaryDocs.push(Document(\n                        _name,\n                        _metadata,\n                        block.timestamp,\n                        msg.sender,\n                        _signee,\n                        _fileHash,\n                        true\n                ));\n                temporaryIndex[_name]++; // Allow temporary registrations under the same name\n                // tokenContract.distributeTokens(msg.sender);\n                emit DocumentIndex(temporaryIndex[_name] - 1);\n        }\n\n        function signDocument(string calldata _name, uint32 _temporaryIndex) external payable {\n                require(msg.value == prices[2] / 2);\n                // current.transfer(msg.value);\n                // feePoolContract.transfer(msg.value/2);\n                bytes32 temporaryHash = keccak256(abi.encodePacked(_name, _temporaryIndex));\n                bytes32 permanentHash = keccak256(abi.encodePacked(_name, nameIndex[_name]));\n                require(registry[permanentHash].isEntity == false);\n                require(temporaryRegistry[temporaryHash].isEntity);\n                address signee = temporaryRegistry[temporaryHash].signee;\n                address registrant = temporaryRegistry[temporaryHash].registrant;\n                require(signee == msg.sender);\n                // Next line could be flawed - not registering for one\n                userDocs[registrant][docsPerUser[registrant]] = userDocs[msg.sender][docsPerUser[msg.sender]] = registry[permanentHash] = Document(\n                        temporaryRegistry[temporaryHash].name,\n                        temporaryRegistry[temporaryHash].metadata,\n                        block.timestamp,\n                        temporaryRegistry[temporaryHash].registrant,\n                        signee,\n                        temporaryRegistry[temporaryHash].hash,\n                        true\n                );\n                documents.push(Document(\n                        temporaryRegistry[temporaryHash].name,\n                        temporaryRegistry[temporaryHash].metadata,\n                        block.timestamp,\n                        temporaryRegistry[temporaryHash].registrant,\n                        signee,\n                        temporaryRegistry[temporaryHash].hash,\n                        true\n                ));\n                nameIndex[_name]++;\n                docsPerUser[signee]++;\n                docsPerUser[msg.sender]++;\n                // tokenContract.distributeTokens(msg.sender);\n                emit DocumentIndex(nameIndex[_name] - 1);\n        }\n\n        function registerAddress(\n                string calldata _name,\n                string calldata _description\n        )\n        external\n        payable {\n                require(msg.value == prices[1]);\n                current.transfer(msg.value);\n                feePoolContract.transfer(msg.value/2);\n                verifiedAddress[msg.sender] = Registrant(\n                        _name,\n                        _description,\n                        msg.sender,\n                        true);\n                registrants.push(Registrant(_name, _description, msg.sender, true));\n        }\n\n        function updateInfo(\n                string memory _name,\n                string memory _description\n        )\n        public\n        payable {\n                require(msg.value == prices[3]);\n                require(verifiedAddress[msg.sender].isEntity);\n                current.transfer(msg.value/2);\n                feePoolContract.transfer(msg.value/2);\n                verifiedAddress[msg.sender].name = _name;\n                verifiedAddress[msg.sender].description = _description;\n                registrants.push(Registrant(_name, _description, msg.sender, true));\n        }\n\n        function verifyDocument(string calldata _name, uint32 _nameIndex, bytes32 _fileHash) external view returns(bool) {\n                bytes32 hash = keccak256(abi.encodePacked(_name, _nameIndex));\n                if (registry[hash].hash == _fileHash) {\n                        return true;\n                } else {\n                        return false;\n                }\n        }\n\n    function checkTemporary(string calldata _name, uint32 _index)\n    external\n    view\n    returns(string memory, uint, address, address, bytes32) {\n        bytes32 hash = keccak256(abi.encodePacked(_name, _index));\n        return (\n            temporaryRegistry[hash].metadata,\n            temporaryRegistry[hash].timestamp,\n            temporaryRegistry[hash].registrant,\n            temporaryRegistry[hash].signee,\n            temporaryRegistry[hash].hash\n        );\n    }\n\n    function documentQuery(string calldata _name, uint32 _nameIndex)\n    external\n    view\n    returns(string memory, uint, address, address) {\n        bytes32 hash = keccak256(abi.encodePacked(_name, _nameIndex));\n        return (\n            registry[hash].metadata,\n            registry[hash].timestamp,\n            registry[hash].registrant,\n            registry[hash].signee\n        );\n    }\n\n        function setPoolContract(address payable _contract) external onlyOwners {\n                feePoolContract = _contract;\n        }\n}\n",
  "sourcePath": "/Users/yakkomajuri/GitHub/bootcamp-finalproject/eth/contracts/DocumentRegistration.sol",
  "compiler": {
    "name": "solc",
    "version": "0.5.8+commit.23d335f2.Emscripten.clang"
  },
  "schemaVersion": "3.0.11",
  "updatedAt": "2019-07-29T16:33:52.859Z",
  "devdoc": {
    "methods": {}
  },
  "userdoc": {
    "methods": {}
  }
}