{
  "contractName": "DocumentRegistration",
  "abi": [
    {
      "constant": true,
      "inputs": [
        {
          "name": "",
          "type": "bytes32"
        }
      ],
      "name": "temporaryRegistry",
      "outputs": [
        {
          "name": "name",
          "type": "string"
        },
        {
          "name": "metadata",
          "type": "string"
        },
        {
          "name": "timestamp",
          "type": "uint256"
        },
        {
          "name": "registrant",
          "type": "address"
        },
        {
          "name": "signee",
          "type": "address"
        },
        {
          "name": "hash",
          "type": "bytes32"
        },
        {
          "name": "isEntity",
          "type": "bool"
        }
      ],
      "payable": false,
      "stateMutability": "view",
      "type": "function"
    },
    {
      "constant": true,
      "inputs": [
        {
          "name": "",
          "type": "address"
        },
        {
          "name": "",
          "type": "uint32"
        }
      ],
      "name": "userDocs",
      "outputs": [
        {
          "name": "name",
          "type": "string"
        },
        {
          "name": "metadata",
          "type": "string"
        },
        {
          "name": "timestamp",
          "type": "uint256"
        },
        {
          "name": "registrant",
          "type": "address"
        },
        {
          "name": "signee",
          "type": "address"
        },
        {
          "name": "hash",
          "type": "bytes32"
        },
        {
          "name": "isEntity",
          "type": "bool"
        }
      ],
      "payable": false,
      "stateMutability": "view",
      "type": "function"
    },
    {
      "constant": true,
      "inputs": [],
      "name": "tokenContract",
      "outputs": [
        {
          "name": "",
          "type": "address"
        }
      ],
      "payable": false,
      "stateMutability": "view",
      "type": "function"
    },
    {
      "constant": true,
      "inputs": [
        {
          "name": "",
          "type": "uint256"
        }
      ],
      "name": "registrants",
      "outputs": [
        {
          "name": "name",
          "type": "string"
        },
        {
          "name": "description",
          "type": "string"
        },
        {
          "name": "user",
          "type": "address"
        },
        {
          "name": "isEntity",
          "type": "bool"
        }
      ],
      "payable": false,
      "stateMutability": "view",
      "type": "function"
    },
    {
      "constant": true,
      "inputs": [
        {
          "name": "",
          "type": "bytes32"
        }
      ],
      "name": "registry",
      "outputs": [
        {
          "name": "name",
          "type": "string"
        },
        {
          "name": "metadata",
          "type": "string"
        },
        {
          "name": "timestamp",
          "type": "uint256"
        },
        {
          "name": "registrant",
          "type": "address"
        },
        {
          "name": "signee",
          "type": "address"
        },
        {
          "name": "hash",
          "type": "bytes32"
        },
        {
          "name": "isEntity",
          "type": "bool"
        }
      ],
      "payable": false,
      "stateMutability": "view",
      "type": "function"
    },
    {
      "constant": true,
      "inputs": [],
      "name": "ownerContract",
      "outputs": [
        {
          "name": "",
          "type": "address"
        }
      ],
      "payable": false,
      "stateMutability": "view",
      "type": "function"
    },
    {
      "constant": true,
      "inputs": [
        {
          "name": "",
          "type": "address"
        }
      ],
      "name": "verifiedAddress",
      "outputs": [
        {
          "name": "name",
          "type": "string"
        },
        {
          "name": "description",
          "type": "string"
        },
        {
          "name": "user",
          "type": "address"
        },
        {
          "name": "isEntity",
          "type": "bool"
        }
      ],
      "payable": false,
      "stateMutability": "view",
      "type": "function"
    },
    {
      "constant": true,
      "inputs": [],
      "name": "current",
      "outputs": [
        {
          "name": "",
          "type": "address"
        }
      ],
      "payable": false,
      "stateMutability": "view",
      "type": "function"
    },
    {
      "constant": true,
      "inputs": [],
      "name": "feePoolContract",
      "outputs": [
        {
          "name": "",
          "type": "address"
        }
      ],
      "payable": false,
      "stateMutability": "view",
      "type": "function"
    },
    {
      "constant": true,
      "inputs": [
        {
          "name": "",
          "type": "uint256"
        }
      ],
      "name": "prices",
      "outputs": [
        {
          "name": "",
          "type": "uint256"
        }
      ],
      "payable": false,
      "stateMutability": "view",
      "type": "function"
    },
    {
      "constant": true,
      "inputs": [
        {
          "name": "",
          "type": "uint256"
        }
      ],
      "name": "documents",
      "outputs": [
        {
          "name": "name",
          "type": "string"
        },
        {
          "name": "metadata",
          "type": "string"
        },
        {
          "name": "timestamp",
          "type": "uint256"
        },
        {
          "name": "registrant",
          "type": "address"
        },
        {
          "name": "signee",
          "type": "address"
        },
        {
          "name": "hash",
          "type": "bytes32"
        },
        {
          "name": "isEntity",
          "type": "bool"
        }
      ],
      "payable": false,
      "stateMutability": "view",
      "type": "function"
    },
    {
      "constant": true,
      "inputs": [
        {
          "name": "",
          "type": "address"
        }
      ],
      "name": "docsPerUser",
      "outputs": [
        {
          "name": "",
          "type": "uint32"
        }
      ],
      "payable": false,
      "stateMutability": "view",
      "type": "function"
    },
    {
      "constant": true,
      "inputs": [
        {
          "name": "",
          "type": "uint256"
        }
      ],
      "name": "temporaryDocs",
      "outputs": [
        {
          "name": "name",
          "type": "string"
        },
        {
          "name": "metadata",
          "type": "string"
        },
        {
          "name": "timestamp",
          "type": "uint256"
        },
        {
          "name": "registrant",
          "type": "address"
        },
        {
          "name": "signee",
          "type": "address"
        },
        {
          "name": "hash",
          "type": "bytes32"
        },
        {
          "name": "isEntity",
          "type": "bool"
        }
      ],
      "payable": false,
      "stateMutability": "view",
      "type": "function"
    },
    {
      "payable": true,
      "stateMutability": "payable",
      "type": "fallback"
    },
    {
      "anonymous": false,
      "inputs": [
        {
          "indexed": false,
          "name": "index",
          "type": "uint256"
        }
      ],
      "name": "LogDocumentIndex",
      "type": "event"
    },
    {
      "anonymous": false,
      "inputs": [
        {
          "indexed": false,
          "name": "index",
          "type": "uint256"
        }
      ],
      "name": "LogTemporaryIndex",
      "type": "event"
    },
    {
      "constant": false,
      "inputs": [
        {
          "name": "_ownerContract",
          "type": "address"
        }
      ],
      "name": "setOwnersContract",
      "outputs": [],
      "payable": false,
      "stateMutability": "nonpayable",
      "type": "function"
    },
    {
      "constant": false,
      "inputs": [
        {
          "name": "_tokenContract",
          "type": "address"
        }
      ],
      "name": "setTokenContract",
      "outputs": [],
      "payable": false,
      "stateMutability": "nonpayable",
      "type": "function"
    },
    {
      "constant": false,
      "inputs": [
        {
          "name": "_prices",
          "type": "uint256[]"
        }
      ],
      "name": "setPrices",
      "outputs": [],
      "payable": false,
      "stateMutability": "nonpayable",
      "type": "function"
    },
    {
      "constant": false,
      "inputs": [
        {
          "name": "_current",
          "type": "address"
        }
      ],
      "name": "setCurrent",
      "outputs": [],
      "payable": false,
      "stateMutability": "nonpayable",
      "type": "function"
    },
    {
      "constant": false,
      "inputs": [
        {
          "name": "_contractAddress",
          "type": "address"
        }
      ],
      "name": "setPoolContract",
      "outputs": [],
      "payable": false,
      "stateMutability": "nonpayable",
      "type": "function"
    },
    {
      "constant": false,
      "inputs": [
        {
          "name": "_name",
          "type": "string"
        },
        {
          "name": "_metadata",
          "type": "string"
        },
        {
          "name": "_fileHash",
          "type": "bytes32"
        }
      ],
      "name": "registerDocument",
      "outputs": [],
      "payable": true,
      "stateMutability": "payable",
      "type": "function"
    },
    {
      "constant": false,
      "inputs": [
        {
          "name": "_name",
          "type": "string"
        },
        {
          "name": "_metadata",
          "type": "string"
        },
        {
          "name": "_fileHash",
          "type": "bytes32"
        },
        {
          "name": "_signee",
          "type": "address"
        }
      ],
      "name": "registerMultiSig",
      "outputs": [],
      "payable": true,
      "stateMutability": "payable",
      "type": "function"
    },
    {
      "constant": false,
      "inputs": [
        {
          "name": "_name",
          "type": "string"
        },
        {
          "name": "_temporaryIndex",
          "type": "uint32"
        }
      ],
      "name": "signDocument",
      "outputs": [],
      "payable": true,
      "stateMutability": "payable",
      "type": "function"
    },
    {
      "constant": false,
      "inputs": [
        {
          "name": "_name",
          "type": "string"
        },
        {
          "name": "_description",
          "type": "string"
        }
      ],
      "name": "registerAddress",
      "outputs": [],
      "payable": true,
      "stateMutability": "payable",
      "type": "function"
    },
    {
      "constant": true,
      "inputs": [
        {
          "name": "_name",
          "type": "string"
        },
        {
          "name": "_nameIndex",
          "type": "uint32"
        },
        {
          "name": "_fileHash",
          "type": "bytes32"
        }
      ],
      "name": "verifyDocument",
      "outputs": [
        {
          "name": "",
          "type": "bool"
        }
      ],
      "payable": false,
      "stateMutability": "view",
      "type": "function"
    },
    {
      "constant": true,
      "inputs": [
        {
          "name": "_name",
          "type": "string"
        },
        {
          "name": "_index",
          "type": "uint32"
        }
      ],
      "name": "checkTemporary",
      "outputs": [
        {
          "name": "",
          "type": "string"
        },
        {
          "name": "",
          "type": "uint256"
        },
        {
          "name": "",
          "type": "address"
        },
        {
          "name": "",
          "type": "address"
        },
        {
          "name": "",
          "type": "bytes32"
        }
      ],
      "payable": false,
      "stateMutability": "view",
      "type": "function"
    },
    {
      "constant": true,
      "inputs": [
        {
          "name": "_name",
          "type": "string"
        },
        {
          "name": "_nameIndex",
          "type": "uint32"
        }
      ],
      "name": "documentQuery",
      "outputs": [
        {
          "name": "",
          "type": "string"
        },
        {
          "name": "",
          "type": "uint256"
        },
        {
          "name": "",
          "type": "address"
        },
        {
          "name": "",
          "type": "address"
        }
      ],
      "payable": false,
      "stateMutability": "view",
      "type": "function"
    },
    {
      "constant": false,
      "inputs": [],
      "name": "flipEmergencySwitch",
      "outputs": [],
      "payable": false,
      "stateMutability": "nonpayable",
      "type": "function"
    }
  ],
  "bytecode": "0x60806040526000600f60006101000a81548160ff02191690831515021790555034801561002b57600080fd5b50615ad3806200003c6000396000f3fe6080604052600436106101815760003560e01c80638ee27c1f116100d1578063bbcd5bbe1161008a578063c2ed2b0511610064578063c2ed2b05146112f7578063c62c8ce714611496578063eaccc9ae14611507578063fde628a2146115d557610181565b8063bbcd5bbe1461115f578063bc31c1c1146111b0578063c04354ff146111ff57610181565b80638ee27c1f14610ce757806393d4457a14610d385780639e091e3114610eac5780639fa6a6e314610f35578063ac8aff3714610f8c578063bac08c3114610fe357610181565b806359c3f3e01161013e578063741cb27811610118578063741cb278146108e857806379cf92d314610a6b5780637ef5029814610af15780637f74ac1514610c9057610181565b806359c3f3e0146106615780635bb15db4146106b25780636ac4d5821461078a57610181565b8063138169b3146101865780631a8e3c3b1461019d57806345675464146101ee5780634655948b1461038d5780634b288acf1461055257806355a373d61461060a575b600080fd5b34801561019257600080fd5b5061019b611774565b005b3480156101a957600080fd5b506101ec600480360360208110156101c057600080fd5b81019080803573ffffffffffffffffffffffffffffffffffffffff169060200190929190505050611883565b005b3480156101fa57600080fd5b506102276004803603602081101561021157600080fd5b81019080803590602001909291905050506119aa565b6040518080602001806020018881526020018773ffffffffffffffffffffffffffffffffffffffff1673ffffffffffffffffffffffffffffffffffffffff1681526020018673ffffffffffffffffffffffffffffffffffffffff1673ffffffffffffffffffffffffffffffffffffffff1681526020018581526020018415151515815260200183810383528a818151815260200191508051906020019080838360005b838110156102e55780820151818401526020810190506102ca565b50505050905090810190601f1680156103125780820380516001836020036101000a031916815260200191505b50838103825289818151815260200191508051906020019080838360005b8381101561034b578082015181840152602081019050610330565b50505050905090810190601f1680156103785780820380516001836020036101000a031916815260200191505b50995050505050505050505060405180910390f35b34801561039957600080fd5b506103ec600480360360408110156103b057600080fd5b81019080803573ffffffffffffffffffffffffffffffffffffffff169060200190929190803563ffffffff169060200190929190505050611b69565b6040518080602001806020018881526020018773ffffffffffffffffffffffffffffffffffffffff1673ffffffffffffffffffffffffffffffffffffffff1681526020018673ffffffffffffffffffffffffffffffffffffffff1673ffffffffffffffffffffffffffffffffffffffff1681526020018581526020018415151515815260200183810383528a818151815260200191508051906020019080838360005b838110156104aa57808201518184015260208101905061048f565b50505050905090810190601f1680156104d75780820380516001836020036101000a031916815260200191505b50838103825289818151815260200191508051906020019080838360005b838110156105105780820151818401526020810190506104f5565b50505050905090810190601f16801561053d5780820380516001836020036101000a031916815260200191505b50995050505050505050505060405180910390f35b34801561055e57600080fd5b506105f06004803603606081101561057557600080fd5b810190808035906020019064010000000081111561059257600080fd5b8201836020820111156105a457600080fd5b803590602001918460018302840111640100000000831117156105c657600080fd5b9091929391929390803563ffffffff16906020019092919080359060200190929190505050611d35565b604051808215151515815260200191505060405180910390f35b34801561061657600080fd5b5061061f611db7565b604051808273ffffffffffffffffffffffffffffffffffffffff1673ffffffffffffffffffffffffffffffffffffffff16815260200191505060405180910390f35b34801561066d57600080fd5b506106b06004803603602081101561068457600080fd5b81019080803573ffffffffffffffffffffffffffffffffffffffff169060200190929190505050611ddc565b005b610788600480360360608110156106c857600080fd5b81019080803590602001906401000000008111156106e557600080fd5b8201836020820111156106f757600080fd5b8035906020019184600183028401116401000000008311171561071957600080fd5b90919293919293908035906020019064010000000081111561073a57600080fd5b82018360208201111561074c57600080fd5b8035906020019184600183028401116401000000008311171561076e57600080fd5b909192939192939080359060200190929190505050611f03565b005b34801561079657600080fd5b506107c3600480360360208110156107ad57600080fd5b81019080803590602001909291905050506129f3565b6040518080602001806020018573ffffffffffffffffffffffffffffffffffffffff1673ffffffffffffffffffffffffffffffffffffffff16815260200184151515158152602001838103835287818151815260200191508051906020019080838360005b83811015610843578082015181840152602081019050610828565b50505050905090810190601f1680156108705780820380516001836020036101000a031916815260200191505b50838103825286818151815260200191508051906020019080838360005b838110156108a957808201518184015260208101905061088e565b50505050905090810190601f1680156108d65780820380516001836020036101000a031916815260200191505b50965050505050505060405180910390f35b3480156108f457600080fd5b5061097c6004803603604081101561090b57600080fd5b810190808035906020019064010000000081111561092857600080fd5b82018360208201111561093a57600080fd5b8035906020019184600183028401116401000000008311171561095c57600080fd5b9091929391929390803563ffffffff169060200190929190505050612b8d565b60405180806020018681526020018573ffffffffffffffffffffffffffffffffffffffff1673ffffffffffffffffffffffffffffffffffffffff1681526020018473ffffffffffffffffffffffffffffffffffffffff1673ffffffffffffffffffffffffffffffffffffffff168152602001838152602001828103825287818151815260200191508051906020019080838360005b83811015610a2c578082015181840152602081019050610a11565b50505050905090810190601f168015610a595780820380516001836020036101000a031916815260200191505b50965050505050505060405180910390f35b348015610a7757600080fd5b50610aef60048036036020811015610a8e57600080fd5b8101908080359060200190640100000000811115610aab57600080fd5b820183602082011115610abd57600080fd5b80359060200191846020830284011164010000000083111715610adf57600080fd5b9091929391929390505050612d44565b005b348015610afd57600080fd5b50610b2a60048036036020811015610b1457600080fd5b8101908080359060200190929190505050612e3d565b6040518080602001806020018881526020018773ffffffffffffffffffffffffffffffffffffffff1673ffffffffffffffffffffffffffffffffffffffff1681526020018673ffffffffffffffffffffffffffffffffffffffff1673ffffffffffffffffffffffffffffffffffffffff1681526020018581526020018415151515815260200183810383528a818151815260200191508051906020019080838360005b83811015610be8578082015181840152602081019050610bcd565b50505050905090810190601f168015610c155780820380516001836020036101000a031916815260200191505b50838103825289818151815260200191508051906020019080838360005b83811015610c4e578082015181840152602081019050610c33565b50505050905090810190601f168015610c7b5780820380516001836020036101000a031916815260200191505b50995050505050505050505060405180910390f35b348015610c9c57600080fd5b50610ca5612ffc565b604051808273ffffffffffffffffffffffffffffffffffffffff1673ffffffffffffffffffffffffffffffffffffffff16815260200191505060405180910390f35b348015610cf357600080fd5b50610d3660048036036020811015610d0a57600080fd5b81019080803573ffffffffffffffffffffffffffffffffffffffff169060200190929190505050613022565b005b348015610d4457600080fd5b50610d8760048036036020811015610d5b57600080fd5b81019080803573ffffffffffffffffffffffffffffffffffffffff1690602001909291905050506130a1565b6040518080602001806020018573ffffffffffffffffffffffffffffffffffffffff1673ffffffffffffffffffffffffffffffffffffffff16815260200184151515158152602001838103835287818151815260200191508051906020019080838360005b83811015610e07578082015181840152602081019050610dec565b50505050905090810190601f168015610e345780820380516001836020036101000a031916815260200191505b50838103825286818151815260200191508051906020019080838360005b83811015610e6d578082015181840152602081019050610e52565b50505050905090810190601f168015610e9a5780820380516001836020036101000a031916815260200191505b50965050505050505060405180910390f35b610f3360048036036040811015610ec257600080fd5b8101908080359060200190640100000000811115610edf57600080fd5b820183602082011115610ef157600080fd5b80359060200191846001830284011164010000000083111715610f1357600080fd5b9091929391929390803563ffffffff16906020019092919050505061322e565b005b348015610f4157600080fd5b50610f4a614463565b604051808273ffffffffffffffffffffffffffffffffffffffff1673ffffffffffffffffffffffffffffffffffffffff16815260200191505060405180910390f35b348015610f9857600080fd5b50610fa1614489565b604051808273ffffffffffffffffffffffffffffffffffffffff1673ffffffffffffffffffffffffffffffffffffffff16815260200191505060405180910390f35b348015610fef57600080fd5b506110776004803603604081101561100657600080fd5b810190808035906020019064010000000081111561102357600080fd5b82018360208201111561103557600080fd5b8035906020019184600183028401116401000000008311171561105757600080fd5b9091929391929390803563ffffffff1690602001909291905050506144af565b60405180806020018581526020018473ffffffffffffffffffffffffffffffffffffffff1673ffffffffffffffffffffffffffffffffffffffff1681526020018373ffffffffffffffffffffffffffffffffffffffff1673ffffffffffffffffffffffffffffffffffffffff168152602001828103825286818151815260200191508051906020019080838360005b83811015611121578082015181840152602081019050611106565b50505050905090810190601f16801561114e5780820380516001836020036101000a031916815260200191505b509550505050505060405180910390f35b34801561116b57600080fd5b506111ae6004803603602081101561118257600080fd5b81019080803573ffffffffffffffffffffffffffffffffffffffff169060200190929190505050614649565b005b3480156111bc57600080fd5b506111e9600480360360208110156111d357600080fd5b810190808035906020019092919050505061476f565b6040518082815260200191505060405180910390f35b6112f56004803603608081101561121557600080fd5b810190808035906020019064010000000081111561123257600080fd5b82018360208201111561124457600080fd5b8035906020019184600183028401116401000000008311171561126657600080fd5b90919293919293908035906020019064010000000081111561128757600080fd5b82018360208201111561129957600080fd5b803590602001918460018302840111640100000000831117156112bb57600080fd5b909192939192939080359060200190929190803573ffffffffffffffffffffffffffffffffffffffff169060200190929190505050614790565b005b34801561130357600080fd5b506113306004803603602081101561131a57600080fd5b8101908080359060200190929190505050614f9c565b6040518080602001806020018881526020018773ffffffffffffffffffffffffffffffffffffffff1673ffffffffffffffffffffffffffffffffffffffff1681526020018673ffffffffffffffffffffffffffffffffffffffff1673ffffffffffffffffffffffffffffffffffffffff1681526020018581526020018415151515815260200183810383528a818151815260200191508051906020019080838360005b838110156113ee5780820151818401526020810190506113d3565b50505050905090810190601f16801561141b5780820380516001836020036101000a031916815260200191505b50838103825289818151815260200191508051906020019080838360005b83811015611454578082015181840152602081019050611439565b50505050905090810190601f1680156114815780820380516001836020036101000a031916815260200191505b50995050505050505050505060405180910390f35b3480156114a257600080fd5b506114e5600480360360208110156114b957600080fd5b81019080803573ffffffffffffffffffffffffffffffffffffffff169060200190929190505050615168565b604051808263ffffffff1663ffffffff16815260200191505060405180910390f35b6115d36004803603604081101561151d57600080fd5b810190808035906020019064010000000081111561153a57600080fd5b82018360208201111561154c57600080fd5b8035906020019184600183028401116401000000008311171561156e57600080fd5b90919293919293908035906020019064010000000081111561158f57600080fd5b8201836020820111156115a157600080fd5b803590602001918460018302840111640100000000831117156115c357600080fd5b909192939192939050505061518b565b005b3480156115e157600080fd5b5061160e600480360360208110156115f857600080fd5b810190808035906020019092919050505061573d565b6040518080602001806020018881526020018773ffffffffffffffffffffffffffffffffffffffff1673ffffffffffffffffffffffffffffffffffffffff1681526020018673ffffffffffffffffffffffffffffffffffffffff1673ffffffffffffffffffffffffffffffffffffffff1681526020018581526020018415151515815260200183810383528a818151815260200191508051906020019080838360005b838110156116cc5780820151818401526020810190506116b1565b50505050905090810190601f1680156116f95780820380516001836020036101000a031916815260200191505b50838103825289818151815260200191508051906020019080838360005b83811015611732578082015181840152602081019050611717565b50505050905090810190601f16801561175f5780820380516001836020036101000a031916815260200191505b50995050505050505050505060405180910390f35b600160009054906101000a900473ffffffffffffffffffffffffffffffffffffffff1673ffffffffffffffffffffffffffffffffffffffff1663fd8b84b1336040518263ffffffff1660e01b8152600401808273ffffffffffffffffffffffffffffffffffffffff1673ffffffffffffffffffffffffffffffffffffffff16815260200191505060206040518083038186803b15801561181357600080fd5b505afa158015611827573d6000803e3d6000fd5b505050506040513d602081101561183d57600080fd5b810190808051906020019092919050505061185757600080fd5b600f60009054906101000a900460ff1615600f60006101000a81548160ff021916908315150217905550565b600160009054906101000a900473ffffffffffffffffffffffffffffffffffffffff1673ffffffffffffffffffffffffffffffffffffffff1663fd8b84b1336040518263ffffffff1660e01b8152600401808273ffffffffffffffffffffffffffffffffffffffff1673ffffffffffffffffffffffffffffffffffffffff16815260200191505060206040518083038186803b15801561192257600080fd5b505afa158015611936573d6000803e3d6000fd5b505050506040513d602081101561194c57600080fd5b810190808051906020019092919050505061196657600080fd5b80600360006101000a81548173ffffffffffffffffffffffffffffffffffffffff021916908373ffffffffffffffffffffffffffffffffffffffff16021790555050565b6008602052806000526040600020600091509050806000018054600181600116156101000203166002900480601f016020809104026020016040519081016040528092919081815260200182805460018160011615610100020316600290048015611a565780601f10611a2b57610100808354040283529160200191611a56565b820191906000526020600020905b815481529060010190602001808311611a3957829003601f168201915b505050505090806001018054600181600116156101000203166002900480601f016020809104026020016040519081016040528092919081815260200182805460018160011615610100020316600290048015611af45780601f10611ac957610100808354040283529160200191611af4565b820191906000526020600020905b815481529060010190602001808311611ad757829003601f168201915b5050505050908060020154908060030160009054906101000a900473ffffffffffffffffffffffffffffffffffffffff16908060040160009054906101000a900473ffffffffffffffffffffffffffffffffffffffff16908060050154908060060160009054906101000a900460ff16905087565b600b60205281600052604060002060205280600052604060002060009150915050806000018054600181600116156101000203166002900480601f016020809104026020016040519081016040528092919081815260200182805460018160011615610100020316600290048015611c225780601f10611bf757610100808354040283529160200191611c22565b820191906000526020600020905b815481529060010190602001808311611c0557829003601f168201915b505050505090806001018054600181600116156101000203166002900480601f016020809104026020016040519081016040528092919081815260200182805460018160011615610100020316600290048015611cc05780601f10611c9557610100808354040283529160200191611cc0565b820191906000526020600020905b815481529060010190602001808311611ca357829003601f168201915b5050505050908060020154908060030160009054906101000a900473ffffffffffffffffffffffffffffffffffffffff16908060040160009054906101000a900473ffffffffffffffffffffffffffffffffffffffff16908060050154908060060160009054906101000a900460ff16905087565b60008085858560405160200180848480828437808301925050508263ffffffff1663ffffffff1660e01b815260040193505050506040516020818303038152906040528051906020012090508260096000838152602001908152602001600020600501541415611da9576001915050611daf565b60009150505b949350505050565b6000809054906101000a900473ffffffffffffffffffffffffffffffffffffffff1681565b600160009054906101000a900473ffffffffffffffffffffffffffffffffffffffff1673ffffffffffffffffffffffffffffffffffffffff1663fd8b84b1336040518263ffffffff1660e01b8152600401808273ffffffffffffffffffffffffffffffffffffffff1673ffffffffffffffffffffffffffffffffffffffff16815260200191505060206040518083038186803b158015611e7b57600080fd5b505afa158015611e8f573d6000803e3d6000fd5b505050506040513d6020811015611ea557600080fd5b8101908080519060200190929190505050611ebf57600080fd5b80600260006101000a81548173ffffffffffffffffffffffffffffffffffffffff021916908373ffffffffffffffffffffffffffffffffffffffff16021790555050565b600f60009054906101000a900460ff1615611f1d57600080fd5b6004600181548110611f2b57fe5b90600052602060002001543414611faa576040517f08c379a000000000000000000000000000000000000000000000000000000000815260040180806020018281038252600b8152602001807f77726f6e672076616c756500000000000000000000000000000000000000000081525060200191505060405180910390fd5b600360009054906101000a900473ffffffffffffffffffffffffffffffffffffffff1673ffffffffffffffffffffffffffffffffffffffff166108fc60023481611ff057fe5b049081150290604051600060405180830381858888f1935050505015801561201c573d6000803e3d6000fd5b506000600260009054906101000a900473ffffffffffffffffffffffffffffffffffffffff16905060008190508073ffffffffffffffffffffffffffffffffffffffff166108fc6002348161206d57fe5b049081150290604051600060405180830381858888f19350505050158015612099573d6000803e3d6000fd5b5060008787600e8a8a604051808383808284378083019250505092505050908152602001604051809103902060009054906101000a900463ffffffff1660405160200180848480828437808301925050508263ffffffff1663ffffffff1660e01b815260040193505050506040516020818303038152906040528051906020012090506040518060e0016040528089898080601f016020809104026020016040519081016040528093929190818152602001838380828437600081840152601f19601f82011690508083019250505050505050815260200187878080601f016020809104026020016040519081016040528093929190818152602001838380828437600081840152601f19601f8201169050808301925050505050505081526020014281526020013373ffffffffffffffffffffffffffffffffffffffff168152602001600073ffffffffffffffffffffffffffffffffffffffff16815260200185815260200160011515815250600960008381526020019081526020016000206000820151816000019080519060200190612236929190615909565b506020820151816001019080519060200190612253929190615909565b506040820151816002015560608201518160030160006101000a81548173ffffffffffffffffffffffffffffffffffffffff021916908373ffffffffffffffffffffffffffffffffffffffff16021790555060808201518160040160006101000a81548173ffffffffffffffffffffffffffffffffffffffff021916908373ffffffffffffffffffffffffffffffffffffffff16021790555060a0820151816005015560c08201518160060160006101000a81548160ff0219169083151502179055509050600b60003373ffffffffffffffffffffffffffffffffffffffff1673ffffffffffffffffffffffffffffffffffffffff1681526020019081526020016000206000600c60003373ffffffffffffffffffffffffffffffffffffffff1673ffffffffffffffffffffffffffffffffffffffff16815260200190815260200160002060009054906101000a900463ffffffff1663ffffffff1663ffffffff168152602001908152602001600020600082018160000190805460018160011615610100020316600290046123ea929190615989565b5060018201816001019080546001816001161561010002031660029004612412929190615989565b50600282015481600201556003820160009054906101000a900473ffffffffffffffffffffffffffffffffffffffff168160030160006101000a81548173ffffffffffffffffffffffffffffffffffffffff021916908373ffffffffffffffffffffffffffffffffffffffff1602179055506004820160009054906101000a900473ffffffffffffffffffffffffffffffffffffffff168160040160006101000a81548173ffffffffffffffffffffffffffffffffffffffff021916908373ffffffffffffffffffffffffffffffffffffffff160217905550600582015481600501556006820160009054906101000a900460ff168160060160006101000a81548160ff02191690831515021790555090505060066040518060e001604052808a8a8080601f016020809104026020016040519081016040528093929190818152602001838380828437600081840152601f19601f82011690508083019250505050505050815260200188888080601f016020809104026020016040519081016040528093929190818152602001838380828437600081840152601f19601f8201169050808301925050505050505081526020014281526020013373ffffffffffffffffffffffffffffffffffffffff168152602001600073ffffffffffffffffffffffffffffffffffffffff16815260200186815260200160011515815250908060018154018082558091505090600182039060005260206000209060070201600090919290919091506000820151816000019080519060200190612659929190615909565b506020820151816001019080519060200190612676929190615909565b506040820151816002015560608201518160030160006101000a81548173ffffffffffffffffffffffffffffffffffffffff021916908373ffffffffffffffffffffffffffffffffffffffff16021790555060808201518160040160006101000a81548173ffffffffffffffffffffffffffffffffffffffff021916908373ffffffffffffffffffffffffffffffffffffffff16021790555060a0820151816005015560c08201518160060160006101000a81548160ff021916908315150217905550505050600e88886040518083838082843780830192505050925050509081526020016040518091039020600081819054906101000a900463ffffffff168092919060010191906101000a81548163ffffffff021916908363ffffffff16021790555050600c60003373ffffffffffffffffffffffffffffffffffffffff1673ffffffffffffffffffffffffffffffffffffffff168152602001908152602001600020600081819054906101000a900463ffffffff168092919060010191906101000a81548163ffffffff021916908363ffffffff160217905550507fc8f254f7f069e4392d476359a2a29c2d37b35286e74f5d62fc14df9db37d09746001600e8a8a604051808383808284378083019250505092505050908152602001604051809103902060009054906101000a900463ffffffff1603604051808263ffffffff16815260200191505060405180910390a16000809054906101000a900473ffffffffffffffffffffffffffffffffffffffff1673ffffffffffffffffffffffffffffffffffffffff1663b1d17c98336040518263ffffffff1660e01b8152600401808273ffffffffffffffffffffffffffffffffffffffff1673ffffffffffffffffffffffffffffffffffffffff168152602001915050602060405180830381600087803b15801561292b57600080fd5b505af115801561293f573d6000803e3d6000fd5b505050506040513d602081101561295557600080fd5b810190808051906020019092919050505050600260009054906101000a900473ffffffffffffffffffffffffffffffffffffffff1673ffffffffffffffffffffffffffffffffffffffff166313db4e1a6040518163ffffffff1660e01b8152600401600060405180830381600087803b1580156129d157600080fd5b505af11580156129e5573d6000803e3d6000fd5b505050505050505050505050565b60078181548110612a0057fe5b9060005260206000209060030201600091509050806000018054600181600116156101000203166002900480601f016020809104026020016040519081016040528092919081815260200182805460018160011615610100020316600290048015612aac5780601f10612a8157610100808354040283529160200191612aac565b820191906000526020600020905b815481529060010190602001808311612a8f57829003601f168201915b505050505090806001018054600181600116156101000203166002900480601f016020809104026020016040519081016040528092919081815260200182805460018160011615610100020316600290048015612b4a5780601f10612b1f57610100808354040283529160200191612b4a565b820191906000526020600020905b815481529060010190602001808311612b2d57829003601f168201915b5050505050908060020160009054906101000a900473ffffffffffffffffffffffffffffffffffffffff16908060020160149054906101000a900460ff16905084565b6060600080600080600088888860405160200180848480828437808301925050508263ffffffff1663ffffffff1660e01b815260040193505050506040516020818303038152906040528051906020012090506008600082815260200190815260200160002060010160086000838152602001908152602001600020600201546008600084815260200190815260200160002060030160009054906101000a900473ffffffffffffffffffffffffffffffffffffffff166008600085815260200190815260200160002060040160009054906101000a900473ffffffffffffffffffffffffffffffffffffffff166008600086815260200190815260200160002060050154848054600181600116156101000203166002900480601f016020809104026020016040519081016040528092919081815260200182805460018160011615610100020316600290048015612d275780601f10612cfc57610100808354040283529160200191612d27565b820191906000526020600020905b815481529060010190602001808311612d0a57829003601f168201915b505050505094509550955095509550955050939792965093509350565b600160009054906101000a900473ffffffffffffffffffffffffffffffffffffffff1673ffffffffffffffffffffffffffffffffffffffff1663fd8b84b1336040518263ffffffff1660e01b8152600401808273ffffffffffffffffffffffffffffffffffffffff1673ffffffffffffffffffffffffffffffffffffffff16815260200191505060206040518083038186803b158015612de357600080fd5b505afa158015612df7573d6000803e3d6000fd5b505050506040513d6020811015612e0d57600080fd5b8101908080519060200190929190505050612e2757600080fd5b818160049190612e38929190615a10565b505050565b6009602052806000526040600020600091509050806000018054600181600116156101000203166002900480601f016020809104026020016040519081016040528092919081815260200182805460018160011615610100020316600290048015612ee95780601f10612ebe57610100808354040283529160200191612ee9565b820191906000526020600020905b815481529060010190602001808311612ecc57829003601f168201915b505050505090806001018054600181600116156101000203166002900480601f016020809104026020016040519081016040528092919081815260200182805460018160011615610100020316600290048015612f875780601f10612f5c57610100808354040283529160200191612f87565b820191906000526020600020905b815481529060010190602001808311612f6a57829003601f168201915b5050505050908060020154908060030160009054906101000a900473ffffffffffffffffffffffffffffffffffffffff16908060040160009054906101000a900473ffffffffffffffffffffffffffffffffffffffff16908060050154908060060160009054906101000a900460ff16905087565b600160009054906101000a900473ffffffffffffffffffffffffffffffffffffffff1681565b60001515600f60019054906101000a900460ff1615151461304257600080fd5b80600160006101000a81548173ffffffffffffffffffffffffffffffffffffffff021916908373ffffffffffffffffffffffffffffffffffffffff1602179055506001600f60016101000a81548160ff02191690831515021790555050565b600a602052806000526040600020600091509050806000018054600181600116156101000203166002900480601f01602080910402602001604051908101604052809291908181526020018280546001816001161561010002031660029004801561314d5780601f106131225761010080835404028352916020019161314d565b820191906000526020600020905b81548152906001019060200180831161313057829003601f168201915b505050505090806001018054600181600116156101000203166002900480601f0160208091040260200160405190810160405280929190818152602001828054600181600116156101000203166002900480156131eb5780601f106131c0576101008083540402835291602001916131eb565b820191906000526020600020905b8154815290600101906020018083116131ce57829003601f168201915b5050505050908060020160009054906101000a900473ffffffffffffffffffffffffffffffffffffffff16908060020160149054906101000a900460ff16905084565b600f60009054906101000a900460ff161561324857600080fd5b6002600460028154811061325857fe5b90600052602060002001548161326a57fe5b0434146132df576040517f08c379a00000000000000000000000000000000000000000000000000000000081526004018080602001828103825260148152602001807f7468652070726963652061696e7420726967687400000000000000000000000081525060200191505060405180910390fd5b600083838360405160200180848480828437808301925050508263ffffffff1663ffffffff1660e01b8152600401935050505060405160208183030381529060405280519060200120905060008484600e8787604051808383808284378083019250505092505050908152602001604051809103902060009054906101000a900463ffffffff1660405160200180848480828437808301925050508263ffffffff1663ffffffff1660e01b81526004019350505050604051602081830303815290604052805190602001209050600015156009600083815260200190815260200160002060060160009054906101000a900460ff16151514613449576040517f08c379a00000000000000000000000000000000000000000000000000000000081526004018080602001828103825260178152602001807f646f63756d656e7420616c72656164792065786973747300000000000000000081525060200191505060405180910390fd5b6008600083815260200190815260200160002060060160009054906101000a900460ff166134c2576040517f08c379a0000000000000000000000000000000000000000000000000000000008152600401808060200182810382526025815260200180615a836025913960400191505060405180910390fd5b60006008600084815260200190815260200160002060040160009054906101000a900473ffffffffffffffffffffffffffffffffffffffff16905060006008600085815260200190815260200160002060030160009054906101000a900473ffffffffffffffffffffffffffffffffffffffff1690503373ffffffffffffffffffffffffffffffffffffffff168273ffffffffffffffffffffffffffffffffffffffff16146135d9576040517f08c379a00000000000000000000000000000000000000000000000000000000081526004018080602001828103825260188152602001807f6d73672e73656e646572206973206e6f74207369676e6565000000000000000081525060200191505060405180910390fd5b600360009054906101000a900473ffffffffffffffffffffffffffffffffffffffff1673ffffffffffffffffffffffffffffffffffffffff166108fc6002348161361f57fe5b049081150290604051600060405180830381858888f1935050505015801561364b573d6000803e3d6000fd5b506000600260009054906101000a900473ffffffffffffffffffffffffffffffffffffffff16905060008190508073ffffffffffffffffffffffffffffffffffffffff166108fc6002348161369c57fe5b049081150290604051600060405180830381858888f193505050501580156136c8573d6000803e3d6000fd5b506040518060e00160405280600860008981526020019081526020016000206000018054600181600116156101000203166002900480601f01602080910402602001604051908101604052809291908181526020018280546001816001161561010002031660029004801561377e5780601f106137535761010080835404028352916020019161377e565b820191906000526020600020905b81548152906001019060200180831161376157829003601f168201915b50505050508152602001600860008981526020019081526020016000206001018054600181600116156101000203166002900480601f0160208091040260200160405190810160405280929190818152602001828054600181600116156101000203166002900480156138325780601f1061380757610100808354040283529160200191613832565b820191906000526020600020905b81548152906001019060200180831161381557829003601f168201915b505050505081526020014281526020016008600089815260200190815260200160002060030160009054906101000a900473ffffffffffffffffffffffffffffffffffffffff1673ffffffffffffffffffffffffffffffffffffffff1681526020018573ffffffffffffffffffffffffffffffffffffffff1681526020016008600089815260200190815260200160002060050154815260200160011515815250600960008781526020019081526020016000206000820151816000019080519060200190613902929190615909565b50602082015181600101908051906020019061391f929190615909565b506040820151816002015560608201518160030160006101000a81548173ffffffffffffffffffffffffffffffffffffffff021916908373ffffffffffffffffffffffffffffffffffffffff16021790555060808201518160040160006101000a81548173ffffffffffffffffffffffffffffffffffffffff021916908373ffffffffffffffffffffffffffffffffffffffff16021790555060a0820151816005015560c08201518160060160006101000a81548160ff0219169083151502179055509050600b60003373ffffffffffffffffffffffffffffffffffffffff1673ffffffffffffffffffffffffffffffffffffffff1681526020019081526020016000206000600c60003373ffffffffffffffffffffffffffffffffffffffff1673ffffffffffffffffffffffffffffffffffffffff16815260200190815260200160002060009054906101000a900463ffffffff1663ffffffff1663ffffffff16815260200190815260200160002060008201816000019080546001816001161561010002031660029004613ab6929190615989565b5060018201816001019080546001816001161561010002031660029004613ade929190615989565b50600282015481600201556003820160009054906101000a900473ffffffffffffffffffffffffffffffffffffffff168160030160006101000a81548173ffffffffffffffffffffffffffffffffffffffff021916908373ffffffffffffffffffffffffffffffffffffffff1602179055506004820160009054906101000a900473ffffffffffffffffffffffffffffffffffffffff168160040160006101000a81548173ffffffffffffffffffffffffffffffffffffffff021916908373ffffffffffffffffffffffffffffffffffffffff160217905550600582015481600501556006820160009054906101000a900460ff168160060160006101000a81548160ff0219169083151502179055509050600b60008573ffffffffffffffffffffffffffffffffffffffff1673ffffffffffffffffffffffffffffffffffffffff1681526020019081526020016000206000600c60008773ffffffffffffffffffffffffffffffffffffffff1673ffffffffffffffffffffffffffffffffffffffff16815260200190815260200160002060009054906101000a900463ffffffff1663ffffffff1663ffffffff16815260200190815260200160002060008201816000019080546001816001161561010002031660029004613cc2929190615989565b5060018201816001019080546001816001161561010002031660029004613cea929190615989565b50600282015481600201556003820160009054906101000a900473ffffffffffffffffffffffffffffffffffffffff168160030160006101000a81548173ffffffffffffffffffffffffffffffffffffffff021916908373ffffffffffffffffffffffffffffffffffffffff1602179055506004820160009054906101000a900473ffffffffffffffffffffffffffffffffffffffff168160040160006101000a81548173ffffffffffffffffffffffffffffffffffffffff021916908373ffffffffffffffffffffffffffffffffffffffff160217905550600582015481600501556006820160009054906101000a900460ff168160060160006101000a81548160ff02191690831515021790555090505060066040518060e00160405280600860008a81526020019081526020016000206000018054600181600116156101000203166002900480601f016020809104026020016040519081016040528092919081815260200182805460018160011615610100020316600290048015613eb45780601f10613e8957610100808354040283529160200191613eb4565b820191906000526020600020905b815481529060010190602001808311613e9757829003601f168201915b50505050508152602001600860008a81526020019081526020016000206001018054600181600116156101000203166002900480601f016020809104026020016040519081016040528092919081815260200182805460018160011615610100020316600290048015613f685780601f10613f3d57610100808354040283529160200191613f68565b820191906000526020600020905b815481529060010190602001808311613f4b57829003601f168201915b50505050508152602001428152602001600860008a815260200190815260200160002060030160009054906101000a900473ffffffffffffffffffffffffffffffffffffffff1673ffffffffffffffffffffffffffffffffffffffff1681526020018673ffffffffffffffffffffffffffffffffffffffff168152602001600860008a815260200190815260200160002060050154815260200160011515815250908060018154018082558091505090600182039060005260206000209060070201600090919290919091506000820151816000019080519060200190614050929190615909565b50602082015181600101908051906020019061406d929190615909565b506040820151816002015560608201518160030160006101000a81548173ffffffffffffffffffffffffffffffffffffffff021916908373ffffffffffffffffffffffffffffffffffffffff16021790555060808201518160040160006101000a81548173ffffffffffffffffffffffffffffffffffffffff021916908373ffffffffffffffffffffffffffffffffffffffff16021790555060a0820151816005015560c08201518160060160006101000a81548160ff021916908315150217905550505050600e89896040518083838082843780830192505050925050509081526020016040518091039020600081819054906101000a900463ffffffff168092919060010191906101000a81548163ffffffff021916908363ffffffff16021790555050600c60008573ffffffffffffffffffffffffffffffffffffffff1673ffffffffffffffffffffffffffffffffffffffff168152602001908152602001600020600081819054906101000a900463ffffffff168092919060010191906101000a81548163ffffffff021916908363ffffffff16021790555050600c60003373ffffffffffffffffffffffffffffffffffffffff1673ffffffffffffffffffffffffffffffffffffffff168152602001908152602001600020600081819054906101000a900463ffffffff168092919060010191906101000a81548163ffffffff021916908363ffffffff160217905550507fc8f254f7f069e4392d476359a2a29c2d37b35286e74f5d62fc14df9db37d09746001600e8b8b604051808383808284378083019250505092505050908152602001604051809103902060009054906101000a900463ffffffff1603604051808263ffffffff16815260200191505060405180910390a16000809054906101000a900473ffffffffffffffffffffffffffffffffffffffff1673ffffffffffffffffffffffffffffffffffffffff1663b1d17c98336040518263ffffffff1660e01b8152600401808273ffffffffffffffffffffffffffffffffffffffff1673ffffffffffffffffffffffffffffffffffffffff168152602001915050602060405180830381600087803b15801561439a57600080fd5b505af11580156143ae573d6000803e3d6000fd5b505050506040513d60208110156143c457600080fd5b810190808051906020019092919050505050600260009054906101000a900473ffffffffffffffffffffffffffffffffffffffff1673ffffffffffffffffffffffffffffffffffffffff166313db4e1a6040518163ffffffff1660e01b8152600401600060405180830381600087803b15801561444057600080fd5b505af1158015614454573d6000803e3d6000fd5b50505050505050505050505050565b600360009054906101000a900473ffffffffffffffffffffffffffffffffffffffff1681565b600260009054906101000a900473ffffffffffffffffffffffffffffffffffffffff1681565b606060008060008087878760405160200180848480828437808301925050508263ffffffff1663ffffffff1660e01b815260040193505050506040516020818303038152906040528051906020012090506009600082815260200190815260200160002060010160096000838152602001908152602001600020600201546009600084815260200190815260200160002060030160009054906101000a900473ffffffffffffffffffffffffffffffffffffffff166009600085815260200190815260200160002060040160009054906101000a900473ffffffffffffffffffffffffffffffffffffffff16838054600181600116156101000203166002900480601f0160208091040260200160405190810160405280929190818152602001828054600181600116156101000203166002900480156146305780601f1061460557610100808354040283529160200191614630565b820191906000526020600020905b81548152906001019060200180831161461357829003601f168201915b5050505050935094509450945094505093509350935093565b600160009054906101000a900473ffffffffffffffffffffffffffffffffffffffff1673ffffffffffffffffffffffffffffffffffffffff1663fd8b84b1336040518263ffffffff1660e01b8152600401808273ffffffffffffffffffffffffffffffffffffffff1673ffffffffffffffffffffffffffffffffffffffff16815260200191505060206040518083038186803b1580156146e857600080fd5b505afa1580156146fc573d6000803e3d6000fd5b505050506040513d602081101561471257600080fd5b810190808051906020019092919050505061472c57600080fd5b806000806101000a81548173ffffffffffffffffffffffffffffffffffffffff021916908373ffffffffffffffffffffffffffffffffffffffff16021790555050565b6004818154811061477c57fe5b906000526020600020016000915090505481565b600f60009054906101000a900460ff16156147aa57600080fd5b600260046002815481106147ba57fe5b9060005260206000200154816147cc57fe5b0434146147d857600080fd5b600360009054906101000a900473ffffffffffffffffffffffffffffffffffffffff1673ffffffffffffffffffffffffffffffffffffffff166108fc6002348161481e57fe5b049081150290604051600060405180830381858888f1935050505015801561484a573d6000803e3d6000fd5b506000600260009054906101000a900473ffffffffffffffffffffffffffffffffffffffff16905060008190508073ffffffffffffffffffffffffffffffffffffffff166108fc6002348161489b57fe5b049081150290604051600060405180830381858888f193505050501580156148c7573d6000803e3d6000fd5b5060008888600d8b8b604051808383808284378083019250505092505050908152602001604051809103902060009054906101000a900463ffffffff1660405160200180848480828437808301925050508263ffffffff1663ffffffff1660e01b815260040193505050506040516020818303038152906040528051906020012090506040518060e001604052808a8a8080601f016020809104026020016040519081016040528093929190818152602001838380828437600081840152601f19601f82011690508083019250505050505050815260200188888080601f016020809104026020016040519081016040528093929190818152602001838380828437600081840152601f19601f8201169050808301925050505050505081526020014281526020013373ffffffffffffffffffffffffffffffffffffffff1681526020018573ffffffffffffffffffffffffffffffffffffffff16815260200186815260200160011515815250600860008381526020019081526020016000206000820151816000019080519060200190614a63929190615909565b506020820151816001019080519060200190614a80929190615909565b506040820151816002015560608201518160030160006101000a81548173ffffffffffffffffffffffffffffffffffffffff021916908373ffffffffffffffffffffffffffffffffffffffff16021790555060808201518160040160006101000a81548173ffffffffffffffffffffffffffffffffffffffff021916908373ffffffffffffffffffffffffffffffffffffffff16021790555060a0820151816005015560c08201518160060160006101000a81548160ff02191690831515021790555090505060056040518060e001604052808b8b8080601f016020809104026020016040519081016040528093929190818152602001838380828437600081840152601f19601f82011690508083019250505050505050815260200189898080601f016020809104026020016040519081016040528093929190818152602001838380828437600081840152601f19601f8201169050808301925050505050505081526020014281526020013373ffffffffffffffffffffffffffffffffffffffff1681526020018673ffffffffffffffffffffffffffffffffffffffff16815260200187815260200160011515815250908060018154018082558091505090600182039060005260206000209060070201600090919290919091506000820151816000019080519060200190614c79929190615909565b506020820151816001019080519060200190614c96929190615909565b506040820151816002015560608201518160030160006101000a81548173ffffffffffffffffffffffffffffffffffffffff021916908373ffffffffffffffffffffffffffffffffffffffff16021790555060808201518160040160006101000a81548173ffffffffffffffffffffffffffffffffffffffff021916908373ffffffffffffffffffffffffffffffffffffffff16021790555060a0820151816005015560c08201518160060160006101000a81548160ff021916908315150217905550505050600d89896040518083838082843780830192505050925050509081526020016040518091039020600081819054906101000a900463ffffffff168092919060010191906101000a81548163ffffffff021916908363ffffffff160217905550507f4456750b600ba1a6b74d80d84af71679808635ea97096df7daefd80c15c83d516001600d8b8b604051808383808284378083019250505092505050908152602001604051809103902060009054906101000a900463ffffffff1603604051808263ffffffff16815260200191505060405180910390a16000809054906101000a900473ffffffffffffffffffffffffffffffffffffffff1673ffffffffffffffffffffffffffffffffffffffff1663b1d17c98336040518263ffffffff1660e01b8152600401808273ffffffffffffffffffffffffffffffffffffffff1673ffffffffffffffffffffffffffffffffffffffff168152602001915050602060405180830381600087803b158015614ed357600080fd5b505af1158015614ee7573d6000803e3d6000fd5b505050506040513d6020811015614efd57600080fd5b810190808051906020019092919050505050600260009054906101000a900473ffffffffffffffffffffffffffffffffffffffff1673ffffffffffffffffffffffffffffffffffffffff166313db4e1a6040518163ffffffff1660e01b8152600401600060405180830381600087803b158015614f7957600080fd5b505af1158015614f8d573d6000803e3d6000fd5b50505050505050505050505050565b60068181548110614fa957fe5b9060005260206000209060070201600091509050806000018054600181600116156101000203166002900480601f0160208091040260200160405190810160405280929190818152602001828054600181600116156101000203166002900480156150555780601f1061502a57610100808354040283529160200191615055565b820191906000526020600020905b81548152906001019060200180831161503857829003601f168201915b505050505090806001018054600181600116156101000203166002900480601f0160208091040260200160405190810160405280929190818152602001828054600181600116156101000203166002900480156150f35780601f106150c8576101008083540402835291602001916150f3565b820191906000526020600020905b8154815290600101906020018083116150d657829003601f168201915b5050505050908060020154908060030160009054906101000a900473ffffffffffffffffffffffffffffffffffffffff16908060040160009054906101000a900473ffffffffffffffffffffffffffffffffffffffff16908060050154908060060160009054906101000a900460ff16905087565b600c6020528060005260406000206000915054906101000a900463ffffffff1681565b600460018154811061519957fe5b906000526020600020015434146151af57600080fd5b600360009054906101000a900473ffffffffffffffffffffffffffffffffffffffff1673ffffffffffffffffffffffffffffffffffffffff166108fc600234816151f557fe5b049081150290604051600060405180830381858888f19350505050158015615221573d6000803e3d6000fd5b506000600260009054906101000a900473ffffffffffffffffffffffffffffffffffffffff16905060008190508073ffffffffffffffffffffffffffffffffffffffff166108fc6002348161527257fe5b049081150290604051600060405180830381858888f1935050505015801561529e573d6000803e3d6000fd5b50604051806080016040528087878080601f016020809104026020016040519081016040528093929190818152602001838380828437600081840152601f19601f82011690508083019250505050505050815260200185858080601f016020809104026020016040519081016040528093929190818152602001838380828437600081840152601f19601f8201169050808301925050505050505081526020013373ffffffffffffffffffffffffffffffffffffffff16815260200160011515815250600a60003373ffffffffffffffffffffffffffffffffffffffff1673ffffffffffffffffffffffffffffffffffffffff16815260200190815260200160002060008201518160000190805190602001906153bc929190615909565b5060208201518160010190805190602001906153d9929190615909565b5060408201518160020160006101000a81548173ffffffffffffffffffffffffffffffffffffffff021916908373ffffffffffffffffffffffffffffffffffffffff16021790555060608201518160020160146101000a81548160ff0219169083151502179055509050506007604051806080016040528088888080601f016020809104026020016040519081016040528093929190818152602001838380828437600081840152601f19601f82011690508083019250505050505050815260200186868080601f016020809104026020016040519081016040528093929190818152602001838380828437600081840152601f19601f8201169050808301925050505050505081526020013373ffffffffffffffffffffffffffffffffffffffff1681526020016001151581525090806001815401808255809150509060018203906000526020600020906003020160009091929091909150600082015181600001908051906020019061554f929190615909565b50602082015181600101908051906020019061556c929190615909565b5060408201518160020160006101000a81548173ffffffffffffffffffffffffffffffffffffffff021916908373ffffffffffffffffffffffffffffffffffffffff16021790555060608201518160020160146101000a81548160ff0219169083151502179055505050506000809054906101000a900473ffffffffffffffffffffffffffffffffffffffff1673ffffffffffffffffffffffffffffffffffffffff1663b1d17c98336040518263ffffffff1660e01b8152600401808273ffffffffffffffffffffffffffffffffffffffff1673ffffffffffffffffffffffffffffffffffffffff168152602001915050602060405180830381600087803b15801561567757600080fd5b505af115801561568b573d6000803e3d6000fd5b505050506040513d60208110156156a157600080fd5b810190808051906020019092919050505050600260009054906101000a900473ffffffffffffffffffffffffffffffffffffffff1673ffffffffffffffffffffffffffffffffffffffff166313db4e1a6040518163ffffffff1660e01b8152600401600060405180830381600087803b15801561571d57600080fd5b505af1158015615731573d6000803e3d6000fd5b50505050505050505050565b6005818154811061574a57fe5b9060005260206000209060070201600091509050806000018054600181600116156101000203166002900480601f0160208091040260200160405190810160405280929190818152602001828054600181600116156101000203166002900480156157f65780601f106157cb576101008083540402835291602001916157f6565b820191906000526020600020905b8154815290600101906020018083116157d957829003601f168201915b505050505090806001018054600181600116156101000203166002900480601f0160208091040260200160405190810160405280929190818152602001828054600181600116156101000203166002900480156158945780601f1061586957610100808354040283529160200191615894565b820191906000526020600020905b81548152906001019060200180831161587757829003601f168201915b5050505050908060020154908060030160009054906101000a900473ffffffffffffffffffffffffffffffffffffffff16908060040160009054906101000a900473ffffffffffffffffffffffffffffffffffffffff16908060050154908060060160009054906101000a900460ff16905087565b828054600181600116156101000203166002900490600052602060002090601f016020900481019282601f1061594a57805160ff1916838001178555615978565b82800160010185558215615978579182015b8281111561597757825182559160200191906001019061595c565b5b5090506159859190615a5d565b5090565b828054600181600116156101000203166002900490600052602060002090601f016020900481019282601f106159c257805485556159ff565b828001600101855582156159ff57600052602060002091601f016020900482015b828111156159fe5782548255916001019190600101906159e3565b5b509050615a0c9190615a5d565b5090565b828054828255906000526020600020908101928215615a4c579160200282015b82811115615a4b578235825591602001919060010190615a30565b5b509050615a599190615a5d565b5090565b615a7f91905b80821115615a7b576000816000905550600101615a63565b5090565b9056fe74656d706f7261727920646f63756d656e7420776173206e6f742072656769737465726564a165627a7a72305820372056b14d7470b00e194fd7015f02fec43d10ceefba9527b1add2b28cc0df910029",
  "source": "pragma solidity ^ 0.5.0;\n\n/** \n * @title Document Registration \n * @author Yakko Majuri\n * @notice Contract DocumentRegistration handles registrations of users and documents\n * as well as authentication\n * @dev Storage and Logic separated for the purpose of the upgradability pattern\n*/\n\ncontract FeePool {\n\n    function incrementPool() public {}\n\n}\n\ncontract Owners {\n\n    function getOwners(address _ad) public view returns(bool) { }\n\n}\n\n\ncontract CertfyToken {\n\n    function distributeTokens(address account) external returns(bool) { }\n\n}\n\n\ncontract Storage {\n\n    /// Declares the other contracts that interoperate with DocumentRegistration\n    CertfyToken public tokenContract;\n    Owners public ownerContract;\n    FeePool public feePoolContract;\n\n    // Address 'current' receives fees from the platform directly    \n    address payable public current;\n\n    // Establishes the prices for different actions on the platform\n    uint[] public prices;\n\n    // Declares arrays of the existing structs to allow for iterability\n    Document[] public temporaryDocs;\n    Document[] public documents;\n    Registrant[] public registrants;\n\n    // Maps an identifying 'bytes32' value to Documents and Temporary Documents\n    mapping(bytes32 => Document) public temporaryRegistry;\n    mapping(bytes32 => Document) public registry;\n\n    // Verified Addresses have submitted an attestation to their real-world identity\n    mapping(address => Registrant) public verifiedAddress;\n\n    // Keeps track of the documents registered by each address\n    mapping(address => mapping(uint32 => Document)) public userDocs;\n    mapping(address => uint32) public docsPerUser;\n\n    // Number utilized to prevent clashes between documents of the same name\n    mapping(string => uint32) temporaryIndex;\n    mapping(string => uint32) nameIndex;\n\n    bool emergency = false;\n\n    // Used for initialization of the contract, since it should not have a constructor \n    // due to the proxy implementation\n    bool ownersSet;\n\n    // Each Document registered on the platform will feature this information\n    struct Document {\n        string name;\n        string metadata;\n        uint timestamp;\n        address registrant;\n        address signee;\n        bytes32 hash;\n        bool isEntity;\n    }\n    \n    // Used to submit attestations to identity for each address\n    struct Registrant {\n        string name;\n        string description;\n        address user;\n        bool isEntity;\n    }\n\n    // Allows the client to get the index of the document and display to the user \n    event LogDocumentIndex(uint index);\n    event LogTemporaryIndex(uint index);\n\n    // Calls the separate 'Owners' contract to verify if 'msg.sender' is an owner\n    modifier onlyOwners() {\n        require(ownerContract.getOwners(msg.sender));\n        _;\n    }\n\n    modifier emergencyStop() {\n        require(!emergency);\n        _;\n    }\n\n}\n\ncontract DocumentRegistration is Storage {\n\n    // Do not accept ETH\n    function() external payable { revert(); }\n\n    /** \n     * @notice Part of initialization for the contract - sets address for 'Owners' contract\n     * @param _ownerContract Address of 'Owners'\n     * @dev Initialization must be done separately because contract cannot have a constructor\n    */\n    function setOwnersContract(address _ownerContract) external {\n        require(ownersSet == false);\n        ownerContract = Owners(_ownerContract);\n        ownersSet = true;\n    }\n\n    /** \n     * @notice Part of initialization for the contract - sets address for 'CertfyToken' contract\n     * @param _tokenContract Address of 'CertfyToken'\n     * @dev Initialization must be done separately because contract cannot have a constructor\n    */\n    function setTokenContract(address _tokenContract) external onlyOwners {\n        tokenContract = CertfyToken(_tokenContract);\n    }\n\n    /** \n     * @notice Part of initialization for the contract - sets prices for actions on the platform\n     * @param _prices Array with the respective prices in order\n     * @dev Prices are in wei - Should be taken into account on the client\n    */\n    function setPrices(uint[] calldata _prices) external onlyOwners {\n        prices = _prices;\n    }\n\n    /** \n     * @notice Change one specific price\n     * @param _index Index of price to change in array\n     * @param _price New price\n    */\n    /*\n    function setPrice(uint8 _index, uint128 _price) external onlyOwners {\n        prices[_index] = _price;\n    }\n*/\n    \n    /** \n     * @notice Sets the 'current' address which receives fees\n     * @param _current Address to receive payments\n    */\n    function setCurrent(address payable _current) external onlyOwners {\n        current = _current;\n    }\n\n    /** \n     * @notice Sets the 'FeePool' contract address which receives ETH from fees\n     * @param _contractAddress FeePool address\n    */\n    function setPoolContract(address payable _contractAddress) external onlyOwners {\n        feePoolContract = FeePool(_contractAddress);\n    }\n\n\n    /** \n     * @notice Creates a new simple document registration\n     * @param _name User-assigned name for document\n     * @param _metadata A description or any other form of public metadata about the document\n     * @param _fileHash Fed by the client - hash of the file uploaded by the user (could also be IPFS hash)\n     * @dev The hash of user-determined \"name\" and contract-determined \"index\" are mapped to each document\n     * such that finding registrations can make use of human-readable names\n    */\n    function registerDocument(\n        string calldata _name,\n        string calldata _metadata,\n        bytes32 _fileHash\n    )\n    external\n    payable \n    emergencyStop {\n        require(msg.value == prices[1],\n            \"wrong value\");\n        current.transfer(msg.value/2);\n        address fp = address(feePoolContract);\n        address payable feePool = address(uint160(fp));\n        feePool.transfer(msg.value/2);\n        bytes32 hash = keccak256(abi.encodePacked(_name, nameIndex[_name]));\n        userDocs[msg.sender][docsPerUser[msg.sender]] = registry[hash] = Document(\n            _name,\n            _metadata,\n            block.timestamp,\n            msg.sender,\n            address(0),\n            _fileHash,\n            true\n        );\n        documents.push(Document(\n            _name,\n            _metadata,\n            block.timestamp,\n            msg.sender,\n            address(0),\n            _fileHash,\n            true\n        ));\n        nameIndex[_name]++;\n        docsPerUser[msg.sender]++;\n        emit LogDocumentIndex(nameIndex[_name] - 1);\n        tokenContract.distributeTokens(msg.sender);\n        feePoolContract.incrementPool();\n    }\n\n    /** \n     * @notice Initiates a multi-sig registration, currently only available for two parties\n     * @param _name User-assigned name for document\n     * @param _metadata A description or any other form of public metadata about the document\n     * @param _fileHash Fed by the client - hash of the file uploaded by the user (could also be IPFS hash)\n     * @param _signee Second address which must sign the registration\n     * @dev Document is added to a \"temporary registry\" and awaits the second signature before being \n     * added to the final document registry\n    */\n    function registerMultiSig(\n        string calldata _name,\n        string calldata _metadata,\n        bytes32 _fileHash,\n        address _signee\n    )\n    external\n    payable\n    emergencyStop\n    {\n        require(msg.value == prices[2] / 2);\n        current.transfer(msg.value/2);\n        address fp = address(feePoolContract);\n        address payable feePool = address(uint160(fp));\n        feePool.transfer(msg.value/2);\n        bytes32 hash = keccak256(abi.encodePacked(_name, temporaryIndex[_name])); // temporaryIndex is separate from nameIndex\n        temporaryRegistry[hash] = Document(\n            _name,\n            _metadata,\n            block.timestamp,\n            msg.sender,\n            _signee,\n            _fileHash,\n            true\n        );\n        temporaryDocs.push(Document(\n            _name,\n            _metadata,\n            block.timestamp,\n            msg.sender,\n            _signee,\n            _fileHash,\n            true\n        ));\n        temporaryIndex[_name]++; // Allow temporary registrations under the same name\n        emit LogTemporaryIndex(temporaryIndex[_name] - 1);\n        tokenContract.distributeTokens(msg.sender);\n        feePoolContract.incrementPool();\n    }\n\n    /** \n     * @notice Signs an existing temporary registration\n     * @param _name Name of the document to be signed\n     * @param _temporaryIndex Index of the document to be signed\n     * @dev If msg.sender is the desginated signee the registration is added to the true document registry\n    */\n    function signDocument(\n        string calldata _name,\n        uint32 _temporaryIndex\n    )\n    external\n    payable\n    emergencyStop\n    {\n        require(msg.value == prices[2] / 2, \n        \"the price aint right\");\n        bytes32 temporaryHash = keccak256(abi.encodePacked(_name, _temporaryIndex));\n        bytes32 permanentHash = keccak256(abi.encodePacked(_name, nameIndex[_name]));\n        require(registry[permanentHash].isEntity == false,\n        \"document already exists\");\n        require(temporaryRegistry[temporaryHash].isEntity,\n        \"temporary document was not registered\");\n        address signee = temporaryRegistry[temporaryHash].signee;\n        address registrant = temporaryRegistry[temporaryHash].registrant;\n        require(signee == msg.sender,\n        \"msg.sender is not signee\");\n        current.transfer(msg.value/2);\n        address fp = address(feePoolContract);\n        address payable feePool = address(uint160(fp));\n        feePool.transfer(msg.value/2);\n        userDocs[registrant][docsPerUser[registrant]] = userDocs[msg.sender][docsPerUser[msg.sender]] = registry[permanentHash] = Document(\n            temporaryRegistry[temporaryHash].name,\n            temporaryRegistry[temporaryHash].metadata,\n            block.timestamp,\n            temporaryRegistry[temporaryHash].registrant,\n            signee,\n            temporaryRegistry[temporaryHash].hash,\n            true\n        );\n        documents.push(Document(\n            temporaryRegistry[temporaryHash].name,\n            temporaryRegistry[temporaryHash].metadata,\n            block.timestamp,\n            temporaryRegistry[temporaryHash].registrant,\n            signee,\n            temporaryRegistry[temporaryHash].hash,\n            true\n        ));\n        nameIndex[_name]++;\n        docsPerUser[signee]++;\n        docsPerUser[msg.sender]++;\n        emit LogDocumentIndex(nameIndex[_name] - 1);\n        tokenContract.distributeTokens(msg.sender);\n        feePoolContract.incrementPool();\n    }\n\n\n    /** \n     * @notice Allows users to link their address to a real-world identity\n     * @param _name Name of the person/entity behind the address\n     * @param _description A field for providing evidence of the identity\n     * Evidence could take multiple forms, such as: \n     * - URL of the company website where it states the address is owned by the company\n     * - IPFS hash of a picture holding a paper with the address written on it\n    */\n    function registerAddress(\n        string calldata _name,\n        string calldata _description\n    )\n    external\n    payable {\n        require(msg.value == prices[1]);\n        current.transfer(msg.value/2);\n        address fp = address(feePoolContract);\n        address payable feePool = address(uint160(fp));\n        feePool.transfer(msg.value/2);\n        verifiedAddress[msg.sender] = Registrant(\n            _name,\n            _description,\n            msg.sender,\n            true);\n        registrants.push(Registrant(_name, _description, msg.sender, true));\n        tokenContract.distributeTokens(msg.sender);\n        feePoolContract.incrementPool();\n    }\n\n    /** \n     * @notice Checks if two documents (hashes) are the same\n     * @param _name Name of the document\n     * @param _nameIndex Index of the document\n     * @param _fileHash Hash of the file being tested, fed by the client\n     * @dev File hash of the specified document is pulled and compared to the supplied hash\n     * @return Returns a boolean specifying if the hashes match or not\n    */\n    function verifyDocument(\n        string calldata _name,\n        uint32 _nameIndex,\n        bytes32 _fileHash\n    )\n    external\n    view\n    returns(bool) {\n        bytes32 hash = keccak256(abi.encodePacked(_name, _nameIndex));\n        if (registry[hash].hash == _fileHash) {\n            return true;\n        } else {\n            return false;\n        }\n    }\n\n    /** \n     * @notice Pulls the data for a temporary registration\n     * @notice Useful for verifying data before signing it \n     * @param _name Name of the document\n     * @param _index Index of the document\n     * @return Returns all information about a temporary registration\n    */\n    function checkTemporary(string calldata _name, uint32 _index)\n    external\n    view\n    returns(\n        string memory,\n        uint,\n        address,\n        address,\n        bytes32\n    ) {\n        bytes32 hash = keccak256(abi.encodePacked(_name, _index));\n        return (\n            temporaryRegistry[hash].metadata,\n            temporaryRegistry[hash].timestamp,\n            temporaryRegistry[hash].registrant,\n            temporaryRegistry[hash].signee,\n            temporaryRegistry[hash].hash\n        );\n    }\n\n    /** \n     * @notice Pulls the data for a document registration\n     * @param _name Name of the document\n     * @param _nameIndex Index of the document\n     * @return Returns all information about a document registration\n    */\n    function documentQuery(string calldata _name, uint32 _nameIndex)\n    external\n    view\n    returns(string memory, uint, address, address) {\n        bytes32 hash = keccak256(abi.encodePacked(_name, _nameIndex));\n        return (\n            registry[hash].metadata,\n            registry[hash].timestamp,\n            registry[hash].registrant,\n            registry[hash].signee\n        );\n    }\n\n    function flipEmergencySwitch() external onlyOwners {\n        emergency = !emergency;\n    }\n\n}",
  "sourcePath": "/Users/yakkomajuri/GitHub/bootcamp-finalproject/eth/contracts/DocumentRegistration.sol",
  "compiler": {
    "name": "solc",
    "version": "0.5.8+commit.23d335f2.Emscripten.clang"
  },
  "schemaVersion": "3.0.11",
  "updatedAt": "2019-07-31T06:09:23.717Z",
  "devdoc": {
    "methods": {
      "checkTemporary(string,uint32)": {
        "params": {
          "_index": "Index of the document",
          "_name": "Name of the document"
        },
        "return": "Returns all information about a temporary registration"
      },
      "documentQuery(string,uint32)": {
        "params": {
          "_name": "Name of the document",
          "_nameIndex": "Index of the document"
        },
        "return": "Returns all information about a document registration"
      },
      "registerAddress(string,string)": {
        "params": {
          "_description": "A field for providing evidence of the identity Evidence could take multiple forms, such as:  - URL of the company website where it states the address is owned by the company - IPFS hash of a picture holding a paper with the address written on it",
          "_name": "Name of the person/entity behind the address"
        }
      },
      "registerDocument(string,string,bytes32)": {
        "details": "The hash of user-determined \"name\" and contract-determined \"index\" are mapped to each document such that finding registrations can make use of human-readable names",
        "params": {
          "_fileHash": "Fed by the client - hash of the file uploaded by the user (could also be IPFS hash)",
          "_metadata": "A description or any other form of public metadata about the document",
          "_name": "User-assigned name for document"
        }
      },
      "registerMultiSig(string,string,bytes32,address)": {
        "details": "Document is added to a \"temporary registry\" and awaits the second signature before being  added to the final document registry",
        "params": {
          "_fileHash": "Fed by the client - hash of the file uploaded by the user (could also be IPFS hash)",
          "_metadata": "A description or any other form of public metadata about the document",
          "_name": "User-assigned name for document",
          "_signee": "Second address which must sign the registration"
        }
      },
      "setCurrent(address)": {
        "params": {
          "_current": "Address to receive payments"
        }
      },
      "setOwnersContract(address)": {
        "details": "Initialization must be done separately because contract cannot have a constructor",
        "params": {
          "_ownerContract": "Address of 'Owners'"
        }
      },
      "setPoolContract(address)": {
        "params": {
          "_contractAddress": "FeePool address"
        }
      },
      "setPrices(uint256[])": {
        "details": "Prices are in wei - Should be taken into account on the client",
        "params": {
          "_prices": "Array with the respective prices in order"
        }
      },
      "setTokenContract(address)": {
        "details": "Initialization must be done separately because contract cannot have a constructor",
        "params": {
          "_tokenContract": "Address of 'CertfyToken'"
        }
      },
      "signDocument(string,uint32)": {
        "details": "If msg.sender is the desginated signee the registration is added to the true document registry",
        "params": {
          "_name": "Name of the document to be signed",
          "_temporaryIndex": "Index of the document to be signed"
        }
      },
      "verifyDocument(string,uint32,bytes32)": {
        "details": "File hash of the specified document is pulled and compared to the supplied hash",
        "params": {
          "_fileHash": "Hash of the file being tested, fed by the client",
          "_name": "Name of the document",
          "_nameIndex": "Index of the document"
        },
        "return": "Returns a boolean specifying if the hashes match or not"
      }
    }
  },
  "userdoc": {
    "methods": {
      "checkTemporary(string,uint32)": {
        "notice": "Pulls the data for a temporary registrationUseful for verifying data before signing it "
      },
      "documentQuery(string,uint32)": {
        "notice": "Pulls the data for a document registration"
      },
      "registerAddress(string,string)": {
        "notice": "Allows users to link their address to a real-world identity"
      },
      "registerDocument(string,string,bytes32)": {
        "notice": "Creates a new simple document registration"
      },
      "registerMultiSig(string,string,bytes32,address)": {
        "notice": "Initiates a multi-sig registration, currently only available for two parties"
      },
      "setCurrent(address)": {
        "notice": "Sets the 'current' address which receives fees"
      },
      "setOwnersContract(address)": {
        "notice": "Part of initialization for the contract - sets address for 'Owners' contract"
      },
      "setPoolContract(address)": {
        "notice": "Sets the 'FeePool' contract address which receives ETH from fees"
      },
      "setPrices(uint256[])": {
        "notice": "Part of initialization for the contract - sets prices for actions on the platform"
      },
      "setTokenContract(address)": {
        "notice": "Part of initialization for the contract - sets address for 'CertfyToken' contract"
      },
      "signDocument(string,uint32)": {
        "notice": "Signs an existing temporary registration"
      },
      "verifyDocument(string,uint32,bytes32)": {
        "notice": "Checks if two documents (hashes) are the same"
      }
    }
  }
}