{
  "contractName": "DocumentRegistration",
  "abi": [
    {
      "constant": true,
      "inputs": [
        {
          "name": "",
          "type": "bytes32"
        }
      ],
      "name": "temporaryRegistry",
      "outputs": [
        {
          "name": "name",
          "type": "string"
        },
        {
          "name": "metadata",
          "type": "string"
        },
        {
          "name": "timestamp",
          "type": "uint256"
        },
        {
          "name": "registrant",
          "type": "address"
        },
        {
          "name": "signee",
          "type": "address"
        },
        {
          "name": "hash",
          "type": "bytes32"
        },
        {
          "name": "isEntity",
          "type": "bool"
        }
      ],
      "payable": false,
      "stateMutability": "view",
      "type": "function"
    },
    {
      "constant": true,
      "inputs": [
        {
          "name": "",
          "type": "address"
        },
        {
          "name": "",
          "type": "uint32"
        }
      ],
      "name": "userDocs",
      "outputs": [
        {
          "name": "name",
          "type": "string"
        },
        {
          "name": "metadata",
          "type": "string"
        },
        {
          "name": "timestamp",
          "type": "uint256"
        },
        {
          "name": "registrant",
          "type": "address"
        },
        {
          "name": "signee",
          "type": "address"
        },
        {
          "name": "hash",
          "type": "bytes32"
        },
        {
          "name": "isEntity",
          "type": "bool"
        }
      ],
      "payable": false,
      "stateMutability": "view",
      "type": "function"
    },
    {
      "constant": true,
      "inputs": [
        {
          "name": "",
          "type": "uint256"
        }
      ],
      "name": "registrants",
      "outputs": [
        {
          "name": "name",
          "type": "string"
        },
        {
          "name": "description",
          "type": "string"
        },
        {
          "name": "user",
          "type": "address"
        },
        {
          "name": "isEntity",
          "type": "bool"
        }
      ],
      "payable": false,
      "stateMutability": "view",
      "type": "function"
    },
    {
      "constant": true,
      "inputs": [
        {
          "name": "",
          "type": "bytes32"
        }
      ],
      "name": "registry",
      "outputs": [
        {
          "name": "name",
          "type": "string"
        },
        {
          "name": "metadata",
          "type": "string"
        },
        {
          "name": "timestamp",
          "type": "uint256"
        },
        {
          "name": "registrant",
          "type": "address"
        },
        {
          "name": "signee",
          "type": "address"
        },
        {
          "name": "hash",
          "type": "bytes32"
        },
        {
          "name": "isEntity",
          "type": "bool"
        }
      ],
      "payable": false,
      "stateMutability": "view",
      "type": "function"
    },
    {
      "constant": true,
      "inputs": [
        {
          "name": "",
          "type": "address"
        }
      ],
      "name": "verifiedAddress",
      "outputs": [
        {
          "name": "name",
          "type": "string"
        },
        {
          "name": "description",
          "type": "string"
        },
        {
          "name": "user",
          "type": "address"
        },
        {
          "name": "isEntity",
          "type": "bool"
        }
      ],
      "payable": false,
      "stateMutability": "view",
      "type": "function"
    },
    {
      "constant": true,
      "inputs": [],
      "name": "current",
      "outputs": [
        {
          "name": "",
          "type": "address"
        }
      ],
      "payable": false,
      "stateMutability": "view",
      "type": "function"
    },
    {
      "constant": true,
      "inputs": [
        {
          "name": "",
          "type": "uint256"
        }
      ],
      "name": "prices",
      "outputs": [
        {
          "name": "",
          "type": "uint128"
        }
      ],
      "payable": false,
      "stateMutability": "view",
      "type": "function"
    },
    {
      "constant": true,
      "inputs": [
        {
          "name": "",
          "type": "uint256"
        }
      ],
      "name": "documents",
      "outputs": [
        {
          "name": "name",
          "type": "string"
        },
        {
          "name": "metadata",
          "type": "string"
        },
        {
          "name": "timestamp",
          "type": "uint256"
        },
        {
          "name": "registrant",
          "type": "address"
        },
        {
          "name": "signee",
          "type": "address"
        },
        {
          "name": "hash",
          "type": "bytes32"
        },
        {
          "name": "isEntity",
          "type": "bool"
        }
      ],
      "payable": false,
      "stateMutability": "view",
      "type": "function"
    },
    {
      "constant": true,
      "inputs": [
        {
          "name": "",
          "type": "address"
        }
      ],
      "name": "docsPerUser",
      "outputs": [
        {
          "name": "",
          "type": "uint32"
        }
      ],
      "payable": false,
      "stateMutability": "view",
      "type": "function"
    },
    {
      "constant": true,
      "inputs": [
        {
          "name": "",
          "type": "uint256"
        }
      ],
      "name": "temporaryDocs",
      "outputs": [
        {
          "name": "name",
          "type": "string"
        },
        {
          "name": "metadata",
          "type": "string"
        },
        {
          "name": "timestamp",
          "type": "uint256"
        },
        {
          "name": "registrant",
          "type": "address"
        },
        {
          "name": "signee",
          "type": "address"
        },
        {
          "name": "hash",
          "type": "bytes32"
        },
        {
          "name": "isEntity",
          "type": "bool"
        }
      ],
      "payable": false,
      "stateMutability": "view",
      "type": "function"
    },
    {
      "anonymous": false,
      "inputs": [
        {
          "indexed": false,
          "name": "index",
          "type": "uint256"
        }
      ],
      "name": "DocumentIndex",
      "type": "event"
    },
    {
      "constant": false,
      "inputs": [
        {
          "name": "_contract",
          "type": "address"
        }
      ],
      "name": "setTokenContract",
      "outputs": [],
      "payable": false,
      "stateMutability": "nonpayable",
      "type": "function"
    },
    {
      "constant": false,
      "inputs": [
        {
          "name": "_ownerContract",
          "type": "address"
        }
      ],
      "name": "setOwnerContract",
      "outputs": [],
      "payable": false,
      "stateMutability": "nonpayable",
      "type": "function"
    },
    {
      "constant": false,
      "inputs": [
        {
          "name": "_price1",
          "type": "uint128"
        },
        {
          "name": "_price2",
          "type": "uint128"
        },
        {
          "name": "_price3",
          "type": "uint128"
        },
        {
          "name": "_price4",
          "type": "uint128"
        }
      ],
      "name": "setPrices",
      "outputs": [],
      "payable": false,
      "stateMutability": "nonpayable",
      "type": "function"
    },
    {
      "constant": false,
      "inputs": [
        {
          "name": "_index",
          "type": "uint8"
        },
        {
          "name": "_price",
          "type": "uint128"
        }
      ],
      "name": "setPrice",
      "outputs": [],
      "payable": false,
      "stateMutability": "nonpayable",
      "type": "function"
    },
    {
      "constant": false,
      "inputs": [
        {
          "name": "_current",
          "type": "address"
        }
      ],
      "name": "setCurrent",
      "outputs": [],
      "payable": false,
      "stateMutability": "nonpayable",
      "type": "function"
    },
    {
      "constant": false,
      "inputs": [
        {
          "name": "_name",
          "type": "string"
        },
        {
          "name": "_metadata",
          "type": "string"
        },
        {
          "name": "_fileHash",
          "type": "bytes32"
        }
      ],
      "name": "registerDocument",
      "outputs": [],
      "payable": true,
      "stateMutability": "payable",
      "type": "function"
    },
    {
      "constant": false,
      "inputs": [
        {
          "name": "_name",
          "type": "string"
        },
        {
          "name": "_metadata",
          "type": "string"
        },
        {
          "name": "_fileHash",
          "type": "bytes32"
        },
        {
          "name": "_signee",
          "type": "address"
        }
      ],
      "name": "registerMultiSig",
      "outputs": [],
      "payable": true,
      "stateMutability": "payable",
      "type": "function"
    },
    {
      "constant": false,
      "inputs": [
        {
          "name": "_name",
          "type": "string"
        },
        {
          "name": "_temporaryIndex",
          "type": "uint32"
        }
      ],
      "name": "signDocument",
      "outputs": [
        {
          "name": "",
          "type": "uint256"
        }
      ],
      "payable": true,
      "stateMutability": "payable",
      "type": "function"
    },
    {
      "constant": false,
      "inputs": [
        {
          "name": "_name",
          "type": "string"
        },
        {
          "name": "_description",
          "type": "string"
        }
      ],
      "name": "registerAddress",
      "outputs": [],
      "payable": true,
      "stateMutability": "payable",
      "type": "function"
    },
    {
      "constant": false,
      "inputs": [
        {
          "name": "_name",
          "type": "string"
        },
        {
          "name": "_description",
          "type": "string"
        }
      ],
      "name": "updateInfo",
      "outputs": [],
      "payable": true,
      "stateMutability": "payable",
      "type": "function"
    },
    {
      "constant": true,
      "inputs": [
        {
          "name": "_name",
          "type": "string"
        },
        {
          "name": "_nameIndex",
          "type": "uint32"
        },
        {
          "name": "_fileHash",
          "type": "bytes32"
        }
      ],
      "name": "verifyDocument",
      "outputs": [
        {
          "name": "",
          "type": "bool"
        }
      ],
      "payable": false,
      "stateMutability": "view",
      "type": "function"
    },
    {
      "constant": true,
      "inputs": [
        {
          "name": "_name",
          "type": "string"
        },
        {
          "name": "_index",
          "type": "uint32"
        }
      ],
      "name": "checkTemporary",
      "outputs": [
        {
          "name": "",
          "type": "string"
        },
        {
          "name": "",
          "type": "uint256"
        },
        {
          "name": "",
          "type": "address"
        },
        {
          "name": "",
          "type": "address"
        },
        {
          "name": "",
          "type": "bytes32"
        }
      ],
      "payable": false,
      "stateMutability": "view",
      "type": "function"
    },
    {
      "constant": true,
      "inputs": [
        {
          "name": "_name",
          "type": "string"
        },
        {
          "name": "_nameIndex",
          "type": "uint32"
        }
      ],
      "name": "documentQuery",
      "outputs": [
        {
          "name": "",
          "type": "string"
        },
        {
          "name": "",
          "type": "uint256"
        },
        {
          "name": "",
          "type": "address"
        },
        {
          "name": "",
          "type": "address"
        }
      ],
      "payable": false,
      "stateMutability": "view",
      "type": "function"
    },
    {
      "constant": false,
      "inputs": [
        {
          "name": "_contract",
          "type": "address"
        }
      ],
      "name": "setPoolContract",
      "outputs": [],
      "payable": false,
      "stateMutability": "nonpayable",
      "type": "function"
    }
  ],
  "bytecode": "0x608060405234801561001057600080fd5b50615c3380620000216000396000f3fe60806040526004361061014b5760003560e01c80639e091e31116100b6578063c2ed2b051161006f578063c2ed2b05146112a9578063c62c8ce714611448578063c7a4af15146114b9578063e724fcfa14611513578063eaccc9ae146115b4578063fde628a2146116825761014b565b80639e091e3114610e7d5780639fa6a6e314610f1a578063bac08c3114610f71578063bbcd5bbe146110ed578063bc31c1c11461113e578063c04354ff146111b15761014b565b80635bb15db4116101085780635bb15db4146107605780636ac4d58214610838578063706210f714610996578063741cb278146109e75780637ef5029814610b6a57806393d4457a14610d095761014b565b80631a8e3c3b1461015057806345675464146101a15780634655948b1461034057806347d5a091146105055780634b288acf1461065757806359c3f3e01461070f575b600080fd5b34801561015c57600080fd5b5061019f6004803603602081101561017357600080fd5b81019080803573ffffffffffffffffffffffffffffffffffffffff169060200190929190505050611821565b005b3480156101ad57600080fd5b506101da600480360360208110156101c457600080fd5b8101908080359060200190929190505050611947565b6040518080602001806020018881526020018773ffffffffffffffffffffffffffffffffffffffff1673ffffffffffffffffffffffffffffffffffffffff1681526020018673ffffffffffffffffffffffffffffffffffffffff1673ffffffffffffffffffffffffffffffffffffffff1681526020018581526020018415151515815260200183810383528a818151815260200191508051906020019080838360005b8381101561029857808201518184015260208101905061027d565b50505050905090810190601f1680156102c55780820380516001836020036101000a031916815260200191505b50838103825289818151815260200191508051906020019080838360005b838110156102fe5780820151818401526020810190506102e3565b50505050905090810190601f16801561032b5780820380516001836020036101000a031916815260200191505b50995050505050505050505060405180910390f35b34801561034c57600080fd5b5061039f6004803603604081101561036357600080fd5b81019080803573ffffffffffffffffffffffffffffffffffffffff169060200190929190803563ffffffff169060200190929190505050611b06565b6040518080602001806020018881526020018773ffffffffffffffffffffffffffffffffffffffff1673ffffffffffffffffffffffffffffffffffffffff1681526020018673ffffffffffffffffffffffffffffffffffffffff1673ffffffffffffffffffffffffffffffffffffffff1681526020018581526020018415151515815260200183810383528a818151815260200191508051906020019080838360005b8381101561045d578082015181840152602081019050610442565b50505050905090810190601f16801561048a5780820380516001836020036101000a031916815260200191505b50838103825289818151815260200191508051906020019080838360005b838110156104c35780820151818401526020810190506104a8565b50505050905090810190601f1680156104f05780820380516001836020036101000a031916815260200191505b50995050505050505050505060405180910390f35b6106556004803603604081101561051b57600080fd5b810190808035906020019064010000000081111561053857600080fd5b82018360208201111561054a57600080fd5b8035906020019184600183028401116401000000008311171561056c57600080fd5b91908080601f016020809104026020016040519081016040528093929190818152602001838380828437600081840152601f19601f820116905080830192505050505050509192919290803590602001906401000000008111156105cf57600080fd5b8201836020820111156105e157600080fd5b8035906020019184600183028401116401000000008311171561060357600080fd5b91908080601f016020809104026020016040519081016040528093929190818152602001838380828437600081840152601f19601f820116905080830192505050505050509192919290505050611cd2565b005b34801561066357600080fd5b506106f56004803603606081101561067a57600080fd5b810190808035906020019064010000000081111561069757600080fd5b8201836020820111156106a957600080fd5b803590602001918460018302840111640100000000831117156106cb57600080fd5b9091929391929390803563ffffffff1690602001909291908035906020019092919050505061202a565b604051808215151515815260200191505060405180910390f35b34801561071b57600080fd5b5061075e6004803603602081101561073257600080fd5b81019080803573ffffffffffffffffffffffffffffffffffffffff1690602001909291905050506120ac565b005b6108366004803603606081101561077657600080fd5b810190808035906020019064010000000081111561079357600080fd5b8201836020820111156107a557600080fd5b803590602001918460018302840111640100000000831117156107c757600080fd5b9091929391929390803590602001906401000000008111156107e857600080fd5b8201836020820111156107fa57600080fd5b8035906020019184600183028401116401000000008311171561081c57600080fd5b9091929391929390803590602001909291905050506121d3565b005b34801561084457600080fd5b506108716004803603602081101561085b57600080fd5b8101908080359060200190929190505050612be0565b6040518080602001806020018573ffffffffffffffffffffffffffffffffffffffff1673ffffffffffffffffffffffffffffffffffffffff16815260200184151515158152602001838103835287818151815260200191508051906020019080838360005b838110156108f15780820151818401526020810190506108d6565b50505050905090810190601f16801561091e5780820380516001836020036101000a031916815260200191505b50838103825286818151815260200191508051906020019080838360005b8381101561095757808201518184015260208101905061093c565b50505050905090810190601f1680156109845780820380516001836020036101000a031916815260200191505b50965050505050505060405180910390f35b3480156109a257600080fd5b506109e5600480360360208110156109b957600080fd5b81019080803573ffffffffffffffffffffffffffffffffffffffff169060200190929190505050612d7a565b005b3480156109f357600080fd5b50610a7b60048036036040811015610a0a57600080fd5b8101908080359060200190640100000000811115610a2757600080fd5b820183602082011115610a3957600080fd5b80359060200191846001830284011164010000000083111715610a5b57600080fd5b9091929391929390803563ffffffff169060200190929190505050612df9565b60405180806020018681526020018573ffffffffffffffffffffffffffffffffffffffff1673ffffffffffffffffffffffffffffffffffffffff1681526020018473ffffffffffffffffffffffffffffffffffffffff1673ffffffffffffffffffffffffffffffffffffffff168152602001838152602001828103825287818151815260200191508051906020019080838360005b83811015610b2b578082015181840152602081019050610b10565b50505050905090810190601f168015610b585780820380516001836020036101000a031916815260200191505b50965050505050505060405180910390f35b348015610b7657600080fd5b50610ba360048036036020811015610b8d57600080fd5b8101908080359060200190929190505050612fb0565b6040518080602001806020018881526020018773ffffffffffffffffffffffffffffffffffffffff1673ffffffffffffffffffffffffffffffffffffffff1681526020018673ffffffffffffffffffffffffffffffffffffffff1673ffffffffffffffffffffffffffffffffffffffff1681526020018581526020018415151515815260200183810383528a818151815260200191508051906020019080838360005b83811015610c61578082015181840152602081019050610c46565b50505050905090810190601f168015610c8e5780820380516001836020036101000a031916815260200191505b50838103825289818151815260200191508051906020019080838360005b83811015610cc7578082015181840152602081019050610cac565b50505050905090810190601f168015610cf45780820380516001836020036101000a031916815260200191505b50995050505050505050505060405180910390f35b348015610d1557600080fd5b50610d5860048036036020811015610d2c57600080fd5b81019080803573ffffffffffffffffffffffffffffffffffffffff16906020019092919050505061316f565b6040518080602001806020018573ffffffffffffffffffffffffffffffffffffffff1673ffffffffffffffffffffffffffffffffffffffff16815260200184151515158152602001838103835287818151815260200191508051906020019080838360005b83811015610dd8578082015181840152602081019050610dbd565b50505050905090810190601f168015610e055780820380516001836020036101000a031916815260200191505b50838103825286818151815260200191508051906020019080838360005b83811015610e3e578082015181840152602081019050610e23565b50505050905090810190601f168015610e6b5780820380516001836020036101000a031916815260200191505b50965050505050505060405180910390f35b610f0460048036036040811015610e9357600080fd5b8101908080359060200190640100000000811115610eb057600080fd5b820183602082011115610ec257600080fd5b80359060200191846001830284011164010000000083111715610ee457600080fd5b9091929391929390803563ffffffff1690602001909291905050506132fc565b6040518082815260200191505060405180910390f35b348015610f2657600080fd5b50610f2f614347565b604051808273ffffffffffffffffffffffffffffffffffffffff1673ffffffffffffffffffffffffffffffffffffffff16815260200191505060405180910390f35b348015610f7d57600080fd5b5061100560048036036040811015610f9457600080fd5b8101908080359060200190640100000000811115610fb157600080fd5b820183602082011115610fc357600080fd5b80359060200191846001830284011164010000000083111715610fe557600080fd5b9091929391929390803563ffffffff16906020019092919050505061436c565b60405180806020018581526020018473ffffffffffffffffffffffffffffffffffffffff1673ffffffffffffffffffffffffffffffffffffffff1681526020018373ffffffffffffffffffffffffffffffffffffffff1673ffffffffffffffffffffffffffffffffffffffff168152602001828103825286818151815260200191508051906020019080838360005b838110156110af578082015181840152602081019050611094565b50505050905090810190601f1680156110dc5780820380516001836020036101000a031916815260200191505b509550505050505060405180910390f35b3480156110f957600080fd5b5061113c6004803603602081101561111057600080fd5b81019080803573ffffffffffffffffffffffffffffffffffffffff169060200190929190505050614506565b005b34801561114a57600080fd5b506111776004803603602081101561116157600080fd5b810190808035906020019092919050505061462d565b60405180826fffffffffffffffffffffffffffffffff166fffffffffffffffffffffffffffffffff16815260200191505060405180910390f35b6112a7600480360360808110156111c757600080fd5b81019080803590602001906401000000008111156111e457600080fd5b8201836020820111156111f657600080fd5b8035906020019184600183028401116401000000008311171561121857600080fd5b90919293919293908035906020019064010000000081111561123957600080fd5b82018360208201111561124b57600080fd5b8035906020019184600183028401116401000000008311171561126d57600080fd5b909192939192939080359060200190929190803573ffffffffffffffffffffffffffffffffffffffff169060200190929190505050614670565b005b3480156112b557600080fd5b506112e2600480360360208110156112cc57600080fd5b8101908080359060200190929190505050614e15565b6040518080602001806020018881526020018773ffffffffffffffffffffffffffffffffffffffff1673ffffffffffffffffffffffffffffffffffffffff1681526020018673ffffffffffffffffffffffffffffffffffffffff1673ffffffffffffffffffffffffffffffffffffffff1681526020018581526020018415151515815260200183810383528a818151815260200191508051906020019080838360005b838110156113a0578082015181840152602081019050611385565b50505050905090810190601f1680156113cd5780820380516001836020036101000a031916815260200191505b50838103825289818151815260200191508051906020019080838360005b838110156114065780820151818401526020810190506113eb565b50505050905090810190601f1680156114335780820380516001836020036101000a031916815260200191505b50995050505050505050505060405180910390f35b34801561145457600080fd5b506114976004803603602081101561146b57600080fd5b81019080803573ffffffffffffffffffffffffffffffffffffffff169060200190929190505050614fe1565b604051808263ffffffff1663ffffffff16815260200191505060405180910390f35b3480156114c557600080fd5b50611511600480360360408110156114dc57600080fd5b81019080803560ff16906020019092919080356fffffffffffffffffffffffffffffffff169060200190929190505050615004565b005b34801561151f57600080fd5b506115b26004803603608081101561153657600080fd5b8101908080356fffffffffffffffffffffffffffffffff16906020019092919080356fffffffffffffffffffffffffffffffff16906020019092919080356fffffffffffffffffffffffffffffffff16906020019092919080356fffffffffffffffffffffffffffffffff169060200190929190505050615151565b005b611680600480360360408110156115ca57600080fd5b81019080803590602001906401000000008111156115e757600080fd5b8201836020820111156115f957600080fd5b8035906020019184600183028401116401000000008311171561161b57600080fd5b90919293919293908035906020019064010000000081111561163c57600080fd5b82018360208201111561164e57600080fd5b8035906020019184600183028401116401000000008311171561167057600080fd5b909192939192939050505061541a565b005b34801561168e57600080fd5b506116bb600480360360208110156116a557600080fd5b810190808035906020019092919050505061588f565b6040518080602001806020018881526020018773ffffffffffffffffffffffffffffffffffffffff1673ffffffffffffffffffffffffffffffffffffffff1681526020018673ffffffffffffffffffffffffffffffffffffffff1673ffffffffffffffffffffffffffffffffffffffff1681526020018581526020018415151515815260200183810383528a818151815260200191508051906020019080838360005b8381101561177957808201518184015260208101905061175e565b50505050905090810190601f1680156117a65780820380516001836020036101000a031916815260200191505b50838103825289818151815260200191508051906020019080838360005b838110156117df5780820151818401526020810190506117c4565b50505050905090810190601f16801561180c5780820380516001836020036101000a031916815260200191505b50995050505050505050505060405180910390f35b600d60009054906101000a900473ffffffffffffffffffffffffffffffffffffffff1673ffffffffffffffffffffffffffffffffffffffff1663fd8b84b1336040518263ffffffff1660e01b8152600401808273ffffffffffffffffffffffffffffffffffffffff1673ffffffffffffffffffffffffffffffffffffffff16815260200191505060206040518083038186803b1580156118c057600080fd5b505afa1580156118d4573d6000803e3d6000fd5b505050506040513d60208110156118ea57600080fd5b810190808051906020019092919050505061190457600080fd5b806000806101000a81548173ffffffffffffffffffffffffffffffffffffffff021916908373ffffffffffffffffffffffffffffffffffffffff16021790555050565b6005602052806000526040600020600091509050806000018054600181600116156101000203166002900480601f0160208091040260200160405190810160405280929190818152602001828054600181600116156101000203166002900480156119f35780601f106119c8576101008083540402835291602001916119f3565b820191906000526020600020905b8154815290600101906020018083116119d657829003601f168201915b505050505090806001018054600181600116156101000203166002900480601f016020809104026020016040519081016040528092919081815260200182805460018160011615610100020316600290048015611a915780601f10611a6657610100808354040283529160200191611a91565b820191906000526020600020905b815481529060010190602001808311611a7457829003601f168201915b5050505050908060020154908060030160009054906101000a900473ffffffffffffffffffffffffffffffffffffffff16908060040160009054906101000a900473ffffffffffffffffffffffffffffffffffffffff16908060050154908060060160009054906101000a900460ff16905087565b600860205281600052604060002060205280600052604060002060009150915050806000018054600181600116156101000203166002900480601f016020809104026020016040519081016040528092919081815260200182805460018160011615610100020316600290048015611bbf5780601f10611b9457610100808354040283529160200191611bbf565b820191906000526020600020905b815481529060010190602001808311611ba257829003601f168201915b505050505090806001018054600181600116156101000203166002900480601f016020809104026020016040519081016040528092919081815260200182805460018160011615610100020316600290048015611c5d5780601f10611c3257610100808354040283529160200191611c5d565b820191906000526020600020905b815481529060010190602001808311611c4057829003601f168201915b5050505050908060020154908060030160009054906101000a900473ffffffffffffffffffffffffffffffffffffffff16908060040160009054906101000a900473ffffffffffffffffffffffffffffffffffffffff16908060050154908060060160009054906101000a900460ff16905087565b6001600381548110611ce057fe5b90600052602060002090600291828204019190066010029054906101000a90046fffffffffffffffffffffffffffffffff166fffffffffffffffffffffffffffffffff163414611d2f57600080fd5b600760003373ffffffffffffffffffffffffffffffffffffffff1673ffffffffffffffffffffffffffffffffffffffff16815260200190815260200160002060020160149054906101000a900460ff16611d8857600080fd5b6000809054906101000a900473ffffffffffffffffffffffffffffffffffffffff1673ffffffffffffffffffffffffffffffffffffffff166108fc60023481611dcd57fe5b049081150290604051600060405180830381858888f19350505050158015611df9573d6000803e3d6000fd5b50600e60009054906101000a900473ffffffffffffffffffffffffffffffffffffffff1673ffffffffffffffffffffffffffffffffffffffff166108fc60023481611e4057fe5b049081150290604051600060405180830381858888f19350505050158015611e6c573d6000803e3d6000fd5b5081600760003373ffffffffffffffffffffffffffffffffffffffff1673ffffffffffffffffffffffffffffffffffffffff1681526020019081526020016000206000019080519060200190611ec3929190615a5b565b5080600760003373ffffffffffffffffffffffffffffffffffffffff1673ffffffffffffffffffffffffffffffffffffffff1681526020019081526020016000206001019080519060200190611f1a929190615a5b565b50600460405180608001604052808481526020018381526020013373ffffffffffffffffffffffffffffffffffffffff16815260200160011515815250908060018154018082558091505090600182039060005260206000209060030201600090919290919091506000820151816000019080519060200190611f9e929190615adb565b506020820151816001019080519060200190611fbb929190615adb565b5060408201518160020160006101000a81548173ffffffffffffffffffffffffffffffffffffffff021916908373ffffffffffffffffffffffffffffffffffffffff16021790555060608201518160020160146101000a81548160ff0219169083151502179055505050505050565b60008085858560405160200180848480828437808301925050508263ffffffff1663ffffffff1660e01b81526004019350505050604051602081830303815290604052805190602001209050826006600083815260200190815260200160002060050154141561209e5760019150506120a4565b60009150505b949350505050565b600d60009054906101000a900473ffffffffffffffffffffffffffffffffffffffff1673ffffffffffffffffffffffffffffffffffffffff1663fd8b84b1336040518263ffffffff1660e01b8152600401808273ffffffffffffffffffffffffffffffffffffffff1673ffffffffffffffffffffffffffffffffffffffff16815260200191505060206040518083038186803b15801561214b57600080fd5b505afa15801561215f573d6000803e3d6000fd5b505050506040513d602081101561217557600080fd5b810190808051906020019092919050505061218f57600080fd5b80600e60006101000a81548173ffffffffffffffffffffffffffffffffffffffff021916908373ffffffffffffffffffffffffffffffffffffffff16021790555050565b600180815481106121e057fe5b90600052602060002090600291828204019190066010029054906101000a90046fffffffffffffffffffffffffffffffff166fffffffffffffffffffffffffffffffff16341461222f57600080fd5b6000809054906101000a900473ffffffffffffffffffffffffffffffffffffffff1673ffffffffffffffffffffffffffffffffffffffff166108fc349081150290604051600060405180830381858888f19350505050158015612296573d6000803e3d6000fd5b50600e60009054906101000a900473ffffffffffffffffffffffffffffffffffffffff1673ffffffffffffffffffffffffffffffffffffffff166108fc600234816122dd57fe5b049081150290604051600060405180830381858888f19350505050158015612309573d6000803e3d6000fd5b5060008585600b8888604051808383808284378083019250505092505050908152602001604051809103902060009054906101000a900463ffffffff1660405160200180848480828437808301925050508263ffffffff1663ffffffff1660e01b815260040193505050506040516020818303038152906040528051906020012090506040518060e0016040528087878080601f016020809104026020016040519081016040528093929190818152602001838380828437600081840152601f19601f82011690508083019250505050505050815260200185858080601f016020809104026020016040519081016040528093929190818152602001838380828437600081840152601f19601f8201169050808301925050505050505081526020014281526020013373ffffffffffffffffffffffffffffffffffffffff168152602001600073ffffffffffffffffffffffffffffffffffffffff168152602001838152602001600115158152506006600083815260200190815260200160002060008201518160000190805190602001906124a6929190615adb565b5060208201518160010190805190602001906124c3929190615adb565b506040820151816002015560608201518160030160006101000a81548173ffffffffffffffffffffffffffffffffffffffff021916908373ffffffffffffffffffffffffffffffffffffffff16021790555060808201518160040160006101000a81548173ffffffffffffffffffffffffffffffffffffffff021916908373ffffffffffffffffffffffffffffffffffffffff16021790555060a0820151816005015560c08201518160060160006101000a81548160ff0219169083151502179055509050600860003373ffffffffffffffffffffffffffffffffffffffff1673ffffffffffffffffffffffffffffffffffffffff1681526020019081526020016000206000600960003373ffffffffffffffffffffffffffffffffffffffff1673ffffffffffffffffffffffffffffffffffffffff16815260200190815260200160002060009054906101000a900463ffffffff1663ffffffff1663ffffffff1681526020019081526020016000206000820181600001908054600181600116156101000203166002900461265a929190615b5b565b5060018201816001019080546001816001161561010002031660029004612682929190615b5b565b50600282015481600201556003820160009054906101000a900473ffffffffffffffffffffffffffffffffffffffff168160030160006101000a81548173ffffffffffffffffffffffffffffffffffffffff021916908373ffffffffffffffffffffffffffffffffffffffff1602179055506004820160009054906101000a900473ffffffffffffffffffffffffffffffffffffffff168160040160006101000a81548173ffffffffffffffffffffffffffffffffffffffff021916908373ffffffffffffffffffffffffffffffffffffffff160217905550600582015481600501556006820160009054906101000a900460ff168160060160006101000a81548160ff02191690831515021790555090505060036040518060e0016040528088888080601f016020809104026020016040519081016040528093929190818152602001838380828437600081840152601f19601f82011690508083019250505050505050815260200186868080601f016020809104026020016040519081016040528093929190818152602001838380828437600081840152601f19601f8201169050808301925050505050505081526020014281526020013373ffffffffffffffffffffffffffffffffffffffff168152602001600073ffffffffffffffffffffffffffffffffffffffff168152602001848152602001600115158152509080600181540180825580915050906001820390600052602060002090600702016000909192909190915060008201518160000190805190602001906128c9929190615adb565b5060208201518160010190805190602001906128e6929190615adb565b506040820151816002015560608201518160030160006101000a81548173ffffffffffffffffffffffffffffffffffffffff021916908373ffffffffffffffffffffffffffffffffffffffff16021790555060808201518160040160006101000a81548173ffffffffffffffffffffffffffffffffffffffff021916908373ffffffffffffffffffffffffffffffffffffffff16021790555060a0820151816005015560c08201518160060160006101000a81548160ff021916908315150217905550505050600b86866040518083838082843780830192505050925050509081526020016040518091039020600081819054906101000a900463ffffffff168092919060010191906101000a81548163ffffffff021916908363ffffffff16021790555050600960003373ffffffffffffffffffffffffffffffffffffffff1673ffffffffffffffffffffffffffffffffffffffff168152602001908152602001600020600081819054906101000a900463ffffffff168092919060010191906101000a81548163ffffffff021916908363ffffffff16021790555050600c60019054906101000a900473ffffffffffffffffffffffffffffffffffffffff1673ffffffffffffffffffffffffffffffffffffffff1663b1d17c98336040518263ffffffff1660e01b8152600401808273ffffffffffffffffffffffffffffffffffffffff1673ffffffffffffffffffffffffffffffffffffffff168152602001915050602060405180830381600087803b158015612b2557600080fd5b505af1158015612b39573d6000803e3d6000fd5b505050506040513d6020811015612b4f57600080fd5b8101908080519060200190929190505050507f69ec0aa9307608d84ae1f79f7498648be1f461e11763151ad9ace72de2e8358b6001600b8888604051808383808284378083019250505092505050908152602001604051809103902060009054906101000a900463ffffffff1603604051808263ffffffff16815260200191505060405180910390a1505050505050565b60048181548110612bed57fe5b9060005260206000209060030201600091509050806000018054600181600116156101000203166002900480601f016020809104026020016040519081016040528092919081815260200182805460018160011615610100020316600290048015612c995780601f10612c6e57610100808354040283529160200191612c99565b820191906000526020600020905b815481529060010190602001808311612c7c57829003601f168201915b505050505090806001018054600181600116156101000203166002900480601f016020809104026020016040519081016040528092919081815260200182805460018160011615610100020316600290048015612d375780601f10612d0c57610100808354040283529160200191612d37565b820191906000526020600020905b815481529060010190602001808311612d1a57829003601f168201915b5050505050908060020160009054906101000a900473ffffffffffffffffffffffffffffffffffffffff16908060020160149054906101000a900460ff16905084565b60001515600c60009054906101000a900460ff16151514612d9a57600080fd5b80600d60006101000a81548173ffffffffffffffffffffffffffffffffffffffff021916908373ffffffffffffffffffffffffffffffffffffffff1602179055506001600c60006101000a81548160ff02191690831515021790555050565b6060600080600080600088888860405160200180848480828437808301925050508263ffffffff1663ffffffff1660e01b815260040193505050506040516020818303038152906040528051906020012090506005600082815260200190815260200160002060010160056000838152602001908152602001600020600201546005600084815260200190815260200160002060030160009054906101000a900473ffffffffffffffffffffffffffffffffffffffff166005600085815260200190815260200160002060040160009054906101000a900473ffffffffffffffffffffffffffffffffffffffff166005600086815260200190815260200160002060050154848054600181600116156101000203166002900480601f016020809104026020016040519081016040528092919081815260200182805460018160011615610100020316600290048015612f935780601f10612f6857610100808354040283529160200191612f93565b820191906000526020600020905b815481529060010190602001808311612f7657829003601f168201915b505050505094509550955095509550955050939792965093509350565b6006602052806000526040600020600091509050806000018054600181600116156101000203166002900480601f01602080910402602001604051908101604052809291908181526020018280546001816001161561010002031660029004801561305c5780601f106130315761010080835404028352916020019161305c565b820191906000526020600020905b81548152906001019060200180831161303f57829003601f168201915b505050505090806001018054600181600116156101000203166002900480601f0160208091040260200160405190810160405280929190818152602001828054600181600116156101000203166002900480156130fa5780601f106130cf576101008083540402835291602001916130fa565b820191906000526020600020905b8154815290600101906020018083116130dd57829003601f168201915b5050505050908060020154908060030160009054906101000a900473ffffffffffffffffffffffffffffffffffffffff16908060040160009054906101000a900473ffffffffffffffffffffffffffffffffffffffff16908060050154908060060160009054906101000a900460ff16905087565b6007602052806000526040600020600091509050806000018054600181600116156101000203166002900480601f01602080910402602001604051908101604052809291908181526020018280546001816001161561010002031660029004801561321b5780601f106131f05761010080835404028352916020019161321b565b820191906000526020600020905b8154815290600101906020018083116131fe57829003601f168201915b505050505090806001018054600181600116156101000203166002900480601f0160208091040260200160405190810160405280929190818152602001828054600181600116156101000203166002900480156132b95780601f1061328e576101008083540402835291602001916132b9565b820191906000526020600020905b81548152906001019060200180831161329c57829003601f168201915b5050505050908060020160009054906101000a900473ffffffffffffffffffffffffffffffffffffffff16908060020160149054906101000a900460ff16905084565b60006002600160028154811061330e57fe5b90600052602060002090600291828204019190066010029054906101000a90046fffffffffffffffffffffffffffffffff166fffffffffffffffffffffffffffffffff168161335957fe5b046fffffffffffffffffffffffffffffffff16341461337757600080fd5b6000809054906101000a900473ffffffffffffffffffffffffffffffffffffffff1673ffffffffffffffffffffffffffffffffffffffff166108fc349081150290604051600060405180830381858888f193505050501580156133de573d6000803e3d6000fd5b50600e60009054906101000a900473ffffffffffffffffffffffffffffffffffffffff1673ffffffffffffffffffffffffffffffffffffffff166108fc6002348161342557fe5b049081150290604051600060405180830381858888f19350505050158015613451573d6000803e3d6000fd5b50600084848460405160200180848480828437808301925050508263ffffffff1663ffffffff1660e01b8152600401935050505060405160208183030381529060405280519060200120905060008585600b8888604051808383808284378083019250505092505050908152602001604051809103902060009054906101000a900463ffffffff1660405160200180848480828437808301925050508263ffffffff1663ffffffff1660e01b81526004019350505050604051602081830303815290604052805190602001209050600015156006600083815260200190815260200160002060060160009054906101000a900460ff1615151461355357600080fd5b6005600083815260200190815260200160002060060160009054906101000a900460ff1661358057600080fd5b60006005600084815260200190815260200160002060040160009054906101000a900473ffffffffffffffffffffffffffffffffffffffff16905060006005600085815260200190815260200160002060030160009054906101000a900473ffffffffffffffffffffffffffffffffffffffff1690503373ffffffffffffffffffffffffffffffffffffffff168273ffffffffffffffffffffffffffffffffffffffff161461362e57600080fd5b6040518060e00160405280600560008781526020019081526020016000206000018054600181600116156101000203166002900480601f0160208091040260200160405190810160405280929190818152602001828054600181600116156101000203166002900480156136e35780601f106136b8576101008083540402835291602001916136e3565b820191906000526020600020905b8154815290600101906020018083116136c657829003601f168201915b50505050508152602001600560008781526020019081526020016000206001018054600181600116156101000203166002900480601f0160208091040260200160405190810160405280929190818152602001828054600181600116156101000203166002900480156137975780601f1061376c57610100808354040283529160200191613797565b820191906000526020600020905b81548152906001019060200180831161377a57829003601f168201915b505050505081526020014281526020016005600087815260200190815260200160002060030160009054906101000a900473ffffffffffffffffffffffffffffffffffffffff1673ffffffffffffffffffffffffffffffffffffffff1681526020018373ffffffffffffffffffffffffffffffffffffffff1681526020016005600087815260200190815260200160002060050154815260200160011515815250600660008581526020019081526020016000206000820151816000019080519060200190613867929190615adb565b506020820151816001019080519060200190613884929190615adb565b506040820151816002015560608201518160030160006101000a81548173ffffffffffffffffffffffffffffffffffffffff021916908373ffffffffffffffffffffffffffffffffffffffff16021790555060808201518160040160006101000a81548173ffffffffffffffffffffffffffffffffffffffff021916908373ffffffffffffffffffffffffffffffffffffffff16021790555060a0820151816005015560c08201518160060160006101000a81548160ff0219169083151502179055509050600860003373ffffffffffffffffffffffffffffffffffffffff1673ffffffffffffffffffffffffffffffffffffffff1681526020019081526020016000206000600960003373ffffffffffffffffffffffffffffffffffffffff1673ffffffffffffffffffffffffffffffffffffffff16815260200190815260200160002060009054906101000a900463ffffffff1663ffffffff1663ffffffff16815260200190815260200160002060008201816000019080546001816001161561010002031660029004613a1b929190615b5b565b5060018201816001019080546001816001161561010002031660029004613a43929190615b5b565b50600282015481600201556003820160009054906101000a900473ffffffffffffffffffffffffffffffffffffffff168160030160006101000a81548173ffffffffffffffffffffffffffffffffffffffff021916908373ffffffffffffffffffffffffffffffffffffffff1602179055506004820160009054906101000a900473ffffffffffffffffffffffffffffffffffffffff168160040160006101000a81548173ffffffffffffffffffffffffffffffffffffffff021916908373ffffffffffffffffffffffffffffffffffffffff160217905550600582015481600501556006820160009054906101000a900460ff168160060160006101000a81548160ff0219169083151502179055509050600860008373ffffffffffffffffffffffffffffffffffffffff1673ffffffffffffffffffffffffffffffffffffffff1681526020019081526020016000206000600960008573ffffffffffffffffffffffffffffffffffffffff1673ffffffffffffffffffffffffffffffffffffffff16815260200190815260200160002060009054906101000a900463ffffffff1663ffffffff1663ffffffff16815260200190815260200160002060008201816000019080546001816001161561010002031660029004613c27929190615b5b565b5060018201816001019080546001816001161561010002031660029004613c4f929190615b5b565b50600282015481600201556003820160009054906101000a900473ffffffffffffffffffffffffffffffffffffffff168160030160006101000a81548173ffffffffffffffffffffffffffffffffffffffff021916908373ffffffffffffffffffffffffffffffffffffffff1602179055506004820160009054906101000a900473ffffffffffffffffffffffffffffffffffffffff168160040160006101000a81548173ffffffffffffffffffffffffffffffffffffffff021916908373ffffffffffffffffffffffffffffffffffffffff160217905550600582015481600501556006820160009054906101000a900460ff168160060160006101000a81548160ff02191690831515021790555090505060036040518060e00160405280600560008881526020019081526020016000206000018054600181600116156101000203166002900480601f016020809104026020016040519081016040528092919081815260200182805460018160011615610100020316600290048015613e195780601f10613dee57610100808354040283529160200191613e19565b820191906000526020600020905b815481529060010190602001808311613dfc57829003601f168201915b50505050508152602001600560008881526020019081526020016000206001018054600181600116156101000203166002900480601f016020809104026020016040519081016040528092919081815260200182805460018160011615610100020316600290048015613ecd5780601f10613ea257610100808354040283529160200191613ecd565b820191906000526020600020905b815481529060010190602001808311613eb057829003601f168201915b505050505081526020014281526020016005600088815260200190815260200160002060030160009054906101000a900473ffffffffffffffffffffffffffffffffffffffff1673ffffffffffffffffffffffffffffffffffffffff1681526020018473ffffffffffffffffffffffffffffffffffffffff1681526020016005600088815260200190815260200160002060050154815260200160011515815250908060018154018082558091505090600182039060005260206000209060070201600090919290919091506000820151816000019080519060200190613fb5929190615adb565b506020820151816001019080519060200190613fd2929190615adb565b506040820151816002015560608201518160030160006101000a81548173ffffffffffffffffffffffffffffffffffffffff021916908373ffffffffffffffffffffffffffffffffffffffff16021790555060808201518160040160006101000a81548173ffffffffffffffffffffffffffffffffffffffff021916908373ffffffffffffffffffffffffffffffffffffffff16021790555060a0820151816005015560c08201518160060160006101000a81548160ff021916908315150217905550505050600b88886040518083838082843780830192505050925050509081526020016040518091039020600081819054906101000a900463ffffffff168092919060010191906101000a81548163ffffffff021916908363ffffffff16021790555050600960008373ffffffffffffffffffffffffffffffffffffffff1673ffffffffffffffffffffffffffffffffffffffff168152602001908152602001600020600081819054906101000a900463ffffffff168092919060010191906101000a81548163ffffffff021916908363ffffffff16021790555050600960003373ffffffffffffffffffffffffffffffffffffffff1673ffffffffffffffffffffffffffffffffffffffff168152602001908152602001600020600081819054906101000a900463ffffffff168092919060010191906101000a81548163ffffffff021916908363ffffffff16021790555050600c60019054906101000a900473ffffffffffffffffffffffffffffffffffffffff1673ffffffffffffffffffffffffffffffffffffffff1663b1d17c98336040518263ffffffff1660e01b8152600401808273ffffffffffffffffffffffffffffffffffffffff1673ffffffffffffffffffffffffffffffffffffffff168152602001915050602060405180830381600087803b15801561428957600080fd5b505af115801561429d573d6000803e3d6000fd5b505050506040513d60208110156142b357600080fd5b8101908080519060200190929190505050507f69ec0aa9307608d84ae1f79f7498648be1f461e11763151ad9ace72de2e8358b6001600b8a8a604051808383808284378083019250505092505050908152602001604051809103902060009054906101000a900463ffffffff1603604051808263ffffffff16815260200191505060405180910390a1505050509392505050565b6000809054906101000a900473ffffffffffffffffffffffffffffffffffffffff1681565b606060008060008087878760405160200180848480828437808301925050508263ffffffff1663ffffffff1660e01b815260040193505050506040516020818303038152906040528051906020012090506006600082815260200190815260200160002060010160066000838152602001908152602001600020600201546006600084815260200190815260200160002060030160009054906101000a900473ffffffffffffffffffffffffffffffffffffffff166006600085815260200190815260200160002060040160009054906101000a900473ffffffffffffffffffffffffffffffffffffffff16838054600181600116156101000203166002900480601f0160208091040260200160405190810160405280929190818152602001828054600181600116156101000203166002900480156144ed5780601f106144c2576101008083540402835291602001916144ed565b820191906000526020600020905b8154815290600101906020018083116144d057829003601f168201915b5050505050935094509450945094505093509350935093565b600d60009054906101000a900473ffffffffffffffffffffffffffffffffffffffff1673ffffffffffffffffffffffffffffffffffffffff1663fd8b84b1336040518263ffffffff1660e01b8152600401808273ffffffffffffffffffffffffffffffffffffffff1673ffffffffffffffffffffffffffffffffffffffff16815260200191505060206040518083038186803b1580156145a557600080fd5b505afa1580156145b9573d6000803e3d6000fd5b505050506040513d60208110156145cf57600080fd5b81019080805190602001909291905050506145e957600080fd5b80600c60016101000a81548173ffffffffffffffffffffffffffffffffffffffff021916908373ffffffffffffffffffffffffffffffffffffffff16021790555050565b6001818154811061463a57fe5b9060005260206000209060029182820401919006601002915054906101000a90046fffffffffffffffffffffffffffffffff1681565b6002600160028154811061468057fe5b90600052602060002090600291828204019190066010029054906101000a90046fffffffffffffffffffffffffffffffff166fffffffffffffffffffffffffffffffff16816146cb57fe5b046fffffffffffffffffffffffffffffffff1634146146e957600080fd5b6000809054906101000a900473ffffffffffffffffffffffffffffffffffffffff1673ffffffffffffffffffffffffffffffffffffffff166108fc349081150290604051600060405180830381858888f19350505050158015614750573d6000803e3d6000fd5b50600e60009054906101000a900473ffffffffffffffffffffffffffffffffffffffff1673ffffffffffffffffffffffffffffffffffffffff166108fc6002348161479757fe5b049081150290604051600060405180830381858888f193505050501580156147c3573d6000803e3d6000fd5b5060008686600a8989604051808383808284378083019250505092505050908152602001604051809103902060009054906101000a900463ffffffff1660405160200180848480828437808301925050508263ffffffff1663ffffffff1660e01b815260040193505050506040516020818303038152906040528051906020012090506040518060e0016040528088888080601f016020809104026020016040519081016040528093929190818152602001838380828437600081840152601f19601f82011690508083019250505050505050815260200186868080601f016020809104026020016040519081016040528093929190818152602001838380828437600081840152601f19601f8201169050808301925050505050505081526020014281526020013373ffffffffffffffffffffffffffffffffffffffff1681526020018373ffffffffffffffffffffffffffffffffffffffff1681526020018481526020016001151581525060056000838152602001908152602001600020600082015181600001908051906020019061495f929190615adb565b50602082015181600101908051906020019061497c929190615adb565b506040820151816002015560608201518160030160006101000a81548173ffffffffffffffffffffffffffffffffffffffff021916908373ffffffffffffffffffffffffffffffffffffffff16021790555060808201518160040160006101000a81548173ffffffffffffffffffffffffffffffffffffffff021916908373ffffffffffffffffffffffffffffffffffffffff16021790555060a0820151816005015560c08201518160060160006101000a81548160ff02191690831515021790555090505060026040518060e0016040528089898080601f016020809104026020016040519081016040528093929190818152602001838380828437600081840152601f19601f82011690508083019250505050505050815260200187878080601f016020809104026020016040519081016040528093929190818152602001838380828437600081840152601f19601f8201169050808301925050505050505081526020014281526020013373ffffffffffffffffffffffffffffffffffffffff1681526020018473ffffffffffffffffffffffffffffffffffffffff16815260200185815260200160011515815250908060018154018082558091505090600182039060005260206000209060070201600090919290919091506000820151816000019080519060200190614b75929190615adb565b506020820151816001019080519060200190614b92929190615adb565b506040820151816002015560608201518160030160006101000a81548173ffffffffffffffffffffffffffffffffffffffff021916908373ffffffffffffffffffffffffffffffffffffffff16021790555060808201518160040160006101000a81548173ffffffffffffffffffffffffffffffffffffffff021916908373ffffffffffffffffffffffffffffffffffffffff16021790555060a0820151816005015560c08201518160060160006101000a81548160ff021916908315150217905550505050600a87876040518083838082843780830192505050925050509081526020016040518091039020600081819054906101000a900463ffffffff168092919060010191906101000a81548163ffffffff021916908363ffffffff16021790555050600c60019054906101000a900473ffffffffffffffffffffffffffffffffffffffff1673ffffffffffffffffffffffffffffffffffffffff1663b1d17c98336040518263ffffffff1660e01b8152600401808273ffffffffffffffffffffffffffffffffffffffff1673ffffffffffffffffffffffffffffffffffffffff168152602001915050602060405180830381600087803b158015614d5957600080fd5b505af1158015614d6d573d6000803e3d6000fd5b505050506040513d6020811015614d8357600080fd5b8101908080519060200190929190505050507f69ec0aa9307608d84ae1f79f7498648be1f461e11763151ad9ace72de2e8358b6001600a8989604051808383808284378083019250505092505050908152602001604051809103902060009054906101000a900463ffffffff1603604051808263ffffffff16815260200191505060405180910390a150505050505050565b60038181548110614e2257fe5b9060005260206000209060070201600091509050806000018054600181600116156101000203166002900480601f016020809104026020016040519081016040528092919081815260200182805460018160011615610100020316600290048015614ece5780601f10614ea357610100808354040283529160200191614ece565b820191906000526020600020905b815481529060010190602001808311614eb157829003601f168201915b505050505090806001018054600181600116156101000203166002900480601f016020809104026020016040519081016040528092919081815260200182805460018160011615610100020316600290048015614f6c5780601f10614f4157610100808354040283529160200191614f6c565b820191906000526020600020905b815481529060010190602001808311614f4f57829003601f168201915b5050505050908060020154908060030160009054906101000a900473ffffffffffffffffffffffffffffffffffffffff16908060040160009054906101000a900473ffffffffffffffffffffffffffffffffffffffff16908060050154908060060160009054906101000a900460ff16905087565b60096020528060005260406000206000915054906101000a900463ffffffff1681565b600d60009054906101000a900473ffffffffffffffffffffffffffffffffffffffff1673ffffffffffffffffffffffffffffffffffffffff1663fd8b84b1336040518263ffffffff1660e01b8152600401808273ffffffffffffffffffffffffffffffffffffffff1673ffffffffffffffffffffffffffffffffffffffff16815260200191505060206040518083038186803b1580156150a357600080fd5b505afa1580156150b7573d6000803e3d6000fd5b505050506040513d60208110156150cd57600080fd5b81019080805190602001909291905050506150e757600080fd5b670de0b6b3a7640000810260018360ff168154811061510257fe5b90600052602060002090600291828204019190066010026101000a8154816fffffffffffffffffffffffffffffffff02191690836fffffffffffffffffffffffffffffffff1602179055505050565b600d60009054906101000a900473ffffffffffffffffffffffffffffffffffffffff1673ffffffffffffffffffffffffffffffffffffffff1663fd8b84b1336040518263ffffffff1660e01b8152600401808273ffffffffffffffffffffffffffffffffffffffff1673ffffffffffffffffffffffffffffffffffffffff16815260200191505060206040518083038186803b1580156151f057600080fd5b505afa158015615204573d6000803e3d6000fd5b505050506040513d602081101561521a57600080fd5b810190808051906020019092919050505061523457600080fd5b6000655af3107a4000905060018167ffffffffffffffff168602908060018154018082558091505090600182039060005260206000209060029182820401919006601002909192909190916101000a8154816fffffffffffffffffffffffffffffffff02191690836fffffffffffffffffffffffffffffffff1602179055505060018167ffffffffffffffff168502908060018154018082558091505090600182039060005260206000209060029182820401919006601002909192909190916101000a8154816fffffffffffffffffffffffffffffffff02191690836fffffffffffffffffffffffffffffffff1602179055505060018167ffffffffffffffff168402908060018154018082558091505090600182039060005260206000209060029182820401919006601002909192909190916101000a8154816fffffffffffffffffffffffffffffffff02191690836fffffffffffffffffffffffffffffffff1602179055505060018167ffffffffffffffff168302908060018154018082558091505090600182039060005260206000209060029182820401919006601002909192909190916101000a8154816fffffffffffffffffffffffffffffffff02191690836fffffffffffffffffffffffffffffffff160217905550505050505050565b6001808154811061542757fe5b90600052602060002090600291828204019190066010029054906101000a90046fffffffffffffffffffffffffffffffff166fffffffffffffffffffffffffffffffff16341461547657600080fd5b6000809054906101000a900473ffffffffffffffffffffffffffffffffffffffff1673ffffffffffffffffffffffffffffffffffffffff166108fc349081150290604051600060405180830381858888f193505050501580156154dd573d6000803e3d6000fd5b50600e60009054906101000a900473ffffffffffffffffffffffffffffffffffffffff1673ffffffffffffffffffffffffffffffffffffffff166108fc6002348161552457fe5b049081150290604051600060405180830381858888f19350505050158015615550573d6000803e3d6000fd5b50604051806080016040528085858080601f016020809104026020016040519081016040528093929190818152602001838380828437600081840152601f19601f82011690508083019250505050505050815260200183838080601f016020809104026020016040519081016040528093929190818152602001838380828437600081840152601f19601f8201169050808301925050505050505081526020013373ffffffffffffffffffffffffffffffffffffffff16815260200160011515815250600760003373ffffffffffffffffffffffffffffffffffffffff1673ffffffffffffffffffffffffffffffffffffffff168152602001908152602001600020600082015181600001908051906020019061566e929190615adb565b50602082015181600101908051906020019061568b929190615adb565b5060408201518160020160006101000a81548173ffffffffffffffffffffffffffffffffffffffff021916908373ffffffffffffffffffffffffffffffffffffffff16021790555060608201518160020160146101000a81548160ff0219169083151502179055509050506004604051806080016040528086868080601f016020809104026020016040519081016040528093929190818152602001838380828437600081840152601f19601f82011690508083019250505050505050815260200184848080601f016020809104026020016040519081016040528093929190818152602001838380828437600081840152601f19601f8201169050808301925050505050505081526020013373ffffffffffffffffffffffffffffffffffffffff16815260200160011515815250908060018154018082558091505090600182039060005260206000209060030201600090919290919091506000820151816000019080519060200190615801929190615adb565b50602082015181600101908051906020019061581e929190615adb565b5060408201518160020160006101000a81548173ffffffffffffffffffffffffffffffffffffffff021916908373ffffffffffffffffffffffffffffffffffffffff16021790555060608201518160020160146101000a81548160ff02191690831515021790555050505050505050565b6002818154811061589c57fe5b9060005260206000209060070201600091509050806000018054600181600116156101000203166002900480601f0160208091040260200160405190810160405280929190818152602001828054600181600116156101000203166002900480156159485780601f1061591d57610100808354040283529160200191615948565b820191906000526020600020905b81548152906001019060200180831161592b57829003601f168201915b505050505090806001018054600181600116156101000203166002900480601f0160208091040260200160405190810160405280929190818152602001828054600181600116156101000203166002900480156159e65780601f106159bb576101008083540402835291602001916159e6565b820191906000526020600020905b8154815290600101906020018083116159c957829003601f168201915b5050505050908060020154908060030160009054906101000a900473ffffffffffffffffffffffffffffffffffffffff16908060040160009054906101000a900473ffffffffffffffffffffffffffffffffffffffff16908060050154908060060160009054906101000a900460ff16905087565b828054600181600116156101000203166002900490600052602060002090601f016020900481019282601f10615a9c57805160ff1916838001178555615aca565b82800160010185558215615aca579182015b82811115615ac9578251825591602001919060010190615aae565b5b509050615ad79190615be2565b5090565b828054600181600116156101000203166002900490600052602060002090601f016020900481019282601f10615b1c57805160ff1916838001178555615b4a565b82800160010185558215615b4a579182015b82811115615b49578251825591602001919060010190615b2e565b5b509050615b579190615be2565b5090565b828054600181600116156101000203166002900490600052602060002090601f016020900481019282601f10615b945780548555615bd1565b82800160010185558215615bd157600052602060002091601f016020900482015b82811115615bd0578254825591600101919060010190615bb5565b5b509050615bde9190615be2565b5090565b615c0491905b80821115615c00576000816000905550600101615be8565b5090565b9056fea165627a7a72305820e9670a3ef69073231cd8628d5be0738064273551d18dcfe41721a272911af3c80029",
  "source": "pragma solidity ^ 0.5 .0;\n\n\ncontract Owners {\n\n    function getOwners(address _ad) public view returns(bool) {}\n\n}\n\ncontract CertfyToken {\n    \n    function distributeTokens(address account) external returns (bool) {}\n\n}\n\ncontract Storage {\n\n        modifier onlyOwners() {\n            require(ownerContract.getOwners(msg.sender));\n                _;\n        }\n\n\n\n        struct Document {\n                string name;\n                string metadata;\n                uint timestamp;\n                address registrant;\n                address signee;\n                bytes32 hash;\n                bool isEntity;\n        }\n\n        struct Registrant {\n                string name;\n                string description;\n                address user;\n                bool isEntity;\n        }\n\n\n        address payable public current;\n\n        uint128[] public prices;\n\n        Document[] public temporaryDocs;\n        Document[] public documents;\n        Registrant[] public registrants;\n\n        mapping(bytes32 => Document) public temporaryRegistry;\n        mapping(bytes32 => Document) public registry;\n\n        mapping(address => Registrant) public verifiedAddress;\n\n        mapping(address => mapping(uint32 => Document)) public userDocs;\n        mapping(address => uint32) public docsPerUser;\n\n        mapping(string => uint32) temporaryIndex;\n        mapping(string => uint32) nameIndex;\n\n        bool ownersSet;\n\n        event DocumentIndex(uint index);\n\n        CertfyToken tokenContract;\n        Owners ownerContract;\n\n        address payable feePoolContract;\n}\n\n\ncontract DocumentRegistration is Storage {\n\n\n        function setTokenContract(address _contract) external onlyOwners {\n                tokenContract = CertfyToken(_contract);\n        }\n\n        function setOwnerContract(address _ownerContract) external {\n                require(ownersSet == false);\n                ownerContract = Owners(_ownerContract);\n                ownersSet = true;\n        }\n\n\n        function setPrices(uint128 _price1, uint128 _price2, uint128 _price3, uint128 _price4) external onlyOwners {\n                uint64 p = 1 ether/10000;\n                prices.push(_price1 * p);\n                prices.push(_price2 * p);\n                prices.push(_price3 * p);\n                prices.push(_price4 * p);\n        }\n\n        function setPrice(uint8 _index, uint128 _price) external onlyOwners {\n                prices[_index] = _price * 1 ether;\n        }\n\n        function setCurrent(address payable _current) external onlyOwners {\n                current = _current;\n        }\n\n        function registerDocument(\n                string calldata _name,\n                string calldata _metadata,\n                bytes32 _fileHash\n        )\n        external\n        payable {\n                require(msg.value == prices[1]);\n                current.transfer(msg.value);\n                feePoolContract.transfer(msg.value/2);\n                bytes32 hash = keccak256(abi.encodePacked(_name, nameIndex[_name]));\n                userDocs[msg.sender][docsPerUser[msg.sender]] = registry[hash] = Document(\n                        _name,\n                        _metadata,\n                        block.timestamp,\n                        msg.sender,\n                        address(0),\n                        _fileHash,\n                        true\n                );\n                documents.push(Document(\n                        _name,\n                        _metadata,\n                        block.timestamp,\n                        msg.sender,\n                        address(0),\n                        _fileHash,\n                        true\n                ));\n                nameIndex[_name]++;\n                docsPerUser[msg.sender]++;\n                tokenContract.distributeTokens(msg.sender);\n                emit DocumentIndex(nameIndex[_name] - 1);\n        }\n\n        function registerMultiSig(\n                string calldata _name,\n                string calldata _metadata,\n                bytes32 _fileHash,\n                address _signee\n        )\n        external\n        payable {\n                require(msg.value == prices[2] / 2);\n                current.transfer(msg.value);\n                feePoolContract.transfer(msg.value/2);\n                bytes32 hash = keccak256(abi.encodePacked(_name, temporaryIndex[_name])); // temporaryIndex is separate from nameIndex\n                temporaryRegistry[hash] = Document(\n                        _name,\n                        _metadata,\n                        block.timestamp,\n                        msg.sender,\n                        _signee,\n                        _fileHash,\n                        true\n                );\n                temporaryDocs.push(Document(\n                        _name,\n                        _metadata,\n                        block.timestamp,\n                        msg.sender,\n                        _signee,\n                        _fileHash,\n                        true\n                ));\n                temporaryIndex[_name]++; // Allow temporary registrations under the same name\n                tokenContract.distributeTokens(msg.sender);\n                emit DocumentIndex(temporaryIndex[_name] - 1);\n        }\n\n        function signDocument(string calldata _name, uint32 _temporaryIndex) external payable returns(uint) {\n                require(msg.value == prices[2] / 2);\n                current.transfer(msg.value);\n                feePoolContract.transfer(msg.value/2);\n                bytes32 temporaryHash = keccak256(abi.encodePacked(_name, _temporaryIndex));\n                bytes32 permanentHash = keccak256(abi.encodePacked(_name, nameIndex[_name]));\n                require(registry[permanentHash].isEntity == false);\n                require(temporaryRegistry[temporaryHash].isEntity);\n                address signee = temporaryRegistry[temporaryHash].signee;\n                address registrant = temporaryRegistry[temporaryHash].registrant;\n                require(signee == msg.sender);\n                // Next line could be flawed - not registering for one\n                userDocs[registrant][docsPerUser[registrant]] = userDocs[msg.sender][docsPerUser[msg.sender]] = registry[permanentHash] = Document(\n                        temporaryRegistry[temporaryHash].name,\n                        temporaryRegistry[temporaryHash].metadata,\n                        block.timestamp,\n                        temporaryRegistry[temporaryHash].registrant,\n                        signee,\n                        temporaryRegistry[temporaryHash].hash,\n                        true\n                );\n                documents.push(Document(\n                        temporaryRegistry[temporaryHash].name,\n                        temporaryRegistry[temporaryHash].metadata,\n                        block.timestamp,\n                        temporaryRegistry[temporaryHash].registrant,\n                        signee,\n                        temporaryRegistry[temporaryHash].hash,\n                        true\n                ));\n                nameIndex[_name]++;\n                docsPerUser[signee]++;\n                docsPerUser[msg.sender]++;\n                tokenContract.distributeTokens(msg.sender);\n                emit DocumentIndex(nameIndex[_name] - 1);\n        }\n\n        function registerAddress(\n                string calldata _name,\n                string calldata _description\n        )\n        external\n        payable {\n                require(msg.value == prices[1]);\n                current.transfer(msg.value);\n                feePoolContract.transfer(msg.value/2);\n                verifiedAddress[msg.sender] = Registrant(\n                        _name,\n                        _description,\n                        msg.sender,\n                        true);\n                registrants.push(Registrant(_name, _description, msg.sender, true));\n        }\n\n        function updateInfo(\n                string memory _name,\n                string memory _description\n        )\n        public\n        payable {\n                require(msg.value == prices[3]);\n                require(verifiedAddress[msg.sender].isEntity);\n                current.transfer(msg.value/2);\n                feePoolContract.transfer(msg.value/2);\n                verifiedAddress[msg.sender].name = _name;\n                verifiedAddress[msg.sender].description = _description;\n                registrants.push(Registrant(_name, _description, msg.sender, true));\n        }\n\n        function verifyDocument(string calldata _name, uint32 _nameIndex, bytes32 _fileHash) external view returns(bool) {\n                bytes32 hash = keccak256(abi.encodePacked(_name, _nameIndex));\n                if (registry[hash].hash == _fileHash) {\n                        return true;\n                } else {\n                        return false;\n                }\n        }\n\n    function checkTemporary(string calldata _name, uint32 _index)\n    external\n    view\n    returns(string memory, uint, address, address, bytes32) {\n        bytes32 hash = keccak256(abi.encodePacked(_name, _index));\n        return (\n            temporaryRegistry[hash].metadata,\n            temporaryRegistry[hash].timestamp,\n            temporaryRegistry[hash].registrant,\n            temporaryRegistry[hash].signee,\n            temporaryRegistry[hash].hash\n        );\n    }\n\n    function documentQuery(string calldata _name, uint32 _nameIndex)\n    external\n    view\n    returns(string memory, uint, address, address) {\n        bytes32 hash = keccak256(abi.encodePacked(_name, _nameIndex));\n        return (\n            registry[hash].metadata,\n            registry[hash].timestamp,\n            registry[hash].registrant,\n            registry[hash].signee\n        );\n    }\n\n        function setPoolContract(address payable _contract) external onlyOwners {\n                feePoolContract = _contract;\n        }\n}\n",
  "sourcePath": "/Users/yakkomajuri/GitHub/bootcamp-finalproject/eth/contracts/DocumentRegistration.sol",
  "compiler": {
    "name": "solc",
    "version": "0.5.8+commit.23d335f2.Emscripten.clang"
  },
  "schemaVersion": "3.0.11",
  "updatedAt": "2019-07-28T23:14:37.781Z",
  "devdoc": {
    "methods": {}
  },
  "userdoc": {
    "methods": {}
  }
}