{
  "contractName": "FeePool",
  "abi": [
    {
      "constant": true,
      "inputs": [],
      "name": "nextPool",
      "outputs": [
        {
          "name": "",
          "type": "uint256"
        }
      ],
      "payable": false,
      "stateMutability": "view",
      "type": "function"
    },
    {
      "constant": true,
      "inputs": [],
      "name": "payoutInSession",
      "outputs": [
        {
          "name": "",
          "type": "bool"
        }
      ],
      "payable": false,
      "stateMutability": "view",
      "type": "function"
    },
    {
      "constant": true,
      "inputs": [],
      "name": "currentPool",
      "outputs": [
        {
          "name": "",
          "type": "uint256"
        }
      ],
      "payable": false,
      "stateMutability": "view",
      "type": "function"
    },
    {
      "constant": true,
      "inputs": [],
      "name": "tokenSupply",
      "outputs": [
        {
          "name": "",
          "type": "uint256"
        }
      ],
      "payable": false,
      "stateMutability": "view",
      "type": "function"
    },
    {
      "constant": true,
      "inputs": [],
      "name": "leftInCurrentPool",
      "outputs": [
        {
          "name": "",
          "type": "uint256"
        }
      ],
      "payable": false,
      "stateMutability": "view",
      "type": "function"
    },
    {
      "constant": true,
      "inputs": [],
      "name": "token",
      "outputs": [
        {
          "name": "",
          "type": "address"
        }
      ],
      "payable": false,
      "stateMutability": "view",
      "type": "function"
    },
    {
      "inputs": [],
      "payable": false,
      "stateMutability": "nonpayable",
      "type": "constructor"
    },
    {
      "payable": true,
      "stateMutability": "payable",
      "type": "fallback"
    },
    {
      "constant": false,
      "inputs": [],
      "name": "activatePayout",
      "outputs": [],
      "payable": false,
      "stateMutability": "nonpayable",
      "type": "function"
    },
    {
      "constant": false,
      "inputs": [],
      "name": "endPayoutPeriod",
      "outputs": [],
      "payable": false,
      "stateMutability": "nonpayable",
      "type": "function"
    },
    {
      "constant": false,
      "inputs": [],
      "name": "withdrawDividends",
      "outputs": [],
      "payable": false,
      "stateMutability": "nonpayable",
      "type": "function"
    },
    {
      "constant": false,
      "inputs": [
        {
          "name": "_token",
          "type": "address"
        },
        {
          "name": "_tokenSupply",
          "type": "uint256"
        }
      ],
      "name": "setToken",
      "outputs": [],
      "payable": false,
      "stateMutability": "nonpayable",
      "type": "function"
    },
    {
      "constant": true,
      "inputs": [],
      "name": "nextPayoutPeriod",
      "outputs": [
        {
          "name": "",
          "type": "uint256"
        }
      ],
      "payable": false,
      "stateMutability": "view",
      "type": "function"
    },
    {
      "constant": false,
      "inputs": [],
      "name": "incrementPool",
      "outputs": [],
      "payable": false,
      "stateMutability": "nonpayable",
      "type": "function"
    }
  ],
  "bytecode": "0x60806040526000600960006101000a81548160ff02191690831515021790555034801561002b57600080fd5b5042600581905550610ac8806100426000396000f3fe6080604052600436106100a75760003560e01c8063692b69ae11610064578063692b69ae146101735780637824407f1461019e57806378bf2b53146101c95780639957410a14610224578063a495b1e51461023b578063fc0c546a14610266576100a7565b806313db4e1a146100a95780631a3379ae146100c05780631f0ed2a9146100d7578063243d6585146101025780632e92abdd1461012d578063362d309414610144575b005b3480156100b557600080fd5b506100be6102bd565b005b3480156100cc57600080fd5b506100d5610334565b005b3480156100e357600080fd5b506100ec610441565b6040518082815260200191505060405180910390f35b34801561010e57600080fd5b50610117610450565b6040518082815260200191505060405180910390f35b34801561013957600080fd5b50610142610456565b005b34801561015057600080fd5b50610159610760565b604051808215151515815260200191505060405180910390f35b34801561017f57600080fd5b50610188610773565b6040518082815260200191505060405180910390f35b3480156101aa57600080fd5b506101b3610779565b6040518082815260200191505060405180910390f35b3480156101d557600080fd5b50610222600480360360408110156101ec57600080fd5b81019080803573ffffffffffffffffffffffffffffffffffffffff1690602001909291908035906020019092919050505061077f565b005b34801561023057600080fd5b506102396107ff565b005b34801561024757600080fd5b5061025061086a565b6040518082815260200191505060405180910390f35b34801561027257600080fd5b5061027b610870565b604051808273ffffffffffffffffffffffffffffffffffffffff1673ffffffffffffffffffffffffffffffffffffffff16815260200191505060405180910390f35b600760009054906101000a900460ff1615610306576003546001543073ffffffffffffffffffffffffffffffffffffffff16310303600360008282540192505081905550610332565b6001543073ffffffffffffffffffffffffffffffffffffffff1631036001600082825401925050819055505b565b6001600554014211610391576040517f08c379a0000000000000000000000000000000000000000000000000000000008152600401808060200182810382526024815260200180610a796024913960400191505060405180910390fd5b600760009054906101000a900460ff1615610414576040517f08c379a00000000000000000000000000000000000000000000000000000000081526004018080602001828103825260188152602001807f7061796f757420616c72656164792068617070656e696e67000000000000000081525060200191505060405180910390fd5b6001600760006101000a81548160ff02191690831515021790555042600681905550600154600281905550565b60004260016005540103905090565b60035481565b600a60003373ffffffffffffffffffffffffffffffffffffffff1673ffffffffffffffffffffffffffffffffffffffff1681526020019081526020016000206000600454815260200190815260200160002060009054906101000a900460ff161561050c576040517f08c379a000000000000000000000000000000000000000000000000000000000815260040180806020018281038252602b815260200180610a2d602b913960400191505060405180910390fd5b600760009054906101000a900460ff1661058e576040517f08c379a000000000000000000000000000000000000000000000000000000000815260040180806020018281038252601d8152602001807f4974206973206e6f742061207061796f757420706572696f642079657400000081525060200191505060405180910390fd5b6001600a60003373ffffffffffffffffffffffffffffffffffffffff1673ffffffffffffffffffffffffffffffffffffffff1681526020019081526020016000206000600454815260200190815260200160002060006101000a81548160ff02191690831515021790555060008060009054906101000a900473ffffffffffffffffffffffffffffffffffffffff1673ffffffffffffffffffffffffffffffffffffffff166370a08231336040518263ffffffff1660e01b8152600401808273ffffffffffffffffffffffffffffffffffffffff1673ffffffffffffffffffffffffffffffffffffffff16815260200191505060206040518083038186803b15801561069957600080fd5b505afa1580156106ad573d6000803e3d6000fd5b505050506040513d60208110156106c357600080fd5b8101908080519060200190929190505050905060006008546106f08360015461089590919063ffffffff16565b816106f757fe5b04905061070f8160025461091b90919063ffffffff16565b6002819055503373ffffffffffffffffffffffffffffffffffffffff166108fc829081150290604051600060405180830381858888f1935050505015801561075b573d6000803e3d6000fd5b505050565b600760009054906101000a900460ff1681565b60015481565b60085481565b600960009054906101000a900460ff161561079957600080fd5b6001600960006101000a81548160ff021916908315150217905550816000806101000a81548173ffffffffffffffffffffffffffffffffffffffff021916908373ffffffffffffffffffffffffffffffffffffffff160217905550806008819055505050565b6000600760006101000a81548160ff0219169083151502179055504260058190555060006006819055506108406003546002546109a490919063ffffffff16565b60018190555060006003819055506000600281905550600460008154809291906001019190505550565b60025481565b6000809054906101000a900473ffffffffffffffffffffffffffffffffffffffff1681565b6000808314156108a85760009050610915565b60008284029050828482816108b957fe5b0414610910576040517f08c379a0000000000000000000000000000000000000000000000000000000008152600401808060200182810382526021815260200180610a586021913960400191505060405180910390fd5b809150505b92915050565b600082821115610993576040517f08c379a000000000000000000000000000000000000000000000000000000000815260040180806020018281038252601e8152602001807f536166654d6174683a207375627472616374696f6e206f766572666c6f77000081525060200191505060405180910390fd5b600082840390508091505092915050565b600080828401905083811015610a22576040517f08c379a000000000000000000000000000000000000000000000000000000000815260040180806020018281038252601b8152602001807f536166654d6174683a206164646974696f6e206f766572666c6f77000000000081525060200191505060405180910390fd5b809150509291505056fe5573657220616c7265616479207769746864726577206469766964656e6473207468697320706572696f64536166654d6174683a206d756c7469706c69636174696f6e206f766572666c6f774974206973206e6f742074696d6520666f72205061796f757420506572696f6420796574a165627a7a72305820156a8b8e85185bfe123f4f0afbe8cccaa491044db56c67bafc53c00a12d9c5b00029",
  "source": "pragma solidity^0.5.0;\n\nimport \"../lib/math/SafeMath.sol\";\n\n/** \n * @title Fee Pool\n * @author Yakko Majuri\n * @notice An ETH pool which receives funds (fees) from the DocumentRegistration contract and distributes to token holders via dividends\n*/\n\n\ncontract CertfyToken {\n\n    function balanceOf(address tokenHolder) public view returns (uint256) {}\n    function pauseTransfers() public {}\n\n}\n\ncontract FeePool {\n\n    // ERC777 token contract address\n    CertfyToken public token;\n\n    // Prevent overflow/underflow\n    using SafeMath for uint256;\n\n    // Establishes the size of the different pools\n    uint public currentPool;\n    uint public leftInCurrentPool;\n\n    // For funds deposited during a dividend payout period\n    uint public nextPool;\n\n    // Values in reality are '2 days' and '30 days', respectively\n    // Lower values for test purposes\n    uint constant payoutPeriod = 0;\n    uint constant dividendPayoutInterval = 1;\n\n    // Number of the current payout\n    uint payoutIndex;\n\n    // Coordinate payout time constraints\n    uint lastPayout;\n    uint payoutStart;\n    bool public payoutInSession;\n\n    // Total supply needed to determine the share of supply ownerd by each token holder\n    uint public tokenSupply;\n\n    // For contract initialization\n    bool tokenSet = false;\n\n    // Double mapping which ensure a user does not receive dividends twice for a given period\n    mapping(address => mapping(uint => bool)) receivedDividends;\n\n\n    constructor() public {\n        lastPayout = block.timestamp;\n    }\n\n    /** \n     * @notice Fallback function adds funds to the pool once they are received\n     * @dev Rolls funds over to the pool of the next period if they are deposited during a dividend payout\n     * This happens because some users may have already taken dividends out before more funds are added\n    */\n    function () external payable {}\n\n    /** \n     * @notice 'Switch' to activate dividend payout period\n     * @dev Deliberately left open for any address to call\n     * This prevents over-reliance on a centralizing agent to activate a payout\n     * If the conditions are met (regarding time), anyone can activate a payout\n    */\n    function activatePayout() external {\n        require(block.timestamp > (lastPayout + dividendPayoutInterval),\n        \"It is not time for Payout Period yet\");\n        require(!payoutInSession,\n        \"payout already happening\");\n        payoutInSession = true;\n        payoutStart = block.timestamp;\n        leftInCurrentPool = currentPool;\n        // token.pauseTransfers();\n    }\n\n    /** \n     * @notice 'Switch' to end dividend payout period\n     * @dev Deliberately left open for any address to call\n     * This prevents over-reliance on a centralizing agent to end a payout\n     * If the conditions are met (regarding time), anyone can end a payout period\n     * Incentive to end the period is starting the countdown to the new payout with a fresh pool\n     * @dev Dividends not collected roll over to the next period\n    */\n    function endPayoutPeriod() external {\n        /*\n        require(payoutInSession && (block.timestamp - payoutStart) > payoutPeriod,\n        \"Not ready to leave payout period yet\");\n        */\n        payoutInSession = false;\n        lastPayout = block.timestamp;\n        payoutStart = 0;\n        currentPool = leftInCurrentPool.add(nextPool);\n        nextPool = 0;\n        leftInCurrentPool = 0;\n        payoutIndex++;\n        // token.pauseTransfers();\n    }\n\n    /** \n     * @notice Allows users to withdraw their designated dividends for the period\n     * @dev dividendsAllocated is computed by the percentage of all tokens owned by a user\n     * multiplied by the total value of the pool in ETH\n     * @dev Users can only collect dividends once per period\n     * Dividends not collected will roll over to the pool of the next period\n     * @dev Users have t = payoutPeriod to withdraw their dividends before the payout \n     * period can be closed and their dividends roll over\n    */\n    function withdrawDividends() external {\n        require(!receivedDividends[msg.sender][payoutIndex],\n        \"User already withdrew dividends this period\");\n        require(payoutInSession, \"It is not a payout period yet\");\n        receivedDividends[msg.sender][payoutIndex] = true;\n        uint balance = token.balanceOf(msg.sender);\n        uint dividendsAllocated = currentPool.mul(balance)/tokenSupply;\n        leftInCurrentPool = leftInCurrentPool.sub(dividendsAllocated);\n        msg.sender.transfer(dividendsAllocated);\n    }\n\n    /** \n     * @notice Sets the CertfyToken contract address - Used for initialization\n    */\n    function setToken(address _token, uint _tokenSupply) public {\n        require(!tokenSet);\n        tokenSet = true;\n        token = CertfyToken(_token);\n        tokenSupply = _tokenSupply;\n    }\n\n    /** \n     * @notice Informs users when the next payout period can begin\n     * Can be used by a client to display a countdown\n    */\n    function nextPayoutPeriod() external view returns(uint) {\n        return (lastPayout + dividendPayoutInterval - block.timestamp);\n    }\n\n    function incrementPool() public {\n        if (payoutInSession) {\n            nextPool += (address(this).balance - currentPool - nextPool);\n        } else {\n            currentPool += (address(this).balance - currentPool);\n        }\n    }\n}",
  "sourcePath": "/Users/yakkomajuri/GitHub/bootcamp-finalproject/eth/contracts/FeePool.sol",
  "compiler": {
    "name": "solc",
    "version": "0.5.8+commit.23d335f2.Emscripten.clang"
  },
  "schemaVersion": "3.0.11",
  "updatedAt": "2019-07-31T02:23:35.287Z",
  "devdoc": {
    "methods": {
      "activatePayout()": {
        "details": "Deliberately left open for any address to call This prevents over-reliance on a centralizing agent to activate a payout If the conditions are met (regarding time), anyone can activate a payout"
      },
      "endPayoutPeriod()": {
        "details": "Deliberately left open for any address to call This prevents over-reliance on a centralizing agent to end a payout If the conditions are met (regarding time), anyone can end a payout period Incentive to end the period is starting the countdown to the new payout with a fresh poolDividends not collected roll over to the next period"
      },
      "withdrawDividends()": {
        "details": "dividendsAllocated is computed by the percentage of all tokens owned by a user multiplied by the total value of the pool in ETHUsers can only collect dividends once per period Dividends not collected will roll over to the pool of the next periodUsers have t = payoutPeriod to withdraw their dividends before the payout  period can be closed and their dividends roll over"
      }
    }
  },
  "userdoc": {
    "methods": {
      "activatePayout()": {
        "notice": "'Switch' to activate dividend payout period"
      },
      "endPayoutPeriod()": {
        "notice": "'Switch' to end dividend payout period"
      },
      "nextPayoutPeriod()": {
        "notice": "Informs users when the next payout period can begin Can be used by a client to display a countdown"
      },
      "setToken(address,uint256)": {
        "notice": "Sets the CertfyToken contract address - Used for initialization"
      },
      "withdrawDividends()": {
        "notice": "Allows users to withdraw their designated dividends for the period"
      }
    }
  }
}