{
  "contractName": "FeePool",
  "abi": [
    {
      "constant": true,
      "inputs": [],
      "name": "nextPool",
      "outputs": [
        {
          "name": "",
          "type": "uint256"
        }
      ],
      "payable": false,
      "stateMutability": "view",
      "type": "function"
    },
    {
      "constant": true,
      "inputs": [],
      "name": "payoutInSession",
      "outputs": [
        {
          "name": "",
          "type": "bool"
        }
      ],
      "payable": false,
      "stateMutability": "view",
      "type": "function"
    },
    {
      "constant": true,
      "inputs": [],
      "name": "currentPool",
      "outputs": [
        {
          "name": "",
          "type": "uint256"
        }
      ],
      "payable": false,
      "stateMutability": "view",
      "type": "function"
    },
    {
      "constant": true,
      "inputs": [],
      "name": "tokenSupply",
      "outputs": [
        {
          "name": "",
          "type": "uint256"
        }
      ],
      "payable": false,
      "stateMutability": "view",
      "type": "function"
    },
    {
      "constant": true,
      "inputs": [],
      "name": "leftInCurrentPool",
      "outputs": [
        {
          "name": "",
          "type": "uint256"
        }
      ],
      "payable": false,
      "stateMutability": "view",
      "type": "function"
    },
    {
      "constant": true,
      "inputs": [],
      "name": "token",
      "outputs": [
        {
          "name": "",
          "type": "address"
        }
      ],
      "payable": false,
      "stateMutability": "view",
      "type": "function"
    },
    {
      "inputs": [],
      "payable": false,
      "stateMutability": "nonpayable",
      "type": "constructor"
    },
    {
      "payable": true,
      "stateMutability": "payable",
      "type": "fallback"
    },
    {
      "constant": false,
      "inputs": [
        {
          "name": "_token",
          "type": "address"
        },
        {
          "name": "_tokenSupply",
          "type": "uint256"
        }
      ],
      "name": "setToken",
      "outputs": [],
      "payable": false,
      "stateMutability": "nonpayable",
      "type": "function"
    },
    {
      "constant": false,
      "inputs": [],
      "name": "activatePayout",
      "outputs": [],
      "payable": false,
      "stateMutability": "nonpayable",
      "type": "function"
    },
    {
      "constant": false,
      "inputs": [],
      "name": "endPayoutPeriod",
      "outputs": [],
      "payable": false,
      "stateMutability": "nonpayable",
      "type": "function"
    },
    {
      "constant": false,
      "inputs": [],
      "name": "withdrawDividends",
      "outputs": [],
      "payable": false,
      "stateMutability": "nonpayable",
      "type": "function"
    },
    {
      "constant": true,
      "inputs": [],
      "name": "nextPayoutPeriod",
      "outputs": [
        {
          "name": "",
          "type": "uint256"
        }
      ],
      "payable": false,
      "stateMutability": "view",
      "type": "function"
    }
  ],
  "bytecode": "0x60806040526000600960006101000a81548160ff02191690831515021790555034801561002b57600080fd5b50426005819055506109e7806100426000396000f3fe60806040526004361061009c5760003560e01c8063692b69ae11610064578063692b69ae1461018c5780637824407f146101b757806378bf2b53146101e25780639957410a1461023d578063a495b1e514610254578063fc0c546a1461027f5761009c565b80631a3379ae146100d95780631f0ed2a9146100f0578063243d65851461011b5780632e92abdd14610146578063362d30941461015d575b600760009054906101000a900460ff16156100c657346003600082825401925050819055506100d7565b346001600082825401925050819055505b005b3480156100e557600080fd5b506100ee6102d6565b005b3480156100fc57600080fd5b50610105610360565b6040518082815260200191505060405180910390f35b34801561012757600080fd5b5061013061036f565b6040518082815260200191505060405180910390f35b34801561015257600080fd5b5061015b610375565b005b34801561016957600080fd5b5061017261067f565b604051808215151515815260200191505060405180910390f35b34801561019857600080fd5b506101a1610692565b6040518082815260200191505060405180910390f35b3480156101c357600080fd5b506101cc610698565b6040518082815260200191505060405180910390f35b3480156101ee57600080fd5b5061023b6004803603604081101561020557600080fd5b81019080803573ffffffffffffffffffffffffffffffffffffffff1690602001909291908035906020019092919050505061069e565b005b34801561024957600080fd5b5061025261071e565b005b34801561026057600080fd5b50610269610789565b6040518082815260200191505060405180910390f35b34801561028b57600080fd5b5061029461078f565b604051808273ffffffffffffffffffffffffffffffffffffffff1673ffffffffffffffffffffffffffffffffffffffff16815260200191505060405180910390f35b6001426005540111610333576040517f08c379a00000000000000000000000000000000000000000000000000000000081526004018080602001828103825260248152602001806109986024913960400191505060405180910390fd5b6001600760006101000a81548160ff02191690831515021790555042600681905550600154600281905550565b60004260016005540103905090565b60035481565b600a60003373ffffffffffffffffffffffffffffffffffffffff1673ffffffffffffffffffffffffffffffffffffffff1681526020019081526020016000206000600454815260200190815260200160002060009054906101000a900460ff161561042b576040517f08c379a000000000000000000000000000000000000000000000000000000000815260040180806020018281038252602b81526020018061094c602b913960400191505060405180910390fd5b600760009054906101000a900460ff166104ad576040517f08c379a000000000000000000000000000000000000000000000000000000000815260040180806020018281038252601d8152602001807f4974206973206e6f742061207061796f757420706572696f642079657400000081525060200191505060405180910390fd5b6001600a60003373ffffffffffffffffffffffffffffffffffffffff1673ffffffffffffffffffffffffffffffffffffffff1681526020019081526020016000206000600454815260200190815260200160002060006101000a81548160ff02191690831515021790555060008060009054906101000a900473ffffffffffffffffffffffffffffffffffffffff1673ffffffffffffffffffffffffffffffffffffffff166370a08231336040518263ffffffff1660e01b8152600401808273ffffffffffffffffffffffffffffffffffffffff1673ffffffffffffffffffffffffffffffffffffffff16815260200191505060206040518083038186803b1580156105b857600080fd5b505afa1580156105cc573d6000803e3d6000fd5b505050506040513d60208110156105e257600080fd5b81019080805190602001909291905050509050600060085461060f836001546107b490919063ffffffff16565b8161061657fe5b04905061062e8160025461083a90919063ffffffff16565b6002819055503373ffffffffffffffffffffffffffffffffffffffff166108fc829081150290604051600060405180830381858888f1935050505015801561067a573d6000803e3d6000fd5b505050565b600760009054906101000a900460ff1681565b60015481565b60085481565b600960009054906101000a900460ff16156106b857600080fd5b6001600960006101000a81548160ff021916908315150217905550816000806101000a81548173ffffffffffffffffffffffffffffffffffffffff021916908373ffffffffffffffffffffffffffffffffffffffff160217905550806008819055505050565b6000600760006101000a81548160ff02191690831515021790555042600581905550600060068190555061075f6003546002546108c390919063ffffffff16565b60018190555060006003819055506000600281905550600460008154809291906001019190505550565b60025481565b6000809054906101000a900473ffffffffffffffffffffffffffffffffffffffff1681565b6000808314156107c75760009050610834565b60008284029050828482816107d857fe5b041461082f576040517f08c379a00000000000000000000000000000000000000000000000000000000081526004018080602001828103825260218152602001806109776021913960400191505060405180910390fd5b809150505b92915050565b6000828211156108b2576040517f08c379a000000000000000000000000000000000000000000000000000000000815260040180806020018281038252601e8152602001807f536166654d6174683a207375627472616374696f6e206f766572666c6f77000081525060200191505060405180910390fd5b600082840390508091505092915050565b600080828401905083811015610941576040517f08c379a000000000000000000000000000000000000000000000000000000000815260040180806020018281038252601b8152602001807f536166654d6174683a206164646974696f6e206f766572666c6f77000000000081525060200191505060405180910390fd5b809150509291505056fe5573657220616c7265616479207769746864726577206469766964656e6473207468697320706572696f64536166654d6174683a206d756c7469706c69636174696f6e206f766572666c6f774974206973206e6f742074696d6520666f72205061796f757420506572696f6420796574a165627a7a72305820ea081c93c91bbfd444dab1b174bd4c53d53255eb9b857907261249978e0b0d9a0029",
  "source": "pragma solidity^0.5.0;\n\nimport \"../lib/math/SafeMath.sol\";\n\ncontract CertfyToken {\n\n    function balanceOf(address tokenHolder) public view returns (uint256) {}\n    function pauseTransfers() public {}\n\n}\n\ncontract FeePool {\n\n    CertfyToken public token;\n\n    using SafeMath for uint256;\n\n    uint public currentPool;\n    uint public leftInCurrentPool;\n    uint public nextPool;\n\n    // Values in reality are '2 days' and '30 days', respectively\n    // Lower values for test purposes\n    uint constant payoutPeriod = 0;\n    uint constant dividendPayoutInterval = 1;\n\n    uint payoutIndex;\n    uint lastPayout;\n    uint payoutStart;\n    bool public payoutInSession;\n\n    uint public tokenSupply;\n\n    bool tokenSet = false;\n\n    mapping(address => mapping(uint => bool)) receivedDividends;\n\n    constructor() public {\n        lastPayout = block.timestamp;\n    }\n\n    function setToken(address _token, uint _tokenSupply) public {\n        require(!tokenSet);\n        tokenSet = true;\n        token = CertfyToken(_token);\n        tokenSupply = _tokenSupply;\n    }\n\n    function () external payable {\n        if (payoutInSession) {\n            nextPool += msg.value;\n        } else {\n            currentPool += msg.value;\n        }\n    }\n\n    function activatePayout() external {\n        require(lastPayout + block.timestamp > dividendPayoutInterval,\n        \"It is not time for Payout Period yet\");\n        payoutInSession = true;\n        payoutStart = block.timestamp;\n        leftInCurrentPool = currentPool;\n        // token.pauseTransfers();\n    }\n\n    function endPayoutPeriod() external {\n        /*\n        require(payoutInSession && (block.timestamp - payoutStart) > payoutPeriod,\n        \"Not ready to leave payout period yet\");\n        */\n        payoutInSession = false;\n        lastPayout = block.timestamp;\n        payoutStart = 0;\n        currentPool = leftInCurrentPool.add(nextPool);\n        nextPool = 0;\n        leftInCurrentPool = 0;\n        payoutIndex++;\n        // token.pauseTransfers();\n    }\n\n    function withdrawDividends() external {\n        require(!receivedDividends[msg.sender][payoutIndex],\n        \"User already withdrew dividends this period\");\n        require(payoutInSession, \"It is not a payout period yet\");\n        receivedDividends[msg.sender][payoutIndex] = true;\n        uint balance = token.balanceOf(msg.sender);\n        uint dividendsAllocated = currentPool.mul(balance)/tokenSupply;\n        leftInCurrentPool = leftInCurrentPool.sub(dividendsAllocated);\n        msg.sender.transfer(dividendsAllocated);\n    }\n\n    function nextPayoutPeriod() external view returns(uint) {\n        return (lastPayout + dividendPayoutInterval - block.timestamp);\n    }\n\n\n}",
  "sourcePath": "/Users/yakkomajuri/GitHub/bootcamp-finalproject/eth/contracts/FeePool.sol",
  "compiler": {
    "name": "solc",
    "version": "0.5.8+commit.23d335f2.Emscripten.clang"
  },
  "schemaVersion": "3.0.11",
  "updatedAt": "2019-07-30T11:43:21.916Z",
  "devdoc": {
    "methods": {}
  },
  "userdoc": {
    "methods": {}
  }
}