{
  "contractName": "FeePool",
  "abi": [
    {
      "payable": true,
      "stateMutability": "payable",
      "type": "fallback"
    },
    {
      "constant": false,
      "inputs": [
        {
          "name": "_token",
          "type": "address"
        },
        {
          "name": "_tokenSupply",
          "type": "uint256"
        }
      ],
      "name": "setToken",
      "outputs": [],
      "payable": false,
      "stateMutability": "nonpayable",
      "type": "function"
    },
    {
      "constant": false,
      "inputs": [],
      "name": "activatePayout",
      "outputs": [],
      "payable": false,
      "stateMutability": "nonpayable",
      "type": "function"
    },
    {
      "constant": false,
      "inputs": [],
      "name": "endPayoutPeriod",
      "outputs": [],
      "payable": false,
      "stateMutability": "nonpayable",
      "type": "function"
    },
    {
      "constant": false,
      "inputs": [],
      "name": "withdrawDividends",
      "outputs": [],
      "payable": false,
      "stateMutability": "nonpayable",
      "type": "function"
    },
    {
      "constant": true,
      "inputs": [],
      "name": "nextPayoutPeriod",
      "outputs": [
        {
          "name": "",
          "type": "uint256"
        }
      ],
      "payable": false,
      "stateMutability": "view",
      "type": "function"
    }
  ],
  "bytecode": "0x608060405234801561001057600080fd5b5061097f806100206000396000f3fe60806040526004361061004a5760003560e01c80631a3379ae146100875780631f0ed2a91461009e5780632e92abdd146100c957806378bf2b53146100e05780639957410a1461013b575b600760009054906101000a900460ff16156100745734600360008282540192505081905550610085565b346001600082825401925050819055505b005b34801561009357600080fd5b5061009c610152565b005b3480156100aa57600080fd5b506100b361025f565b6040518082815260200191505060405180910390f35b3480156100d557600080fd5b506100de610270565b005b3480156100ec57600080fd5b506101396004803603604081101561010357600080fd5b81019080803573ffffffffffffffffffffffffffffffffffffffff1690602001909291908035906020019092919050505061057a565b005b34801561014757600080fd5b506101506105c5565b005b62278d004260055401116101b1576040517f08c379a00000000000000000000000000000000000000000000000000000000081526004018080602001828103825260248152602001806109306024913960400191505060405180910390fd5b6001600760006101000a81548160ff021916908315150217905550426006819055506001546002819055506000809054906101000a900473ffffffffffffffffffffffffffffffffffffffff1673ffffffffffffffffffffffffffffffffffffffff166347af99576040518163ffffffff1660e01b8152600401600060405180830381600087803b15801561024557600080fd5b505af1158015610259573d6000803e3d6000fd5b50505050565b60004262278d006005540103905090565b600960003373ffffffffffffffffffffffffffffffffffffffff1673ffffffffffffffffffffffffffffffffffffffff1681526020019081526020016000206000600454815260200190815260200160002060009054906101000a900460ff1615610326576040517f08c379a000000000000000000000000000000000000000000000000000000000815260040180806020018281038252602b8152602001806108c0602b913960400191505060405180910390fd5b600760009054906101000a900460ff166103a8576040517f08c379a000000000000000000000000000000000000000000000000000000000815260040180806020018281038252601d8152602001807f4974206973206e6f742061207061796f757420706572696f642079657400000081525060200191505060405180910390fd5b6001600960003373ffffffffffffffffffffffffffffffffffffffff1673ffffffffffffffffffffffffffffffffffffffff1681526020019081526020016000206000600454815260200190815260200160002060006101000a81548160ff02191690831515021790555060008060009054906101000a900473ffffffffffffffffffffffffffffffffffffffff1673ffffffffffffffffffffffffffffffffffffffff166370a08231336040518263ffffffff1660e01b8152600401808273ffffffffffffffffffffffffffffffffffffffff1673ffffffffffffffffffffffffffffffffffffffff16815260200191505060206040518083038186803b1580156104b357600080fd5b505afa1580156104c7573d6000803e3d6000fd5b505050506040513d60208110156104dd57600080fd5b81019080805190602001909291905050509050600060085461050a8360015461072890919063ffffffff16565b8161051157fe5b0490503373ffffffffffffffffffffffffffffffffffffffff166108fc829081150290604051600060405180830381858888f1935050505015801561055a573d6000803e3d6000fd5b50610570816002546107ae90919063ffffffff16565b6002819055505050565b816000806101000a81548173ffffffffffffffffffffffffffffffffffffffff021916908373ffffffffffffffffffffffffffffffffffffffff160217905550806008819055505050565b600760009054906101000a900460ff1680156105e757506202a3006006544203115b61063c576040517f08c379a000000000000000000000000000000000000000000000000000000000815260040180806020018281038252602481526020018061090c6024913960400191505060405180910390fd5b6000600760006101000a81548160ff02191690831515021790555042600581905550600060068190555061067d60035460025461083790919063ffffffff16565b600181905550600060038190555060006002819055506004600081548092919060010191905055506000809054906101000a900473ffffffffffffffffffffffffffffffffffffffff1673ffffffffffffffffffffffffffffffffffffffff166347af99576040518163ffffffff1660e01b8152600401600060405180830381600087803b15801561070e57600080fd5b505af1158015610722573d6000803e3d6000fd5b50505050565b60008083141561073b57600090506107a8565b600082840290508284828161074c57fe5b04146107a3576040517f08c379a00000000000000000000000000000000000000000000000000000000081526004018080602001828103825260218152602001806108eb6021913960400191505060405180910390fd5b809150505b92915050565b600082821115610826576040517f08c379a000000000000000000000000000000000000000000000000000000000815260040180806020018281038252601e8152602001807f536166654d6174683a207375627472616374696f6e206f766572666c6f77000081525060200191505060405180910390fd5b600082840390508091505092915050565b6000808284019050838110156108b5576040517f08c379a000000000000000000000000000000000000000000000000000000000815260040180806020018281038252601b8152602001807f536166654d6174683a206164646974696f6e206f766572666c6f77000000000081525060200191505060405180910390fd5b809150509291505056fe5573657220616c7265616479207769746864726577206469766964656e6473207468697320706572696f64536166654d6174683a206d756c7469706c69636174696f6e206f766572666c6f774e6f7420726561647920746f206c65617665207061796f757420706572696f64207965744974206973206e6f742074696d6520666f72205061796f757420506572696f6420796574a165627a7a72305820a85bfd8dafbbb22cdc0d97da804a8389decf5321a5764e2ce1a15e856f05838f0029",
  "source": "pragma solidity^0.5.0;\n\nimport \"../lib/math/SafeMath.sol\";\n\ncontract CertfyToken {\n\n    function balanceOf(address tokenHolder) public view returns (uint256) {}\n    function pauseTransfers() public {}\n\n}\n\ncontract FeePool {\n\n    CertfyToken token;\n\n    using SafeMath for uint256;\n\n    uint currentPool;\n    uint leftInCurrentPool;\n    uint nextPool;\n\n    uint constant payoutPeriod = 2 days;\n    uint constant dividendPayoutInterval = 30 days;\n\n    uint payoutIndex;\n    uint lastPayout;\n    uint payoutStart;\n    bool payoutInSession;\n\n    uint private tokenSupply;\n\n    mapping(address => mapping(uint => bool)) receivedDividends;\n\n    function setToken(address _token, uint _tokenSupply) public {\n        token = CertfyToken(_token);\n        tokenSupply = _tokenSupply;\n    }\n\n    function () external payable {\n        if (payoutInSession) {\n            nextPool += msg.value;\n        }\n        else {\n            currentPool += msg.value;\n        }\n    }\n\n    function activatePayout() external {\n        require(lastPayout + block.timestamp > dividendPayoutInterval,\n        \"It is not time for Payout Period yet\");\n        payoutInSession = true;\n        payoutStart = block.timestamp;\n        leftInCurrentPool = currentPool;\n        token.pauseTransfers();\n    }\n\n    function endPayoutPeriod() external {\n        require(payoutInSession && (block.timestamp - payoutStart) > payoutPeriod,\n        \"Not ready to leave payout period yet\");\n        payoutInSession = false;\n        lastPayout = block.timestamp;\n        payoutStart = 0;\n        currentPool = leftInCurrentPool.add(nextPool);\n        nextPool = 0;\n        leftInCurrentPool = 0;\n        payoutIndex++;\n        token.pauseTransfers();\n    }\n\n    function withdrawDividends() external {\n        require(!receivedDividends[msg.sender][payoutIndex],\n        \"User already withdrew dividends this period\");\n        require(payoutInSession, \"It is not a payout period yet\");\n        receivedDividends[msg.sender][payoutIndex] = true;\n        uint balance = token.balanceOf(msg.sender);\n        uint dividendsAllocated = currentPool.mul(balance)/tokenSupply;\n        msg.sender.transfer(dividendsAllocated);\n        leftInCurrentPool = leftInCurrentPool.sub(dividendsAllocated);\n    }\n\n    function nextPayoutPeriod() external view returns(uint) {\n        return (lastPayout + dividendPayoutInterval - block.timestamp);\n    }\n\n}",
  "sourcePath": "/Users/yakkomajuri/GitHub/bootcamp-finalproject/eth/contracts/FeePool.sol",
  "compiler": {
    "name": "solc",
    "version": "0.5.8+commit.23d335f2.Emscripten.clang"
  },
  "schemaVersion": "3.0.11",
  "updatedAt": "2019-07-29T16:33:52.923Z",
  "devdoc": {
    "methods": {}
  },
  "userdoc": {
    "methods": {}
  }
}