{
  "contractName": "Owners",
  "abi": [
    {
      "constant": true,
      "inputs": [
        {
          "name": "_ad",
          "type": "address"
        }
      ],
      "name": "getOwners",
      "outputs": [
        {
          "name": "",
          "type": "bool"
        }
      ],
      "payable": false,
      "stateMutability": "view",
      "type": "function"
    }
  ],
  "bytecode": "0x608060405234801561001057600080fd5b5060b98061001f6000396000f3fe6080604052348015600f57600080fd5b506004361060285760003560e01c8063fd8b84b114602d575b600080fd5b606c60048036036020811015604157600080fd5b81019080803573ffffffffffffffffffffffffffffffffffffffff1690602001909291905050506086565b604051808215151515815260200191505060405180910390f35b600091905056fea165627a7a72305820a2d7038b5ba1e4e33d113bae9c3a60b91d09b729a546c29c733143c351c302bd0029",
  "source": "pragma solidity ^0.5.0;\n\nimport \"../lib/token/ERC777/IERC777.sol\";\nimport \"../lib/token/ERC777/IERC777Recipient.sol\";\nimport \"../lib/token/ERC777/IERC777Sender.sol\";\nimport \"../lib/token/ERC20/IERC20.sol\";\nimport \"../lib/math/SafeMath.sol\";\nimport \"../lib/utils/Address.sol\";\nimport \"../lib/introspection/IERC1820Registry.sol\";\n\n\ncontract Owners {\n\n    function getOwners(address _ad) public view returns(bool) {}\n\n}\n\n/**\n * @dev Implementation of the `IERC777` interface.\n *\n * This implementation is agnostic to the way tokens are created. This means\n * that a supply mechanism has to be added in a derived contract using `_mint`.\n *\n * Support for ERC20 is included in this contract, as specified by the EIP: both\n * the ERC777 and ERC20 interfaces can be safely used when interacting with it.\n * Both `IERC777.Sent` and `IERC20.Transfer` events are emitted on token\n * movements.\n *\n * Additionally, the `granularity` value is hard-coded to `1`, meaning that there\n * are no special restrictions in the amount of tokens that created, moved, or\n * destroyed. This makes integration with ERC20 applications seamless.\n */\ncontract CertfyToken is IERC777, IERC20 {\n\n    using SafeMath for uint256;\n    using Address for address;\n\n    Owners public ownersContract;\n\n    modifier onlyOwners() {\n        require(ownersContract.getOwners(msg.sender));\n        _;\n    }\n\n    IERC1820Registry private _erc1820 = IERC1820Registry(0x1820a4B7618BdE71Dce8cdc73aAB6C95905faD24);\n\n    mapping(address => uint256) private _balances;\n\n    uint256 private _totalSupply = 10000000;\n    uint tokensLeft = 10000000;\n    uint allocation = 1000;\n\n    string private _name;\n    string private _symbol;\n\n    bool burningAllowed = false;\n\n\n    // We inline the result of the following hashes because Solidity doesn't resolve them at compile time.\n    // See https://github.com/ethereum/solidity/issues/4024.\n\n    // keccak256(\"ERC777TokensSender\")\n    bytes32 constant private TOKENS_SENDER_INTERFACE_HASH =\n        0x29ddb589b1fb5fc7cf394961c1adf5f8c6454761adf795e67fe149f658abe895;\n\n    // keccak256(\"ERC777TokensRecipient\")\n    bytes32 constant private TOKENS_RECIPIENT_INTERFACE_HASH =\n        0xb281fc8c12954d22544db45de3159a39272895b169a852b314f9cc762e44c53b;\n\n    // This isn't ever read from - it's only used to respond to the defaultOperators query.\n    address[] private _defaultOperatorsArray;\n\n    // Immutable, but accounts may revoke them (tracked in __revokedDefaultOperators).\n    mapping(address => bool) private _defaultOperators;\n\n    // For each account, a mapping of its operators and revoked default operators.\n    mapping(address => mapping(address => bool)) private _operators;\n    mapping(address => mapping(address => bool)) private _revokedDefaultOperators;\n\n    // ERC20-allowances\n    mapping (address => mapping (address => uint256)) private _allowances;\n\n    bool transfersPaused;\n\n    address public feePoolAddress;\n    address public documentRegistrationAddress; \n\n    /**\n     * @dev `defaultOperators` may be an empty array.\n     */\n    constructor(\n        string memory name,\n        string memory symbol,\n        uint creatorTokens,\n        address[] memory defaultOperators,\n        address _ownersContract\n    ) public {\n        _name = name;\n        _symbol = symbol;\n        ownersContract = Owners(_ownersContract);\n        _balances[msg.sender] = creatorTokens;\n        _defaultOperatorsArray = defaultOperators;\n        for (uint256 i = 0; i < _defaultOperatorsArray.length; i++) {\n            _defaultOperators[_defaultOperatorsArray[i]] = true;\n        }\n\n        // register interfaces\n        //_erc1820.setInterfaceImplementer(address(this), keccak256(\"ERC777Token\"), address(this));\n        //_erc1820.setInterfaceImplementer(address(this), keccak256(\"ERC20Token\"), address(this));\n    }\n\n    /**\n     * @dev See `IERC777.name`.\n     */\n    function name() public view returns (string memory) {\n        return _name;\n    }\n\n    /**\n     * @dev See `IERC777.symbol`.\n     */\n    function symbol() public view returns (string memory) {\n        return _symbol;\n    }\n\n    /**\n     * @dev See `ERC20Detailed.decimals`.\n     *\n     * Always returns 18, as per the\n     * [ERC777 EIP](https://eips.ethereum.org/EIPS/eip-777#backward-compatibility).\n     */\n    function decimals() public pure returns (uint8) {\n        return 18;\n    }\n\n    /**\n     * @dev See `IERC777.granularity`.\n     *\n     * This implementation always returns `1`.\n     */\n    function granularity() public view returns (uint256) {\n        return 1;\n    }\n\n    /**\n     * @dev See `IERC777.totalSupply`.\n     */\n    function totalSupply() public view returns (uint256) {\n        return _totalSupply;\n    }\n\n    /**\n     * @dev Returns the amount of tokens owned by an account (`tokenHolder`).\n     */\n    function balanceOf(address tokenHolder) public view returns (uint256) {\n        return _balances[tokenHolder];\n    }\n\n    /**\n     * @dev See `IERC777.send`.\n     *\n     * Also emits a `Transfer` event for ERC20 compatibility.\n     */\n    function send(address recipient, uint256 amount, bytes calldata data) external {\n        _send(msg.sender, msg.sender, recipient, amount, data, \"\", true);\n    }\n\n    /**\n     * @dev See `IERC20.transfer`.\n     *\n     * Unlike `send`, `recipient` is _not_ required to implement the `tokensReceived`\n     * interface if it is a contract.\n     *\n     * Also emits a `Sent` event.\n     */\n    function transfer(address recipient, uint256 amount) external returns (bool) {\n        require(recipient != address(0), \"ERC777: transfer to the zero address\");\n\n        address from = msg.sender;\n\n        //_callTokensToSend(from, from, recipient, amount, \"\", \"\");\n\n        _move(from, from, recipient, amount, \"\", \"\");\n\n       // _callTokensReceived(from, from, recipient, amount, \"\", \"\", false);\n\n        return true;\n    }\n\n    /**\n     * @dev See `IERC777.burn`.\n     *\n     * Also emits a `Transfer` event for ERC20 compatibility.\n     */\n    function burn(uint256 amount, bytes calldata data) external {\n        require(burningAllowed);\n        _burn(msg.sender, msg.sender, amount, data, \"\");\n    }\n\n    /**\n     * @dev See `IERC777.isOperatorFor`.\n     */\n    function isOperatorFor(\n        address operator,\n        address tokenHolder\n    ) public view returns (bool) {\n        return operator == tokenHolder ||\n            (_defaultOperators[operator] && !_revokedDefaultOperators[tokenHolder][operator]) ||\n            _operators[tokenHolder][operator];\n    }\n\n    /**\n     * @dev See `IERC777.authorizeOperator`.\n     */\n    function authorizeOperator(address operator) external {\n        require(msg.sender != operator, \"ERC777: authorizing self as operator\");\n\n        if (_defaultOperators[operator]) {\n            delete _revokedDefaultOperators[msg.sender][operator];\n        } else {\n            _operators[msg.sender][operator] = true;\n        }\n\n        emit AuthorizedOperator(operator, msg.sender);\n    }\n\n    /**\n     * @dev See `IERC777.revokeOperator`.\n     */\n    function revokeOperator(address operator) external {\n        require(operator != msg.sender, \"ERC777: revoking self as operator\");\n\n        if (_defaultOperators[operator]) {\n            _revokedDefaultOperators[msg.sender][operator] = true;\n        } else {\n            delete _operators[msg.sender][operator];\n        }\n\n        emit RevokedOperator(operator, msg.sender);\n    }\n\n    /**\n     * @dev See `IERC777.defaultOperators`.\n     */\n    function defaultOperators() public view returns (address[] memory) {\n        return _defaultOperatorsArray;\n    }\n\n    /**\n     * @dev See `IERC777.operatorSend`.\n     *\n     * Emits `Sent` and `Transfer` events.\n     */\n    function operatorSend(\n        address sender,\n        address recipient,\n        uint256 amount,\n        bytes calldata data,\n        bytes calldata operatorData\n    )\n    external\n    {\n        require(isOperatorFor(msg.sender, sender), \"ERC777: caller is not an operator for holder\");\n        _send(msg.sender, sender, recipient, amount, data, operatorData, true);\n    }\n\n    /**\n     * @dev See `IERC777.operatorBurn`.\n     *\n     * Emits `Sent` and `Transfer` events.\n     */\n    function operatorBurn(address account, uint256 amount, bytes calldata data, bytes calldata operatorData) external {\n        require(burningAllowed);\n        require(isOperatorFor(msg.sender, account), \"ERC777: caller is not an operator for holder\");\n        _burn(msg.sender, account, amount, data, operatorData);\n    }\n\n    /**\n     * @dev See `IERC20.allowance`.\n     *\n     * Note that operator and allowance concepts are orthogonal: operators may\n     * not have allowance, and accounts with allowance may not be operators\n     * themselves.\n     */\n    function allowance(address holder, address spender) public view returns (uint256) {\n        return _allowances[holder][spender];\n    }\n\n    /**\n     * @dev See `IERC20.approve`.\n     *\n     * Note that accounts cannot have allowance issued by their operators.\n     */\n    function approve(address spender, uint256 value) external returns (bool) {\n        address holder = msg.sender;\n        _approve(holder, spender, value);\n        return true;\n    }\n\n   /**\n    * @dev See `IERC20.transferFrom`.\n    *\n    * Note that operator and allowance concepts are orthogonal: operators cannot\n    * call `transferFrom` (unless they have allowance), and accounts with\n    * allowance cannot call `operatorSend` (unless they are operators).\n    *\n    * Emits `Sent` and `Transfer` events.\n    */\n    function transferFrom(address holder, address recipient, uint256 amount) external returns (bool) {\n        require(recipient != address(0), \"ERC777: transfer to the zero address\");\n        require(holder != address(0), \"ERC777: transfer from the zero address\");\n\n        address spender = msg.sender;\n\n        _callTokensToSend(spender, holder, recipient, amount, \"\", \"\");\n\n        _move(spender, holder, recipient, amount, \"\", \"\");\n        _approve(holder, spender, _allowances[holder][spender].sub(amount));\n\n        _callTokensReceived(spender, holder, recipient, amount, \"\", \"\", false);\n\n        return true;\n    }\n\n\n    /**\n     * @dev Send tokens\n     * @param operator address operator requesting the transfer\n     * @param from address token holder address\n     * @param to address recipient address\n     * @param amount uint256 amount of tokens to transfer\n     * @param userData bytes extra information provided by the token holder (if any)\n     * @param operatorData bytes extra information provided by the operator (if any)\n     * @param requireReceptionAck if true, contract recipients are required to implement ERC777TokensRecipient\n     */\n    function _send(\n        address operator,\n        address from,\n        address to,\n        uint256 amount,\n        bytes memory userData,\n        bytes memory operatorData,\n        bool requireReceptionAck\n    )\n        private\n    {\n        require(from != address(0), \"ERC777: send from the zero address\");\n        require(to != address(0), \"ERC777: send to the zero address\");\n\n        _callTokensToSend(operator, from, to, amount, userData, operatorData);\n\n        _move(operator, from, to, amount, userData, operatorData);\n\n        _callTokensReceived(operator, from, to, amount, userData, operatorData, requireReceptionAck);\n    }\n\n    /**\n     * @dev Burn tokens\n     * @param operator address operator requesting the operation\n     * @param from address token holder address\n     * @param amount uint256 amount of tokens to burn\n     * @param data bytes extra information provided by the token holder\n     * @param operatorData bytes extra information provided by the operator (if any)\n     */\n    function _burn(\n        address operator,\n        address from,\n        uint256 amount,\n        bytes memory data,\n        bytes memory operatorData\n    )\n        private\n    {\n        require(from != address(0), \"ERC777: burn from the zero address\");\n\n        _callTokensToSend(operator, from, address(0), amount, data, operatorData);\n\n        // Update state variables\n        _totalSupply = _totalSupply.sub(amount);\n        _balances[from] = _balances[from].sub(amount);\n\n        emit Burned(operator, from, amount, data, operatorData);\n        emit Transfer(from, address(0), amount);\n    }\n\n    function _move(\n        address operator,\n        address from,\n        address to,\n        uint256 amount,\n        bytes memory userData,\n        bytes memory operatorData\n    )\n        private\n    {\n        _balances[from] = _balances[from].sub(amount);\n        _balances[to] = _balances[to].add(amount);\n\n        emit Sent(operator, from, to, amount, userData, operatorData);\n        emit Transfer(from, to, amount);\n    }\n\n    function _approve(address holder, address spender, uint256 value) private {\n        // TODO: restore this require statement if this function becomes internal, or is called at a new callsite. It is\n        // currently unnecessary.\n        //require(holder != address(0), \"ERC777: approve from the zero address\");\n        require(spender != address(0), \"ERC777: approve to the zero address\");\n\n        _allowances[holder][spender] = value;\n        emit Approval(holder, spender, value);\n    }\n\n    /**\n     * @dev Call from.tokensToSend() if the interface is registered\n     * @param operator address operator requesting the transfer\n     * @param from address token holder address\n     * @param to address recipient address\n     * @param amount uint256 amount of tokens to transfer\n     * @param userData bytes extra information provided by the token holder (if any)\n     * @param operatorData bytes extra information provided by the operator (if any)\n     */\n    function _callTokensToSend(\n        address operator,\n        address from,\n        address to,\n        uint256 amount,\n        bytes memory userData,\n        bytes memory operatorData\n    )\n        private\n    {\n        require(!transfersPaused);\n        address implementer = _erc1820.getInterfaceImplementer(from, TOKENS_SENDER_INTERFACE_HASH);\n        if (implementer != address(0)) {\n            IERC777Sender(implementer).tokensToSend(operator, from, to, amount, userData, operatorData);\n        }\n    }\n\n    /**\n     * @dev Call to.tokensReceived() if the interface is registered. Reverts if the recipient is a contract but\n     * tokensReceived() was not registered for the recipient\n     * @param operator address operator requesting the transfer\n     * @param from address token holder address\n     * @param to address recipient address\n     * @param amount uint256 amount of tokens to transfer\n     * @param userData bytes extra information provided by the token holder (if any)\n     * @param operatorData bytes extra information provided by the operator (if any)\n     * @param requireReceptionAck if true, contract recipients are required to implement ERC777TokensRecipient\n     */\n    function _callTokensReceived(\n        address operator,\n        address from,\n        address to,\n        uint256 amount,\n        bytes memory userData,\n        bytes memory operatorData,\n        bool requireReceptionAck\n    )\n        private\n    {\n        require(!transfersPaused);\n        address implementer = _erc1820.getInterfaceImplementer(to, TOKENS_RECIPIENT_INTERFACE_HASH);\n        if (implementer != address(0)) {\n            IERC777Recipient(implementer).tokensReceived(operator, from, to, amount, userData, operatorData);\n        } else if (requireReceptionAck) {\n            require(!to.isContract(), \"ERC777: token recipient contract has no implementer for ERC777TokensRecipient\");\n        }\n    }\n\n\n    /**\n    * @notice Switch coordinating if burning tokens is allowed, burning is diabled by default\n    */\n    function changeBurnPermissions() external onlyOwners {\n        burningAllowed = !burningAllowed;\n    }\n\n    /**\n    * @notice Token allocation refers to how many tokens a user will gain from interacting with 'DocumentRegistration'\n    */\n    function setTokenAllocation(uint _newAllocation) external onlyOwners {\n        allocation = _newAllocation;\n    }\n\n    /**\n    * @dev Function can only be called by DocumentRegistration contract - Only way to get tokens\n    * @notice Sends number of tokens specified by 'allocation' to user\n    */\n    function distributeTokens(address account) external returns (bool) {\n        require(msg.sender == documentRegistrationAddress,\n        \"Only Document Registration contract can call this function\");\n        _balances[account] = _balances[account].add(allocation);\n        tokensLeft = tokensLeft.sub(allocation);\n        address from = msg.sender;\n        _callTokensReceived(from, from, account, allocation, \"\", \"\", false);\n        return true;\n    }\n\n    /**\n    * @dev Can only be called by 'FeePool' contract when dividend payout period is activated\n    * @notice Switch coordinating if transfers are currently allowed\n    */\n    function pauseTransfers() external onlyOwners {\n        require(msg.sender == feePoolAddress);\n        transfersPaused = !transfersPaused;\n    }\n\n\n    /**\n    * @notice Sets address of 'FeePool' contract\n    */\n    function setPoolAddress(address _contract) external onlyOwners {\n        feePoolAddress = _contract;\n    }\n\n\n    /**\n    * @notice Sets address of 'DocumentRegistration' contract\n    */\n    function setDocumentRegistration(address _contract) external onlyOwners {\n        documentRegistrationAddress = _contract;\n    }\n\n    function() external payable { revert(); }\n\n\n}\n",
  "sourcePath": "/Users/yakkomajuri/GitHub/bootcamp-finalproject/eth/contracts/CertfyToken.sol",
  "compiler": {
    "name": "solc",
    "version": "0.5.8+commit.23d335f2.Emscripten.clang"
  },
  "schemaVersion": "3.0.11",
  "updatedAt": "2019-07-30T11:43:21.883Z",
  "devdoc": {
    "methods": {}
  },
  "userdoc": {
    "methods": {}
  }
}