{
  "contractName": "Owners",
  "abi": [
    {
      "constant": true,
      "inputs": [
        {
          "name": "",
          "type": "address"
        }
      ],
      "name": "votesToRemove",
      "outputs": [
        {
          "name": "",
          "type": "uint8"
        }
      ],
      "payable": false,
      "stateMutability": "view",
      "type": "function"
    },
    {
      "constant": true,
      "inputs": [],
      "name": "numberOfVoters",
      "outputs": [
        {
          "name": "",
          "type": "uint8"
        }
      ],
      "payable": false,
      "stateMutability": "view",
      "type": "function"
    },
    {
      "constant": true,
      "inputs": [
        {
          "name": "",
          "type": "uint256"
        }
      ],
      "name": "addressesVotedOn",
      "outputs": [
        {
          "name": "",
          "type": "address"
        }
      ],
      "payable": false,
      "stateMutability": "view",
      "type": "function"
    },
    {
      "constant": true,
      "inputs": [
        {
          "name": "",
          "type": "address"
        }
      ],
      "name": "votesToAdd",
      "outputs": [
        {
          "name": "",
          "type": "uint8"
        }
      ],
      "payable": false,
      "stateMutability": "view",
      "type": "function"
    },
    {
      "inputs": [
        {
          "name": "_owner1",
          "type": "address"
        },
        {
          "name": "_owner2",
          "type": "address"
        }
      ],
      "payable": false,
      "stateMutability": "nonpayable",
      "type": "constructor"
    },
    {
      "constant": false,
      "inputs": [
        {
          "name": "_ad",
          "type": "address"
        }
      ],
      "name": "voteToAdd",
      "outputs": [],
      "payable": false,
      "stateMutability": "nonpayable",
      "type": "function"
    },
    {
      "constant": false,
      "inputs": [
        {
          "name": "_ad",
          "type": "address"
        }
      ],
      "name": "voteToRemove",
      "outputs": [],
      "payable": false,
      "stateMutability": "nonpayable",
      "type": "function"
    },
    {
      "constant": false,
      "inputs": [
        {
          "name": "_ad",
          "type": "address"
        },
        {
          "name": "_choice",
          "type": "uint8"
        }
      ],
      "name": "removeMyVote",
      "outputs": [],
      "payable": false,
      "stateMutability": "nonpayable",
      "type": "function"
    },
    {
      "constant": true,
      "inputs": [
        {
          "name": "_ad",
          "type": "address"
        }
      ],
      "name": "getOwners",
      "outputs": [
        {
          "name": "",
          "type": "bool"
        }
      ],
      "payable": false,
      "stateMutability": "view",
      "type": "function"
    }
  ],
  "bytecode": "0x608060405234801561001057600080fd5b5060405160408061164d8339810180604052604081101561003057600080fd5b81019080805190602001909291908051906020019092919050505060016000803373ffffffffffffffffffffffffffffffffffffffff1673ffffffffffffffffffffffffffffffffffffffff16815260200190815260200160002060006101000a81548160ff02191690831515021790555060016000808473ffffffffffffffffffffffffffffffffffffffff1673ffffffffffffffffffffffffffffffffffffffff16815260200190815260200160002060006101000a81548160ff02191690831515021790555060016000808373ffffffffffffffffffffffffffffffffffffffff1673ffffffffffffffffffffffffffffffffffffffff16815260200190815260200160002060006101000a81548160ff0219169083151502179055506003600660006101000a81548160ff021916908360ff16021790555050506114d08061017d6000396000f3fe608060405234801561001057600080fd5b50600436106100885760003560e01c8063bd0d14521161005b578063bd0d145214610197578063e271535314610205578063e65a5c6814610263578063fd8b84b1146102b457610088565b806369596d701461008d5780637727d3aa146100d1578063997c852f146101155780639bcc336114610173575b600080fd5b6100cf600480360360208110156100a357600080fd5b81019080803573ffffffffffffffffffffffffffffffffffffffff169060200190929190505050610310565b005b610113600480360360208110156100e757600080fd5b81019080803573ffffffffffffffffffffffffffffffffffffffff169060200190929190505050610715565b005b6101576004803603602081101561012b57600080fd5b81019080803573ffffffffffffffffffffffffffffffffffffffff169060200190929190505050610a42565b604051808260ff1660ff16815260200191505060405180910390f35b61017b610a62565b604051808260ff1660ff16815260200191505060405180910390f35b6101c3600480360360208110156101ad57600080fd5b8101908080359060200190929190505050610a75565b604051808273ffffffffffffffffffffffffffffffffffffffff1673ffffffffffffffffffffffffffffffffffffffff16815260200191505060405180910390f35b6102476004803603602081101561021b57600080fd5b81019080803573ffffffffffffffffffffffffffffffffffffffff169060200190929190505050610ab1565b604051808260ff1660ff16815260200191505060405180910390f35b6102b26004803603604081101561027957600080fd5b81019080803573ffffffffffffffffffffffffffffffffffffffff169060200190929190803560ff169060200190929190505050610ad1565b005b6102f6600480360360208110156102ca57600080fd5b81019080803573ffffffffffffffffffffffffffffffffffffffff169060200190929190505050610e74565b604051808215151515815260200191505060405180910390f35b6000803373ffffffffffffffffffffffffffffffffffffffff1673ffffffffffffffffffffffffffffffffffffffff16815260200190815260200160002060009054906101000a900460ff1661036557600080fd5b60001515600160003373ffffffffffffffffffffffffffffffffffffffff1673ffffffffffffffffffffffffffffffffffffffff16815260200190815260200160002060008373ffffffffffffffffffffffffffffffffffffffff1673ffffffffffffffffffffffffffffffffffffffff16815260200190815260200160002060009054906101000a900460ff16151514610468576040517f08c379a00000000000000000000000000000000000000000000000000000000081526004018080602001828103825260048152602001807f746869730000000000000000000000000000000000000000000000000000000081525060200191505060405180910390fd5b600015156000808373ffffffffffffffffffffffffffffffffffffffff1673ffffffffffffffffffffffffffffffffffffffff16815260200190815260200160002060009054906101000a900460ff1615151461052d576040517f08c379a00000000000000000000000000000000000000000000000000000000081526004018080602001828103825260048152602001807f746861740000000000000000000000000000000000000000000000000000000081525060200191505060405180910390fd5b60018060003373ffffffffffffffffffffffffffffffffffffffff1673ffffffffffffffffffffffffffffffffffffffff16815260200190815260200160002060008373ffffffffffffffffffffffffffffffffffffffff1673ffffffffffffffffffffffffffffffffffffffff16815260200190815260200160002060006101000a81548160ff021916908315150217905550600060ff16600360008373ffffffffffffffffffffffffffffffffffffffff1673ffffffffffffffffffffffffffffffffffffffff16815260200190815260200160002060009054906101000a900460ff1660ff16141561069a5760058190806001815401808255809150509060018203906000526020600020016000909192909190916101000a81548173ffffffffffffffffffffffffffffffffffffffff021916908373ffffffffffffffffffffffffffffffffffffffff16021790555050600f600580549050141561069957610698610ec9565b5b5b600360008273ffffffffffffffffffffffffffffffffffffffff1673ffffffffffffffffffffffffffffffffffffffff168152602001908152602001600020600081819054906101000a900460ff168092919060010191906101000a81548160ff021916908360ff1602179055505061071281611046565b50565b6000803373ffffffffffffffffffffffffffffffffffffffff1673ffffffffffffffffffffffffffffffffffffffff16815260200190815260200160002060009054906101000a900460ff1661076a57600080fd5b60001515600260003373ffffffffffffffffffffffffffffffffffffffff1673ffffffffffffffffffffffffffffffffffffffff16815260200190815260200160002060008373ffffffffffffffffffffffffffffffffffffffff1673ffffffffffffffffffffffffffffffffffffffff16815260200190815260200160002060009054906101000a900460ff1615151461080457600080fd5b6000808273ffffffffffffffffffffffffffffffffffffffff1673ffffffffffffffffffffffffffffffffffffffff16815260200190815260200160002060009054906101000a900460ff1661085957600080fd5b6001600260003373ffffffffffffffffffffffffffffffffffffffff1673ffffffffffffffffffffffffffffffffffffffff16815260200190815260200160002060008373ffffffffffffffffffffffffffffffffffffffff1673ffffffffffffffffffffffffffffffffffffffff16815260200190815260200160002060006101000a81548160ff021916908315150217905550600060ff16600460008373ffffffffffffffffffffffffffffffffffffffff1673ffffffffffffffffffffffffffffffffffffffff16815260200190815260200160002060009054906101000a900460ff1660ff1614156109c75760058190806001815401808255809150509060018203906000526020600020016000909192909190916101000a81548173ffffffffffffffffffffffffffffffffffffffff021916908373ffffffffffffffffffffffffffffffffffffffff16021790555050600f60058054905014156109c6576109c5610ec9565b5b5b600460008273ffffffffffffffffffffffffffffffffffffffff1673ffffffffffffffffffffffffffffffffffffffff168152602001908152602001600020600081819054906101000a900460ff168092919060010191906101000a81548160ff021916908360ff16021790555050610a3f81611140565b50565b60046020528060005260406000206000915054906101000a900460ff1681565b600660009054906101000a900460ff1681565b60058181548110610a8257fe5b906000526020600020016000915054906101000a900473ffffffffffffffffffffffffffffffffffffffff1681565b60036020528060005260406000206000915054906101000a900460ff1681565b6000803373ffffffffffffffffffffffffffffffffffffffff1673ffffffffffffffffffffffffffffffffffffffff16815260200190815260200160002060009054906101000a900460ff16610b2657600080fd5b60008160ff161415610ccb57600160003373ffffffffffffffffffffffffffffffffffffffff1673ffffffffffffffffffffffffffffffffffffffff16815260200190815260200160002060008373ffffffffffffffffffffffffffffffffffffffff1673ffffffffffffffffffffffffffffffffffffffff16815260200190815260200160002060009054906101000a900460ff16610bc557600080fd5b6000600160003373ffffffffffffffffffffffffffffffffffffffff1673ffffffffffffffffffffffffffffffffffffffff16815260200190815260200160002060008473ffffffffffffffffffffffffffffffffffffffff1673ffffffffffffffffffffffffffffffffffffffff16815260200190815260200160002060006101000a81548160ff021916908315150217905550600360008373ffffffffffffffffffffffffffffffffffffffff1673ffffffffffffffffffffffffffffffffffffffff168152602001908152602001600020600081819054906101000a900460ff16809291906001900391906101000a81548160ff021916908360ff160217905550505b60018160ff161415610e7057600260003373ffffffffffffffffffffffffffffffffffffffff1673ffffffffffffffffffffffffffffffffffffffff16815260200190815260200160002060008373ffffffffffffffffffffffffffffffffffffffff1673ffffffffffffffffffffffffffffffffffffffff16815260200190815260200160002060009054906101000a900460ff16610d6a57600080fd5b6000600260003373ffffffffffffffffffffffffffffffffffffffff1673ffffffffffffffffffffffffffffffffffffffff16815260200190815260200160002060008473ffffffffffffffffffffffffffffffffffffffff1673ffffffffffffffffffffffffffffffffffffffff16815260200190815260200160002060006101000a81548160ff021916908315150217905550600460008373ffffffffffffffffffffffffffffffffffffffff1673ffffffffffffffffffffffffffffffffffffffff168152602001908152602001600020600081819054906101000a900460ff16809291906001900391906101000a81548160ff021916908360ff160217905550505b5050565b60008060008373ffffffffffffffffffffffffffffffffffffffff1673ffffffffffffffffffffffffffffffffffffffff16815260200190815260200160002060009054906101000a900460ff169050919050565b60008090505b6005805490508110156110435760006003600060058481548110610eef57fe5b9060005260206000200160009054906101000a900473ffffffffffffffffffffffffffffffffffffffff1673ffffffffffffffffffffffffffffffffffffffff1673ffffffffffffffffffffffffffffffffffffffff16815260200190815260200160002060006101000a81548160ff021916908360ff16021790555060006004600060058481548110610f7f57fe5b9060005260206000200160009054906101000a900473ffffffffffffffffffffffffffffffffffffffff1673ffffffffffffffffffffffffffffffffffffffff1673ffffffffffffffffffffffffffffffffffffffff16815260200190815260200160002060006101000a81548160ff021916908360ff1602179055506005818154811061100957fe5b9060005260206000200160006101000a81549073ffffffffffffffffffffffffffffffffffffffff02191690558080600101915050610ecf565b50565b600660009054906101000a900460ff1660ff166002600360008473ffffffffffffffffffffffffffffffffffffffff1673ffffffffffffffffffffffffffffffffffffffff16815260200190815260200160002060009054906101000a900460ff160260ff16111561113c576001600660008282829054906101000a900460ff160192506101000a81548160ff021916908360ff16021790555060016000808373ffffffffffffffffffffffffffffffffffffffff1673ffffffffffffffffffffffffffffffffffffffff16815260200190815260200160002060006101000a81548160ff02191690831515021790555061113d565b5b50565b600660009054906101000a900460ff1660ff166002600460008473ffffffffffffffffffffffffffffffffffffffff1673ffffffffffffffffffffffffffffffffffffffff16815260200190815260200160002060009054906101000a900460ff160260ff16111561123f576001600660008282829054906101000a900460ff160392506101000a81548160ff021916908360ff16021790555060008060008373ffffffffffffffffffffffffffffffffffffffff1673ffffffffffffffffffffffffffffffffffffffff16815260200190815260200160002060006101000a81548160ff02191690831515021790555061123a81611243565b611240565b5b50565b600080600090505b60058054905081101561149f576005818154811061126557fe5b9060005260206000200160009054906101000a900473ffffffffffffffffffffffffffffffffffffffff169150600260008473ffffffffffffffffffffffffffffffffffffffff1673ffffffffffffffffffffffffffffffffffffffff16815260200190815260200160002060008373ffffffffffffffffffffffffffffffffffffffff1673ffffffffffffffffffffffffffffffffffffffff16815260200190815260200160002060009054906101000a900460ff161561139257600460008373ffffffffffffffffffffffffffffffffffffffff1673ffffffffffffffffffffffffffffffffffffffff168152602001908152602001600020600081819054906101000a900460ff16809291906001900391906101000a81548160ff021916908360ff160217905550505b600160008473ffffffffffffffffffffffffffffffffffffffff1673ffffffffffffffffffffffffffffffffffffffff16815260200190815260200160002060008373ffffffffffffffffffffffffffffffffffffffff1673ffffffffffffffffffffffffffffffffffffffff16815260200190815260200160002060009054906101000a900460ff161561149257600360008373ffffffffffffffffffffffffffffffffffffffff1673ffffffffffffffffffffffffffffffffffffffff168152602001908152602001600020600081819054906101000a900460ff16809291906001900391906101000a81548160ff021916908360ff160217905550505b808060010191505061124b565b50505056fea165627a7a7230582092c8b82761909974a84f4779420ff201745f89d8cfcee97389f5c961520896470029",
  "source": "pragma solidity^0.5.0;\n\ncontract Owners {\n    \n    modifier onlyOwners() {  \n        require(isOwner[msg.sender]);\n        _;\n    }\n    \n\n    constructor(address _owner1, address _owner2) public {\n        isOwner[msg.sender] = true;\n        isOwner[_owner1] = true;\n        isOwner[_owner2] = true;\n        numberOfVoters = 3;\n    }\n\n    mapping(address => bool) isOwner;\n    mapping(address => mapping(address => bool)) hasVotedToAdd;\n    mapping(address => mapping(address => bool)) hasVotedToRemove;\n    mapping(address => uint8) public votesToAdd;\n    mapping(address => uint8) public votesToRemove;\n    \n    address[] public addressesVotedOn;\n\n    uint8 public numberOfVoters;\n    \n    function voteToAdd(address _ad) public onlyOwners {\n        require(hasVotedToAdd[msg.sender][_ad] == false,\n        \"this\");\n        require(isOwner[_ad] == false,\n        \"that\");\n        hasVotedToAdd[msg.sender][_ad] = true;\n        if (votesToAdd[_ad] == uint8(0)) {\n            addressesVotedOn.push(_ad);\n        if (addressesVotedOn.length == 15) {\n                reset();\n            }\n        }\n        votesToAdd[_ad]++;\n        enoughVotesToAdd(_ad);\n    }\n    \n    function voteToRemove(address _ad) public onlyOwners {\n        require(hasVotedToRemove[msg.sender][_ad] == false);\n        require(isOwner[_ad]);\n        hasVotedToRemove[msg.sender][_ad] = true;\n        if (votesToRemove[_ad] == uint8(0)) {\n            addressesVotedOn.push(_ad);\n        if (addressesVotedOn.length == 15) {\n                reset();\n            }\n        }\n        votesToRemove[_ad]++;\n        enoughVotesToRemove(_ad);\n    } \n    \n    function removeMyVote(address _ad, uint8 _choice) public onlyOwners {\n        if (_choice == 0) {\n            require(hasVotedToAdd[msg.sender][_ad]);\n            hasVotedToAdd[msg.sender][_ad] = false;\n            votesToAdd[_ad]--;\n        }\n        if (_choice == 1) {\n            require(hasVotedToRemove[msg.sender][_ad]);\n            hasVotedToRemove[msg.sender][_ad] = false;\n            votesToRemove[_ad]--;\n        }\n    }\n    \n    function enoughVotesToAdd(address _ad) internal {\n        if (votesToAdd[_ad] * 2 > numberOfVoters) {\n            numberOfVoters += 1;\n            isOwner[_ad] = true;\n        }\n        else { }\n    }\n    \n    function enoughVotesToRemove(address _ad) internal {\n        if (votesToRemove[_ad] * 2 > numberOfVoters) {\n            numberOfVoters -= 1;\n            isOwner[_ad] = false;\n            removeOwnerVotes(_ad);\n        }\n        else { }\n    }\n    \n    function getOwners(address _ad) external view returns(bool) {\n        return isOwner[_ad];\n    }\n    \n    \n    function reset() internal {\n        for (uint i = 0; i < addressesVotedOn.length; i++) {\n            votesToAdd[addressesVotedOn[i]] = 0;\n            votesToRemove[addressesVotedOn[i]] = 0;\n            delete addressesVotedOn[i];\n        }\n    }\n    \n    function removeOwnerVotes(address _ad) internal {\n        address a;\n        for (uint i = 0; i < addressesVotedOn.length; i++) {\n            a = addressesVotedOn[i];\n            if (hasVotedToRemove[_ad][a]) {\n                votesToRemove[a]--;\n            }\n            if (hasVotedToAdd[_ad][a]){\n                votesToAdd[a]--;\n            }\n        }\n    }\n    \n}\n",
  "sourcePath": "/Users/yakkomajuri/GitHub/bootcamp-finalproject/eth/contracts/Owners.sol",
  "compiler": {
    "name": "solc",
    "version": "0.5.8+commit.23d335f2.Emscripten.clang"
  },
  "schemaVersion": "3.0.11",
  "updatedAt": "2019-07-28T23:14:37.798Z",
  "devdoc": {
    "methods": {}
  },
  "userdoc": {
    "methods": {}
  }
}