{
  "contractName": "Owners",
  "abi": [
    {
      "constant": true,
      "inputs": [
        {
          "name": "_ad",
          "type": "address"
        }
      ],
      "name": "getOwners",
      "outputs": [
        {
          "name": "",
          "type": "bool"
        }
      ],
      "payable": false,
      "stateMutability": "view",
      "type": "function"
    }
  ],
  "bytecode": "0x608060405234801561001057600080fd5b5060b98061001f6000396000f3fe6080604052348015600f57600080fd5b506004361060285760003560e01c8063fd8b84b114602d575b600080fd5b606c60048036036020811015604157600080fd5b81019080803573ffffffffffffffffffffffffffffffffffffffff1690602001909291905050506086565b604051808215151515815260200191505060405180910390f35b600091905056fea165627a7a72305820e5082305552770855894ccdc0f612e1a8866eed6700addbd81548f13d9158c270029",
  "source": "pragma solidity^0.5.0;\n\n\n/** \n * @title Proxy\n * @author Yakko Majuri\n * @notice A proxy implementation to allow for smart contract upgradability\n*/\n\n// Owners contract coordinates who can update the 'implementation' address\ncontract Owners {\n\n    function getOwners(address _ad) public view returns(bool) {}\n\n}\n\n/// @notice Proxy contract delegates (almost) all calls to the application smart contract\ncontract Proxy {\n\n    /// @notice Determines address of Owners Contract\n    constructor(address _ownerContract) public payable {\n        assembly {\n            /// @dev Store address at penultimate slot of storage stack to prevent collisions\n            sstore(0xfffffffffffffffffffffffffffffffffffffffe, _ownerContract)\n        }\n    }\n    \n    /// @notice Set the contract to receive the delegated call\n    function setImplementation(address _impl) public {\n        address cont;\n        Owners ownerContract;\n        assembly {\n            /// @dev Loads address of Owners contract from storage\n            cont := sload(0xfffffffffffffffffffffffffffffffffffffffe)\n        }\n        ownerContract = Owners(cont);\n        /// @dev Checks that the msg.sender is a desginated owner in Owners contract\n        require(ownerContract.getOwners(msg.sender));\n        assembly {\n            /// @dev Store implementation at last slot of storage stack\n            sstore(0xffffffffffffffffffffffffffffffffffffffff, _impl)\n        }\n    }\n\n    /// @notice Fallback function - Delegates call\n    function () external payable {\n        address localImpl;\n        assembly {\n            /// @dev Loads implementation address from storage\n            localImpl := sload(0xffffffffffffffffffffffffffffffffffffffff)\n        }\n        assembly {\n            let ptr := mload(0x40)\n            /// @dev Copies all data used to call the contract\n            calldatacopy(ptr, 0, calldatasize)\n            /// @dev Calls implementation contract and assigns the result to var 'result'\n            let result := delegatecall(gas, localImpl, ptr, calldatasize, 0, 0)\n            let size := returndatasize\n            \n            /// @dev Copies return data and stores it in Proxy contract\n            returndatacopy(ptr, 0, size)\n            switch result\n            case 0 { revert(ptr, size) }\n            default { return(ptr, size) }\n        }\n    }\n\n    /// @notice Informs what the current implementation address is\n    /// @return Returns address of current version of DocumentRegistration contract\n    function getImplementation() public view returns(address) {\n        address implementation;\n        assembly {\n            /// @notice Load implementation from its storage slot\n           implementation := sload(0xffffffffffffffffffffffffffffffffffffffff)\n        }\n        return implementation;\n    }\n\n}\n",
  "sourcePath": "/Users/yakkomajuri/GitHub/bootcamp-finalproject/eth/contracts/Proxy.sol",
  "compiler": {
    "name": "solc",
    "version": "0.5.8+commit.23d335f2.Emscripten.clang"
  },
  "schemaVersion": "3.0.11",
  "updatedAt": "2019-07-31T02:27:23.085Z",
  "devdoc": {
    "author": "Yakko Majuri",
    "methods": {},
    "title": "Proxy"
  },
  "userdoc": {
    "methods": {},
    "notice": "A proxy implementation to allow for smart contract upgradability"
  }
}