{
  "contractName": "Owners",
  "abi": [
    {
      "constant": true,
      "inputs": [
        {
          "name": "",
          "type": "address"
        }
      ],
      "name": "isOwner",
      "outputs": [
        {
          "name": "",
          "type": "bool"
        }
      ],
      "payable": false,
      "stateMutability": "view",
      "type": "function"
    },
    {
      "constant": true,
      "inputs": [
        {
          "name": "",
          "type": "address"
        }
      ],
      "name": "votesToRemove",
      "outputs": [
        {
          "name": "",
          "type": "uint8"
        }
      ],
      "payable": false,
      "stateMutability": "view",
      "type": "function"
    },
    {
      "constant": true,
      "inputs": [],
      "name": "numberOfVoters",
      "outputs": [
        {
          "name": "",
          "type": "uint8"
        }
      ],
      "payable": false,
      "stateMutability": "view",
      "type": "function"
    },
    {
      "constant": true,
      "inputs": [
        {
          "name": "",
          "type": "address"
        },
        {
          "name": "",
          "type": "address"
        }
      ],
      "name": "hasVotedToAdd",
      "outputs": [
        {
          "name": "",
          "type": "bool"
        }
      ],
      "payable": false,
      "stateMutability": "view",
      "type": "function"
    },
    {
      "constant": true,
      "inputs": [
        {
          "name": "",
          "type": "address"
        },
        {
          "name": "",
          "type": "address"
        }
      ],
      "name": "hasVotedToRemove",
      "outputs": [
        {
          "name": "",
          "type": "bool"
        }
      ],
      "payable": false,
      "stateMutability": "view",
      "type": "function"
    },
    {
      "constant": true,
      "inputs": [
        {
          "name": "",
          "type": "address"
        }
      ],
      "name": "votesToAdd",
      "outputs": [
        {
          "name": "",
          "type": "uint8"
        }
      ],
      "payable": false,
      "stateMutability": "view",
      "type": "function"
    },
    {
      "inputs": [
        {
          "name": "_owners",
          "type": "address[]"
        }
      ],
      "payable": false,
      "stateMutability": "nonpayable",
      "type": "constructor"
    },
    {
      "constant": false,
      "inputs": [
        {
          "name": "_ad",
          "type": "address"
        }
      ],
      "name": "voteToAdd",
      "outputs": [],
      "payable": false,
      "stateMutability": "nonpayable",
      "type": "function"
    },
    {
      "constant": false,
      "inputs": [
        {
          "name": "_ad",
          "type": "address"
        }
      ],
      "name": "voteToRemove",
      "outputs": [],
      "payable": false,
      "stateMutability": "nonpayable",
      "type": "function"
    },
    {
      "constant": false,
      "inputs": [
        {
          "name": "_ad",
          "type": "address"
        },
        {
          "name": "_choice",
          "type": "uint8"
        }
      ],
      "name": "removeMyVote",
      "outputs": [],
      "payable": false,
      "stateMutability": "nonpayable",
      "type": "function"
    },
    {
      "constant": true,
      "inputs": [
        {
          "name": "_ad",
          "type": "address"
        }
      ],
      "name": "getOwners",
      "outputs": [
        {
          "name": "",
          "type": "bool"
        }
      ],
      "payable": false,
      "stateMutability": "view",
      "type": "function"
    }
  ],
  "bytecode": "0x608060405234801561001057600080fd5b50604051620018a3380380620018a38339810180604052602081101561003557600080fd5b81019080805164010000000081111561004d57600080fd5b8281019050602081018481111561006357600080fd5b815185602082028301116401000000008211171561008057600080fd5b505092919050505060016000803373ffffffffffffffffffffffffffffffffffffffff1673ffffffffffffffffffffffffffffffffffffffff16815260200190815260200160002060006101000a81548160ff02191690831515021790555060008090505b81518110156101fb576000808383815181106100fd57fe5b602002602001015173ffffffffffffffffffffffffffffffffffffffff1673ffffffffffffffffffffffffffffffffffffffff16815260200190815260200160002060009054906101000a900460ff166101ee57600160008084848151811061016257fe5b602002602001015173ffffffffffffffffffffffffffffffffffffffff1673ffffffffffffffffffffffffffffffffffffffff16815260200190815260200160002060006101000a81548160ff0219169083151502179055506006600081819054906101000a900460ff168092919060010191906101000a81548160ff021916908360ff160217905550505b80806001019150506100e5565b5050611696806200020d6000396000f3fe608060405234801561001057600080fd5b506004361061009e5760003560e01c8063b2bb40ba11610066578063b2bb40ba14610209578063bdd4600414610285578063e271535314610301578063e65a5c681461035f578063fd8b84b1146103b05761009e565b80632f54bf6e146100a357806369596d70146100ff5780637727d3aa14610143578063997c852f146101875780639bcc3361146101e5575b600080fd5b6100e5600480360360208110156100b957600080fd5b81019080803573ffffffffffffffffffffffffffffffffffffffff16906020019092919050505061040c565b604051808215151515815260200191505060405180910390f35b6101416004803603602081101561011557600080fd5b81019080803573ffffffffffffffffffffffffffffffffffffffff16906020019092919050505061042c565b005b6101856004803603602081101561015957600080fd5b81019080803573ffffffffffffffffffffffffffffffffffffffff16906020019092919050505061082d565b005b6101c96004803603602081101561019d57600080fd5b81019080803573ffffffffffffffffffffffffffffffffffffffff169060200190929190505050610cae565b604051808260ff1660ff16815260200191505060405180910390f35b6101ed610cce565b604051808260ff1660ff16815260200191505060405180910390f35b61026b6004803603604081101561021f57600080fd5b81019080803573ffffffffffffffffffffffffffffffffffffffff169060200190929190803573ffffffffffffffffffffffffffffffffffffffff169060200190929190505050610ce1565b604051808215151515815260200191505060405180910390f35b6102e76004803603604081101561029b57600080fd5b81019080803573ffffffffffffffffffffffffffffffffffffffff169060200190929190803573ffffffffffffffffffffffffffffffffffffffff169060200190929190505050610d10565b604051808215151515815260200191505060405180910390f35b6103436004803603602081101561031757600080fd5b81019080803573ffffffffffffffffffffffffffffffffffffffff169060200190929190505050610d3f565b604051808260ff1660ff16815260200191505060405180910390f35b6103ae6004803603604081101561037557600080fd5b81019080803573ffffffffffffffffffffffffffffffffffffffff169060200190929190803560ff169060200190929190505050610d5f565b005b6103f2600480360360208110156103c657600080fd5b81019080803573ffffffffffffffffffffffffffffffffffffffff169060200190929190505050611112565b604051808215151515815260200191505060405180910390f35b60006020528060005260406000206000915054906101000a900460ff1681565b6000803373ffffffffffffffffffffffffffffffffffffffff1673ffffffffffffffffffffffffffffffffffffffff16815260200190815260200160002060009054906101000a900460ff1661048157600080fd5b601a600560003373ffffffffffffffffffffffffffffffffffffffff1673ffffffffffffffffffffffffffffffffffffffff16815260200190815260200160002080549050106104d057600080fd5b60001515600160003373ffffffffffffffffffffffffffffffffffffffff1673ffffffffffffffffffffffffffffffffffffffff16815260200190815260200160002060008373ffffffffffffffffffffffffffffffffffffffff1673ffffffffffffffffffffffffffffffffffffffff16815260200190815260200160002060009054906101000a900460ff161515146105b6576040517f08c379a000000000000000000000000000000000000000000000000000000000815260040180806020018281038252603081526020018061163b6030913960400191505060405180910390fd5b600015156000808373ffffffffffffffffffffffffffffffffffffffff1673ffffffffffffffffffffffffffffffffffffffff16815260200190815260200160002060009054906101000a900460ff1615151461067b576040517f08c379a000000000000000000000000000000000000000000000000000000000815260040180806020018281038252601e8152602001807f766f74696e672061646472657373206973206e6f7420616e206f776e6572000081525060200191505060405180910390fd5b60018060003373ffffffffffffffffffffffffffffffffffffffff1673ffffffffffffffffffffffffffffffffffffffff16815260200190815260200160002060008373ffffffffffffffffffffffffffffffffffffffff1673ffffffffffffffffffffffffffffffffffffffff16815260200190815260200160002060006101000a81548160ff021916908315150217905550600560003373ffffffffffffffffffffffffffffffffffffffff1673ffffffffffffffffffffffffffffffffffffffff1681526020019081526020016000208190806001815401808255809150509060018203906000526020600020016000909192909190916101000a81548173ffffffffffffffffffffffffffffffffffffffff021916908373ffffffffffffffffffffffffffffffffffffffff16021790555050600360008273ffffffffffffffffffffffffffffffffffffffff1673ffffffffffffffffffffffffffffffffffffffff168152602001908152602001600020600081819054906101000a900460ff168092919060010191906101000a81548160ff021916908360ff1602179055505061082a81611167565b50565b6000803373ffffffffffffffffffffffffffffffffffffffff1673ffffffffffffffffffffffffffffffffffffffff16815260200190815260200160002060009054906101000a900460ff1661088257600080fd5b601a600560003373ffffffffffffffffffffffffffffffffffffffff1673ffffffffffffffffffffffffffffffffffffffff168152602001908152602001600020805490501061093a576040517f08c379a00000000000000000000000000000000000000000000000000000000081526004018080602001828103825260128152602001807f766f7465206c696d69742072656163686564000000000000000000000000000081525060200191505060405180910390fd5b60001515600260003373ffffffffffffffffffffffffffffffffffffffff1673ffffffffffffffffffffffffffffffffffffffff16815260200190815260200160002060008373ffffffffffffffffffffffffffffffffffffffff1673ffffffffffffffffffffffffffffffffffffffff16815260200190815260200160002060009054906101000a900460ff16151514610a3d576040517f08c379a00000000000000000000000000000000000000000000000000000000081526004018080602001828103825260158152602001807f766f746520616c726561647920636f6d7075746564000000000000000000000081525060200191505060405180910390fd5b6000808273ffffffffffffffffffffffffffffffffffffffff1673ffffffffffffffffffffffffffffffffffffffff16815260200190815260200160002060009054906101000a900460ff16610afb576040517f08c379a00000000000000000000000000000000000000000000000000000000081526004018080602001828103825260128152602001807f766f746572206973206e6f74206f776e6572000000000000000000000000000081525060200191505060405180910390fd5b6001600260003373ffffffffffffffffffffffffffffffffffffffff1673ffffffffffffffffffffffffffffffffffffffff16815260200190815260200160002060008373ffffffffffffffffffffffffffffffffffffffff1673ffffffffffffffffffffffffffffffffffffffff16815260200190815260200160002060006101000a81548160ff021916908315150217905550600560003373ffffffffffffffffffffffffffffffffffffffff1673ffffffffffffffffffffffffffffffffffffffff1681526020019081526020016000208190806001815401808255809150509060018203906000526020600020016000909192909190916101000a81548173ffffffffffffffffffffffffffffffffffffffff021916908373ffffffffffffffffffffffffffffffffffffffff16021790555050600460008273ffffffffffffffffffffffffffffffffffffffff1673ffffffffffffffffffffffffffffffffffffffff168152602001908152602001600020600081819054906101000a900460ff168092919060010191906101000a81548160ff021916908360ff16021790555050610cab8161125c565b50565b60046020528060005260406000206000915054906101000a900460ff1681565b600660009054906101000a900460ff1681565b60016020528160005260406000206020528060005260406000206000915091509054906101000a900460ff1681565b60026020528160005260406000206020528060005260406000206000915091509054906101000a900460ff1681565b60036020528060005260406000206000915054906101000a900460ff1681565b6000803373ffffffffffffffffffffffffffffffffffffffff1673ffffffffffffffffffffffffffffffffffffffff16815260200190815260200160002060009054906101000a900460ff16610db457600080fd5b60028160ff1610610dc457600080fd5b60008160ff161415610f6957600160003373ffffffffffffffffffffffffffffffffffffffff1673ffffffffffffffffffffffffffffffffffffffff16815260200190815260200160002060008373ffffffffffffffffffffffffffffffffffffffff1673ffffffffffffffffffffffffffffffffffffffff16815260200190815260200160002060009054906101000a900460ff16610e6357600080fd5b6000600160003373ffffffffffffffffffffffffffffffffffffffff1673ffffffffffffffffffffffffffffffffffffffff16815260200190815260200160002060008473ffffffffffffffffffffffffffffffffffffffff1673ffffffffffffffffffffffffffffffffffffffff16815260200190815260200160002060006101000a81548160ff021916908315150217905550600360008373ffffffffffffffffffffffffffffffffffffffff1673ffffffffffffffffffffffffffffffffffffffff168152602001908152602001600020600081819054906101000a900460ff16809291906001900391906101000a81548160ff021916908360ff160217905550505b60018160ff16141561110e57600260003373ffffffffffffffffffffffffffffffffffffffff1673ffffffffffffffffffffffffffffffffffffffff16815260200190815260200160002060008373ffffffffffffffffffffffffffffffffffffffff1673ffffffffffffffffffffffffffffffffffffffff16815260200190815260200160002060009054906101000a900460ff1661100857600080fd5b6000600260003373ffffffffffffffffffffffffffffffffffffffff1673ffffffffffffffffffffffffffffffffffffffff16815260200190815260200160002060008473ffffffffffffffffffffffffffffffffffffffff1673ffffffffffffffffffffffffffffffffffffffff16815260200190815260200160002060006101000a81548160ff021916908315150217905550600460008373ffffffffffffffffffffffffffffffffffffffff1673ffffffffffffffffffffffffffffffffffffffff168152602001908152602001600020600081819054906101000a900460ff16809291906001900391906101000a81548160ff021916908360ff160217905550505b5050565b60008060008373ffffffffffffffffffffffffffffffffffffffff1673ffffffffffffffffffffffffffffffffffffffff16815260200190815260200160002060009054906101000a900460ff169050919050565b600660009054906101000a900460ff1660ff166002600360008473ffffffffffffffffffffffffffffffffffffffff1673ffffffffffffffffffffffffffffffffffffffff16815260200190815260200160002060009054906101000a900460ff160260ff161115611259576001600660008282829054906101000a900460ff160192506101000a81548160ff021916908360ff16021790555060016000808373ffffffffffffffffffffffffffffffffffffffff1673ffffffffffffffffffffffffffffffffffffffff16815260200190815260200160002060006101000a81548160ff0219169083151502179055505b50565b600660009054906101000a900460ff1660ff166002600460008473ffffffffffffffffffffffffffffffffffffffff1673ffffffffffffffffffffffffffffffffffffffff16815260200190815260200160002060009054906101000a900460ff160260ff16111561135b576001600660008282829054906101000a900460ff160392506101000a81548160ff021916908360ff16021790555060008060008373ffffffffffffffffffffffffffffffffffffffff1673ffffffffffffffffffffffffffffffffffffffff16815260200190815260200160002060006101000a81548160ff0219169083151502179055506113568161135f565b61135c565b5b50565b600080600090505b600560008473ffffffffffffffffffffffffffffffffffffffff1673ffffffffffffffffffffffffffffffffffffffff1681526020019081526020016000208054905081101561163557600560008473ffffffffffffffffffffffffffffffffffffffff1673ffffffffffffffffffffffffffffffffffffffff16815260200190815260200160002081815481106113fb57fe5b9060005260206000200160009054906101000a900473ffffffffffffffffffffffffffffffffffffffff169150600260008473ffffffffffffffffffffffffffffffffffffffff1673ffffffffffffffffffffffffffffffffffffffff16815260200190815260200160002060008373ffffffffffffffffffffffffffffffffffffffff1673ffffffffffffffffffffffffffffffffffffffff16815260200190815260200160002060009054906101000a900460ff161561152857600460008373ffffffffffffffffffffffffffffffffffffffff1673ffffffffffffffffffffffffffffffffffffffff168152602001908152602001600020600081819054906101000a900460ff16809291906001900391906101000a81548160ff021916908360ff160217905550505b600160008473ffffffffffffffffffffffffffffffffffffffff1673ffffffffffffffffffffffffffffffffffffffff16815260200190815260200160002060008373ffffffffffffffffffffffffffffffffffffffff1673ffffffffffffffffffffffffffffffffffffffff16815260200190815260200160002060009054906101000a900460ff161561162857600360008373ffffffffffffffffffffffffffffffffffffffff1673ffffffffffffffffffffffffffffffffffffffff168152602001908152602001600020600081819054906101000a900460ff16809291906001900391906101000a81548160ff021916908360ff160217905550505b8080600101915050611367565b50505056fe6d73672e73656e6465722068617320616c726561647920766f74656420746f2061646420746869732061646472657373a165627a7a723058200696b7536a776a295af29d127ca691d9da6d370d144d0be1fd66aee2a075253c0029",
  "source": "pragma solidity^0.5.0;\n\n/**\n * @title Owners\n * @author Yakko Majuri\n * @notice A fluid consensus model to coordinate all restricted functions in Certfy's contracts\n * @notice Owners are in a constant state of election\n*/\n\ncontract Owners {\n\n    // Keeps track of all owners\n    mapping(address => bool) public isOwner;\n\n    // Keeps track of who each address voted for\n    mapping(address => mapping(address => bool)) public hasVotedToAdd;\n    mapping(address => mapping(address => bool)) public hasVotedToRemove;\n\n    // Keeps track of the number of votes an address has received (to be added or removed)\n    mapping(address => uint8) public votesToAdd;\n    mapping(address => uint8) public votesToRemove;\n\n    /// @notice Keeps track of all addresses that an owner has voted for. \n    /// @dev Once the array reaches 25 addresses the address must remove a vote before voting again\n    /// This is used to allow for an iterable store of addresses that is used to remove\n    /// all votes from a specific address if the address is removed from its position as owner\n    mapping(address => address[]) addressesVotedOn;\n\n    /// How many addresses are currently owners\n    uint8 public numberOfVoters;\n    \n    // Restricts certain functions to owners only\n    modifier onlyOwners() {  \n        require(isOwner[msg.sender]);\n        _;\n    }\n    \n\n    /** \n     * @notice Establishes the first 'owner' addresses\n     * @dev Ensures that number of voters corresponds to the number of \n     * distinct addresses in _owners array\n    */\n    constructor(address[] memory _owners) public {\n        isOwner[msg.sender] = true;\n        for (uint i = 0; i < _owners.length; i++) {\n            if (!isOwner[_owners[i]]) {\n                isOwner[_owners[i]] = true;\n                numberOfVoters++;\n            }\n        }\n    }\n    \n    /** \n     * @notice Owners can vote to add new owners\n     * @param _ad Address to be voted on\n     * @dev Check if address has already voted to add that specific address\n     * @dev Check if address voting is an owner\n     * @dev Check if address receiving vote is not an owner\n     * @dev Check if simple majority was reached after every vote and add address if \n     * majority reached\n    */\n    function voteToAdd(address _ad) public onlyOwners {\n        require(addressesVotedOn[msg.sender].length < 26);\n        require(hasVotedToAdd[msg.sender][_ad] == false,\n        \"msg.sender has already voted to add this address\");\n        require(isOwner[_ad] == false,\n        \"voting address is not an owner\");\n        hasVotedToAdd[msg.sender][_ad] = true;\n        addressesVotedOn[msg.sender].push(_ad);\n        votesToAdd[_ad]++;\n        enoughVotesToAdd(_ad);\n    }\n    \n    /** \n     * @notice Owners can vote to remove new owners\n     * @param _ad Address to be voted on\n     * @dev Check if address has already voted to add that specific address\n     * @dev Check if address voting is an owner\n     * @dev Check if address receiving vote is an owner\n     * @dev Check if simple majority was reached after every vote and remove address if \n     * majority reached\n    */\n    function voteToRemove(address _ad) public onlyOwners {\n        require(addressesVotedOn[msg.sender].length < 26,\n        \"vote limit reached\");\n        require(hasVotedToRemove[msg.sender][_ad] == false,\n        \"vote already computed\");\n        require(isOwner[_ad],\n        \"voter is not owner\");\n        hasVotedToRemove[msg.sender][_ad] = true;\n        addressesVotedOn[msg.sender].push(_ad);\n        votesToRemove[_ad]++;\n        enoughVotesToRemove(_ad);\n    } \n    \n    /** \n     * @notice The \"Change your Mind\" function\n     * @notice Allows users to turn back on their decision and remove a specific vote\n     * @param _ad Address to remove vote for\n     * @param _choice 0 to remove vote to add address, 1 to remove vote to remove\n    */\n    function removeMyVote(address _ad, uint8 _choice) public onlyOwners {\n        require(_choice < 2);\n        if (_choice == 0) {\n            require(hasVotedToAdd[msg.sender][_ad]);\n            hasVotedToAdd[msg.sender][_ad] = false;\n            votesToAdd[_ad]--;\n        }\n        if (_choice == 1) {\n            require(hasVotedToRemove[msg.sender][_ad]);\n            hasVotedToRemove[msg.sender][_ad] = false;\n            votesToRemove[_ad]--;\n        }\n    }\n    \n    /** \n     * @notice Internal function called after every voteToAdd function call\n     * @notice If enough votes (simple majority) are reached, add address as owner\n    */\n    function enoughVotesToAdd(address _ad) internal {\n        if (votesToAdd[_ad] * 2 > numberOfVoters) {\n            numberOfVoters += 1;\n            isOwner[_ad] = true;\n        }\n    }\n    \n    /** \n     * @notice Internal function called after every voteToRemove function call\n     * @notice If enough votes (simple majority) are reached, remove address as owner\n    */\n    function enoughVotesToRemove(address _ad) internal {\n        if (votesToRemove[_ad] * 2 > numberOfVoters) {\n            numberOfVoters -= 1;\n            isOwner[_ad] = false;\n            removeOwnerVotes(_ad);\n        }\n        else { }\n    }\n    \n    /** \n     * @notice Tells if address _ad is owner\n     * @param _ad Any address\n     * @return Boolean specifying if _ad is owner\n    */\n    function getOwners(address _ad) external view returns(bool) {\n        return isOwner[_ad];\n    }\n    \n    \n    /** \n     * @notice Removes all votes from a removed owner\n     * @dev Iterates through all addresses the owner voted on and removes the votes\n    */\n    function removeOwnerVotes(address _ad) internal {\n        address a;\n        for (uint i = 0; i < addressesVotedOn[_ad].length; i++) {\n            a = addressesVotedOn[_ad][i];\n            if (hasVotedToRemove[_ad][a]) {\n                votesToRemove[a]--;\n            }\n            if (hasVotedToAdd[_ad][a]){\n                votesToAdd[a]--;\n            }\n        }\n    }\n    \n}\n",
  "sourcePath": "/Users/yakkomajuri/GitHub/bootcamp-finalproject/eth/contracts/Owners.sol",
  "compiler": {
    "name": "solc",
    "version": "0.5.8+commit.23d335f2.Emscripten.clang"
  },
  "schemaVersion": "3.0.11",
  "updatedAt": "2019-07-30T18:53:18.791Z",
  "devdoc": {
    "author": "Yakko Majuri",
    "methods": {
      "constructor": {
        "details": "Ensures that number of voters corresponds to the number of  distinct addresses in _owners array"
      },
      "getOwners(address)": {
        "params": {
          "_ad": "Any address"
        },
        "return": "Boolean specifying if _ad is owner"
      },
      "removeMyVote(address,uint8)": {
        "params": {
          "_ad": "Address to remove vote for",
          "_choice": "0 to remove vote to add address, 1 to remove vote to remove"
        }
      },
      "voteToAdd(address)": {
        "details": "Check if address has already voted to add that specific addressCheck if address voting is an ownerCheck if address receiving vote is not an ownerCheck if simple majority was reached after every vote and add address if  majority reached",
        "params": {
          "_ad": "Address to be voted on"
        }
      },
      "voteToRemove(address)": {
        "details": "Check if address has already voted to add that specific addressCheck if address voting is an ownerCheck if address receiving vote is an ownerCheck if simple majority was reached after every vote and remove address if  majority reached",
        "params": {
          "_ad": "Address to be voted on"
        }
      }
    },
    "title": "Owners"
  },
  "userdoc": {
    "methods": {
      "constructor": "Establishes the first 'owner' addresses",
      "getOwners(address)": {
        "notice": "Tells if address _ad is owner"
      },
      "removeMyVote(address,uint8)": {
        "notice": "The \"Change your Mind\" functionAllows users to turn back on their decision and remove a specific vote"
      },
      "voteToAdd(address)": {
        "notice": "Owners can vote to add new owners"
      },
      "voteToRemove(address)": {
        "notice": "Owners can vote to remove new owners"
      }
    },
    "notice": "A fluid consensus model to coordinate all restricted functions in Certfy's contractsOwners are in a constant state of election"
  }
}