{
  "contractName": "Proxy",
  "abi": [
    {
      "inputs": [
        {
          "name": "_ownerContract",
          "type": "address"
        }
      ],
      "payable": true,
      "stateMutability": "payable",
      "type": "constructor"
    },
    {
      "payable": true,
      "stateMutability": "payable",
      "type": "fallback"
    },
    {
      "constant": false,
      "inputs": [
        {
          "name": "_impl",
          "type": "address"
        }
      ],
      "name": "setImplementation",
      "outputs": [],
      "payable": false,
      "stateMutability": "nonpayable",
      "type": "function"
    },
    {
      "constant": true,
      "inputs": [],
      "name": "getImplementation",
      "outputs": [
        {
          "name": "",
          "type": "address"
        }
      ],
      "payable": false,
      "stateMutability": "view",
      "type": "function"
    }
  ],
  "bytecode": "0x60806040526040516020806102b68339810180604052602081101561002357600080fd5b81019080805190602001909291905050508073fffffffffffffffffffffffffffffffffffffffe555061025b8061005b6000396000f3fe6080604052600436106100295760003560e01c8063aaf10f421461006a578063d784d426146100c1575b600073ffffffffffffffffffffffffffffffffffffffff54905060405136600082376000803683855af43d806000843e8160008114610066578184f35b8184fd5b34801561007657600080fd5b5061007f610112565b604051808273ffffffffffffffffffffffffffffffffffffffff1673ffffffffffffffffffffffffffffffffffffffff16815260200191505060405180910390f35b3480156100cd57600080fd5b50610110600480360360208110156100e457600080fd5b81019080803573ffffffffffffffffffffffffffffffffffffffff169060200190929190505050610134565b005b60008073ffffffffffffffffffffffffffffffffffffffff5490508091505090565b60008073fffffffffffffffffffffffffffffffffffffffe5491508190508073ffffffffffffffffffffffffffffffffffffffff1663fd8b84b1336040518263ffffffff1660e01b8152600401808273ffffffffffffffffffffffffffffffffffffffff1673ffffffffffffffffffffffffffffffffffffffff16815260200191505060206040518083038186803b1580156101cf57600080fd5b505afa1580156101e3573d6000803e3d6000fd5b505050506040513d60208110156101f957600080fd5b810190808051906020019092919050505061021357600080fd5b8273ffffffffffffffffffffffffffffffffffffffff5550505056fea165627a7a7230582051f85fe5e657cfea891f8e967d3ae5b06d5fd26c6c5849391182b3a615a43ef30029",
  "source": "pragma solidity^0.5.0;\n\n\n/** \n * @title Proxy\n * @author Yakko Majuri\n * @notice A proxy implementation to allow for smart contract upgradability\n*/\n\n// Owners contract coordinates who can update the 'implementation' address\ncontract Owners {\n\n    function getOwners(address _ad) public view returns(bool) {}\n\n}\n\n/// @notice Proxy contract delegates (almost) all calls to the application smart contract\ncontract Proxy {\n\n    /// @notice Determines address of Owners Contract\n    constructor(address _ownerContract) public payable {\n        assembly {\n            /// @dev Store address at penultimate slot of storage stack to prevent collisions\n            sstore(0xfffffffffffffffffffffffffffffffffffffffe, _ownerContract)\n        }\n    }\n    \n    /// @notice Set the contract to receive the delegated call\n    function setImplementation(address _impl) public {\n        address cont;\n        Owners ownerContract;\n        assembly {\n            /// @dev Loads address of Owners contract from storage\n            cont := sload(0xfffffffffffffffffffffffffffffffffffffffe)\n        }\n        ownerContract = Owners(cont);\n        /// @dev Checks that the msg.sender is a desginated owner in Owners contract\n        require(ownerContract.getOwners(msg.sender));\n        assembly {\n            /// @dev Store implementation at last slot of storage stack\n            sstore(0xffffffffffffffffffffffffffffffffffffffff, _impl)\n        }\n    }\n\n    /// @notice Fallback function - Delegates call\n    function () external payable {\n        address localImpl;\n        assembly {\n            /// @dev Loads implementation address from storage\n            localImpl := sload(0xffffffffffffffffffffffffffffffffffffffff)\n        }\n        assembly {\n            let ptr := mload(0x40)\n            /// @dev Copies all data used to call the contract\n            calldatacopy(ptr, 0, calldatasize)\n            /// @dev Calls implementation contract and assigns the result to var 'result'\n            let result := delegatecall(gas, localImpl, ptr, calldatasize, 0, 0)\n            let size := returndatasize\n            \n            /// @dev Copies return data and stores it in Proxy contract\n            returndatacopy(ptr, 0, size)\n            switch result\n            case 0 { revert(ptr, size) }\n            default { return(ptr, size) }\n        }\n    }\n\n    /// @notice Informs what the current implementation address is\n    /// @return Returns address of current version of DocumentRegistration contract\n    function getImplementation() public view returns(address) {\n        address implementation;\n        assembly {\n            /// @notice Load implementation from its storage slot\n           implementation := sload(0xffffffffffffffffffffffffffffffffffffffff)\n        }\n        return implementation;\n    }\n\n}\n",
  "sourcePath": "/Users/yakkomajuri/GitHub/bootcamp-finalproject/eth/contracts/Proxy.sol",
  "compiler": {
    "name": "solc",
    "version": "0.5.8+commit.23d335f2.Emscripten.clang"
  },
  "schemaVersion": "3.0.11",
  "updatedAt": "2019-07-31T06:09:22.899Z",
  "devdoc": {
    "methods": {
      "getImplementation()": {
        "return": "Returns address of current version of DocumentRegistration contract"
      }
    }
  },
  "userdoc": {
    "methods": {
      "constructor": "Determines address of Owners Contract",
      "getImplementation()": {
        "notice": "Informs what the current implementation address is"
      },
      "setImplementation(address)": {
        "notice": "Set the contract to receive the delegated call"
      }
    },
    "notice": "Proxy contract delegates (almost) all calls to the application smart contract"
  }
}