{
  "contractName": "Storage",
  "abi": [
    {
      "constant": true,
      "inputs": [
        {
          "name": "",
          "type": "bytes32"
        }
      ],
      "name": "temporaryRegistry",
      "outputs": [
        {
          "name": "name",
          "type": "string"
        },
        {
          "name": "metadata",
          "type": "string"
        },
        {
          "name": "timestamp",
          "type": "uint256"
        },
        {
          "name": "registrant",
          "type": "address"
        },
        {
          "name": "signee",
          "type": "address"
        },
        {
          "name": "hash",
          "type": "bytes32"
        },
        {
          "name": "isEntity",
          "type": "bool"
        }
      ],
      "payable": false,
      "stateMutability": "view",
      "type": "function"
    },
    {
      "constant": true,
      "inputs": [
        {
          "name": "",
          "type": "address"
        },
        {
          "name": "",
          "type": "uint32"
        }
      ],
      "name": "userDocs",
      "outputs": [
        {
          "name": "name",
          "type": "string"
        },
        {
          "name": "metadata",
          "type": "string"
        },
        {
          "name": "timestamp",
          "type": "uint256"
        },
        {
          "name": "registrant",
          "type": "address"
        },
        {
          "name": "signee",
          "type": "address"
        },
        {
          "name": "hash",
          "type": "bytes32"
        },
        {
          "name": "isEntity",
          "type": "bool"
        }
      ],
      "payable": false,
      "stateMutability": "view",
      "type": "function"
    },
    {
      "constant": true,
      "inputs": [],
      "name": "tokenContract",
      "outputs": [
        {
          "name": "",
          "type": "address"
        }
      ],
      "payable": false,
      "stateMutability": "view",
      "type": "function"
    },
    {
      "constant": true,
      "inputs": [
        {
          "name": "",
          "type": "uint256"
        }
      ],
      "name": "registrants",
      "outputs": [
        {
          "name": "name",
          "type": "string"
        },
        {
          "name": "description",
          "type": "string"
        },
        {
          "name": "user",
          "type": "address"
        },
        {
          "name": "isEntity",
          "type": "bool"
        }
      ],
      "payable": false,
      "stateMutability": "view",
      "type": "function"
    },
    {
      "constant": true,
      "inputs": [
        {
          "name": "",
          "type": "bytes32"
        }
      ],
      "name": "registry",
      "outputs": [
        {
          "name": "name",
          "type": "string"
        },
        {
          "name": "metadata",
          "type": "string"
        },
        {
          "name": "timestamp",
          "type": "uint256"
        },
        {
          "name": "registrant",
          "type": "address"
        },
        {
          "name": "signee",
          "type": "address"
        },
        {
          "name": "hash",
          "type": "bytes32"
        },
        {
          "name": "isEntity",
          "type": "bool"
        }
      ],
      "payable": false,
      "stateMutability": "view",
      "type": "function"
    },
    {
      "constant": true,
      "inputs": [],
      "name": "ownerContract",
      "outputs": [
        {
          "name": "",
          "type": "address"
        }
      ],
      "payable": false,
      "stateMutability": "view",
      "type": "function"
    },
    {
      "constant": true,
      "inputs": [
        {
          "name": "",
          "type": "address"
        }
      ],
      "name": "verifiedAddress",
      "outputs": [
        {
          "name": "name",
          "type": "string"
        },
        {
          "name": "description",
          "type": "string"
        },
        {
          "name": "user",
          "type": "address"
        },
        {
          "name": "isEntity",
          "type": "bool"
        }
      ],
      "payable": false,
      "stateMutability": "view",
      "type": "function"
    },
    {
      "constant": true,
      "inputs": [],
      "name": "current",
      "outputs": [
        {
          "name": "",
          "type": "address"
        }
      ],
      "payable": false,
      "stateMutability": "view",
      "type": "function"
    },
    {
      "constant": true,
      "inputs": [],
      "name": "feePoolContract",
      "outputs": [
        {
          "name": "",
          "type": "address"
        }
      ],
      "payable": false,
      "stateMutability": "view",
      "type": "function"
    },
    {
      "constant": true,
      "inputs": [
        {
          "name": "",
          "type": "uint256"
        }
      ],
      "name": "prices",
      "outputs": [
        {
          "name": "",
          "type": "uint256"
        }
      ],
      "payable": false,
      "stateMutability": "view",
      "type": "function"
    },
    {
      "constant": true,
      "inputs": [
        {
          "name": "",
          "type": "uint256"
        }
      ],
      "name": "documents",
      "outputs": [
        {
          "name": "name",
          "type": "string"
        },
        {
          "name": "metadata",
          "type": "string"
        },
        {
          "name": "timestamp",
          "type": "uint256"
        },
        {
          "name": "registrant",
          "type": "address"
        },
        {
          "name": "signee",
          "type": "address"
        },
        {
          "name": "hash",
          "type": "bytes32"
        },
        {
          "name": "isEntity",
          "type": "bool"
        }
      ],
      "payable": false,
      "stateMutability": "view",
      "type": "function"
    },
    {
      "constant": true,
      "inputs": [
        {
          "name": "",
          "type": "address"
        }
      ],
      "name": "docsPerUser",
      "outputs": [
        {
          "name": "",
          "type": "uint32"
        }
      ],
      "payable": false,
      "stateMutability": "view",
      "type": "function"
    },
    {
      "constant": true,
      "inputs": [
        {
          "name": "",
          "type": "uint256"
        }
      ],
      "name": "temporaryDocs",
      "outputs": [
        {
          "name": "name",
          "type": "string"
        },
        {
          "name": "metadata",
          "type": "string"
        },
        {
          "name": "timestamp",
          "type": "uint256"
        },
        {
          "name": "registrant",
          "type": "address"
        },
        {
          "name": "signee",
          "type": "address"
        },
        {
          "name": "hash",
          "type": "bytes32"
        },
        {
          "name": "isEntity",
          "type": "bool"
        }
      ],
      "payable": false,
      "stateMutability": "view",
      "type": "function"
    },
    {
      "anonymous": false,
      "inputs": [
        {
          "indexed": false,
          "name": "index",
          "type": "uint256"
        }
      ],
      "name": "LogDocumentIndex",
      "type": "event"
    },
    {
      "anonymous": false,
      "inputs": [
        {
          "indexed": false,
          "name": "index",
          "type": "uint256"
        }
      ],
      "name": "LogTemporaryIndex",
      "type": "event"
    }
  ],
  "bytecode": "0x608060405234801561001057600080fd5b50611a6a806100206000396000f3fe608060405234801561001057600080fd5b50600436106100cf5760003560e01c806393d4457a1161008c578063bc31c1c111610066578063bc31c1c114610990578063c2ed2b05146109d2578063c62c8ce714610b64578063fde628a214610bc8576100cf565b806393d4457a146107955780639fa6a6e3146108fc578063ac8aff3714610946576100cf565b806345675464146100d45780634655948b1461026657806355a373d61461041e5780636ac4d582146104685780637ef50298146105b95780637f74ac151461074b575b600080fd5b610100600480360360208110156100ea57600080fd5b8101908080359060200190929190505050610d5a565b6040518080602001806020018881526020018773ffffffffffffffffffffffffffffffffffffffff1673ffffffffffffffffffffffffffffffffffffffff1681526020018673ffffffffffffffffffffffffffffffffffffffff1673ffffffffffffffffffffffffffffffffffffffff1681526020018581526020018415151515815260200183810383528a818151815260200191508051906020019080838360005b838110156101be5780820151818401526020810190506101a3565b50505050905090810190601f1680156101eb5780820380516001836020036101000a031916815260200191505b50838103825289818151815260200191508051906020019080838360005b83811015610224578082015181840152602081019050610209565b50505050905090810190601f1680156102515780820380516001836020036101000a031916815260200191505b50995050505050505050505060405180910390f35b6102b86004803603604081101561027c57600080fd5b81019080803573ffffffffffffffffffffffffffffffffffffffff169060200190929190803563ffffffff169060200190929190505050610f19565b6040518080602001806020018881526020018773ffffffffffffffffffffffffffffffffffffffff1673ffffffffffffffffffffffffffffffffffffffff1681526020018673ffffffffffffffffffffffffffffffffffffffff1673ffffffffffffffffffffffffffffffffffffffff1681526020018581526020018415151515815260200183810383528a818151815260200191508051906020019080838360005b8381101561037657808201518184015260208101905061035b565b50505050905090810190601f1680156103a35780820380516001836020036101000a031916815260200191505b50838103825289818151815260200191508051906020019080838360005b838110156103dc5780820151818401526020810190506103c1565b50505050905090810190601f1680156104095780820380516001836020036101000a031916815260200191505b50995050505050505050505060405180910390f35b6104266110e5565b604051808273ffffffffffffffffffffffffffffffffffffffff1673ffffffffffffffffffffffffffffffffffffffff16815260200191505060405180910390f35b6104946004803603602081101561047e57600080fd5b810190808035906020019092919050505061110a565b6040518080602001806020018573ffffffffffffffffffffffffffffffffffffffff1673ffffffffffffffffffffffffffffffffffffffff16815260200184151515158152602001838103835287818151815260200191508051906020019080838360005b838110156105145780820151818401526020810190506104f9565b50505050905090810190601f1680156105415780820380516001836020036101000a031916815260200191505b50838103825286818151815260200191508051906020019080838360005b8381101561057a57808201518184015260208101905061055f565b50505050905090810190601f1680156105a75780820380516001836020036101000a031916815260200191505b50965050505050505060405180910390f35b6105e5600480360360208110156105cf57600080fd5b81019080803590602001909291905050506112a4565b6040518080602001806020018881526020018773ffffffffffffffffffffffffffffffffffffffff1673ffffffffffffffffffffffffffffffffffffffff1681526020018673ffffffffffffffffffffffffffffffffffffffff1673ffffffffffffffffffffffffffffffffffffffff1681526020018581526020018415151515815260200183810383528a818151815260200191508051906020019080838360005b838110156106a3578082015181840152602081019050610688565b50505050905090810190601f1680156106d05780820380516001836020036101000a031916815260200191505b50838103825289818151815260200191508051906020019080838360005b838110156107095780820151818401526020810190506106ee565b50505050905090810190601f1680156107365780820380516001836020036101000a031916815260200191505b50995050505050505050505060405180910390f35b610753611463565b604051808273ffffffffffffffffffffffffffffffffffffffff1673ffffffffffffffffffffffffffffffffffffffff16815260200191505060405180910390f35b6107d7600480360360208110156107ab57600080fd5b81019080803573ffffffffffffffffffffffffffffffffffffffff169060200190929190505050611489565b6040518080602001806020018573ffffffffffffffffffffffffffffffffffffffff1673ffffffffffffffffffffffffffffffffffffffff16815260200184151515158152602001838103835287818151815260200191508051906020019080838360005b8381101561085757808201518184015260208101905061083c565b50505050905090810190601f1680156108845780820380516001836020036101000a031916815260200191505b50838103825286818151815260200191508051906020019080838360005b838110156108bd5780820151818401526020810190506108a2565b50505050905090810190601f1680156108ea5780820380516001836020036101000a031916815260200191505b50965050505050505060405180910390f35b610904611616565b604051808273ffffffffffffffffffffffffffffffffffffffff1673ffffffffffffffffffffffffffffffffffffffff16815260200191505060405180910390f35b61094e61163c565b604051808273ffffffffffffffffffffffffffffffffffffffff1673ffffffffffffffffffffffffffffffffffffffff16815260200191505060405180910390f35b6109bc600480360360208110156109a657600080fd5b8101908080359060200190929190505050611662565b6040518082815260200191505060405180910390f35b6109fe600480360360208110156109e857600080fd5b8101908080359060200190929190505050611683565b6040518080602001806020018881526020018773ffffffffffffffffffffffffffffffffffffffff1673ffffffffffffffffffffffffffffffffffffffff1681526020018673ffffffffffffffffffffffffffffffffffffffff1673ffffffffffffffffffffffffffffffffffffffff1681526020018581526020018415151515815260200183810383528a818151815260200191508051906020019080838360005b83811015610abc578082015181840152602081019050610aa1565b50505050905090810190601f168015610ae95780820380516001836020036101000a031916815260200191505b50838103825289818151815260200191508051906020019080838360005b83811015610b22578082015181840152602081019050610b07565b50505050905090810190601f168015610b4f5780820380516001836020036101000a031916815260200191505b50995050505050505050505060405180910390f35b610ba660048036036020811015610b7a57600080fd5b81019080803573ffffffffffffffffffffffffffffffffffffffff16906020019092919050505061184f565b604051808263ffffffff1663ffffffff16815260200191505060405180910390f35b610bf460048036036020811015610bde57600080fd5b8101908080359060200190929190505050611872565b6040518080602001806020018881526020018773ffffffffffffffffffffffffffffffffffffffff1673ffffffffffffffffffffffffffffffffffffffff1681526020018673ffffffffffffffffffffffffffffffffffffffff1673ffffffffffffffffffffffffffffffffffffffff1681526020018581526020018415151515815260200183810383528a818151815260200191508051906020019080838360005b83811015610cb2578082015181840152602081019050610c97565b50505050905090810190601f168015610cdf5780820380516001836020036101000a031916815260200191505b50838103825289818151815260200191508051906020019080838360005b83811015610d18578082015181840152602081019050610cfd565b50505050905090810190601f168015610d455780820380516001836020036101000a031916815260200191505b50995050505050505050505060405180910390f35b6008602052806000526040600020600091509050806000018054600181600116156101000203166002900480601f016020809104026020016040519081016040528092919081815260200182805460018160011615610100020316600290048015610e065780601f10610ddb57610100808354040283529160200191610e06565b820191906000526020600020905b815481529060010190602001808311610de957829003601f168201915b505050505090806001018054600181600116156101000203166002900480601f016020809104026020016040519081016040528092919081815260200182805460018160011615610100020316600290048015610ea45780601f10610e7957610100808354040283529160200191610ea4565b820191906000526020600020905b815481529060010190602001808311610e8757829003601f168201915b5050505050908060020154908060030160009054906101000a900473ffffffffffffffffffffffffffffffffffffffff16908060040160009054906101000a900473ffffffffffffffffffffffffffffffffffffffff16908060050154908060060160009054906101000a900460ff16905087565b600b60205281600052604060002060205280600052604060002060009150915050806000018054600181600116156101000203166002900480601f016020809104026020016040519081016040528092919081815260200182805460018160011615610100020316600290048015610fd25780601f10610fa757610100808354040283529160200191610fd2565b820191906000526020600020905b815481529060010190602001808311610fb557829003601f168201915b505050505090806001018054600181600116156101000203166002900480601f0160208091040260200160405190810160405280929190818152602001828054600181600116156101000203166002900480156110705780601f1061104557610100808354040283529160200191611070565b820191906000526020600020905b81548152906001019060200180831161105357829003601f168201915b5050505050908060020154908060030160009054906101000a900473ffffffffffffffffffffffffffffffffffffffff16908060040160009054906101000a900473ffffffffffffffffffffffffffffffffffffffff16908060050154908060060160009054906101000a900460ff16905087565b6000809054906101000a900473ffffffffffffffffffffffffffffffffffffffff1681565b6007818154811061111757fe5b9060005260206000209060030201600091509050806000018054600181600116156101000203166002900480601f0160208091040260200160405190810160405280929190818152602001828054600181600116156101000203166002900480156111c35780601f10611198576101008083540402835291602001916111c3565b820191906000526020600020905b8154815290600101906020018083116111a657829003601f168201915b505050505090806001018054600181600116156101000203166002900480601f0160208091040260200160405190810160405280929190818152602001828054600181600116156101000203166002900480156112615780601f1061123657610100808354040283529160200191611261565b820191906000526020600020905b81548152906001019060200180831161124457829003601f168201915b5050505050908060020160009054906101000a900473ffffffffffffffffffffffffffffffffffffffff16908060020160149054906101000a900460ff16905084565b6009602052806000526040600020600091509050806000018054600181600116156101000203166002900480601f0160208091040260200160405190810160405280929190818152602001828054600181600116156101000203166002900480156113505780601f1061132557610100808354040283529160200191611350565b820191906000526020600020905b81548152906001019060200180831161133357829003601f168201915b505050505090806001018054600181600116156101000203166002900480601f0160208091040260200160405190810160405280929190818152602001828054600181600116156101000203166002900480156113ee5780601f106113c3576101008083540402835291602001916113ee565b820191906000526020600020905b8154815290600101906020018083116113d157829003601f168201915b5050505050908060020154908060030160009054906101000a900473ffffffffffffffffffffffffffffffffffffffff16908060040160009054906101000a900473ffffffffffffffffffffffffffffffffffffffff16908060050154908060060160009054906101000a900460ff16905087565b600160009054906101000a900473ffffffffffffffffffffffffffffffffffffffff1681565b600a602052806000526040600020600091509050806000018054600181600116156101000203166002900480601f0160208091040260200160405190810160405280929190818152602001828054600181600116156101000203166002900480156115355780601f1061150a57610100808354040283529160200191611535565b820191906000526020600020905b81548152906001019060200180831161151857829003601f168201915b505050505090806001018054600181600116156101000203166002900480601f0160208091040260200160405190810160405280929190818152602001828054600181600116156101000203166002900480156115d35780601f106115a8576101008083540402835291602001916115d3565b820191906000526020600020905b8154815290600101906020018083116115b657829003601f168201915b5050505050908060020160009054906101000a900473ffffffffffffffffffffffffffffffffffffffff16908060020160149054906101000a900460ff16905084565b600360009054906101000a900473ffffffffffffffffffffffffffffffffffffffff1681565b600260009054906101000a900473ffffffffffffffffffffffffffffffffffffffff1681565b6004818154811061166f57fe5b906000526020600020016000915090505481565b6006818154811061169057fe5b9060005260206000209060070201600091509050806000018054600181600116156101000203166002900480601f01602080910402602001604051908101604052809291908181526020018280546001816001161561010002031660029004801561173c5780601f106117115761010080835404028352916020019161173c565b820191906000526020600020905b81548152906001019060200180831161171f57829003601f168201915b505050505090806001018054600181600116156101000203166002900480601f0160208091040260200160405190810160405280929190818152602001828054600181600116156101000203166002900480156117da5780601f106117af576101008083540402835291602001916117da565b820191906000526020600020905b8154815290600101906020018083116117bd57829003601f168201915b5050505050908060020154908060030160009054906101000a900473ffffffffffffffffffffffffffffffffffffffff16908060040160009054906101000a900473ffffffffffffffffffffffffffffffffffffffff16908060050154908060060160009054906101000a900460ff16905087565b600c6020528060005260406000206000915054906101000a900463ffffffff1681565b6005818154811061187f57fe5b9060005260206000209060070201600091509050806000018054600181600116156101000203166002900480601f01602080910402602001604051908101604052809291908181526020018280546001816001161561010002031660029004801561192b5780601f106119005761010080835404028352916020019161192b565b820191906000526020600020905b81548152906001019060200180831161190e57829003601f168201915b505050505090806001018054600181600116156101000203166002900480601f0160208091040260200160405190810160405280929190818152602001828054600181600116156101000203166002900480156119c95780601f1061199e576101008083540402835291602001916119c9565b820191906000526020600020905b8154815290600101906020018083116119ac57829003601f168201915b5050505050908060020154908060030160009054906101000a900473ffffffffffffffffffffffffffffffffffffffff16908060040160009054906101000a900473ffffffffffffffffffffffffffffffffffffffff16908060050154908060060160009054906101000a900460ff1690508756fea165627a7a7230582097cbde217036f1402d18cd62905a23e0ec651ccabb10de8e7751d3955bb88bb80029",
  "source": "pragma solidity ^ 0.5.0;\n\n/** \n * @title Document Registration \n * @author Yakko Majuri\n * @notice Contract DocumentRegistration handles registrations of users and documents\n * as well as authentication\n * @dev Storage and Logic separated for the purpose of the upgradability pattern\n*/\n\ncontract FeePool {\n\n    function incrementPool() public {}\n\n}\n\ncontract Owners {\n\n    function getOwners(address _ad) public view returns(bool) { }\n\n}\n\n\ncontract CertfyToken {\n\n    function distributeTokens(address account) external returns(bool) { }\n\n}\n\n\ncontract Storage {\n\n    /// Declares the other contracts that interoperate with DocumentRegistration\n    CertfyToken public tokenContract;\n    Owners public ownerContract;\n    FeePool public feePoolContract;\n\n    // Address 'current' receives fees from the platform directly    \n    address payable public current;\n\n    // Establishes the prices for different actions on the platform\n    uint[] public prices;\n\n    // Declares arrays of the existing structs to allow for iterability\n    Document[] public temporaryDocs;\n    Document[] public documents;\n    Registrant[] public registrants;\n\n    // Maps an identifying 'bytes32' value to Documents and Temporary Documents\n    mapping(bytes32 => Document) public temporaryRegistry;\n    mapping(bytes32 => Document) public registry;\n\n    // Verified Addresses have submitted an attestation to their real-world identity\n    mapping(address => Registrant) public verifiedAddress;\n\n    // Keeps track of the documents registered by each address\n    mapping(address => mapping(uint32 => Document)) public userDocs;\n    mapping(address => uint32) public docsPerUser;\n\n    // Number utilized to prevent clashes between documents of the same name\n    mapping(string => uint32) temporaryIndex;\n    mapping(string => uint32) nameIndex;\n\n    // Used for initialization of the contract, since it should not have a constructor \n    // due to the proxy implementation\n    bool ownersSet;\n\n    // Each Document registered on the platform will feature this information\n    struct Document {\n        string name;\n        string metadata;\n        uint timestamp;\n        address registrant;\n        address signee;\n        bytes32 hash;\n        bool isEntity;\n    }\n    \n    // Used to submit attestations to identity for each address\n    struct Registrant {\n        string name;\n        string description;\n        address user;\n        bool isEntity;\n    }\n\n    // Allows the client to get the index of the document and display to the user \n    event LogDocumentIndex(uint index);\n    event LogTemporaryIndex(uint index);\n\n    // Calls the separate 'Owners' contract to verify if 'msg.sender' is an owner\n    modifier onlyOwners() {\n        require(ownerContract.getOwners(msg.sender));\n        _;\n    }\n\n}\n\ncontract DocumentRegistration is Storage {\n\n    // Do not accept ETH\n    function() external payable { revert(); }\n\n    /** \n     * @notice Part of initialization for the contract - sets address for 'Owners' contract\n     * @param _ownerContract Address of 'Owners'\n     * @dev Initialization must be done separately because contract cannot have a constructor\n    */\n    function setOwnersContract(address _ownerContract) external {\n        require(ownersSet == false);\n        ownerContract = Owners(_ownerContract);\n        ownersSet = true;\n    }\n\n    /** \n     * @notice Part of initialization for the contract - sets address for 'CertfyToken' contract\n     * @param _tokenContract Address of 'CertfyToken'\n     * @dev Initialization must be done separately because contract cannot have a constructor\n    */\n    function setTokenContract(address _tokenContract) external onlyOwners {\n        tokenContract = CertfyToken(_tokenContract);\n    }\n\n    /** \n     * @notice Part of initialization for the contract - sets prices for actions on the platform\n     * @param _prices Array with the respective prices in order\n     * @dev Prices are in wei - Should be taken into account on the client\n    */\n    function setPrices(uint[] calldata _prices) external onlyOwners {\n        prices = _prices;\n    }\n\n    /** \n     * @notice Change one specific price\n     * @param _index Index of price to change in array\n     * @param _price New price\n    */\n    /*\n    function setPrice(uint8 _index, uint128 _price) external onlyOwners {\n        prices[_index] = _price;\n    }\n*/\n    \n    /** \n     * @notice Sets the 'current' address which receives fees\n     * @param _current Address to receive payments\n    */\n    function setCurrent(address payable _current) external onlyOwners {\n        current = _current;\n    }\n\n    /** \n     * @notice Sets the 'FeePool' contract address which receives ETH from fees\n     * @param _contractAddress FeePool address\n    */\n    function setPoolContract(address payable _contractAddress) external onlyOwners {\n        feePoolContract = FeePool(_contractAddress);\n    }\n\n\n    /** \n     * @notice Creates a new simple document registration\n     * @param _name User-assigned name for document\n     * @param _metadata A description or any other form of public metadata about the document\n     * @param _fileHash Fed by the client - hash of the file uploaded by the user (could also be IPFS hash)\n     * @dev The hash of user-determined \"name\" and contract-determined \"index\" are mapped to each document\n     * such that finding registrations can make use of human-readable names\n    */\n    function registerDocument(\n        string calldata _name,\n        string calldata _metadata,\n        bytes32 _fileHash\n    )\n    external\n    payable {\n        require(msg.value == prices[1],\n            \"wrong value\");\n        current.transfer(msg.value/2);\n        address fp = address(feePoolContract);\n        address payable feePool = address(uint160(fp));\n        feePool.transfer(msg.value/2);\n        bytes32 hash = keccak256(abi.encodePacked(_name, nameIndex[_name]));\n        userDocs[msg.sender][docsPerUser[msg.sender]] = registry[hash] = Document(\n            _name,\n            _metadata,\n            block.timestamp,\n            msg.sender,\n            address(0),\n            _fileHash,\n            true\n        );\n        documents.push(Document(\n            _name,\n            _metadata,\n            block.timestamp,\n            msg.sender,\n            address(0),\n            _fileHash,\n            true\n        ));\n        nameIndex[_name]++;\n        docsPerUser[msg.sender]++;\n        emit LogDocumentIndex(nameIndex[_name] - 1);\n        tokenContract.distributeTokens(msg.sender);\n        feePoolContract.incrementPool();\n    }\n\n    /** \n     * @notice Initiates a multi-sig registration, currently only available for two parties\n     * @param _name User-assigned name for document\n     * @param _metadata A description or any other form of public metadata about the document\n     * @param _fileHash Fed by the client - hash of the file uploaded by the user (could also be IPFS hash)\n     * @param _signee Second address which must sign the registration\n     * @dev Document is added to a \"temporary registry\" and awaits the second signature before being \n     * added to the final document registry\n    */\n    function registerMultiSig(\n        string calldata _name,\n        string calldata _metadata,\n        bytes32 _fileHash,\n        address _signee\n    )\n    external\n    payable\n    {\n        require(msg.value == prices[2] / 2);\n        current.transfer(msg.value/2);\n        address fp = address(feePoolContract);\n        address payable feePool = address(uint160(fp));\n        feePool.transfer(msg.value/2);\n        bytes32 hash = keccak256(abi.encodePacked(_name, temporaryIndex[_name])); // temporaryIndex is separate from nameIndex\n        temporaryRegistry[hash] = Document(\n            _name,\n            _metadata,\n            block.timestamp,\n            msg.sender,\n            _signee,\n            _fileHash,\n            true\n        );\n        temporaryDocs.push(Document(\n            _name,\n            _metadata,\n            block.timestamp,\n            msg.sender,\n            _signee,\n            _fileHash,\n            true\n        ));\n        temporaryIndex[_name]++; // Allow temporary registrations under the same name\n        emit LogTemporaryIndex(temporaryIndex[_name] - 1);\n        tokenContract.distributeTokens(msg.sender);\n        feePoolContract.incrementPool();\n    }\n\n    /** \n     * @notice Signs an existing temporary registration\n     * @param _name Name of the document to be signed\n     * @param _temporaryIndex Index of the document to be signed\n     * @dev If msg.sender is the desginated signee the registration is added to the true document registry\n    */\n    function signDocument(\n        string calldata _name,\n        uint32 _temporaryIndex\n    )\n    external\n    payable\n    {\n        require(msg.value == prices[2] / 2, \n        \"the price aint right\");\n        bytes32 temporaryHash = keccak256(abi.encodePacked(_name, _temporaryIndex));\n        bytes32 permanentHash = keccak256(abi.encodePacked(_name, nameIndex[_name]));\n        require(registry[permanentHash].isEntity == false,\n        \"document already exists\");\n        require(temporaryRegistry[temporaryHash].isEntity,\n        \"temporary document was not registered\");\n        address signee = temporaryRegistry[temporaryHash].signee;\n        address registrant = temporaryRegistry[temporaryHash].registrant;\n        require(signee == msg.sender,\n        \"msg.sender is not signee\");\n        current.transfer(msg.value/2);\n        address fp = address(feePoolContract);\n        address payable feePool = address(uint160(fp));\n        feePool.transfer(msg.value/2);\n        userDocs[registrant][docsPerUser[registrant]] = userDocs[msg.sender][docsPerUser[msg.sender]] = registry[permanentHash] = Document(\n            temporaryRegistry[temporaryHash].name,\n            temporaryRegistry[temporaryHash].metadata,\n            block.timestamp,\n            temporaryRegistry[temporaryHash].registrant,\n            signee,\n            temporaryRegistry[temporaryHash].hash,\n            true\n        );\n        documents.push(Document(\n            temporaryRegistry[temporaryHash].name,\n            temporaryRegistry[temporaryHash].metadata,\n            block.timestamp,\n            temporaryRegistry[temporaryHash].registrant,\n            signee,\n            temporaryRegistry[temporaryHash].hash,\n            true\n        ));\n        nameIndex[_name]++;\n        docsPerUser[signee]++;\n        docsPerUser[msg.sender]++;\n        emit LogDocumentIndex(nameIndex[_name] - 1);\n        tokenContract.distributeTokens(msg.sender);\n        feePoolContract.incrementPool();\n    }\n\n\n    /** \n     * @notice Allows users to link their address to a real-world identity\n     * @param _name Name of the person/entity behind the address\n     * @param _description A field for providing evidence of the identity\n     * Evidence could take multiple forms, such as: \n     * - URL of the company website where it states the address is owned by the company\n     * - IPFS hash of a picture holding a paper with the address written on it\n    */\n    function registerAddress(\n        string calldata _name,\n        string calldata _description\n    )\n    external\n    payable {\n        require(msg.value == prices[1]);\n        current.transfer(msg.value/2);\n        address fp = address(feePoolContract);\n        address payable feePool = address(uint160(fp));\n        feePool.transfer(msg.value/2);\n        verifiedAddress[msg.sender] = Registrant(\n            _name,\n            _description,\n            msg.sender,\n            true);\n        registrants.push(Registrant(_name, _description, msg.sender, true));\n        tokenContract.distributeTokens(msg.sender);\n        feePoolContract.incrementPool();\n    }\n\n    /** \n     * @notice Allows users to update information about their identity\n     * @param _name Name of the person/entity behind the address\n     * @param _description A field for providing evidence of the identity\n     * @dev Previous identity specified can still be found\n     * @dev Costs a fee to prevent constant identity updates\n    */\n    function updateInfo(\n        string memory _name,\n        string memory _description\n    )\n    public\n    payable {\n        require(msg.value == prices[3]);\n        require(verifiedAddress[msg.sender].isEntity);\n        current.transfer(msg.value/2);\n        address fp = address(feePoolContract);\n        address payable feePool = address(uint160(fp));\n        feePool.transfer(msg.value/2);\n        verifiedAddress[msg.sender].name = _name;\n        verifiedAddress[msg.sender].description = _description;\n        registrants.push(Registrant(_name, _description, msg.sender, true));\n        feePoolContract.incrementPool();\n    }\n\n\n    /** \n     * @notice Checks if two documents (hashes) are the same\n     * @param _name Name of the document\n     * @param _nameIndex Index of the document\n     * @param _fileHash Hash of the file being tested, fed by the client\n     * @dev File hash of the specified document is pulled and compared to the supplied hash\n     * @return Returns a boolean specifying if the hashes match or not\n    */\n    function verifyDocument(\n        string calldata _name,\n        uint32 _nameIndex,\n        bytes32 _fileHash\n    )\n    external\n    view\n    returns(bool) {\n        bytes32 hash = keccak256(abi.encodePacked(_name, _nameIndex));\n        if (registry[hash].hash == _fileHash) {\n            return true;\n        } else {\n            return false;\n        }\n    }\n\n    /** \n     * @notice Pulls the data for a temporary registration\n     * @notice Useful for verifying data before signing it \n     * @param _name Name of the document\n     * @param _index Index of the document\n     * @return Returns all information about a temporary registration\n    */\n    function checkTemporary(string calldata _name, uint32 _index)\n    external\n    view\n    returns(\n        string memory,\n        uint,\n        address,\n        address,\n        bytes32\n    ) {\n        bytes32 hash = keccak256(abi.encodePacked(_name, _index));\n        return (\n            temporaryRegistry[hash].metadata,\n            temporaryRegistry[hash].timestamp,\n            temporaryRegistry[hash].registrant,\n            temporaryRegistry[hash].signee,\n            temporaryRegistry[hash].hash\n        );\n    }\n\n    /** \n     * @notice Pulls the data for a document registration\n     * @param _name Name of the document\n     * @param _nameIndex Index of the document\n     * @return Returns all information about a document registration\n    */\n    function documentQuery(string calldata _name, uint32 _nameIndex)\n    external\n    view\n    returns(string memory, uint, address, address) {\n        bytes32 hash = keccak256(abi.encodePacked(_name, _nameIndex));\n        return (\n            registry[hash].metadata,\n            registry[hash].timestamp,\n            registry[hash].registrant,\n            registry[hash].signee\n        );\n    }\n\n}",
  "sourcePath": "/Users/yakkomajuri/GitHub/bootcamp-finalproject/eth/contracts/DocumentRegistration.sol",
  "compiler": {
    "name": "solc",
    "version": "0.5.8+commit.23d335f2.Emscripten.clang"
  },
  "schemaVersion": "3.0.11",
  "updatedAt": "2019-07-31T03:17:07.758Z",
  "devdoc": {
    "methods": {}
  },
  "userdoc": {
    "methods": {}
  }
}