{
  "contractName": "Storage",
  "abi": [
    {
      "constant": true,
      "inputs": [
        {
          "name": "",
          "type": "bytes32"
        }
      ],
      "name": "temporaryRegistry",
      "outputs": [
        {
          "name": "name",
          "type": "string"
        },
        {
          "name": "metadata",
          "type": "string"
        },
        {
          "name": "timestamp",
          "type": "uint256"
        },
        {
          "name": "registrant",
          "type": "address"
        },
        {
          "name": "signee",
          "type": "address"
        },
        {
          "name": "hash",
          "type": "bytes32"
        },
        {
          "name": "isEntity",
          "type": "bool"
        }
      ],
      "payable": false,
      "stateMutability": "view",
      "type": "function"
    },
    {
      "constant": true,
      "inputs": [
        {
          "name": "",
          "type": "address"
        },
        {
          "name": "",
          "type": "uint32"
        }
      ],
      "name": "userDocs",
      "outputs": [
        {
          "name": "name",
          "type": "string"
        },
        {
          "name": "metadata",
          "type": "string"
        },
        {
          "name": "timestamp",
          "type": "uint256"
        },
        {
          "name": "registrant",
          "type": "address"
        },
        {
          "name": "signee",
          "type": "address"
        },
        {
          "name": "hash",
          "type": "bytes32"
        },
        {
          "name": "isEntity",
          "type": "bool"
        }
      ],
      "payable": false,
      "stateMutability": "view",
      "type": "function"
    },
    {
      "constant": true,
      "inputs": [
        {
          "name": "",
          "type": "uint256"
        }
      ],
      "name": "registrants",
      "outputs": [
        {
          "name": "name",
          "type": "string"
        },
        {
          "name": "description",
          "type": "string"
        },
        {
          "name": "user",
          "type": "address"
        },
        {
          "name": "isEntity",
          "type": "bool"
        }
      ],
      "payable": false,
      "stateMutability": "view",
      "type": "function"
    },
    {
      "constant": true,
      "inputs": [
        {
          "name": "",
          "type": "bytes32"
        }
      ],
      "name": "registry",
      "outputs": [
        {
          "name": "name",
          "type": "string"
        },
        {
          "name": "metadata",
          "type": "string"
        },
        {
          "name": "timestamp",
          "type": "uint256"
        },
        {
          "name": "registrant",
          "type": "address"
        },
        {
          "name": "signee",
          "type": "address"
        },
        {
          "name": "hash",
          "type": "bytes32"
        },
        {
          "name": "isEntity",
          "type": "bool"
        }
      ],
      "payable": false,
      "stateMutability": "view",
      "type": "function"
    },
    {
      "constant": true,
      "inputs": [
        {
          "name": "",
          "type": "address"
        }
      ],
      "name": "verifiedAddress",
      "outputs": [
        {
          "name": "name",
          "type": "string"
        },
        {
          "name": "description",
          "type": "string"
        },
        {
          "name": "user",
          "type": "address"
        },
        {
          "name": "isEntity",
          "type": "bool"
        }
      ],
      "payable": false,
      "stateMutability": "view",
      "type": "function"
    },
    {
      "constant": true,
      "inputs": [],
      "name": "current",
      "outputs": [
        {
          "name": "",
          "type": "address"
        }
      ],
      "payable": false,
      "stateMutability": "view",
      "type": "function"
    },
    {
      "constant": true,
      "inputs": [
        {
          "name": "",
          "type": "uint256"
        }
      ],
      "name": "prices",
      "outputs": [
        {
          "name": "",
          "type": "uint128"
        }
      ],
      "payable": false,
      "stateMutability": "view",
      "type": "function"
    },
    {
      "constant": true,
      "inputs": [
        {
          "name": "",
          "type": "uint256"
        }
      ],
      "name": "documents",
      "outputs": [
        {
          "name": "name",
          "type": "string"
        },
        {
          "name": "metadata",
          "type": "string"
        },
        {
          "name": "timestamp",
          "type": "uint256"
        },
        {
          "name": "registrant",
          "type": "address"
        },
        {
          "name": "signee",
          "type": "address"
        },
        {
          "name": "hash",
          "type": "bytes32"
        },
        {
          "name": "isEntity",
          "type": "bool"
        }
      ],
      "payable": false,
      "stateMutability": "view",
      "type": "function"
    },
    {
      "constant": true,
      "inputs": [
        {
          "name": "",
          "type": "address"
        }
      ],
      "name": "docsPerUser",
      "outputs": [
        {
          "name": "",
          "type": "uint32"
        }
      ],
      "payable": false,
      "stateMutability": "view",
      "type": "function"
    },
    {
      "constant": true,
      "inputs": [
        {
          "name": "",
          "type": "uint256"
        }
      ],
      "name": "temporaryDocs",
      "outputs": [
        {
          "name": "name",
          "type": "string"
        },
        {
          "name": "metadata",
          "type": "string"
        },
        {
          "name": "timestamp",
          "type": "uint256"
        },
        {
          "name": "registrant",
          "type": "address"
        },
        {
          "name": "signee",
          "type": "address"
        },
        {
          "name": "hash",
          "type": "bytes32"
        },
        {
          "name": "isEntity",
          "type": "bool"
        }
      ],
      "payable": false,
      "stateMutability": "view",
      "type": "function"
    },
    {
      "anonymous": false,
      "inputs": [
        {
          "indexed": false,
          "name": "index",
          "type": "uint256"
        }
      ],
      "name": "DocumentIndex",
      "type": "event"
    }
  ],
  "bytecode": "0x608060405234801561001057600080fd5b5061192f806100206000396000f3fe608060405234801561001057600080fd5b506004361061009e5760003560e01c80639fa6a6e3116100665780639fa6a6e314610837578063bc31c1c114610881578063c2ed2b05146108e7578063c62c8ce714610a79578063fde628a214610add5761009e565b806345675464146100a35780634655948b146102355780636ac4d582146103ed5780637ef502981461053e57806393d4457a146106d0575b600080fd5b6100cf600480360360208110156100b957600080fd5b8101908080359060200190929190505050610c6f565b6040518080602001806020018881526020018773ffffffffffffffffffffffffffffffffffffffff1673ffffffffffffffffffffffffffffffffffffffff1681526020018673ffffffffffffffffffffffffffffffffffffffff1673ffffffffffffffffffffffffffffffffffffffff1681526020018581526020018415151515815260200183810383528a818151815260200191508051906020019080838360005b8381101561018d578082015181840152602081019050610172565b50505050905090810190601f1680156101ba5780820380516001836020036101000a031916815260200191505b50838103825289818151815260200191508051906020019080838360005b838110156101f35780820151818401526020810190506101d8565b50505050905090810190601f1680156102205780820380516001836020036101000a031916815260200191505b50995050505050505050505060405180910390f35b6102876004803603604081101561024b57600080fd5b81019080803573ffffffffffffffffffffffffffffffffffffffff169060200190929190803563ffffffff169060200190929190505050610e2e565b6040518080602001806020018881526020018773ffffffffffffffffffffffffffffffffffffffff1673ffffffffffffffffffffffffffffffffffffffff1681526020018673ffffffffffffffffffffffffffffffffffffffff1673ffffffffffffffffffffffffffffffffffffffff1681526020018581526020018415151515815260200183810383528a818151815260200191508051906020019080838360005b8381101561034557808201518184015260208101905061032a565b50505050905090810190601f1680156103725780820380516001836020036101000a031916815260200191505b50838103825289818151815260200191508051906020019080838360005b838110156103ab578082015181840152602081019050610390565b50505050905090810190601f1680156103d85780820380516001836020036101000a031916815260200191505b50995050505050505050505060405180910390f35b6104196004803603602081101561040357600080fd5b8101908080359060200190929190505050610ffa565b6040518080602001806020018573ffffffffffffffffffffffffffffffffffffffff1673ffffffffffffffffffffffffffffffffffffffff16815260200184151515158152602001838103835287818151815260200191508051906020019080838360005b8381101561049957808201518184015260208101905061047e565b50505050905090810190601f1680156104c65780820380516001836020036101000a031916815260200191505b50838103825286818151815260200191508051906020019080838360005b838110156104ff5780820151818401526020810190506104e4565b50505050905090810190601f16801561052c5780820380516001836020036101000a031916815260200191505b50965050505050505060405180910390f35b61056a6004803603602081101561055457600080fd5b8101908080359060200190929190505050611194565b6040518080602001806020018881526020018773ffffffffffffffffffffffffffffffffffffffff1673ffffffffffffffffffffffffffffffffffffffff1681526020018673ffffffffffffffffffffffffffffffffffffffff1673ffffffffffffffffffffffffffffffffffffffff1681526020018581526020018415151515815260200183810383528a818151815260200191508051906020019080838360005b8381101561062857808201518184015260208101905061060d565b50505050905090810190601f1680156106555780820380516001836020036101000a031916815260200191505b50838103825289818151815260200191508051906020019080838360005b8381101561068e578082015181840152602081019050610673565b50505050905090810190601f1680156106bb5780820380516001836020036101000a031916815260200191505b50995050505050505050505060405180910390f35b610712600480360360208110156106e657600080fd5b81019080803573ffffffffffffffffffffffffffffffffffffffff169060200190929190505050611353565b6040518080602001806020018573ffffffffffffffffffffffffffffffffffffffff1673ffffffffffffffffffffffffffffffffffffffff16815260200184151515158152602001838103835287818151815260200191508051906020019080838360005b83811015610792578082015181840152602081019050610777565b50505050905090810190601f1680156107bf5780820380516001836020036101000a031916815260200191505b50838103825286818151815260200191508051906020019080838360005b838110156107f85780820151818401526020810190506107dd565b50505050905090810190601f1680156108255780820380516001836020036101000a031916815260200191505b50965050505050505060405180910390f35b61083f6114e0565b604051808273ffffffffffffffffffffffffffffffffffffffff1673ffffffffffffffffffffffffffffffffffffffff16815260200191505060405180910390f35b6108ad6004803603602081101561089757600080fd5b8101908080359060200190929190505050611505565b60405180826fffffffffffffffffffffffffffffffff166fffffffffffffffffffffffffffffffff16815260200191505060405180910390f35b610913600480360360208110156108fd57600080fd5b8101908080359060200190929190505050611548565b6040518080602001806020018881526020018773ffffffffffffffffffffffffffffffffffffffff1673ffffffffffffffffffffffffffffffffffffffff1681526020018673ffffffffffffffffffffffffffffffffffffffff1673ffffffffffffffffffffffffffffffffffffffff1681526020018581526020018415151515815260200183810383528a818151815260200191508051906020019080838360005b838110156109d15780820151818401526020810190506109b6565b50505050905090810190601f1680156109fe5780820380516001836020036101000a031916815260200191505b50838103825289818151815260200191508051906020019080838360005b83811015610a37578082015181840152602081019050610a1c565b50505050905090810190601f168015610a645780820380516001836020036101000a031916815260200191505b50995050505050505050505060405180910390f35b610abb60048036036020811015610a8f57600080fd5b81019080803573ffffffffffffffffffffffffffffffffffffffff169060200190929190505050611714565b604051808263ffffffff1663ffffffff16815260200191505060405180910390f35b610b0960048036036020811015610af357600080fd5b8101908080359060200190929190505050611737565b6040518080602001806020018881526020018773ffffffffffffffffffffffffffffffffffffffff1673ffffffffffffffffffffffffffffffffffffffff1681526020018673ffffffffffffffffffffffffffffffffffffffff1673ffffffffffffffffffffffffffffffffffffffff1681526020018581526020018415151515815260200183810383528a818151815260200191508051906020019080838360005b83811015610bc7578082015181840152602081019050610bac565b50505050905090810190601f168015610bf45780820380516001836020036101000a031916815260200191505b50838103825289818151815260200191508051906020019080838360005b83811015610c2d578082015181840152602081019050610c12565b50505050905090810190601f168015610c5a5780820380516001836020036101000a031916815260200191505b50995050505050505050505060405180910390f35b6005602052806000526040600020600091509050806000018054600181600116156101000203166002900480601f016020809104026020016040519081016040528092919081815260200182805460018160011615610100020316600290048015610d1b5780601f10610cf057610100808354040283529160200191610d1b565b820191906000526020600020905b815481529060010190602001808311610cfe57829003601f168201915b505050505090806001018054600181600116156101000203166002900480601f016020809104026020016040519081016040528092919081815260200182805460018160011615610100020316600290048015610db95780601f10610d8e57610100808354040283529160200191610db9565b820191906000526020600020905b815481529060010190602001808311610d9c57829003601f168201915b5050505050908060020154908060030160009054906101000a900473ffffffffffffffffffffffffffffffffffffffff16908060040160009054906101000a900473ffffffffffffffffffffffffffffffffffffffff16908060050154908060060160009054906101000a900460ff16905087565b600860205281600052604060002060205280600052604060002060009150915050806000018054600181600116156101000203166002900480601f016020809104026020016040519081016040528092919081815260200182805460018160011615610100020316600290048015610ee75780601f10610ebc57610100808354040283529160200191610ee7565b820191906000526020600020905b815481529060010190602001808311610eca57829003601f168201915b505050505090806001018054600181600116156101000203166002900480601f016020809104026020016040519081016040528092919081815260200182805460018160011615610100020316600290048015610f855780601f10610f5a57610100808354040283529160200191610f85565b820191906000526020600020905b815481529060010190602001808311610f6857829003601f168201915b5050505050908060020154908060030160009054906101000a900473ffffffffffffffffffffffffffffffffffffffff16908060040160009054906101000a900473ffffffffffffffffffffffffffffffffffffffff16908060050154908060060160009054906101000a900460ff16905087565b6004818154811061100757fe5b9060005260206000209060030201600091509050806000018054600181600116156101000203166002900480601f0160208091040260200160405190810160405280929190818152602001828054600181600116156101000203166002900480156110b35780601f10611088576101008083540402835291602001916110b3565b820191906000526020600020905b81548152906001019060200180831161109657829003601f168201915b505050505090806001018054600181600116156101000203166002900480601f0160208091040260200160405190810160405280929190818152602001828054600181600116156101000203166002900480156111515780601f1061112657610100808354040283529160200191611151565b820191906000526020600020905b81548152906001019060200180831161113457829003601f168201915b5050505050908060020160009054906101000a900473ffffffffffffffffffffffffffffffffffffffff16908060020160149054906101000a900460ff16905084565b6006602052806000526040600020600091509050806000018054600181600116156101000203166002900480601f0160208091040260200160405190810160405280929190818152602001828054600181600116156101000203166002900480156112405780601f1061121557610100808354040283529160200191611240565b820191906000526020600020905b81548152906001019060200180831161122357829003601f168201915b505050505090806001018054600181600116156101000203166002900480601f0160208091040260200160405190810160405280929190818152602001828054600181600116156101000203166002900480156112de5780601f106112b3576101008083540402835291602001916112de565b820191906000526020600020905b8154815290600101906020018083116112c157829003601f168201915b5050505050908060020154908060030160009054906101000a900473ffffffffffffffffffffffffffffffffffffffff16908060040160009054906101000a900473ffffffffffffffffffffffffffffffffffffffff16908060050154908060060160009054906101000a900460ff16905087565b6007602052806000526040600020600091509050806000018054600181600116156101000203166002900480601f0160208091040260200160405190810160405280929190818152602001828054600181600116156101000203166002900480156113ff5780601f106113d4576101008083540402835291602001916113ff565b820191906000526020600020905b8154815290600101906020018083116113e257829003601f168201915b505050505090806001018054600181600116156101000203166002900480601f01602080910402602001604051908101604052809291908181526020018280546001816001161561010002031660029004801561149d5780601f106114725761010080835404028352916020019161149d565b820191906000526020600020905b81548152906001019060200180831161148057829003601f168201915b5050505050908060020160009054906101000a900473ffffffffffffffffffffffffffffffffffffffff16908060020160149054906101000a900460ff16905084565b6000809054906101000a900473ffffffffffffffffffffffffffffffffffffffff1681565b6001818154811061151257fe5b9060005260206000209060029182820401919006601002915054906101000a90046fffffffffffffffffffffffffffffffff1681565b6003818154811061155557fe5b9060005260206000209060070201600091509050806000018054600181600116156101000203166002900480601f0160208091040260200160405190810160405280929190818152602001828054600181600116156101000203166002900480156116015780601f106115d657610100808354040283529160200191611601565b820191906000526020600020905b8154815290600101906020018083116115e457829003601f168201915b505050505090806001018054600181600116156101000203166002900480601f01602080910402602001604051908101604052809291908181526020018280546001816001161561010002031660029004801561169f5780601f106116745761010080835404028352916020019161169f565b820191906000526020600020905b81548152906001019060200180831161168257829003601f168201915b5050505050908060020154908060030160009054906101000a900473ffffffffffffffffffffffffffffffffffffffff16908060040160009054906101000a900473ffffffffffffffffffffffffffffffffffffffff16908060050154908060060160009054906101000a900460ff16905087565b60096020528060005260406000206000915054906101000a900463ffffffff1681565b6002818154811061174457fe5b9060005260206000209060070201600091509050806000018054600181600116156101000203166002900480601f0160208091040260200160405190810160405280929190818152602001828054600181600116156101000203166002900480156117f05780601f106117c5576101008083540402835291602001916117f0565b820191906000526020600020905b8154815290600101906020018083116117d357829003601f168201915b505050505090806001018054600181600116156101000203166002900480601f01602080910402602001604051908101604052809291908181526020018280546001816001161561010002031660029004801561188e5780601f106118635761010080835404028352916020019161188e565b820191906000526020600020905b81548152906001019060200180831161187157829003601f168201915b5050505050908060020154908060030160009054906101000a900473ffffffffffffffffffffffffffffffffffffffff16908060040160009054906101000a900473ffffffffffffffffffffffffffffffffffffffff16908060050154908060060160009054906101000a900460ff1690508756fea165627a7a723058209b466f6ff15556439f61aba346a295790e534dff65c84e69d8f323d0c10388010029",
  "source": "pragma solidity ^ 0.5 .0;\n\n\ncontract Owners {\n\n    function getOwners(address _ad) public view returns(bool) {}\n\n}\n\ncontract CertfyToken {\n    \n    function distributeTokens(address account) external returns (bool) {}\n\n}\n\ncontract Storage {\n\n        modifier onlyOwners() {\n            require(ownerContract.getOwners(msg.sender));\n                _;\n        }\n\n\n\n        struct Document {\n                string name;\n                string metadata;\n                uint timestamp;\n                address registrant;\n                address signee;\n                bytes32 hash;\n                bool isEntity;\n        }\n\n        struct Registrant {\n                string name;\n                string description;\n                address user;\n                bool isEntity;\n        }\n\n\n        address payable public current;\n\n        uint128[] public prices;\n\n        Document[] public temporaryDocs;\n        Document[] public documents;\n        Registrant[] public registrants;\n\n        mapping(bytes32 => Document) public temporaryRegistry;\n        mapping(bytes32 => Document) public registry;\n\n        mapping(address => Registrant) public verifiedAddress;\n\n        mapping(address => mapping(uint32 => Document)) public userDocs;\n        mapping(address => uint32) public docsPerUser;\n\n        mapping(string => uint32) temporaryIndex;\n        mapping(string => uint32) nameIndex;\n\n        bool ownersSet;\n\n        event DocumentIndex(uint index);\n\n        CertfyToken tokenContract;\n        Owners ownerContract;\n\n        address payable feePoolContract;\n}\n\n\ncontract DocumentRegistration is Storage {\n\n\n        function setTokenContract(address _contract) external onlyOwners {\n                tokenContract = CertfyToken(_contract);\n        }\n\n        function setOwnerContract(address _ownerContract) external {\n                require(ownersSet == false);\n                ownerContract = Owners(_ownerContract);\n                ownersSet = true;\n        }\n\n\n        function setPrices(uint128 _price1, uint128 _price2, uint128 _price3, uint128 _price4) external onlyOwners {\n                uint64 p = 1 ether/10000;\n                prices.push(_price1 * p);\n                prices.push(_price2 * p);\n                prices.push(_price3 * p);\n                prices.push(_price4 * p);\n        }\n\n        function setPrice(uint8 _index, uint128 _price) external onlyOwners {\n                prices[_index] = _price * 1 ether;\n        }\n\n        function setCurrent(address payable _current) external onlyOwners {\n                current = _current;\n        }\n\n        function registerDocument(\n                string calldata _name,\n                string calldata _metadata,\n                bytes32 _fileHash\n        )\n        external\n        payable {\n                require(msg.value == prices[1]);\n                current.transfer(msg.value);\n                feePoolContract.transfer(msg.value/2);\n                bytes32 hash = keccak256(abi.encodePacked(_name, nameIndex[_name]));\n                userDocs[msg.sender][docsPerUser[msg.sender]] = registry[hash] = Document(\n                        _name,\n                        _metadata,\n                        block.timestamp,\n                        msg.sender,\n                        address(0),\n                        _fileHash,\n                        true\n                );\n                documents.push(Document(\n                        _name,\n                        _metadata,\n                        block.timestamp,\n                        msg.sender,\n                        address(0),\n                        _fileHash,\n                        true\n                ));\n                nameIndex[_name]++;\n                docsPerUser[msg.sender]++;\n                tokenContract.distributeTokens(msg.sender);\n                emit DocumentIndex(nameIndex[_name] - 1);\n        }\n\n        function registerMultiSig(\n                string calldata _name,\n                string calldata _metadata,\n                bytes32 _fileHash,\n                address _signee\n        )\n        external\n        payable {\n                require(msg.value == prices[2] / 2);\n                current.transfer(msg.value);\n                feePoolContract.transfer(msg.value/2);\n                bytes32 hash = keccak256(abi.encodePacked(_name, temporaryIndex[_name])); // temporaryIndex is separate from nameIndex\n                temporaryRegistry[hash] = Document(\n                        _name,\n                        _metadata,\n                        block.timestamp,\n                        msg.sender,\n                        _signee,\n                        _fileHash,\n                        true\n                );\n                temporaryDocs.push(Document(\n                        _name,\n                        _metadata,\n                        block.timestamp,\n                        msg.sender,\n                        _signee,\n                        _fileHash,\n                        true\n                ));\n                temporaryIndex[_name]++; // Allow temporary registrations under the same name\n                tokenContract.distributeTokens(msg.sender);\n                emit DocumentIndex(temporaryIndex[_name] - 1);\n        }\n\n        function signDocument(string calldata _name, uint32 _temporaryIndex) external payable returns(uint) {\n                require(msg.value == prices[2] / 2);\n                current.transfer(msg.value);\n                feePoolContract.transfer(msg.value/2);\n                bytes32 temporaryHash = keccak256(abi.encodePacked(_name, _temporaryIndex));\n                bytes32 permanentHash = keccak256(abi.encodePacked(_name, nameIndex[_name]));\n                require(registry[permanentHash].isEntity == false);\n                require(temporaryRegistry[temporaryHash].isEntity);\n                address signee = temporaryRegistry[temporaryHash].signee;\n                address registrant = temporaryRegistry[temporaryHash].registrant;\n                require(signee == msg.sender);\n                // Next line could be flawed - not registering for one\n                userDocs[registrant][docsPerUser[registrant]] = userDocs[msg.sender][docsPerUser[msg.sender]] = registry[permanentHash] = Document(\n                        temporaryRegistry[temporaryHash].name,\n                        temporaryRegistry[temporaryHash].metadata,\n                        block.timestamp,\n                        temporaryRegistry[temporaryHash].registrant,\n                        signee,\n                        temporaryRegistry[temporaryHash].hash,\n                        true\n                );\n                documents.push(Document(\n                        temporaryRegistry[temporaryHash].name,\n                        temporaryRegistry[temporaryHash].metadata,\n                        block.timestamp,\n                        temporaryRegistry[temporaryHash].registrant,\n                        signee,\n                        temporaryRegistry[temporaryHash].hash,\n                        true\n                ));\n                nameIndex[_name]++;\n                docsPerUser[signee]++;\n                docsPerUser[msg.sender]++;\n                tokenContract.distributeTokens(msg.sender);\n                emit DocumentIndex(nameIndex[_name] - 1);\n        }\n\n        function registerAddress(\n                string calldata _name,\n                string calldata _description\n        )\n        external\n        payable {\n                require(msg.value == prices[1]);\n                current.transfer(msg.value);\n                feePoolContract.transfer(msg.value/2);\n                verifiedAddress[msg.sender] = Registrant(\n                        _name,\n                        _description,\n                        msg.sender,\n                        true);\n                registrants.push(Registrant(_name, _description, msg.sender, true));\n        }\n\n        function updateInfo(\n                string memory _name,\n                string memory _description\n        )\n        public\n        payable {\n                require(msg.value == prices[3]);\n                require(verifiedAddress[msg.sender].isEntity);\n                current.transfer(msg.value/2);\n                feePoolContract.transfer(msg.value/2);\n                verifiedAddress[msg.sender].name = _name;\n                verifiedAddress[msg.sender].description = _description;\n                registrants.push(Registrant(_name, _description, msg.sender, true));\n        }\n\n        function verifyDocument(string calldata _name, uint32 _nameIndex, bytes32 _fileHash) external view returns(bool) {\n                bytes32 hash = keccak256(abi.encodePacked(_name, _nameIndex));\n                if (registry[hash].hash == _fileHash) {\n                        return true;\n                } else {\n                        return false;\n                }\n        }\n\n    function checkTemporary(string calldata _name, uint32 _index)\n    external\n    view\n    returns(string memory, uint, address, address, bytes32) {\n        bytes32 hash = keccak256(abi.encodePacked(_name, _index));\n        return (\n            temporaryRegistry[hash].metadata,\n            temporaryRegistry[hash].timestamp,\n            temporaryRegistry[hash].registrant,\n            temporaryRegistry[hash].signee,\n            temporaryRegistry[hash].hash\n        );\n    }\n\n    function documentQuery(string calldata _name, uint32 _nameIndex)\n    external\n    view\n    returns(string memory, uint, address, address) {\n        bytes32 hash = keccak256(abi.encodePacked(_name, _nameIndex));\n        return (\n            registry[hash].metadata,\n            registry[hash].timestamp,\n            registry[hash].registrant,\n            registry[hash].signee\n        );\n    }\n\n        function setPoolContract(address payable _contract) external onlyOwners {\n                feePoolContract = _contract;\n        }\n}\n",
  "sourcePath": "/Users/yakkomajuri/GitHub/bootcamp-finalproject/eth/contracts/DocumentRegistration.sol",
  "compiler": {
    "name": "solc",
    "version": "0.5.8+commit.23d335f2.Emscripten.clang"
  },
  "schemaVersion": "3.0.11",
  "updatedAt": "2019-07-28T23:12:58.644Z",
  "devdoc": {
    "methods": {}
  },
  "userdoc": {
    "methods": {}
  }
}